:02000004080AE8
:1000000000000A0894170A08000005000600050110
:080010000402E80300000000F7
:100018006C140A0809480A4908B5884205D0094AF3
:10002800824202D0121A01F0BDF90748074A00219E
:10003800121A01F0C2F9064808BD00BF00030020EB
:1000480004170A086803002068030020F00800204D
:10005800F008002070B500F079FF074B074C1E46EA
:10006800E41AA4080025A54204D056F8253098477C
:100078000135F8E770BD00BFD0160A0800170A0856
:1000880000F014B808B500F019F8BDE8084000F011
:100098001FBF00F08FB900F095B90078B0FA80F072
:1000A800400970470123037070470000024B00218C
:1000B800188800F09BBF00BF700300201FB5134BCA
:1000C800188800F0A4FF01281BD1114B00221B78CF
:1000D80010498DF8003002A83C2300F0F5FA039C83
:1000E8007CB16368013B63605BB9236820469B6809
:1000F8009847A368013BA3601BB923682046DB68C7
:100108009847322000F076F904B010BD7003002043
:100118006C03002080140A08024B00221A7000F0B9
:1001280023B800BF6C03002008B5024B1B681B6B8B
:10013800019308BDD001060808B5024B1B68DB6EA9
:10014800019308BDB801060808B5024B1B685B6837
:10015800019308BD9C01060808B5024B1B685B6942
:10016800019308BD9C01060808B5024B1B681B6873
:10017800019308BDB001060808B5024B1B689B68CF
:10018800019308BDB001060808B5024B1B68DB687F
:10019800019308BDB001060808B5024B1B685B69EE
:1001A800019308BDB001060808B5024B1B681B6E19
:1001B800019308BDAC01060808B5024B1B685B6ECD
:1001C800019308BDAC01060808B5024B1B689B6E7D
:1001D800019308BDAC01060808B5024B1B68DB6E2D
:1001E800019308BDAC01060808B5024B1B681B6FDC
:1001F800019308BDAC01060808B5024B1B685B6F8C
:10020800019308BDAC01060808B5034B1B68D3F879
:100218008030019308BD0000AC01060808B5024B08
:100228001B68DB69019308BDB401060808B5024BD9
:100238001B681B6A019308BDB401060808B5024B88
:100248001B689B69019308BDC401060808B5024BE9
:100258001B685B6A019308BDC401060808B5024B18
:100268001B689B6A019308BDC401060808B5024BC8
:100278001B68DB6A019308BDC401060808B5024B78
:100288001B681B6B019308BDC401060808B5024B27
:100298001B685B6B019308BDC401060808B5024BD7
:1002A8001B689B6B019308BDC401060808B5024B87
:1002B8001B681B6C019308BDC401060808B5024BF6
:1002C8001B681B68019308BDD801060808B5024BD6
:1002D8001B681B69019308BDD801060808B5024BC5
:1002E8001B685B69019308BDD801060808B5024B75
:1002F8001B689B69019308BDD801060808B5024B25
:100308001B68DB69019308BDD801060808B5024BD4
:100318001B681B6A019308BDD801060808B5024B83
:100328001B685B68019308BDA401060808B5024B69
:100338001B685B69019308BDA401060808B5024B58
:100348001B68DB6C019308BDA401060808B5024BC5
:100358001B685B6D019308BDA401060808B5034B33
:100368001B68D3F89030019308BD0000A40106086B
:1003780008B5034B1B68D3F89C30019308BD0000F7
:10038800A401060808B5024B1B681B6A019308BD47
:10039800CC01060808B5024B1B68DB6B019308BD4E
:1003A800CC01060808B5024B1B681B69019308BD00
:1003B800C801060808B5024B1B681B68019308BDF5
:1003C800A001060808B5024B1B685B68019308BDCD
:1003D800A001060808B5024B1B68DB6A019308BD3B
:1003E800A001060808B5024B1B681B6B019308BDEA
:1003F800A00106080021FFF799BF10B583680446DD
:100408000BB900F076FEC3689847A3681BB10322B6
:100418002146204698472046BDE81040FFF73BBEDE
:1004280070470020704710B50446FFF734FE204699
:1004380010BD08B508B1FFF7F6FF08BD10B5836811
:10044800044613B1032201469847204610BD38B52B
:10045800C468D4B12378022B02D1E068FFF7B2FF59
:1004680065682DB12846FFF7E9FF2846FFF713FE18
:10047800A5682DB12846FFF7E1FF2846FFF70BFED8
:100488002046BDE83840FFF706BE38BD38B50468D9
:1004980005467CB16368013B63605BB9236820460D
:1004A8009B689847A368013BA3601BB92368204653
:1004B800DB689847284638BD13B5044691E805001F
:1004C80000234B600B602060626001A801930093D9
:1004D800FFF7DCFF204602B010BD0B68036013B1C4
:1004E8005A6801325A607047F7B50C4606460F46FF
:1004F80054F8043B02AD45F8083D214601A8FFF732
:10050800ECFF29463046FFF7D7FF01A8FFF7BEFFEB
:100518002046FFF7BBFF3846FFF7BDFD304603B066
:10052800F0BD13B50B46044603C88DE8030093E8F5
:10053800030084E803009DE8030083E8030002B099
:1005480010BD826810B50AB900F0D3FDC368BDE8D4
:100558001040184708B5006800F11001FFF7F1FFD7
:1005680008BD826810B50AB900F0C3FDC368BDE8CC
:100578001040184708B5006800F11001FFF7F1FFB7
:1005880008BD38B5002383608B6804460D462BB13F
:1005980002229847EB68E360AB68A360204638BD49
:1005A8002DE9F0414FF69C7304684FF0020086B0C5
:1005B800B1F904208B8000230F688DF800300B60A0
:1005C800D4E84F1F994203D1C4E8450F002DF7D155
:1005D80002D08DF800106BE014F10C051CBFE76029
:1005E8002282BFF35F8F18BF1F4601236370BFF3DA
:1005F8005F8F04F10803002053E8006F43E800020E
:10060800002AF9D1BFF35F8F002E51D0FFF796FE75
:1006180020B129463046FFF794FF43E0314668464B
:10062800FFF7AFFFE068B4F9105008B100F0F6FE2C
:1006380004901020ADF81450FFF72BFD054630B399
:100648004FF00008C0F808801820FFF722FD044684
:10065800C0B1C0F8088001466846FFF762FF029BF8
:10066800A268A360039B0292E268E360BDF81430BD
:100678000392A3824FF69C73ADF81430049BCDF817
:10068800108023610D4B2C60EB600D4BAB60049820
:10069800FFF798FE6846FFF7D1FE00222946094871
:1006A800FFF754FE3046FFF7C9FE3046FFF7F3FC6C
:1006B8003846FFF787FE06B0BDE8F0815D050A08F9
:1006C800B9070A0803040A082DE9F04F8BB007ADF3
:1006D8004FF0000B0646994614200C230F4690460F
:1006E8009DF850A0C5F804B0C5F808B00793FFF707
:1006F800D0FC044638B180F800B080F801B0C0F8EA
:1007080004B0C0F808B00023102003940493FFF746
:10071800C0FC28B1012343608360234BC46003609D
:10072800224B049008200893FFF7B3FC044628B135
:10073800039B04A940F8043BFFF7CFFE00955FFA3E
:100748008AF34A46414638460994FFF71BFEB8B972
:10075800039B5B7803F0FF0293B94FF69C7305A9DE
:1007680003A80592ADF81830FFF71AFF0598FFF7B0
:1007780029FE05A80999FFF7B7FE06A8FFF786FE28
:10078800039B04A906A80593FFF7A7FE05A9304611
:10079800FFF792FE06A8FFF779FE04A8FFF776FE9A
:1007A80030460BB0BDE8F08F90140A0821090A08FA
:1007B800022AF8B5044606D0032A17D0012A20D108
:1007C8000B6803601DE018200E68FFF762FC054601
:1007D80050B13146FFF7D5FE3069B6F9147008B14B
:1007E80000F01CFE2861AF8225600AE0046844B16D
:1007F8002069FFF7E7FD2046FFF720FE2046FFF7B8
:100808004AFC0020F8BD38B5002383608B68044695
:100818000D462BB102229847EB68E360AB68A360F2
:10082800204638BD022A70B5044606D0032A11D0E6
:10083800012A17D10B68036014E014200E68FFF733
:1008480028FC054620B13146FFF7DDFF337C2B74C9
:10085800256007E004682CB12046FFF7EFFD20462D
:10086800FFF719FC002070BDF0B50C46BFF35F8F91
:1008780087B0002350E8006F40E80032002AF9D121
:10088800BFF35F8F002E3ED01846FFF757FD07468F
:1008980020B121463046FFF764FE2EE0314601A81C
:1008A800FFF7B1FF237810208DF81430FFF7F1FB24
:1008B8000546D0B187601420FFF7EBFB044678B1FA
:1008C8008760014601A8FFF72CFE039BA268A3607E
:1008D800049B0392E268E3609DF814300492237449
:1008E8000A4B2C60EB600A4BAB6001A8FFF7A6FD32
:1008F800002229460748FFF729FD3046FFF79EFDED
:100908003046FFF7C8FB07B0F0BD00BF7D050A08F9
:100918002D080A0803040A0830B5044685B00D46B8
:1009280068461146FFF7E0FD7CB124B228460DB1B8
:1009380000F074FD029002A96846ADF80C40FFF77C
:100948002FFE0298FFF73EFD1DE04FF001020098D0
:100958008DF80840D0E84F3FA34203D1C0E8412FAB
:100968000029F7D102D08DF808300CE010F10C0105
:100978004FF0010318BF0373BFF35F8F043000F813
:10098800033CFFF771FF01A8FFF780FD05B030BDFC
:100998007047F8B5064615460C468F18BC4206D077
:1009A800336814F8011B9B6830469847F6E72846D9
:1009B800F8BD0022007CFFF7F7BB0021007CFFF7A1
:1009C800FBBB0021007CFFF7FFBB0021007CFFF789
:1009D80003BC0021007CFFF707BC10B50446FFF7F5
:1009E8005AFB204610BD000010B5044608464FF4D7
:1009F8007A73A360044B0021207461602360FFF7C1
:100A080003FC204610BD00BFAC140A080021007C7E
:100A1800FFF7F2BB704710B50446FFF73CFB2046D2
:100A280010BDF8B50F4600F10806051D002416F89C
:100A3800011D0A22384600F082F8AE42044407D06D
:100A4800002CF4D02E21384600F04CF80444EEE790
:100A58002046F8BD10B59DF8084044EA032343EA50
:100A6800024242EA016104234160037510BD00009F
:100A780037B5044D05609DF818500095FFF7EAFF5B
:100A880003B030BDD4140A08014A024B1A607047FB
:100A98009B150A0874030020F8B506460D468F1802
:100AA8000024BD420CD0336815F8011B9B68304602
:100AB8009847002801DB0444F3E7002C08BF0446EC
:100AC8002046F8BD70B505460C46084649B100F009
:100AD800C0FC2B68024621462846BDE87040DB680A
:100AE800184770BD03689B681847012A98BF0A22F7
:100AF80030B50B468BB000218DF824100DF123047E
:100B0800B3FBF2F505FB1233DBB2092B94BF30338C
:100B18003733DBB2214604F801392B46002DEFD1DB
:100B2800FFF7D0FF0BB030BD10B422B90368C9B2CB
:100B38009B6810BC1847D2B210BCFFF7D6BFFFF7AE
:100B4800F3BF10B50446FFF779FC204610BD00003E
:100B5800034800238360034A034900F0C5BA00BF75
:100B680078030020680300204B0B0A08704710B573
:100B78000446FFF790FA204610BD000070B5044601
:100B88000E46074B0025036040F80C5FFFF7CCFAD0
:100B980030462671FFF742FBA560204670BD00BFB6
:100BA800CC150A080079FFF741BB00004FF69C738B
:100BB80037B50D4C002563804FF6FF732846A38098
:100BC8002570FFF7ABFB02A840F8045D2A462946CA
:100BD800FFF7B2FA019B1E2B04D1032323701123C4
:100BE8006580A38003B030BD88030020024B1A68DB
:100BF800024B1A60704700BF0003002090030020DA
:100C0800704741747047007CFFF750BB007CFFF7CA
:100C180025BB007CFFF732BB007CFFF727BB007CBD
:100C2800FFF734BB10B50446FFF735FA204610BD70
:100C380070B5457C04460E4625B9007CFFF736FBA7
:100C4800002805DD3146207CBDE87040FFF7FEBA7C
:100C5800284670BD10B50446084611460022626059
:100C68004FF47A72A260054A2074226001226274ED
:100C78001A46FFF7E3FA204610BD00BF08160A0817
:100C8800007CFFF70BBB000038B50C4D296811F04C
:100C9800010411D12846FFF700FA68B1084A214635
:100CA800084B0948FFF7D6FF2846FFF7FBF9074A24
:100CB8000749054800F018FA034838BD2C040020FD
:100CC80030040020A80300209403002068030020BB
:100CD800090C0A084174704770470021007CFFF72F
:100CE80005BB0121007CFFF701BB007CFFF7F6BACA
:100CF800007CFFF7EBBA38B50446007C0D46FFF7D9
:100D0800EDFA002801DC607C20B12946207CFFF741
:100D1800F5FA012038BD007CFFF7F8BA10B5044693
:100D2800FFF7B9F9204610BD10B5044600236360EB
:100D38004FF47A73A360054B08462360012321749E
:100D480063741146FFF7BAFA204610BD38160A0830
:100D580010B504461422002100F02FFB054B204655
:100D68006360054BE36040F20113238181232382F2
:100D780010BD00BF39050020B804002030B50E4D65
:100D880087B001A8FFF7E4FF296811F0010410D12A
:100D98002846FFF782F960B101AA21460748FFF704
:100DA800C3FF2846FFF77EF9054A0649034800F0C5
:100DB8009BF9024807B030BDB40400203C0600206F
:100DC80068030020E10C0A0810B50446142200212B
:100DD80000F0F3FA054B20466360054BE36040F2F0
:100DE800011323818123238210BD00BFEC0600205C
:100DF8005406002010B50E4C86B001A8FFF7E4FF9A
:100E08002368DB0710D42046FFF747F960B101AA31
:100E180001210848FFF788FF2046FFF743F9064AF3
:100E28000649044800F060F9024806B010BD00BF4A
:100E380050060020D806002068030020E10C0A08AC
:100E48007047002211461046FFF7ACBA0348044B1E
:100E5800044A0549036000F047B900BFF0070020C5
:100E680068160A0868030020490E0A0808B5144BDA
:100E780033B1FFF783FF03681B699847002816DC26
:100E8800104B33B1FFF700FF03681B699847002830
:100E980010DC0D4B0BB1AFF300800C4B7BB1FFF7AF
:100EA800A9FF03681B699847002806DC08BDAFF353
:100EB8000080E5E7AFF30080EBE7AFF3008008BD03
:100EC800000000000000000000000000000000001A
:100ED80008B5FFF7CBFFFFF73FF9014B186008BDD6
:100EE800FC0700200248034A0349121A00F05ABAC4
:100EF800004002400440024000170A0807B50023DA
:100F080000931A466FF07701FFF732FA03B05DF8E5
:100F180004FB000007B543880A2B08D0502B09D1E1
:100F2800094B1B683BB103B05DF804EB1847FFF7AA
:100F3800E5FF06E0002300931A466FF07701FFF7FC
:100F480017FA03B05DF804FBF407002038B5104C1D
:100F5800104D2368AB42104B0CBF012200221A70BF
:100F680002D0FFF7BFFF2560FFF7EEF800F02EFA7A
:100F78000A4B1BB1FFF7E8F8AFF3008000210748E0
:100F8800FFF708FABDE8384000210548FFF7E6B941
:100F9800004002401E1C279AF807002000000000AD
:100FA8001D0F0A0810B504460F48FFF7FBFD28B1CE
:100FB800A4F10D03022B01D8002010BD00F03AF86F
:100FC800FFF724FD08B1012CF6D9FFF75DFEFFF706
:100FD80057FE18B1A4F11203012BEDD9172C8CBFC1
:100FE8000020012010BD00BF30080020172838B5A8
:100FF80004460D460AD8FF2908D0FFF7D3FF28B1C9
:1010080029462046BDE83840FFF7B6B838BD10B5C8
:101018000446FFF7B9F80438C0B2012808D92046B9
:10102800FFF7C0FF20B12046BDE81040FFF7B4B875
:10103800002010BD38B50B4D296811F001040FD1FF
:101048002846FFF72AF858B121460748FFF7CCFC95
:101058002846FFF727F8054A0549034800F044F8F1
:10106800014838BD0008002004080020680300205B
:1010780099090A0813B5084C00231A461946009323
:101088002046FFF7F5FC2046044A054902B0BDE8B2
:10109800104000F029B800BF18080020680300209D
:1010A8001D0A0A0870B50C4C0C4E0D4D0021204647
:1010B800FFF764FD20460B4C3246294600F014F831
:1010C80001212046FFF75AFD324629462046BDE851
:1010D800704000F009B800BF300800206803002005
:1010E800750B0A08400800200B460146184600F018
:1010F8004BB908B5FFF76EF9244B1A68D0075CBFE7
:1011080001221A60224B1A68D1075CBF01221A60BB
:10111800204B1A68D2075CBF01221A601E4B1A685E
:10112800D0075CBF01221A601C4B1A68D1075CBF4C
:1011380001221A601A4B1A68D2075CBF01221A6092
:10114800184B1A68D0075CBF01221A60164B1A6840
:10115800D1075CBF01221A60144B1A68D2075CBF22
:1011680001221A60124B1A68D0075CBF01221A606C
:10117800104B1A68D1075CBF01221A600E4B1A681F
:10118800D2075CBF01221A60704700BF7C080020AC
:101198007808002074080020700800206C080020DF
:1011A8006808002064080020600800205C0800200F
:1011B800580800205408002050080020184B1A68CE
:1011C800D1075CBF01221A60164B1A68D2075CBFB0
:1011D80001221A60144B1A68D0075CBF01221A60FA
:1011E800124B1A68D1075CBF01221A60104B1A68AB
:1011F800D2075CBF01221A600E4B1A68D0075CBF89
:1012080001221A600C4B1A68D1075CBF01221A60D0
:101218000A4B1A68D2075CBF01221A60704700BFE8
:101228009C080020980800209408002090080020BE
:101238008C080020880800208408002080080020EE
:10124800184B1A68D1075CBF01221A60164B1A683E
:10125800D2075CBF01221A60144B1A68D0075CBF22
:1012680001221A60124B1A68D1075CBF01221A606A
:10127800104B1A68D2075CBF01221A600E4B1A681D
:10128800D0075CBF01221A600C4B1A68D1075CBFFB
:1012980001221A600A4B1A68D2075CBF01221A6041
:1012A800704700BFBC080020B8080020B408002020
:1012B800B0080020AC080020A8080020A4080020DE
:1012C800A0080020244B1A68D0075CBF01221A60CE
:1012D800224B1A68D1075CBF01221A60204B1A689A
:1012E800D2075CBF01221A601E4B1A68D0075CBF88
:1012F80001221A601C4B1A68D1075CBF01221A60D0
:101308001A4B1A68D2075CBF01221A60184B1A6878
:10131800D0075CBF01221A60164B1A68D1075CBF60
:1013280001221A60144B1A68D2075CBF01221A60A6
:10133800124B1A68D0075CBF01221A60104B1A685A
:10134800D1075CBF01221A600E4B1A68D2075CBF36
:1013580001221A60704700BFEC080020E80800204E
:10136800E4080020E0080020DC080020D80800205D
:10137800D4080020D0080020CC080020C80800208D
:10138800C4080020C008002010B5054C13462CB135
:101398000A4601460220AFF3008010BD204610BD6A
:1013A8000000000010B5431E0A44914204D011F811
:1013B800014B03F8014FF8E710BD0346024493427E
:1013C80002D003F8011BFAE77047000038B5124B4A
:1013D80005461C68A36BD3B91820FEF7EBFF43F250
:1013E8000E33A06303804AF6CD33438041F23423A1
:1013F80083804EF26D63C3804DF6EC630381052351
:1014080043810B23838101220023C0E90423A36BBA
:1014180000221D615A6138BD64030020024B014659
:10142800186800F003B800BF6403002070B50646D2
:1014380008460C4600F00DF8451C29463046FEF7D4
:10144800D1FF064618B12A462146FFF7ABFF3046C2
:1014580070BD034613F8012B002AFBD1181A013876
:10146800704700001D000A085D000A0889000A0884
:101478008D000A08000000004849474800000000A5
:10148800000000000000000029040A082F040A08D0
:1014980057040A083B040A082B040A080000000045
:1014A8000000000099090A08E3090A08BB090A08AC
:1014B8009B090A08C3090A08CB090A08D3090A08BC
:1014C800DB090A0800000000000000002B0A0A08D7
:1014D8001D0A0A081F0A0A0866006C6E00666E007C
:1014E800636F64650064657461696C000D0A0025AA
:1014F8003031307520005D20002564002C20002844
:10150800293A2000205B00636F6465203D20002598
:10151800690064657461696C73203D2000626175BF
:10152800640053657269616C005553425365726972
:10153800616C31007479706500706172616D00636F
:101548006D6400696400686E64007374726D00668F
:10155800696C74006C766C0061646448616E646CDC
:1015680065720072656D6F766548616E646C657250
:1015780000656E756D48616E646C657273004A53E0
:101588004F4E53747265616D4C6F6748616E646C41
:10159800657200617070006E6F6E650074726163D1
:1015A8006500696E666F007761726E006572726FB2
:1015B800720070616E696300616C6C00000000006D
:1015C80000000000750B0A08770B0A085A00252B43
:1015D8003033643A253032750025592D256D2D2577
:1015E800645425483A254D3A2553257A006173639A
:1015F80074696D6500000000000000000000000034
:10160800090C0A082D0C0A08390C0A08A10A0A084C
:10161800150C0A08210C0A081B0C0A08270C0A08D2
:101628000B0C0A080F0C0A0800000000000000005C
:10163800E10C0A08250D0A08FF0C0A08A10A0A0885
:10164800F90C0A08E30C0A08EB0C0A081F0D0A0833
:10165800F30C0A08DD0C0A08000000000000000076
:101668004B0E0A0800000000000000000000000007
:101678000000000000000000000000000000000062
:101688000000000000000000000000000000000052
:101698000000000000000000000000000000000042
:1016A8000000000000000000000000000000000032
:1016B8000000000000000000000000000000000022
:1016C800000000004300000021010A08910A0A08EE
:1016D800590B0A08B50B0A08F50B0A08550E0A0833
:1016E8007D100A08AD100A0801110A08C5110A0878
:0816F80049120A08CD120A088C
:0417000000000000E5
:10170400F5150A08000000006C160A088C160A0871
:10171400AC160A08000000000000000000000000F1
:1017240000000000CC160A080000000000000000C1
:1017340000000000000000000000000000000000A5
:101744000000000000000000000000000000000095
:101754000000000000000000000000000000000085
:08176400000000000403002056
:10176C00FFFFFFFF00000102030405060708090A3A
:10177C000B0C0D0E0F101112131415161718191A35
:08178C001B1C1D1E1F2028007C
:04179400785634123D
:04000005080A0018CD
:00000001FF
