:02000002D0002C
:1040000000400D0068660D00000006000D0005016F
:084010000401E80500000000B6
:0440180058640D00DB
:10402000704741747047F8B506460D468F18002456
:10403000BD420CD0336815F8011B9B683046984789
:10404000002801DB0444F3E7002C08BF04462046A7
:10405000F8BD07B5002300931A466FF0770100F012
:1040600095FA03B05DF804FB10B51421044601F085
:1040700086F9204610BD08B50121007C00F0CAFA7F
:1040800040EAE07008BD08B50021007C00F0C2FAEB
:1040900040EAE07008BD007C00F0ACBA08B5007CD6
:1040A00000F0C0FA20EAE07008BD38B50446007C94
:1040B0000D4600F0B7FA002801DC607C28B12946E3
:1040C000207C00F09FFA20EAE07038BD08B5007C43
:1040D00000F0B0FA20EAE07008BD08B5007C00F0FE
:1040E000B9FA20EAE07008BD70B5457C04460E467A
:1040F00025B9007C00F0AEFA002805DD3146207CB1
:10410000BDE8704000F0CEBA284670BD007C00F0DB
:10411000A9BA08B5007C00F0B5FA40EAE07008BD25
:1041200008B5007C00F0A6FA40EAE07008BD08B5CA
:10413000007C00F0AFFA20EAE07008BD2DE9F047FE
:1041400007463F4B47F8043B94B000249046064690
:1041500011220D463846002101F05DFE2146202245
:104160000CA8009401F057FE40230C9321466B46A7
:104170000CAA404600F0A6FA0446002859D102468F
:104180000121686800F0CAF9022180462246686869
:1041900000F0C4F9009D814621464FF0040A002D2D
:1041A00047D0002945D16B68022B02D00A2B12D0D0
:1041B0003DE0B8F1000F3AD069694B790A791B04E8
:1041C00043EA0263CA7913438A7986F814A043EA62
:1041D000022373602AE0B9F1000F28D06C69112224
:1041E00001A801F018FE06238DF814300DF1040E1D
:1041F00004F10803183418685968724603C208337A
:10420000A3429646F7D10DF1040EBEE80F0007ACAD
:104210000FC4DEF8003023700DF11C0CBCE80F0059
:10422000BE46AEE80F0023688EF800300121ED692C
:10423000B5E7009800F04EFA304614B0BDE8F087BC
:1042400014640D0000221146406800F047B90022B6
:104250001146406800F032B90022406800F036B9DB
:10426000002281F00101406800F040B900231A46A5
:104270001946406800F042B900231A4619464068C2
:1042800000F044B910B5044600F0CDF8204610BD4A
:1042900010B50446006808B100F0F8F8204610BDDB
:1042A00038B50C460B460A2510B92244302108E0E7
:1042B000B0FBF5F105FB1100303003F8010B0846A7
:1042C000F2E7934202D203F8011BFAE700221A70C8
:1042D000204601F0D1FD013820442346834206D216
:1042E0001A78017803F8011B00F80129F6E7204647
:1042F00038BD00002DE9F04188B000238DF808306A
:1043000004464FF00203D4E84F2F002A03D1C4E83B
:10431000403F0028F7D16ED114F10C0502D0284699
:1043200000F072F8BFF35F8F01236370002004F187
:104330000803BFF35F8F53E8007F43E80002002AC1
:10434000F9D1BFF35F8F002F55D000F03BF920B1BA
:104350002946384600F06BFE46E002AE394630464C
:1043600000F056FEE068B4F9105008B102F032F8DF
:1043700006901020ADF81C5000F098F8054640B3A8
:104380004FF00008C0F80880182000F08FF80446AD
:10439000D0B1C0F8088096E803008DE8030094E8E7
:1043A000030086E803009DE8030084E80300049B03
:1043B000CDF81080A360059BE268059206A9E36032
:1043C00004F1100000F020F80C4BEB600C4B2C605B
:1043D000AB6006A800F062F8304600F024F8002236
:1043E0002946084800F0E6F8384600F01CF810218D
:1043F000384600F0C4FF08B0BDE8F0814B500D0016
:104400007B510D0039440D000022026010B54FF6BB
:104410009C728280B1F9044084808A8002680C68B2
:1044200004600A6010BD10B58368044613B103220E
:1044300001469847204610BD10B5836804460BB965
:1044400000F0B9FFC36898472046FFF7ECFF20460D
:104450001021BDE8104000F092BF000008B5024BEB
:104460001B681B6B019308BD1C02030008B5024BBF
:104470001B68DB6A019308BD1C02030008B5024BF0
:104480001B689B68019308BD1C02030008B5024B22
:104490001B685B68019308BD1C02030008B5034656
:1044A0000068FFF7F3FF184608BD000008B5024B8F
:1044B0001B681B68019308BD1C02030008B5024B72
:1044C0001B685B6B019308BD4002030008B5024BFB
:1044D0001B681B6B019308BD4002030008B5024B2B
:1044E0001B681B6A019308BD4002030008B5024B1C
:1044F0001B68DB69019308BD4002030008B5024B4D
:104500001B689B69019308BD4002030008B5024B7C
:104510001B685B69019308BD4002030008B5024BAC
:104520001B681B69019308BD4002030008B5024BDC
:104530001B68DB68019308BD4002030008B5024B0D
:104540001B689B68019308BD4002030008B5024B3D
:104550001B685B68019308BD4002030008B5024B6D
:104560001B68DB6B019308BD4402030008B5024BD6
:104570001B681B6A019308BD4402030008B5024B87
:104580001B685B69019308BD4402030008B5034B37
:104590001B68D3F89430019308BD0000200203008B
:1045A00008B5034B1B68D3F88830019308BD0000A1
:1045B0002002030008B5024B1B685B6D019308BD28
:1045C0002002030008B5024B1B68DB6C019308BD99
:1045D0002002030008B5024B1B685B69019308BD0C
:1045E0002002030008B5024B1B685B68019308BDFD
:1045F0002002030008B5024B1B681B6A019308BD2B
:104600004C02030008B5024B1B68DB69019308BD2F
:104610004C02030008B5024B1B689B69019308BD5F
:104620004C02030008B5024B1B685B69019308BD8F
:104630004C02030008B5024B1B681B69019308BDBF
:104640004C02030008B5024B1B681B68019308BDB0
:104650004C02030008B5024B1B689B6A019308BD1E
:104660003C02030008B5024B1B68DB69019308BDDF
:104670003C02030008B5024B1B689B69019308BD0F
:104680003C02030008B5024B1B685B69019308BD3F
:104690003C02030008B5024B1B681B69019308BD6F
:1046A0003C02030008B5024B1B68DB68019308BDA0
:1046B0003C02030008B5024B1B681B68019308BD50
:1046C0003C02030008B5024B1B68DB68019308BD80
:1046D0006802030008B5024B1B689B68019308BD84
:1046E0006802030008B5024B1B685B69019308BDB3
:1046F0006402030008B5024B1B681B6D019308BDE3
:104700002802030008B5024B1B68DB6C019308BD4F
:104710002802030008B5024B1B689B6C019308BD7F
:104720002802030008B5024B1B681B6C019308BDEF
:104730002802030008B5024B1B681B6B019308BDE0
:104740002802030008B5024B1B68DB6A019308BD11
:104750002802030008B5024B1B689B6A019308BD41
:104760002802030008B5024B1B685B6A019308BD71
:104770002802030008B5024B1B681B6A019308BDA1
:104780002802030008B5024B1B68DB69019308BDD2
:104790002802030008B5024B1B689B69019308BD02
:1047A0002802030008B5024B1B681B68019308BD73
:1047B0002C02030008B5024B1B685B69019308BD1E
:1047C0001802030008B5024B1B685B68019308BD23
:1047D0001802030008B5024B1B689B6C019308BDCF
:1047E0004802030008B50346006808B1FFF7F2FF6E
:1047F000184608BD08B5024B1B685B6C019308BDE9
:104800004802030008B5024B1B685B69019308BDB1
:104810004802030008B5024B1B681B69019308BDE1
:104820004802030008B5024B1B689B68019308BD52
:1048300048020300F0B58BB005460C4601A81146AE
:1048400000F0C8FCBDB12DB220460CB101F0C2FD94
:10485000039003A905A8019BADF81050FFF7D4FD04
:1048600005A91846FFF746FD05A8FFF717FE03A8A0
:10487000FFF714FE6DE0019C8DF814504FF001021B
:10488000D4E84F3FAB4203D1C4E8412F0029F7D110
:1048900002D08DF814305CE0012314F10C0118BF34
:1048A0002373BFF35F8F00206370231DBFF35F8FFF
:1048B00053E8006F43E80002002AF9D1BFF35F8F8D
:1048C000002E46D0FFF77EFE074618B1304600F0B6
:1048D000AEFB37E005AD3146284600F099FB237B5F
:1048E0008DF824301020FFF7E1FD044610B38760F7
:1048F0001420FFF7DBFD0346B8B1876095E803009D
:1049000003AA82E8030093E8030085E8030092E825
:10491000030083E80300079A07979A60089AD9680A
:104920000891DA609DF824201A7423600B4BE36031
:104930000B4BA3602846FFF776FD0022214609486D
:10494000FFF738FE3046FFF76EFD1021304600F0CD
:1049500016FD02A800F068F80BB0F0BD41500D0044
:10496000C5500D0039440D007047000070B5164C5D
:10497000164D2368AB4206D01548164A1649121A3E
:1049800001F03EFA2560FFF71DFF044601F04CFAE6
:10499000124B13B12046AFF3008000210F48104C9A
:1049A000FFF7DCFD00210F48FFF7FAFD0E4BE41A7C
:1049B000A40800251E46A54204D056F82530984785
:1049C0000135F8E770BD00BF00F403201E1C279AD4
:1049D00000F4032004F40320D8650D00000000005B
:1049E000C4650D0053400D00B0650D0009480A492B
:1049F000884208B505D0094A824202D0121A01F055
:104A0000FFF90748074A0021121A01F004FA014889
:104A100008BD00BF68E30320DC650D00CCE3032084
:104A2000CCE30320F0E7032038B5046805467CB1E9
:104A30006368013B63605BB9236820469B689847C5
:104A4000A368013BA3601BB923682046DB68984735
:104A5000284638BDFFF71ABD2DE9F043724D95B0D9
:104A6000002141F28830FFF7B5FD2B680021187C4A
:104A7000FFF750FE2B680022187C3621FFF78AFED4
:104A80002868036804219B6898472B681426187CC3
:104A9000002201210BACFFF775FE324600212046B3
:104AA0002F6801F0B8F936238DF8303002230D93CA
:104AB00064230E930123ADF82C600F93002221464E
:104AC000387CFFF717FE286803685B69984706463D
:104AD000286803685B6998472B6807460021187CA3
:104AE000FFF710FEF8B200F003FF00224F4B01F079
:104AF000CBF901F0FBFBF6B207EE906A07EE100A65
:104B0000F8EEE77A77EE277A17EE900A00F002FFC8
:104B10000022002306460F4600F0B0FF40B107F127
:104B200000431F462D238DF82C300DEB030500E0CC
:104B300025463BA3D3E900233046394601F0A4F9CA
:104B40008046894601F022FC06460F4600F000FF31
:104B500002460B464046494600F07CFD0022344B9D
:104B600000F0A0FF10B1013647F100070023314AE1
:104B70003046394600F0AAFF29460122FFF790FB94
:104B8000284601F079F92E232B5401300544294A97
:104B900030460023394600F099FF29461046062288
:104BA000FFF77EFB204601F067F9411C0546002017
:104BB000FFF764FC064630B1002707702A462146FD
:104BC00001F01EF977551C4B93F80080FFF7D6FCD7
:104BD000074698BB4FF62E73099009A92046ADF8F9
:104BE0002830FFF711FC1420FFF760FC054648B1A0
:104BF00002230370012343704760876021460C3015
:104C0000FFF702FC294604A8039500F07FFA20462E
:104C1000FFF744FC09A8FFF741FC57E0AFF3008021
:104C20000000000080842E4144E503200000703F16
:104C30000000E03F40420F0008E5032000250C2360
:104C400014206560A5600B93FFF730FC014618B196
:104C5000057045704560856006A8059100F056FA1C
:104C6000564B0C930820FFF721FC38B1059B0360DD
:104C7000069B436013B15A6801325A600D9000944C
:104C800043463C2231464E48FFF770FC28B9059D4B
:104C90006B7803F0FF02002B6FD0069B05990791FC
:104CA000089313B15A6801325A600023089A079397
:104CB0000AA8089303910A9304920993FFF7B4FE9C
:104CC00008A8FFF7B1FE06A8FFF7AEFE04A8FFF79D
:104CD000ABFE3046FFF7DAFB3A4B23B33A4E3B4D7F
:104CE00014220021204601F096F8336813F0010FDA
:104CF00013D1307888B94FF47A736860AB600127BC
:104D0000334B287421462B606F74FFF79BFC377080
:104D1000304A3149284600F02DFB2B682B481B698F
:104D20009847002844DC2D4B03B32D4D2D4C2B68A8
:104D300013F0010F14D1287890B94FF47A736060A2
:104D4000A3600126284B294A2949207423606674F0
:104D5000FFF7B0FC2E701F4A2649204600F00AFBE0
:104D6000236820481B699847002824DCFFF722FDB0
:104D7000214B186015B0BDE8F0834FF69C7307A96E
:104D800009A80792ADF82030FFF73EFB09A9284695
:104D9000FFF7B0FA09A8FFF781FB07A8FFF77EFB32
:104DA00009A80D9900F016FA0AA8FFF73DFE74E76E
:104DB000AFF30080B7E7AFF30080D7E735480D00C9
:104DC00050640D0000000000CCE30320D0E303207A
:104DD00028640D0040E5032021400D000000000084
:104DE00080E40320E4E3032074640D00FCE303206B
:104DF00084E40320FD4D0D00F8E303207047F8B56F
:104E0000064615460C468F18BC4206D0336814F887
:104E1000011B9B6830469847F6E72846F8BD0020FE
:104E200070477047002211464068FFF777BB0022A9
:104E300011464068FFF772BB002211464068FFF739
:104E40007DBB002211464068FFF778BB002202219B
:104E50004068FFF76BBB002202214068FFF766BB8A
:104E600000231A464068FFF771BB00231A464068CA
:104E7000FFF76CBB10B51421044600F080FA204601
:104E800010BD10B51821044600F079FA204610BD77
:104E900010B51421044600F072FA204610BD10B57A
:104EA0001021044600F06BFA204610BD08B1FFF750
:104EB000F6BF704738B5044670B1056835B128466D
:104EC000FFF7B1FA1021284600F059FA20461421C4
:104ED000BDE8384000F053BA38BD002211464068A2
:104EE000FFF7FCBA002211464068FFF7E7BA00223C
:104EF0004068FFF7EBBA002281F001014068FFF73C
:104F0000F5BA00231A4601214068FFF7F7BA0023DB
:104F10001A4619464068FFF7F9BA70B505460C46BF
:104F2000084649B100F0A8FF2B68024621462846F2
:104F3000DB68BDE87040184770BD2DE9F043037D84
:104F4000062B8DB00C4600F104054FF0000804D08C
:104F500000F1080946460A272EE00CAE294606F85D
:104F6000308D2F2332460A20FFF7BCFB3146204606
:104F7000FFF7D3FF28E0B3FBF7F202EB8201A3EBCC
:104F80004103DBB2092B94BF30333733DBB2014628
:104F900000F801391346002AEDD12046FFF7BDFF86
:104FA0004D4580440FD0B8F1000F05D023682E2165
:104FB0009B6820469847804419F8013D8DF8206091
:104FC0000DF11F00D7E740460DB0BDE8F08300218A
:104FD000007CFFF7AFBB0021007CFFF7B3BB0021D3
:104FE000007CFFF7B7BB0021007CFFF7BBBB0022B2
:104FF000007CFFF7BFBB7047704710B503790446CC
:1050000023B103680021187CFFF77CFB204610BD0C
:1050100038B5002383608B6804460D462BB102220D
:105020009847EB68E360AB68A360204638BD8268B0
:1050300010B50AB900F0BFF9C368BDE810401847C1
:10504000006800F11001FFF7F2BF006800F11001E5
:10505000FFF7EDBF38B51A4B03600546D0F8CC0119
:1050600008B1FFF713FAD5F8C80108B1FFF7B2FB92
:10507000D5F8C441ECB12368BBB15868FFF7D2FB47
:1050800078B923685A7C12B95868FFF7C3FB2368C4
:105090005868FFF7B7FB20680023236028B1FFF7AB
:1050A00009FF206808B1FFF705FF0421204600F042
:1050B00066F9A86810B103685B689847284638BD50
:1050C0001C650D00022A70B5044606D0032A11D0D3
:1050D000012A18D10B68036015E014200E68FFF751
:1050E000E5F9054620B13146FFF792FF337C2B747A
:1050F000256008E0046834B12046FFF794F91421D4
:10510000204600F03CF9002070BD000038B50023B7
:105110000446036010200D46FFF7C8F928B10123AB
:1051200043608360024B0360C5602060204638BD49
:10513000A4640D0038B5C468F4B12378022B03D100
:1051400004F10C00FFF7AAF9656835B12846FFF7AE
:105150006AF91021284600F012F9A56835B12846F1
:10516000FFF761F91021284600F009F920461421C3
:10517000BDE8384000F003B938BD022AF8B504464E
:1051800006D0032A17D0012A22D10B6803601FE042
:1051900018200E68FFF78AF9054650B13146FFF72F
:1051A00037FF3069B6F9147008B101F013F92861BE
:1051B000AF8225600CE0046854B104F11000FFF7E1
:1051C0006DF92046FFF72FF91821204600F0D7F897
:1051D0000020F8BD30B50C4685B0636809680091C1
:1051E0000546019313B15A6801325A60019A296049
:1051F00000236A6003A80193009303930293FFF7CF
:1052000013FC01A8FFF710FC201DFFF70DFC204642
:10521000082100F0B4F8284605B030BDF0B5414D86
:1052200000244FF6FF7387B06B812C60AC80AC71AB
:105230002C812046FFF7D6F93B4A3C49284600F02E
:1052400099F83B483B4D384A3B49846000F092F85E
:105250003A4B2B6002236B60AC60C5F8C441C5F8C3
:10526000C84105F5E470FFF7C5FA354B2B60C5F86A
:10527000CC4185F8D0412846324D2B4A3249282668
:1052800000F078F832462146284600F0C4FD4FF081
:10529000FF336B602E802D4D2D4E2C602846FFF77E
:1052A000A9FA214A2B49284600F064F82A4B1C70C1
:1052B000FFF778FA3368294C13F0010F28D13778BB
:1052C00037BB14252A46394601A800F0A4FDADF8E5
:1052D00004502025224903952846059500F069F8D9
:1052E0001F490290284600F064F84FF47A730125B4
:1052F000A3601C4B049001A96760236025742846B5
:10530000FFF710FA3570084A1749204600F032F8C6
:105310001648054A046000230371154900F02AF875
:1053200007B0F0BD34E5032040E5032091420D00B5
:1053300038E703204CE5032085420D00E8640D00AA
:105340001C650D000CE5032055500D0048E70320B7
:1053500034E70320E5470D0008E5032020E703209C
:1053600048650D00C0640D00F94F0D0044E50320B1
:10537000FB4F0D000B460146184600F033BDFFF70A
:1053800069BB0000024B1868BFF35F8F704700BF16
:105390004CE7032010B5002814BF04460124204622
:1053A000FFF784F820B9FFF7EDFF08B18047F6E773
:1053B00010BDFFF7EFBF08B5FFF758F8244B1A6888
:1053C000D0075CBF01221A60224B1A68D1075CBF6C
:1053D00001221A60204B1A68D2075CBF01221A60B2
:1053E0001E4B1A68D0075CBF01221A601C4B1A685A
:1053F000D1075CBF01221A601A4B1A68D2075CBF42
:1054000001221A60184B1A68D0075CBF01221A608B
:10541000164B1A68D1075CBF01221A60144B1A6838
:10542000D2075CBF01221A60124B1A68D0075CBF1A
:1054300001221A60104B1A68D1075CBF01221A6062
:105440000E4B1A68D2075CBF01221A60704700BF7A
:105450007CE7032078E7032074E7032070E703204C
:105460006CE7032068E7032064E7032060E703207C
:105470005CE7032058E7032054E7032050E70320AC
:10548000244B1A68D0075CBF01221A60224B1A68AD
:10549000D1075CBF01221A60204B1A68D2075CBF9B
:1054A00001221A601E4B1A68D0075CBF01221A60E5
:1054B0001C4B1A68D1075CBF01221A601A4B1A688C
:1054C000D2075CBF01221A60184B1A68D0075CBF74
:1054D00001221A60164B1A68D1075CBF01221A60BC
:1054E000144B1A68D2075CBF01221A60124B1A686B
:1054F000D0075CBF01221A60104B1A68D1075CBF4D
:1055000001221A600E4B1A68D2075CBF01221A6092
:10551000704700BFACE70320A8E70320A4E70320FF
:10552000A0E703209CE7032098E7032094E70320EB
:1055300090E703208CE7032088E7032084E703201B
:1055400080E70320184B1A68D1075CBF01221A605C
:10555000164B1A68D2075CBF01221A60144B1A68F6
:10556000D0075CBF01221A60124B1A68D1075CBFDA
:1055700001221A60104B1A68D2075CBF01221A6020
:105580000E4B1A68D0075CBF01221A600C4B1A68D8
:10559000D1075CBF01221A600A4B1A68D2075CBFB0
:1055A00001221A60704700BFCCE70320C8E7032040
:1055B000C4E70320C0E70320BCE70320B8E70320CB
:1055C000B4E70320B0E70320184B1A68D1075CBF8B
:1055D00001221A60164B1A68D2075CBF01221A60BA
:1055E000144B1A68D0075CBF01221A60124B1A686C
:1055F000D1075CBF01221A60104B1A68D2075CBF4A
:1056000001221A600E4B1A68D0075CBF01221A6093
:105610000C4B1A68D1075CBF01221A600A4B1A684A
:10562000D2075CBF01221A60704700BFECE703207D
:10563000E8E70320E4E70320E0E70320DCE70320BA
:10564000D8E70320D4E70320D0E7032081F000410E
:1056500002E000BF83F0004330B54FEA41044FEA57
:10566000430594EA050F08BF90EA020F1FBF54EAF2
:10567000000C55EA020C7FEA645C7FEA655C00F08E
:10568000E2804FEA5454D4EB5555B8BF6D420CDD5F
:105690002C4480EA020281EA030382EA000083EAE2
:1056A000010180EA020281EA0303362D88BF30BD82
:1056B00011F0004F4FEA01314FF4801C4CEA1131D8
:1056C00002D0404261EB410113F0004F4FEA033337
:1056D0004CEA133302D0524263EB430394EA050FC2
:1056E00000F0A780A4F10104D5F1200E0DDB02FA31
:1056F0000EFC22FA05F2801841F1000103FA0EF2C5
:10570000801843FA05F359410EE0A5F120050EF18A
:10571000200E012A03FA0EFC28BF4CF0020C43FABB
:1057200005F3C01851EBE37101F0004507D54FF0C8
:10573000000EDCF1000C7EEB00006EEB0101B1F518
:10574000801F1BD3B1F5001F0CD349085FEA30005E
:105750004FEA3C0C04F101044FEA445212F5800F69
:1057600080F09A80BCF1004F08BF5FEA500C50F106
:10577000000041EB045141EA050130BD5FEA4C0CE9
:10578000404141EB010111F4801FA4F10104E9D172
:1057900091F0000F04BF01460020B1FA81F308BF69
:1057A0002033A3F10B03B3F120020CDA0C3208DD35
:1057B00002F1140CC2F10C0201FA0CF021FA02F110
:1057C0000CE002F11402D8BFC2F1200C01FA02F180
:1057D00020FA0CFCDCBF41EA0C019040E41AA2BFA5
:1057E00001EB0451294330BD6FEA04041F3C1CDA6D
:1057F0000C340EDC04F11404C4F1200220FA04F08D
:1058000001FA02F340EA030021FA04F345EA030136
:1058100030BDC4F10C04C4F1200220FA02F001FAF8
:1058200004F340EA0300294630BD21FA04F029467A
:1058300030BD94F0000F83F4801306BF81F4801113
:105840000134013D4EE77FEA645C18BF7FEA655C86
:1058500029D094EA050F08BF90EA020F05D054EA58
:10586000000C04BF1946104630BD91EA030F1EBF5D
:105870000021002030BD5FEA545C05D14000494161
:1058800028BF41F0004130BD14F580043CBF01F554
:10589000801130BD01F0004545F0FE4141F470013A
:1058A0004FF0000030BD7FEA645C1ABF1946104615
:1058B0007FEA655C1CBF0B46024650EA013406BF16
:1058C00052EA033591EA030F41F4002130BD00BFD5
:1058D00090F0000F04BF0021704730B54FF4806492
:1058E00004F132044FF000054FF0000150E700BF13
:1058F00090F0000F04BF0021704730B54FF4806472
:1059000004F1320410F0004548BF40424FF000015E
:105910003EE700BF42004FEAE2014FEA31014FEAA1
:1059200002701FBF12F07F4393F07F4F81F06051F0
:10593000704792F0000F14BF93F07F4F704730B55F
:105940004FF4607401F0004521F0004120E700BFF2
:1059500050EA010208BF704730B54FF000050AE079
:1059600050EA010208BF704730B511F0004502D57A
:10597000404261EB41014FF4806404F132045FEA7C
:10598000915C3FF4DCAE4FF003025FEADC0C18BF21
:1059900003325FEADC0C18BF033202EBDC02C2F117
:1059A000200300FA03FC20FA02F001FA03FE40EAA9
:1059B0000E0021FA02F11444C1E600BF4FF0FF3C93
:1059C00006E000BF4FF0010C02E000BF4FF0010CF9
:1059D0004DF804CD4FEA410C7FEA6C5C4FEA430C72
:1059E00018BF7FEA6C5C1BD001B050EA410C0CBFC1
:1059F00052EA430C91EA030F02BF90EA020F002023
:105A0000704710F1000F91EA030F58BF994208BF89
:105A100090422CBFD8176FEAE37040F00100704746
:105A20004FEA410C7FEA6C5C02D150EA013C07D19D
:105A30004FEA430C7FEA6C5CD6D152EA033CD3D0E8
:105A40005DF8040B704700BF8446104662468C46E2
:105A50001946634600E000BF01B5FFF7B7FF002815
:105A600048BF10F1000F01BD4DF808EDFFF7F4FF3E
:105A70000CBF012000205DF808FB00BF4DF808EDC9
:105A8000FFF7EAFF34BF012000205DF808FB00BFEC
:105A90004DF808EDFFF7E0FF94BF012000205DF80E
:105AA00008FB00BF4DF808EDFFF7CEFF94BF0120C3
:105AB00000205DF808FB00BF4DF808EDFFF7C4FFBC
:105AC00034BF012000205DF808FB00BF53B94AB97C
:105AD000002908BF00281CBF4FF0FF314FF0FF30F6
:105AE00000F07EB9ADF1080C6DE904CE00F006F8C7
:105AF000DDF804E0DDE9022304B070472DE9F0474A
:105B00008C460E460446089D002B50D18A4217460B
:105B10006CD9B2FA82FEBEF1000F0BD0CEF1200498
:105B200020FA04F401FA0EF644EA060C02FA0EF723
:105B300000FA0EF44FEA1749220CBCFBF9F01FFAE9
:105B400087F809FB10C642EA064600FB08F3B34299
:105B500009D9F61900F1FF3280F02281B34240F2F8
:105B60001F8102383E44F61AA2B2B6FBF9F309FBD4
:105B7000136642EA064403FB08F8A04509D9E41974
:105B800003F1FF3280F00A81A04540F20781023B19
:105B90003C44C8EB040443EA00400021002D62D0DD
:105BA00024FA0EF400232C606B60BDE8F0878B4272
:105BB00007D9002D55D0002185E841000846BDE8F1
:105BC000F087B3FA83F1002940F09080B34202D30A
:105BD000824200F2F880841A66EB03060120B44684
:105BE000002D40D085E81010BDE8F08712B90127DC
:105BF000B7FBF2F7B7FA87FEBEF1000F35D1F31B02
:105C00004FEA17481FFA87FC0121B3FBF8F0220C7A
:105C100008FB103642EA06460CFB00F3B34207D9F4
:105C2000F61900F1FF3202D2B34200F2CE801046E4
:105C3000F61AA2B2B6FBF8F308FB136642EA064472
:105C40000CFB03FCA44507D9E41903F1FF3202D28F
:105C5000A44500F2B5801346CCEB040443EA0040AF
:105C60009CE729462846BDE8F087CEF1200106FAD8
:105C70000EF307FA0EF720FA01F94FEA1748CE4063
:105C800049EA0309B6FBF8FA4FEA194408FB1A6619
:105C90001FFA87FC44EA06430AFB0CF29A4200FA18
:105CA0000EF40AD9DB190AF1FF3180F087809A429D
:105CB00040F28480AAF1020A3B449B1A1FFA89F938
:105CC000B3FBF8F108FB113349EA034301FB0CF67F
:105CD0009E4207D9DB1901F1FF326BD29E4269D98E
:105CE00002393B449B1B41EA0A418EE7C1F1200E79
:105CF00022FA0EF48B40234320FA0EF706FA01F441
:105D00004FEA134C26FA0EF63C43B6FBFCF9270C7F
:105D10000CFB19661FFA83F847EA064609FB08F7E9
:105D2000B74202FA01F200FA01FA08D9F61809F1AD
:105D3000FF3041D2B7423FD9A9F102091E44F61BF8
:105D4000A0B2B6FBFCF40CFB146640EA064704FB69
:105D500008F8B84507D9FF1804F1FF3028D2B84534
:105D600026D9023C1F4444EA0940C8EB0707A0FBC0
:105D700002894F4544464E4614D329D065B3BAEB49
:105D8000040367EB060707FA0EFECB40CF404EEA4E
:105D9000030385E888000021BDE8F0871346F8E694
:105DA0001046E0E6B8EB020469EB03060138E5E7CC
:105DB0000446D8E7114695E78146C0E78A467CE766
:105DC000023B3C4448E708460AE702383E442FE7D6
:105DD000C245E7D33E46D1E72946BDE8F08700BF7C
:105DE000704700BF10B5054C13462CB10A4601465A
:105DF0000220AFF3008010BD204610BD000000005F
:105E000010B5431E0A44914204D011F8014B03F827
:105E1000014FF8E710BD02440346934202D003F855
:105E2000011BFAE77047000038B5124B1C68A36BE2
:105E30000546D3B91820FEF739FB43F20E33A063B1
:105E400003804AF6CD33438041F2342383804EF2FF
:105E50006D63C3804DF6EC630381052343810B23FF
:105E6000838101220023C0E90423A36B00221D616A
:105E70005A6138BDC8E30320034613F8012B002AFA
:105E8000FBD1181A0138704770B54FF0FF0C4CF475
:105E9000E06C1CEA11541DBF1CEA135594EA0C0F68
:105EA00095EA0C0F00F0DEF82C4481EA030621EAA3
:105EB0004C5123EA4C5350EA013518BF52EA0335DE
:105EC00041F4801143F4801338D0A0FB02CE4FF090
:105ED0000005E1FB02E506F00042E0FB03E54FF0C0
:105EE0000006E1FB03569CF0000F18BF4EF0010EB8
:105EF000A4F1FF04B6F5007F64F5407404D25FEAB4
:105F00004E0E6D4146EB060642EAC62141EA555166
:105F10004FEAC52040EA5E504FEACE2EB4F1FD0CA8
:105F200088BFBCF5E06F1ED8BEF1004F08BF5FEA26
:105F3000500E50F1000041EB045170BD06F00046D8
:105F400046EA010140EA020081EA0301B4EB5C0485
:105F5000C2BFD4EB0C0541EA045170BD41F480117D
:105F60004FF0000E013C00F3AB8014F1360FDEBFA2
:105F7000002001F0004170BDC4F10004203C35DA7E
:105F80000C341BDC04F11404C4F1200500FA05F301
:105F900020FA04F001FA05F240EA020001F00042A2
:105FA00021F0004110EBD37021FA04F642EB060118
:105FB0005EEA430E08BF20EAD37070BDC4F10C0442
:105FC000C4F1200500FA04F320FA05F001FA04F206
:105FD00040EA020001F0004110EBD37041F10001F2
:105FE0005EEA430E08BF20EAD37070BDC4F12005FD
:105FF00000FA05F24EEA020E20FA04F301FA05F265
:1060000043EA020321FA04F001F0004121FA04F20C
:1060100020EA020000EBD3705EEA430E08BF20EADC
:10602000D37070BD94F0000F0FD101F00046400016
:1060300041EB010111F4801F08BF013CF7D041EA98
:10604000060195F0000F18BF704703F0004652009C
:1060500043EB030313F4801F08BF013DF7D043EA6D
:106060000603704794EA0C0F0CEA135518BF95EA23
:106070000C0F0CD050EA410618BF52EA4306D1D1AA
:1060800081EA030101F000414FF0000070BD50EAC9
:10609000410606BF1046194652EA430619D094EA53
:1060A0000C0F02D150EA013613D195EA0C0F05D13D
:1060B00052EA03361CBF104619460AD181EA030191
:1060C00001F0004141F0FE4141F470014FF0000049
:1060D00070BD41F0FE4141F4780170BD70B54FF0E4
:1060E000FF0C4CF4E06C1CEA11541DBF1CEA135564
:1060F00094EA0C0F95EA0C0F00F0A7F8A4EB050446
:1061000081EA030E52EA03354FEA013100F088803C
:106110004FEA03334FF0805545EA131343EA126305
:106120004FEA022245EA111545EA10654FEA0026BA
:106130000EF000419D4208BF964244F1FD0404F573
:10614000407402D25B084FEA3202B61A65EB0305CF
:106150005B084FEA32024FF480104FF4002CB6EB8C
:10616000020E75EB030E22BFB61A754640EA0C000C
:106170005B084FEA3202B6EB020E75EB030E22BF4C
:10618000B61A754640EA5C005B084FEA3202B6EB8D
:10619000020E75EB030E22BFB61A754640EA9C004C
:1061A0005B084FEA3202B6EB020E75EB030E22BF1C
:1061B000B61A754640EADC0055EA060E18D04FEADA
:1061C000051545EA16754FEA06164FEAC30343EA7A
:1061D00052734FEAC2025FEA1C1CC0D111F4801F47
:1061E0000BD141EA00014FF000004FF0004CB6E740
:1061F00011F4801F04BF01430020B4F1FD0C88BFDF
:10620000BCF5E06F3FF6AFAEB5EB030C04BFB6EBE9
:10621000020C5FEA500C50F1000041EB045170BDDC
:106220000EF0004E4EEA113114EB5C04C2BFD4EB09
:106230000C0541EA045170BD41F480114FF0000E8D
:10624000013C90E645EA060E8DE60CEA135594EA09
:106250000C0F08BF95EA0C0F3FF43BAF94EA0C0F0C
:106260000AD150EA01347FF434AF95EA0C0F7FF481
:1062700025AF104619462CE795EA0C0F06D152EAD5
:1062800003353FF4FDAE1046194622E750EA4106B9
:1062900018BF52EA43067FF4C5AE50EA41047FF4CA
:1062A0000DAF52EA43057FF4EBAE12E74A0011D27C
:1062B00012F5001211D20DD56FF47873B3EB625260
:1062C0000ED44FEAC12343F0004343EA505323FA6C
:1062D00002F070474FF00000704750EA013002D1E1
:1062E0004FF0FF3070474FF0000070474FEA410217
:1062F000B2F1E04324BFB3F5001CDCF1FE5C0DD924
:1063000001F0004C4FEAC0024CEA5070B2F1004F6D
:1063100040EB830008BF20F00100704711F0804F70
:1063200021D113F13872BCBF01F00040704741F435
:1063300080114FEA5252C2F11802C2F1200C10FA39
:106340000CF320FA02F018BF40F001004FEAC1231D
:106350004FEAD32303FA0CFC40EA0C0023FA02F3C1
:106360004FEA4303CCE77FEA625307D150EA013397
:106370001EBF4FF0FE4040F44000704701F0004067
:1063800040F0FE4040F40000704700BFD0B500224E
:106390000E4B06460F46FFF777FDFFF787FF0446D3
:1063A000FFF796FA00220A4BFFF76EFD02460B46F6
:1063B00030463946FFF74EF9FFF778FF23460022B3
:1063C00042EA000210461946D0BD00BF0000F03D71
:1063D0000000F041024B0146186800F003B800BF0E
:1063E000C8E3032070B5064608460C46FFF744FD97
:1063F000451C29463046FEF731F8064618B12A46B4
:106400002146FFF7FDFC304670BD00000000000093
:10641000000000003B4F0D00F74F0D00834E0D00B4
:10642000000000000000000021400D0069400D0048
:10643000AB400D0027400D00CD400D0087400D0002
:1064400077400D0097400D009D400D0023400D004A
:106450006368617267650000ED490D006D490D00CC
:1064600069490D00594A0D000000000000000000BD
:1064700000000000FD4D0D00754E0D00E9400D00BF
:1064800027400D002F410D0013410D0021410D004B
:106490000D410D0023400D00DB400D000000000009
:1064A00000000000234E0D009F4E0D0035510D00E1
:1064B000AD4E0D001F4E0D0000000000000000005A
:1064C000F94F0D00914E0D00EF4F0D00FF4D0D00E7
:1064D000E74F0D00DF4F0D00D74F0D00CF4F0D00E0
:1064E0000000000000000000614E0D004D4E0D0048
:1064F000394E0D00254E0D0079420D006D420D0004
:1065000061420D0059420D004F420D0045420D0001
:106510003D410D0000000000000000006B4E0D002A
:10652000574E0D00434E0D002F4E0D000F4F0D0026
:10653000034F0D00F74E0D00EF4E0D00E54E0D0020
:10654000DB4E0D003D410D0000000000000000008A
:10655000000000000000000000000000000000003B
:10656000000000000000000000000000000000002B
:10657000000000000000000000000000000000001B
:10658000000000000000000000000000000000000B
:1065900000000000000000000000000000000000FB
:1065A00000000000000000000000000043000000A8
:1065B0001D520D00BD530D0081540D0045550D00B9
:1065C000C9550D00000000000000000000000000A0
:0865D0002CF5FF7F0100000023
:0465D80000000000BF
:1065DC00000000004C650D006C650D008C650D0015
:1065EC00000000000000000000000000000000009F
:1065FC00AC650D0000000000000000000000000071
:10660C00000000000000000000000000000000007E
:10661C00000000000000000000000000000000006E
:10662C00000000000000000000000000000000005E
:04663C0068E30320EC
:10664000FFFFFFFF00000102030405060708090A17
:106650000B0C0D0E0F101112131415161718191A12
:086660001B1C1D1E1F20280059
:04666800785634121A
:04000003D0004020C9
:00000001FF
