:02000002D0002C
:1040000000400D0004730D00000005000D000501C7
:0840100004014401000000005E
:10401800846E0D0009480A49884208B505D0094A46
:10402800824202D0121A02F0FBFE0748074A00211A
:10403800121A02F000FF014808BD00BF30E3032058
:10404800A8720D0064E3032068E30320F8E7032067
:1040580070B501F089FE074C074BE41AA408002547
:104068001E46A54204D056F8253098470135F8E792
:1040780070BD00BF94720D005C720D0000F03CB87A
:1040880008B500F08DF8BDE8084001F03BBE00F02F
:10409800B3BB00F0B1BB00F0B7BB00F0B5BB007814
:1040A800B0FA80F0400970470123037070470000A0
:1040B80038B50E49054601F014F9044630B10C4BE9
:1040C8000121188801F095FE012038BD09492846CC
:1040D80001F007F930B1064B2146188801F089FE36
:1040E800204638BD4FF0FF3038BD00BF986E0D0038
:1040F80058E303209B6E0D0010B51B4B1B4C188812
:10410800012101F065FE1A4B0121188801F060FEBB
:10411800184B0021188801F05BFE2088012101F06E
:1041280057FE154B0121188801F052FE2088012105
:1041380001F05FFE002309221049114800F0F4FA4B
:10414800002309220F49104800F0EEFA09220F490E
:104158000F48002300F0E8FA0E4A0F490F48BDE85F
:10416800104000F0D8BB00BF5CE3032034E3032019
:1041780058E3032048E3032030E3032080E30320CF
:10418800A86E0D0070E30320B46E0D0078E30320E1
:10419800BF6E0D00C86E0D00B9400D00F3480D004C
:1041A8002DE9F04F5A4B5B4C18885B4E85B001F0F7
:1041B80039FE02F057F9C4E90001052000F034FB8C
:1041C800564BD4E90045D3E90089204642464B4680
:1041D800294602F03DFC08B3514B2046D3E90023A1
:1041E800294602F017FCC8B142464B4620462946EC
:1041F80001F0EAFF3EA3D3E9002302F0C3FA3EA38D
:10420800D3E9002302F094F902460B463AA1D1E91A
:10421800000101F0D9FFC6E900010EE042464B4615
:104228002046294602F000FC18B135A3D3E9002343
:1042380001E000220023C6E900233A4FDFF8F080AE
:104248003888012101F0C4FDD8E90045D6E900AB62
:10425800204652465B46294602F0DCFBB946A0B12F
:104268000022314B2046294602F0D4FB68B12F4B7F
:104278002046D3E90023294601F0A8FFC8E9000138
:1042880002F0F0FB014638881DE052465B462046A6
:10429800294602F0DDFBC0B11BA3D3E90023204669
:1042A800294602F0D5FB80B1204B2046D3E90023F4
:1042B800294601F089FF1E4BC3E9000102F0D2FB39
:1042C8000146B9F8000001F0C4FD96ED000B062187
:1042D800684600F0C0FF009A1649174800F022FD12
:1042E800684600F033FF05B0BDE8F08FAFF30080FB
:1042F8000000000000C072400000000000E06F40B5
:104308000000000000C06F40CDCCCCCCCCCCF43F3A
:1043180048E3032080E3032078E3032040E30320FD
:1043280050E3032030E3032000806F4038E303208C
:1043380070E30320CC6E0D00F4E3032000F040B8D6
:1043480008B5024B1B689B68019308BD480203002F
:1043580008B5024B1B681B69019308BD480203009E
:1043680008B5024B1B685B69019308BD480203004E
:1043780008B5024B1B681B6B019308BD480203007C
:1043880008B5024B1B685B6C019308BD480203002B
:1043980008B5024B1B68DB6C019308BD480203009B
:1043A80008B5024B1B685B6D019308BD480203000A
:1043B80008B5024B1B685B69019308BD180203002E
:1043C80008B5024B1B681B68019308BD2C0203004B
:1043D80008B5024B1B685B68019308BD2C020300FB
:1043E80008B5024B1B689B68019308BD2C020300AB
:1043F80008B5024B1B68DB68019308BD2C0203005B
:1044080008B5024B1B681B69019308BD2C02030009
:1044180008B5024B1B689B6A019308BD2C02030078
:1044280008B5024B1B681B6B019308BD2C020300E7
:1044380008B5024B1B689B6F019308BD2C02030053
:1044480008B5024B1B681B6A019308BD28020300CC
:1044580008B5024B1B685B6A019308BD280203007C
:1044680008B5024B1B689B6A019308BD280203002C
:1044780008B5024B1B68DB6A019308BD28020300DC
:1044880008B5024B1B681B6B019308BD280203008B
:1044980008B5024B1B685B6B019308BD280203003B
:1044A80008B5024B1B681B6C019308BD280203006A
:1044B80008B5024B1B681B69019308BD6C02030019
:1044C80008B5024B1B685B69019308BD6C020300C9
:1044D80008B5024B1B689B69019308BD6C02030079
:1044E80008B5024B1B685B6D019308BD6C020300A5
:1044F80008B5024B1B689B6D019308BD6C02030055
:1045080008B5024B1B685B69019308BD6402030090
:1045180008B5024B1B689B69019308BD6402030040
:1045280008B5024B1B681B6A019308BD64020300AF
:1045380008B5024B1B685B6A019308BD640203005F
:1045480008B5024B1B689B6A019308BD640203000F
:1045580008B5024B1B689B68019308BD68020300FD
:1045680008B5024B1B68DB68019308BD68020300AD
:1045780008B5024B1B685B68019308BD380203004D
:1045880008B5024B1B689B69019308BD38020300FC
:1045980008B5024B1B68DB69019308BD38020300AC
:1045A80008B5024B1B68DB6A019308BD380203009B
:1045B80008B5024B1B685B6B019308BD380203000A
:1045C80008B5024B1B689B6B019308BD38020300BA
:1045D80008B5024B1B68DB69019308BD3002030074
:1045E80008B5024B1B681B6A019308BD3002030023
:1045F80008B5024B1B681B68019308BD3C02030009
:1046080008B5024B1B68DB68019308BD3C02030038
:1046180008B5024B1B681B69019308BD3C020300E7
:1046280008B5024B1B685B69019308BD3C02030097
:1046380008B5024B1B689B69019308BD3C02030047
:1046480008B5024B1B68DB69019308BD3C020300F7
:1046580008B5024B1B681B6A019308BD3C020300A6
:1046680008B5024B1B689B6A019308BD3C02030016
:1046780008B5024B1B681B68019308BD4C02030078
:1046880008B5024B1B681B69019308BD4C02030067
:1046980008B5024B1B685B69019308BD4C02030017
:1046A80008B5024B1B689B69019308BD4C020300C7
:1046B80008B5024B1B68DB69019308BD4C02030077
:1046C80008B5024B1B681B6A019308BD4C02030026
:1046D80008B5024B1B681B6D019308BD60020300FF
:1046E80008B5024B1B685B68019308BD20020300F4
:1046F80008B5024B1B685B69019308BD20020300E3
:1047080008B5034B1B68D3F88830019308BD000037
:104718002002030008B5034B1B68D3F894300193BB
:1047280008BD00002002030008B5024B1B681B6887
:10473800019308BD4402030008B5024B1B685B687F
:10474800019308BD4402030008B5024B1B68DB6BEC
:10475800019308BD4402030008B5024B1B685B685F
:10476800019308BD4002030008B5024B1B689B6813
:10477800019308BD4002030008B5024B1B68DB68C3
:10478800019308BD4002030008B5024B1B681B6972
:10479800019308BD4002030008B5024B1B685B6922
:1047A800019308BD4002030008B5024B1B689B69D2
:1047B800019308BD4002030008B5024B1B68DB6982
:1047C800019308BD4002030008B5024B1B681B6A31
:1047D800019308BD4002030008B5024B1B681B6B20
:1047E800019308BD4002030008B5024B1B685B6BD0
:1047F800019308BD4002030008B5024B1B681B6803
:10480800019308BD1C02030008B5024B1B685B68D6
:10481800019308BD1C02030008B5024B1B689B6886
:10482800019308BD1C0203000021FFF761BF0022AD
:1048380011464068FFF7A8BF002211464068FFF7FD
:10484800C3BF002211464068FFF7CEBF0022406870
:10485800FFF7C2BF002281F001014068FFF7ACBF3B
:1048680000231A4619464068FFF79EBF00231A46E0
:1048780019464068FFF790BF002211464068FFF7CD
:1048880073BF002202214068FFF776BF00231A4653
:104898004068FFF761BF000038B50C4D2824224658
:1048A8000021284602F0C7FA4FF0FF336B602C80D6
:1048B800074D042328466B60064B40F8083B224608
:1048C800002102F0B8FA2C8138BD00BFB8E30320FC
:1048D80088E30320E06E0D0010B58368044613B129
:1048E800032201469847204610BD10B588B00446FB
:1048F800684600F072FC694604A800F090FC04A821
:10490800A047044604A800F021FC684600F01EFCFD
:10491800204608B010BDF0B5102485B007460E46F5
:10492800154600212246684602F085FA00226946AB
:104938001046ADF80040029703960195FFF7FCFE7C
:1049480005B0F0BD002211464068FFF73DBF0022C8
:1049580011464068FFF748BF00224068FFF73CBF98
:10496800002281F001014068FFF726BF00231A46A4
:1049780019464068FFF718BF00231A4619464068D1
:10498800FFF70ABF002211464068FFF7FDBE00226C
:1049980011464068FFF7E8BE002202214068FFF791
:1049A800EBBE00231A464068FFF7D6BE024B03222F
:1049B8005A60024A1A607047E0E30320146F0D0042
:1049C8007047F8B5064615460C468F18BC4206D007
:1049D800336814F8011B9B6830469847F6E7284669
:1049E800F8BD0022007CFFF72BBD0021007CFFF7FB
:1049F8002FBD0021007CFFF733BD0021007CFFF7AD
:104A080037BD0021007CFFF73BBD10B50446FFF71A
:104A180042FB204610BD000010B504464FF47A73DF
:104A28000846A3600021044B207461602360FFF7EF
:104A380037FD204610BD00BF486F0D000021007CE7
:104A4800FFF726BD704710B50446FFF724FB204644
:104A580010BDF0B5037D062B8DB00E4600F104079E
:104A68004FF0000402D000F1080518E00CAD3946FB
:104A780005F8304D2F232A460A20FFF741FD284626
:104A880002F0F3F933680246DB6829463046984756
:104A98000FE024B12E21304600F088FA044415F8BE
:104AA800011D0A22304600F0B1FABD420444F0D19B
:104AB80020460DB0F0BD000010B5054B044611228C
:104AC80040F8043B002102F0B6F9204610BD00BFB3
:104AD800706F0D000346074A10B543F8042B01F127
:104AE800100251F8044B43F8044B9142F9D10A786B
:104AF8001A7010BD706F0D00037D042B01D1406842
:104B080008E0062B0AD1436853B1836843B1C368F0
:104B180033B10069003018BF01207047002070478A
:104B28001846704710B59DF8084044EA032343EA45
:104B3800024242EA016104234160037510BD37B5A2
:104B48000D788B784A78C97800912946FFF7EAFFF3
:104B580003B030BD014B024A1A607047E8E30320F6
:104B68002F700D00002211464068FFF72DBE00226D
:104B780011464068FFF738BE00224068FFF72CBE98
:104B8800002281F001014068FFF716BE00231A4693
:104B980019464068FFF708BE00231A4619464068C0
:104BA800FFF7FABD002211464068FFF7EDBD00226D
:104BB80011464068FFF7D8BD002202214068FFF780
:104BC800DBBD00231A464068FFF7C6BD10B1036875
:104BD8005B681847704738B504460068D0B1FFF7DE
:104BE800AFFBB8B9237C1BB9206808B1FFF7B0FB4D
:104BF800656855B1AB681BB103222946284698471A
:104C08002846FFF748FA002363602068FFF7A8FBEF
:104C18000023236038BD000038B50B4B0360044601
:104C2800D0F8CC0108B1FFF738FAD4F8C4512DB147
:104C38002846FFF7D0FF2846FFF72DFAA06808B1ED
:104C4800FFF7C4FF204638BD60700D000068FFF70D
:104C58009FBB000030B58DB004461122002101A889
:104C680002F0E9F8062301AA09498DF814300A2050
:104C7800FFF74EFC07AD01A906A8FFF72BFF0FCDE4
:104C880004340FC42B68237000200DB030BD00BF62
:104C98008C700D0030B5044689B000F5E070FFF760
:104CA800D5FF236883BB4C20FFF7F1F9054608B10F
:104CB80000F038FE2068256008B1FFF787FF2068FC
:104CC80020B300224FF49A6100F05BFE08A900258A
:104CD80001F8195D1148FFF7EBFB20689DF80720E4
:104CE800036849F269011B6A984702A8FFF7E4FEC6
:104CF80002A8FFF7AFFF002804DB02A9206800F034
:104D0800C6FE04E0054602E0002500E0044DD4F8A4
:104D1800C001FFF745FB284609B030BD99700D006A
:104D2800FCFEFFFF2DE9F04705468CB016460F46FE
:104D380009B10B780BB9354C64E0084602F095F8D8
:104D48008046002E5CD0304602F08FF8441C08F1F3
:104D580002032344B3F59A6F4FD805F5E070FFF7C7
:104D680075FF2846FFF796FF002840DB6846FFF7E7
:104D7800A3FE6846FFF76EFF002838DBD5F800A0D1
:104D8800DAF800300DF1040CD3F83890204B069374
:104D9800BCE80F000DF11C0EAEE80F00DCF8003087
:104DA8008EF8003049F2690206A95046C847002823
:104DB8001DDB002328688DF8183003680122DB68A2
:104DC80006A998472868036808F10102DB68394694
:104DD80098472CB1286803682246DB683146984713
:104DE800286803681B6C984700EAE07400E00446F2
:104DF800D5F8C001FFF7D4FA04E06FF0BD0401E074
:104E08003446A4E720460CB0BDE8F087F2FEFFFF69
:104E1800706F0D0038B50D4C0D4B23600025022333
:104E280004F5E4706360A560C4F8C451C4F8C851BF
:104E3800FFF7A6FA074BC4F8CC5123602046064A70
:104E48000649BDE8384001F06DB800BFECE3032027
:104E5800C4700D0060700D0068E30320214C0D0044
:104E680000231A464068FFF777BC002202214068F9
:104E7800FFF782BC002211464068FFF775BC00228C
:104E880011464068FFF780BC00231A46194640685F
:104E9800FFF782BC00231A4619464068FFF784BC16
:104EA800002281F001014068FFF786BC00224068BB
:104EB800FFF792BC002211464068FFF795BC00221C
:104EC80011464068FFF780BC70B58CB014460646A2
:104ED800FFF7F2FD0CAB0022114643F8302D2046B7
:104EE800FFF73EFB014658BB009B4BB35A68022AAA
:104EF8000ED00A2A24D15C69112201A801F09BFF77
:104F080006238DF8143001AD04F10803183405E0C8
:104F1800596930460431FFF712FE11E018685968E4
:104F28002A4603C20833A3421546F7D101A906A8A9
:104F380007ADFFF7CFFD0FCD341D0FC42B682370CD
:104F48000098FFF705FB30460CB070BD024B034AD2
:104F58001A6000225A607047BCE50320C4700D0037
:104F6800F8B506460D468F180024BD420CD03368AC
:104F780015F8011B9B6830469847002801DB04445C
:104F8800F3E7002C08BF04462046F8BD70B5054677
:104F98000C46084649B101F068FF2B6802462146D5
:104FA8002846DB68BDE87040184770BD03689B68F9
:104FB800184730B58BB00B4600218DF82410012A14
:104FC80098BF0A220DF12304B3FBF2F505FB123357
:104FD80003F0FF03092B94BF30333733DBB221468C
:104FE80004F801392B46002DEED1FFF7CFFF0BB0A7
:104FF80030BD10B42AB903685DF8044B9B68C9B288
:105008001847D2B25DF8044BFFF7D3BFFFF7F1BFE3
:1050180010B50446FFF760FC204610BD0348044A5B
:1050280004490023836000F07DBF00BFC4E503206E
:1050380068E3032019500D00704710B50446FFF7C8
:105048002AF8204610BD000070B5084B03600446DE
:1050580000250E4640F80C5FFFF78AF930462671A6
:10506800FFF7B6FAA560204670BD00BFF8700D00C6
:105078000079FFF7B5BA704710B50446FFF70BF88B
:10508800204610BD2DE9F14F59EC108B07460E460E
:105098000022002310EE100A494601F0BBFC28B19B
:1050A80009F1004399462D2333700136002301246A
:1050B8000A22D9B28F4202D954430133F9E7204674
:1050C80001F0D0F942464B4601F032FA82468B464F
:1050D80001F000FD8046894601F0F4F902460B46CE
:1050E8005046594601F070F80022174B01F0A6FC13
:1050F80018B118F1010849F10009E51722462B46B5
:105108004046494601F0CEFC01230A22314600F010
:10511800B2FDAFB1304601F0A8FE2E233354013062
:10512800064422462B464046494601F0BBFC3B4616
:10513800104631460A2201B0BDE8F04F00F09BBD91
:1051480001B0BDE8F08F00BF0000E03F10B5044695
:105158000068FFF759FB204610BD10B504460068EB
:1051680008B1FFF751FB00232360A360636010BD03
:1051780038B504460D4600680131FFF74DFB10B104
:1051880084E82100012038BD10B50368044613B136
:1051980043688B4207D22046FFF7EAFF20B1A36895
:1051A8000BB922681370012010BD70B50E46114668
:1051B80004461546FFF7E8FF18B92046FFF7CDFF6C
:1051C80009E02A463146A560206801F029FE2268D8
:1051D800A3680021D154204670BD38B50023044689
:1051E80003604360836003730D4639B1084601F0DC
:1051F8003CFE294602462046FFF7D7FF204638BD29
:10520800884210B50B46044607D0096819B19A6858
:10521800FFF7CBFF01E0FFF7A0FF204610BD10B558
:10522800002304460360436083600373FFF7E8FFCD
:10523800204610BD38B505460C4641B1084601F078
:1052480014FE214602462846FFF7AFFF01E0FFF7AC
:1052580084FF284638BD10B500238AB00446036091
:10526800436083600373C8B201A9FFF70BFF01A96C
:105278002046FFF7DFFF20460AB010BD70B5044690
:105288000E4609B9002070BD6AB18368D518294651
:10529800FFF77AFF0028F5D02068A3683146184444
:1052A80001F0DBFDA560012070BD38B504468068BB
:1052B8008568FFF7E3FFA3689868401B38BD07B50A
:1052C80000238DF80410012201A98DF80530FFF79D
:1052D800D5FF03B05DF804FB08B58068FFF7EFFF62
:1052E80008BD08B582680B4612B919B9012008BD76
:1052F80011B90368187802E0006801F0A4FDB0FA5B
:1053080080F0400908BD000030B585B000230D4687
:10531800029303604360836003731421064B019377
:1053280004460390FFF730FF2B6801A91B68284645
:105338009847204605B030BD08710D00054B4FF663
:105348009C7200205A804FF6FF7218709A80FFF7FF
:10535800C7B900BFD4E50320024B1A68024B1A6094
:10536800704700BF60E30320DCE5032010B4046845
:10537800246BA4465DF8044B604703689B6C184790
:10538800808E7047028FC08E101A704713B502AB1B
:10539800026803F8011DD46819460122A04702B02B
:1053A80010BD10B503681B690446984728B1E38E01
:1053B800E26B591CE186D05C10BD4FF0FF3010BD88
:1053C80010B503681B690446984718B1E38EE26B71
:1053D800D05C10BD4FF0FF3010BD704710B40346CD
:1053E8000846DC6BD98E1A8F0368521ADB68214491
:1053F8005DF8044B1847A0F11000FFF7EFBFF0B5B8
:1054080003688DB01C265B6A04460F46154698470C
:1054180001233246002105A8029301F00CFD8DF806
:10542800146038460A268DF81560FFF789F81122AE
:10543800ADF8160002213046FFF7C2F80028606177
:1054480024DB0422009202AB40F6FF71FFF798F8C4
:10545800E0B995B10390ADF8100003A9E8B2FFF7E1
:105468002FF898B90623009341F20B0203AB40F6DC
:10547800FF716069FFF784F840B91C2205A96069CB
:10548800FFF776F810B96564012004E02368204628
:105498005B6A984700200DB0F0BD10B5044640691E
:1054A800002801DBFFF774F84FF0FF336361002336
:1054B800E386238710BD38B5C36B0546C08E13B18C
:1054C8002C6C241A00E01C46944228BF144622463D
:1054D800184401F0A5FCEB8E2344EB86204638BD2A
:1054E80070B503681B6904460E461546984788B18F
:1054F800236820461B699847E38EE16B8542A8BF65
:10550800054619442A46304601F08AFCE38E2B44AE
:10551800E38601E04FF0FF35284670BD70B50446BC
:10552800054B44F8043B01F1200506460FCD0FC496
:105538002B682370304670BD706F0D00F0B594462F
:10554800026889B0976A0A4A02921D1D8E4606466D
:105558000FCD03AC0FC42B682370BDF8383000930F
:10556800624602AB71463046B84709B0F0BD00BF8D
:10557800706F0D00F0B50368B0F836E09F6A0D4B08
:1055880089B000F12006044602930FCE03AD0FC583
:1055980033682B70A38E0093724602ABE16B2046F2
:1055A800B84723680546DB6920469847284609B06E
:1055B800F0BD00BF706F0D00F0B54378022B8DB0C1
:1055C80005460C46174601D1011D33E00A2B35D19B
:1055D8001122002101A801F02EFCAB6843B9EB6849
:1055E80033B94FF6FF702E69FEF79AFF86421FD037
:1055F80005F1080301AE05F1180E1868596832461E
:1056080003C2083373451646F7D1062301A906A835
:1056180007AE8DF81430FFF75DFA0FCE04340FC4CF
:105628003368237057B16888FEF782FF388005E039
:1056380005F114012046FFF782FAF3E70DB0F0BD3B
:105648002DE9F0418EB00EAB0025064617460846F8
:1056580043F8345D2A462946FEF782FF00281FDBFF
:10566800019BFBB15B69EBB102A8FFF725FA019B2F
:105678002A46586902A9FFF79FFF02A8FFF73CFADC
:1056880080B1336803ADD3F838800B4B08930FCD46
:1056980009AC0FC42B6823703A4608A93046C047A6
:1056A800044601E04FF0FF340198FEF751FF204611
:1056B8000EB0BDE8F08100BF706F0D002DE9F04716
:1056C800D0F81480B8F1000F98B005460C4617467C
:1056D800994600DB11B94FF0FF304EE04FF01C0A3D
:1056E80009AE52460021304601F0A5FBCDF810A0C6
:1056F800B9F1000F14D04FF47A72B9FBF2F110919E
:1057080002FB11914A4308231192009341F20602C9
:1057180010AB40F6FF714046FEF732FF08B12CE0AF
:10572800082004AB01932146034600963A4668696F
:10573800FEF736FF041E1FDB05F11C0705F13402D6
:1057480030463946FFF738FF00262023394605A89A
:1057580010931196FFF7D8FDAB8E0393059B029328
:10576800074B009301200194334610AA0549FEF720
:10577800AFFF05A8FFF7EAFC204618B0BDE8F087A0
:1057880041710D00A5700D0038B5054614462B7DF6
:10579800062B084611D11C2313700A235370FEF7F9
:1057A800CFFE083424F8060C2B1D143553F8042BAF
:1057B80044F8042BAB42F9D138BD042B08D110238F
:1057C800137002235370FEF7BBFE60806B68636042
:1057D80038BD00002DE9F04F984691B020230024F1
:1057E80082468B4604A841461646BDF86890089341
:1057F8000994FFF789FD049B029308AD154B1649E0
:1058080000932A4623460120CDF80C900196FEF716
:105818005FFF1C2704A8FFF799FC3A462146284653
:1058280001F009FB2A4649464046FFF7ADFF9DF8BF
:1058380021304BB18DE8A000234632465946DAF8AC
:105848001400FEF7B5FE01E04FF0FF3011B0BDE8DF
:10585800F08F00BF5E710D00A5700D00F0B591B01E
:105868000C4606460021154609A81C221F4601F0D1
:10587800E2FA09AA00212046FFF786FF9DF82530A5
:10588800022B2ED1002305930A9B0493DDB102A9B4
:105898002846FEF71DFEB0B910A941F8340D02984C
:1058A800FEF71EFE60B9039B53B1DA68126851789F
:1058B800022903D152680AB1059201E01B68F3E797
:1058C8000398FEF715FE002F4FF00803009318BF4A
:1058D800032204AB08BF042200213046FEF750FE25
:1058E8001EE00A2B1AD104AC14220021204601F034
:1058F800A2FA0BAB0FCB002F84E80F004FF0140374
:10590800009318BF0C22234608BF0D2229213046D8
:105918000895FEF735FE00EAE07001E04FF0FF3031
:1059280011B0F0BD38B54FF47A7383600B4B03F1B7
:1059380008026C33002503614FF0FF3304464560CD
:10594800026043611C30FFF7B7F84FF40073E58637
:105958002587E56323646564204638BD8C710D0096
:1059680010B590F8483004461BB1C06B08B1FEF77B
:1059780092FB0023E36384F848302364E38623879B
:1059880010BD70B5044616460D46FFF7E9FF002323
:10599800E66323643EB935B12846FEF77AFB012356
:1059A800E06384F84830E36B03B12564206C003071
:1059B80018BF012070BD70B5C26B04461AB9016CDE
:1059C80009B1FFF7DEFFE16B0023E386238741B1CE
:1059D800226C32B12068056B2046A8470028C8BF52
:1059E8002087236820461B69BDE8704018470000DF
:1059F800F0B591B020230546002604A817460C46AA
:105A080008930996FFF780FC049B0193104B0093C1
:105A180008AA33460F4902970120FEF759FE04A849
:105A2800FFF794FBEA6B22B9296C11B12846FFF7FE
:105A3800A8FF04340FCC05F120060FC62368337085
:105A4800286CAF860023EB862B8711B0F0BD00BF12
:105A580078710D00A5700D0010B5074B03F1080211
:105A68006C33044602600361FFF717FD2046FFF719
:105A780077FF204610BD00BF8C710D0010B504469D
:105A8800FFF7EAFF2046FEF706FB204610BD024658
:105A98004069002804DB012392F84420FFF7DEBEAA
:105AA8004FF0FF307047704741747047007CFEF735
:105AB800D7BD007CFEF7ACBD007CFEF7B9BD007C0D
:105AC800FEF7AEBD007CFEF7BBBD10B50446FEF781
:105AD800E2FA204610BD70B5457C04460E4625B94D
:105AE800007CFEF7BDFD002805DD3146207CBDE8C1
:105AF8007040FEF785BD284670BD000010B504460D
:105B080008461146002262604FF47A72A260054A84
:105B180022600122207462741A46FEF769FD20464D
:105B280010BD00BF04720D00007CFEF791BD00009F
:105B380038B50C4D296811F0010411D12846FEF73B
:105B4800AEFA68B1084A094B09482146FFF7D6FF63
:105B58002846FEF7A9FA074A0749054800F0E2F97E
:105B6800034838BD78E603207CE60320F4E50320EB
:105B7800E0E5032068E30320AF5A0D004174704745
:105B880070470021007CFEF78BBD0121007CFEF7E9
:105B980087BD007CFEF77CBD007CFEF771BD38B583
:105BA8000446007C0D46FEF773FD002801DC607C8E
:105BB80020B12946207CFEF77BFD012038BD007C02
:105BC800FEF77EBD10B50446FEF765FA204610BD07
:105BD80010B50446002363604FF47A73A360054B45
:105BE800236001230846217463741146FEF740FDC3
:105BF800204610BD34720D0010B514220446002151
:105C080001F019F9204610BD30B50E4D87B001A836
:105C1800FFF7F2FF296811F0010410D12846FEF7BA
:105C28003EFA60B101AA21460748FFF7D1FF28468E
:105C3800FEF73AFA054A0649034800F073F90248A4
:105C480007B030BD00E7032004E7032068E3032022
:105C5800895B0D0010B5044601F007F901382318D7
:105C68002046984206D20278197800F8011B03F8FA
:105C78000129F6E710BD70B50C46911E222920D8DF
:105C88002546294610B9234430220EE0B0FBF2F62F
:105C980002FB1600C1B205F8011B092894BF303178
:105CA800573105F8011C3046EBE7994202D201F85A
:105CB800012BFAE7002320460B70FFF7CBFF2046A5
:105CC80070BD002070BD000008B50C4B33B1FFF764
:105CD8009BFF03681B699847002809DC084B63B1E0
:105CE800FFF726FF03681B699847002803DC08BDF7
:105CF800AFF30080F2E7AFF3008008BD00000000BA
:105D08000000000008B5FFF7DFFFFEF751FB014B6D
:105D1800186008BD1CE7032007B5002300931A4646
:105D28006FF07701FEF7F6FC03B05DF804FB0000A6
:105D380007B543880A2B08D0502B09D1094B1B689B
:105D48003BB103B05DF804EB1847FFF7E5FF06E049
:105D5800002300931A466FF07701FEF7DBFC03B0CF
:105D68005DF804FB18E7032008B500210448FEF796
:105D7800EBFC00210348BDE80840FEF7C1BC00BFAA
:105D880000000000395D0D0010B504460F48FFF70C
:105D98006FF928B1A4F10B03022B01D8002010BD24
:105DA80000F07EF8FEF74AFE08B1012CF6D9FFF79D
:105DB800BFFEFFF7B9FE18B1A4F10903012BEDD915
:105DC800232C8CBF0020012010BD00BF38E7032022
:105DD800232838B504460D460AD8FF2908D0FFF70E
:105DE800D3FF28B129462046BDE83840FEF7F8BA67
:105DF80038BD38B504460D46FEF7FAFAFF2810D02C
:105E0800062804D84D2323FA00F0C30709D42046F6
:105E1800FFF7BAFF28B129462046BDE83840FEF70B
:105E2800EFBA38BD0D2810B504469CBF0E34A4B295
:105E38002046FFF7A9FF50B103212046FEF7C8FA14
:105E4800032804D12046BDE81040FEF7E9BA002037
:105E580010BD38B504460D46FFF796FFF0B1042192
:105E68002046FEF7B5FA042805D1A9B22046BDE8B8
:105E78003840FEF7CDBA02212046FEF7A9FA0228DB
:105E88000CD12046FEF7B4FA012801D0042805D128
:105E980029462046BDE83840FEF7CABA38BD00009A
:105EA80038B50B4D296811F001040FD12846FEF7CB
:105EB800F6F858B121460748FEF7AEFD2846FEF72A
:105EC800F3F8054A0549034800F02CF8014838BDA5
:105ED80020E7032024E7032068E30320C9490D00D5
:105EE80070B50C4C0C4E0D4D00212046FFF7ACF858
:105EF80020460B4C3246294600F014F80121204672
:105F0800FFF7A2F8324629462046BDE8704000F067
:105F180009B800BF38E7032068E3032041500D00AB
:105F280048E703200B460146184600F06BBF000007
:105F3800244B1A68D0075CBF01221A60224B1A68EA
:105F4800D1075CBF01221A60204B1A68D2075CBFD8
:105F580001221A601E4B1A68D0075CBF01221A6022
:105F68001C4B1A68D1075CBF01221A601A4B1A68C9
:105F7800D2075CBF01221A60184B1A68D0075CBFB1
:105F880001221A60164B1A68D1075CBF01221A60F9
:105F9800144B1A68D2075CBF01221A60124B1A68A8
:105FA800D0075CBF01221A60104B1A68D1075CBF8A
:105FB80001221A600E4B1A68D2075CBF01221A60D0
:105FC800704700BF84E7032080E703207CE70320B5
:105FD80078E7032074E7032070E703206CE70320C9
:105FE80068E7032064E7032060E703205CE70320F9
:105FF80058E70320184B1A68D1075CBF01221A60C2
:10600800164B1A68D2075CBF01221A60144B1A6833
:10601800D0075CBF01221A60124B1A68D1075CBF17
:1060280001221A60104B1A68D2075CBF01221A605D
:106038000E4B1A68D0075CBF01221A600C4B1A6815
:10604800D1075CBF01221A600A4B1A68D2075CBFED
:1060580001221A60704700BFA4E70320A0E70320CD
:106068009CE7032098E7032094E7032090E70320A8
:106078008CE7032088E70320184B1A68D1075CBF18
:1060880001221A60164B1A68D2075CBF01221A60F7
:10609800144B1A68D0075CBF01221A60124B1A68A9
:1060A800D1075CBF01221A60104B1A68D2075CBF87
:1060B80001221A600E4B1A68D0075CBF01221A60D1
:1060C8000C4B1A68D1075CBF01221A600A4B1A6888
:1060D800D2075CBF01221A60704700BFC4E70320E3
:1060E800C0E70320BCE70320B8E70320B4E7032098
:1060F800B0E70320ACE70320A8E70320244B1A6885
:10610800D0075CBF01221A60224B1A68D1075CBF16
:1061180001221A60204B1A68D2075CBF01221A605C
:106128001E4B1A68D0075CBF01221A601C4B1A6804
:10613800D1075CBF01221A601A4B1A68D2075CBFEC
:1061480001221A60184B1A68D0075CBF01221A6036
:10615800164B1A68D1075CBF01221A60144B1A68E3
:10616800D2075CBF01221A60124B1A68D0075CBFC5
:1061780001221A60104B1A68D1075CBF01221A600D
:106188000E4B1A68D2075CBF01221A60704700BF25
:10619800F4E70320F0E70320ECE70320E8E7032017
:1061A800E4E70320E0E70320DCE70320D8E7032047
:1061B800D4E70320D0E70320CCE70320C8E7032077
:1061C80081F0004102E000BF83F0004330B54FEAA0
:1061D80041044FEA430594EA050F08BF90EA020F0D
:1061E8001FBF54EA000C55EA020C7FEA645C7FEAA0
:1061F800655C00F0E2804FEA5454D4EB5555B8BFC3
:106208006D420CDD2C4480EA020281EA030382EA33
:10621800000083EA010180EA020281EA0303362DC5
:1062280088BF30BD11F0004F4FEA01314FF4801C98
:106238004CEA113102D0404261EB410113F0004FAA
:106248004FEA03334CEA133302D0524263EB430361
:1062580094EA050F00F0A780A4F10104D5F1200EFF
:106268000DDB02FA0EFC22FA05F2801841F100015A
:1062780003FA0EF2801843FA05F359410EE0A5F12E
:1062880020050EF1200E012A03FA0EFC28BF4CF05F
:10629800020C43FA05F3C01851EBE37101F0004515
:1062A80007D54FF0000EDCF1000C7EEB00006EEB22
:1062B8000101B1F5801F1BD3B1F5001F0CD34908AC
:1062C8005FEA30004FEA3C0C04F101044FEA445203
:1062D80012F5800F80F09A80BCF1004F08BF5FEA8A
:1062E800500C50F1000041EB045141EA050130BD6A
:1062F8005FEA4C0C404141EB010111F4801FA4F10D
:106308000104E9D191F0000F04BF01460020B1FA61
:1063180081F308BF2033A3F10B03B3F120020CDA99
:106328000C3208DD02F1140CC2F10C0201FA0CF077
:1063380021FA02F10CE002F11402D8BFC2F1200CDC
:1063480001FA02F120FA0CFCDCBF41EA0C01904092
:10635800E41AA2BF01EB0451294330BD6FEA0404DB
:106368001F3C1CDA0C340EDC04F11404C4F12002C6
:1063780020FA04F001FA02F340EA030021FA04F3D8
:1063880045EA030130BDC4F10C04C4F1200220FA2F
:1063980002F001FA04F340EA0300294630BD21FA6D
:1063A80004F0294630BD94F0000F83F4801306BF33
:1063B80081F480110134013D4EE77FEA645C18BF27
:1063C8007FEA655C29D094EA050F08BF90EA020FBE
:1063D80005D054EA000C04BF1946104630BD91EAB6
:1063E800030F1EBF0021002030BD5FEA545C05D1B9
:1063F8004000494128BF41F0004130BD14F58004F8
:106408003CBF01F5801130BD01F0004545F0FE416B
:1064180041F470014FF0000030BD7FEA645C1ABFA0
:10642800194610467FEA655C1CBF0B46024650EAD7
:10643800013406BF52EA033591EA030F41F4002103
:1064480030BD00BF90F0000F04BF0021704730B589
:106458004FF4806404F132044FF000054FF000015E
:1064680050E700BF90F0000F04BF0021704730B51F
:106478004FF4806404F1320410F0004548BF4042F4
:106488004FF000013EE700BF42004FEAE2014FEA49
:1064980031014FEA02701FBF12F07F4393F07F4F24
:1064A80081F06051704792F0000F14BF93F07F4F56
:1064B800704730B54FF4607401F0004521F0004199
:1064C80020E700BF50EA010208BF704730B54FF01F
:1064D80000050AE050EA010208BF704730B511F024
:1064E800004502D5404261EB41014FF4806404F15C
:1064F80032045FEA915C3FF4DCAE4FF003025FEADE
:10650800DC0C18BF03325FEADC0C18BF033202EB65
:10651800DC02C2F1200300FA03FC20FA02F001FABF
:1065280003FE40EA0E0021FA02F11444C1E600BF5E
:1065380070B54FF0FF0C4CF4E06C1CEA11541DBF11
:106548001CEA135594EA0C0F95EA0C0F00F0DEF8DC
:106558002C4481EA030621EA4C5123EA4C5350EAC1
:10656800013518BF52EA033541F4801143F4801312
:1065780038D0A0FB02CE4FF00005E1FB02E506F0A3
:106588000042E0FB03E54FF00006E1FB03569CF0F8
:10659800000F18BF4EF0010EA4F1FF04B6F5007FFE
:1065A80064F5407404D25FEA4E0E6D4146EB060670
:1065B80042EAC62141EA55514FEAC52040EA5E50F9
:1065C8004FEACE2EB4F1FD0C88BFBCF5E06F1ED8A3
:1065D800BEF1004F08BF5FEA500E50F1000041EBDA
:1065E800045170BD06F0004646EA010140EA020087
:1065F80081EA0301B4EB5C04C2BFD4EB0C0541EAA9
:10660800045170BD41F480114FF0000E013C00F3BD
:10661800AB8014F1360FDEBF002001F0004170BDE1
:10662800C4F10004203C35DA0C341BDC04F11404FA
:10663800C4F1200500FA05F320FA04F001FA05F286
:1066480040EA020001F0004221F0004110EBD37053
:1066580021FA04F642EB06015EEA430E08BF20EA7F
:10666800D37070BDC4F10C04C4F1200500FA04F322
:1066780020FA05F001FA04F240EA020001F00041B4
:1066880010EBD37041F100015EEA430E08BF20EA27
:10669800D37070BDC4F1200500FA05F24EEA020E6F
:1066A80020FA04F301FA05F243EA020321FA04F09E
:1066B80001F0004121FA04F220EA020000EBD37055
:1066C8005EEA430E08BF20EAD37070BD94F0000F55
:1066D8000FD101F00046400041EB010111F4801F89
:1066E80008BF013CF7D041EA060195F0000F18BF3A
:1066F800704703F00046520043EB030313F4801F76
:1067080008BF013DF7D043EA0603704794EA0C0F2F
:106718000CEA135518BF95EA0C0F0CD050EA410645
:1067280018BF52EA4306D1D181EA030101F00041C2
:106738004FF0000070BD50EA410606BF10461946EA
:1067480052EA430619D094EA0C0F02D150EA0136F6
:1067580013D195EA0C0F05D152EA03361CBF104637
:1067680019460AD181EA030101F0004141F0FE41D6
:1067780041F470014FF0000070BD41F0FE4141F45A
:10678800780170BD70B54FF0FF0C4CF4E06C1CEA5A
:1067980011541DBF1CEA135594EA0C0F95EA0C0F0F
:1067A80000F0A7F8A4EB050481EA030E52EA0335CA
:1067B8004FEA013100F088804FEA03334FF08055EB
:1067C80045EA131343EA12634FEA022245EA111518
:1067D80045EA10654FEA00260EF000419D4208BFC9
:1067E800964244F1FD0404F5407402D25B084FEA76
:1067F8003202B61A65EB03055B084FEA32024FF422
:1068080080104FF4002CB6EB020E75EB030E22BF7E
:10681800B61A754640EA0C005B084FEA3202B6EB3E
:10682800020E75EB030E22BFB61A754640EA5C00ED
:106838005B084FEA3202B6EB020E75EB030E22BF7D
:10684800B61A754640EA9C005B084FEA3202B6EB7E
:10685800020E75EB030E22BFB61A754640EADC003D
:1068680055EA060E18D04FEA051545EA16754FEA9F
:1068780006164FEAC30343EA52734FEAC2025FEABD
:106888001C1CC0D111F4801F0BD141EA00014FF04C
:1068980000004FF0004CB6E711F4801F04BF01431D
:1068A8000020B4F1FD0C88BFBCF5E06F3FF6AFAE39
:1068B800B5EB030C04BFB6EB020C5FEA500C50F1C9
:1068C800000041EB045170BD0EF0004E4EEA11314C
:1068D80014EB5C04C2BFD4EB0C0541EA045170BD53
:1068E80041F480114FF0000E013C90E645EA060E97
:1068F8008DE60CEA135594EA0C0F08BF95EA0C0FC5
:106908003FF43BAF94EA0C0F0AD150EA01347FF40C
:1069180034AF95EA0C0F7FF425AF104619462CE7E3
:1069280095EA0C0F06D152EA03353FF4FDAE104646
:10693800194622E750EA410618BF52EA43067FF497
:10694800C5AE50EA41047FF40DAF52EA43057FF427
:10695800EBAE12E74FF0FF3C06E000BF4FF0010C32
:1069680002E000BF4FF0010C4DF804CD4FEA410C96
:106978007FEA6C5C4FEA430C18BF7FEA6C5C1BD063
:1069880001B050EA410C0CBF52EA430C91EA030FE4
:1069980002BF90EA020F0020704710F1000F91EA41
:1069A800030F58BF994208BF90422CBFD8176FEA0F
:1069B800E37040F0010070474FEA410C7FEA6C5CDD
:1069C80002D150EA013C07D14FEA430C7FEA6C5CE4
:1069D800D6D152EA033CD3D05DF8040B704700BF10
:1069E8008446104662468C461946634600E000BF5E
:1069F80001B5FFF7B7FF002848BF10F1000F01BD30
:106A08004DF808EDFFF7F4FF0CBF012000205DF8FA
:106A180008FB00BF4DF808EDFFF7EAFF34BF01207F
:106A280000205DF808FB00BF4DF808EDFFF7E0FF18
:106A380094BF012000205DF808FB00BF4DF808ED69
:106A4800FFF7CEFF94BF012000205DF808FB00BFD0
:106A58004DF808EDFFF7C4FF34BF012000205DF8B2
:106A680008FB00BF4A0011D212F5001211D20DD551
:106A78006FF47873B3EB62520ED44FEAC12343F03C
:106A8800004343EA505323FA02F070474FF00000E6
:106A9800704750EA013002D14FF0FF3070474FF095
:106AA8000000704753B94AB9002908BF00281CBF25
:106AB8004FF0FF314FF0FF3000F0A2B9ADF1080CF4
:106AC8006DE904CE00F02AF8DDF804E0DDE90223E0
:106AD80004B07047D0B500220E4B06460F46FFF7AC
:106AE80027FDFFF7BFFF0446FFF7ACFC00220A4B67
:106AF800FFF71EFD02460B4630463946FFF764FB9A
:106B0800FFF7B0FF2346002242EA0002104619466A
:106B1800D0BD00BF0000F03D0000F0412DE9F04776
:106B28008C460E460446089D002B50D18A421746D3
:106B38006CD9B2FA82FEBEF1000F0BD0CEF1200460
:106B480020FA04F401FA0EF644EA060C02FA0EF7EB
:106B580000FA0EF44FEA1749220CBCFBF9F01FFAB1
:106B680087F809FB10C642EA064600FB08F3B34261
:106B780009D9F61900F1FF3280F02281B34240F2C0
:106B88001F8102383E44F61AA2B2B6FBF9F309FB9C
:106B9800136642EA064403FB08F8A04509D9E4193C
:106BA80003F1FF3280F00A81A04540F20781023BE1
:106BB8003C44C8EB040443EA00400021002D62D0A5
:106BC80024FA0EF400232C606B60BDE8F0878B423A
:106BD80007D9002D55D0002185E841000846BDE8B9
:106BE800F087B3FA83F1002940F09080B34202D3D2
:106BF800824200F2F880841A66EB03060120B4464C
:106C0800002D40D085E81010BDE8F08712B90127A3
:106C1800B7FBF2F7B7FA87FEBEF1000F35D1F31BC9
:106C28004FEA17481FFA87FC0121B3FBF8F0220C42
:106C380008FB103642EA06460CFB00F3B34207D9BC
:106C4800F61900F1FF3202D2B34200F2CE801046AC
:106C5800F61AA2B2B6FBF8F308FB136642EA06443A
:106C68000CFB03FCA44507D9E41903F1FF3202D257
:106C7800A44500F2B5801346CCEB040443EA004077
:106C88009CE729462846BDE8F087CEF1200106FAA0
:106C98000EF307FA0EF720FA01F94FEA1748CE402B
:106CA80049EA0309B6FBF8FA4FEA194408FB1A66E1
:106CB8001FFA87FC44EA06430AFB0CF29A4200FAE0
:106CC8000EF40AD9DB190AF1FF3180F087809A4265
:106CD80040F28480AAF1020A3B449B1A1FFA89F900
:106CE800B3FBF8F108FB113349EA034301FB0CF647
:106CF8009E4207D9DB1901F1FF326BD29E4269D956
:106D080002393B449B1B41EA0A418EE7C1F1200E40
:106D180022FA0EF48B40234320FA0EF706FA01F408
:106D28004FEA134C26FA0EF63C43B6FBFCF9270C47
:106D38000CFB19661FFA83F847EA064609FB08F7B1
:106D4800B74202FA01F200FA01FA08D9F61809F175
:106D5800FF3041D2B7423FD9A9F102091E44F61BC0
:106D6800A0B2B6FBFCF40CFB146640EA064704FB31
:106D780008F8B84507D9FF1804F1FF3028D2B845FC
:106D880026D9023C1F4444EA0940C8EB0707A0FB88
:106D980002894F4544464E4614D329D065B3BAEB11
:106DA800040367EB060707FA0EFECB40CF404EEA16
:106DB800030385E888000021BDE8F0871346F8E65C
:106DC8001046E0E6B8EB020469EB03060138E5E794
:106DD8000446D8E7114695E78146C0E78A467CE72E
:106DE800023B3C4448E708460AE702383E442FE79E
:106DF800C245E7D33E46D1E72946BDE8F08700BF44
:106E0800704700BF10B5054C13462CB10A46014621
:106E18000220AFF3008010BD204610BD0000000026
:106E280010B5431E0A44914204D011F8014B03F8EF
:106E3800014FF8E710BD02440346934202D003F81D
:106E4800011BFAE7704710F8012B11F8013B012AE2
:106E580028BF9A42F7D0D01A7047034611F8012B81
:106E680003F8012B002AF9D17047034613F8012BC8
:106E7800002AFBD1181A0138704700001D400D0088
:106E880059400D0085400D0089400D0000000000AC
:106E98006F6E006F6666002C20646174613A200092
:106EA800616E616C6F6776616C75650062726967A7
:106EB80068746E65737300736574706F696E7400BF
:106EC8006C6564006C6F775F6C69676874000000BC
:106ED800000000000000000095480D008B480D00E0
:106EE80081480D0037480D0075480D0069480D00B0
:106EF8005D480D0055480D004B480D0041480D00F8
:106F0800D14E0D000000000000000000AB490D004C
:106F1800A1490D0097490D008D490D0081490D00CB
:106F280075490D0069490D0061490D0057490D006B
:106F38004D490D00D14E0D0000000000000000007A
:106F4800C9490D00134A0D00EB490D00CB490D004E
:106F5800F3490D00FB490D00034A0D000B4A0D00D3
:106F680000000000000000005B4A0D004D4A0D00C3
:106F78004F4A0D006C6E00666E00636F64650064B6
:106F8800657461696C000D0A002530313075200088
:106F98005D20002C200028293A2000205B00636F28
:106FA8006465203D200025690064657461696C731F
:106FB800203D2000626175640053657269616C0050
:106FC80053657269616C3100747970650070617223
:106FD800616D00636D6400696400686E64007374B9
:106FE800726D0066696C74006C766C00616464484C
:106FF800616E646C65720072656D6F766548616E6E
:10700800646C657200656E756D48616E646C65725E
:1070180073004A534F4E53747265616D4C6F6748E5
:10702800616E646C657200617070006E6F6E6500F1
:10703800747261636500696E666F007761726E00D5
:107048006572726F720070616E696300616C6C00CA
:107058000000000000000000CB4B0D00C14B0D00EC
:10706800B74B0D00AD4B0D00A14B0D00954B0D001E
:10707800894B0D00814B0D00774B0D006D4B0D00BA
:10708800D14E0D00666630333A3A313A31303031FC
:1070980000746831006D6573687075620077697295
:1070A800696E67007061727365207061636B6574E7
:1070B800202564000000000000000000694E0D005B
:1070C800734E0D007D4E0D00874E0D00914E0D0044
:1070D8009D4E0D00A94E0D00B54E0D00BD4E0D0084
:1070E800C74E0D00D14E0D0000000000000000004A
:1070F80041500D0043500D0000000000000000004A
:107108007F500D0081500D00E1520D00B3520D006B
:107118005A00252B3033643A253032750025592D15
:10712800256D2D25645425483A254D3A2553257A51
:107138000061736374696D6500726563656976657E
:10714800642025642062797465732066726F6D20EF
:1071580025732325640073656E645061636B6574E1
:107168002073697A652025642C2025732325640003
:10717800626567696E207061636B6574202573238F
:10718800256400000000000000000000615A0D00A6
:10719800855A0D0095530D00BF540D008D530D00F9
:1071A800AB530D00C9530D00E3530D0007540D00F8
:1071B800A3540D00DD570D0045550D00C5560D00B3
:1071C80075530D00F9590D0049560D007D550D00F8
:1071D800BF590D00E9540D0083530D0025550D00CE
:1071E80089530D00E5530D00F0FFFFFF000000007C
:1071F800FF530D000000000000000000AF5A0D0012
:10720800D35A0D00DF5A0D00694F0D00BB5A0D000F
:10721800C75A0D00C15A0D00CD5A0D00B15A0D00C4
:10722800B55A0D000000000000000000895B0D0049
:10723800CD5B0D00A75B0D00694F0D00A15B0D0034
:107248008B5B0D00935B0D00C75B0D009B5B0D0016
:10725800855B0D0045430D00A1480D00B5490D00A3
:107268005D4B0D001D4E0D00554F0D0025500D00B6
:1072780045530D0061530D00E95E0D00395F0D00A7
:10728800FD5F0D0081600D0005610D00000000002C
:087298000000000000000000EE
:0872A00084F8FF7F01000000EB
:1072A8000F0000000E000000000000000000F03F8A
:1072B800000000000000444013000000000000002F
:1072C8000000000000C07240070000000600000037
:0472D80039710D00FB
:1072DC00FFFFFFFF00000102030405060708090A6F
:1072EC000B0C0D0E0F101112131415161718191A6A
:0872FC001B1C1D1E1F202800B1
:047304007856341271
:04000003D0004018D1
:00000001FF
