:02000002D0002C
:1040000000400D0040600D00000006000E0005019C
:08401000040115050000000089
:10401800845C0D0009480A49884208B505D0094A58
:10402800824202D0121A01F0CAFD0748074A00214D
:10403800121A01F0EAFD014808BD00BF4CE3032055
:10404800B05F0D00B4E30320B4E30320F0E70320DE
:1040580070B501F0F3FB074C074BE41AA4080025E0
:104068001E46A54204D056F8253098470135F8E792
:1040780070BD00BFAC5F0D00745F0D0000F016B896
:1040880008B500F069F8BDE8084001F0A5BB00F0EC
:1040980029BA00F02FBA00F02DBA0078B0FA80F0F3
:1040A80040097047012303707047000070B592B053
:1040B80000240C23202508940994ADF82230ADF88B
:1040C80024500A9400F040FE0DEB050100F01FFC9F
:1040D80000F03AFE4FF416732A4600931021234647
:1040E80000F058FC00F030FE082100F0E0FB01254C
:1040F80002261749ADF82C500CA8ADF82E6000F038
:1041080051FAC9238DF8443000F01EFE0BA900F0C7
:1041180011FC00F019FE214600F0D9FB43F6982067
:1041280000F0F0F90B4B8DF815601B68029308221C
:104138001E23ADF81620019300950DF115032A46AC
:104148000DF1160106A801F0E3F912B070BD00BF29
:10415800985C0D00C0E303207047000008B5084BC9
:1041680001221A6000F0A0F8064B00221A705A804B
:104178004FF6FF729A800320BDE8084000F02CB982
:10418800C0E30320B8E3032008B5024B1B689B6813
:10419800019308BD7402030008B5024B1B685B69F4
:1041A800019308BD7402030008B5024B1B681B6B22
:1041B800019308BD7402030008B5024B1B681B6C11
:1041C800019308BD7402030008B5024B1B689B6C81
:1041D800019308BD7402030008B5024B1B68DB6C31
:1041E800019308BD7402030008B5024B1B681B6DE0
:1041F800019308BD7402030008B5024B1B681B6ECF
:10420800019308BD7402030008B5024B1B689B6844
:10421800019308BD4802030008B5024B1B681B69DF
:10422800019308BD4802030008B5024B1B685B698F
:10423800019308BD4802030008B5024B1B681B6BBD
:10424800019308BD4802030008B5024B1B685B6C6C
:10425800019308BD4802030008B5024B1B68DB6CDC
:10426800019308BD4802030008B5024B1B685B6D4B
:10427800019308BD4802030008B5024B1B685B6840
:10428800019308BD1802030008B5024B1B68DB68E0
:10429800019308BD1802030008B5024B1B685B694F
:1042A800019308BD1802030008B5024B1B681B6880
:1042B800019308BD2C02030008B5024B1B685B691B
:1042C800019308BD6402030008B5024B1B689B6894
:1042D800019308BD6802030008B5024B1B68DB6840
:1042E800019308BD6802030008B5024B1B68DB692F
:1042F800019308BD3002030008B5024B1B681B6818
:10430800019308BD3C02030008B5024B1B68DB683B
:10431800019308BD3C02030008B5024B1B681B69EA
:10432800019308BD3C02030008B5024B1B685B699A
:10433800019308BD3C02030008B5024B1B689B694A
:10434800019308BD3C02030008B5024B1B68DB69FA
:10435800019308BD3C02030008B5024B1B689B6A29
:10436800019308BD3C02030008B5024B1B681B689B
:10437800019308BD4C02030008B5024B1B681B697A
:10438800019308BD4C02030008B5024B1B685B692A
:10439800019308BD4C02030008B5024B1B689B69DA
:1043A800019308BD4C02030008B5024B1B68DB698A
:1043B800019308BD4C02030008B5024B1B681B6A39
:1043C800019308BD4C02030008B5024B1B685B6BE8
:1043D800019308BD6002030008B5024B1B685B68C7
:1043E800019308BD2002030008B5024B1B685B69F6
:1043F800019308BD2002030008B5034B1B68D3F8DE
:104408008830019308BD00002002030008B5034B63
:104418001B68D3F89430019308BD00002002030004
:1044280008B5034B1B68D3F8A030019308BD000002
:104438002002030008B5024B1B68DB6B019308BD23
:104448004402030008B5024B1B685B68019308BD72
:104458004002030008B5024B1B689B68019308BD26
:104468004002030008B5024B1B68DB68019308BDD6
:104478004002030008B5024B1B681B69019308BD85
:104488004002030008B5024B1B685B69019308BD35
:104498004002030008B5024B1B689B69019308BDE5
:1044A8004002030008B5024B1B68DB69019308BD95
:1044B8004002030008B5024B1B681B6A019308BD44
:1044C8004002030008B5024B1B681B6B019308BD33
:1044D8004002030008B5024B1B685B6B019308BDE3
:1044E8004002030008B5024B1B681B68019308BD16
:1044F8001C02030008B5024B1B685B68019308BDEA
:104508001C0203000021FFF76FBF704700207047AF
:1045180010B51421044601F0D2F9204610BDFFF76A
:10452800B8BD10B5036804469B689847A368013B6B
:10453800A3602BB923682046DB68BDE81040184704
:1045480010BD08B582798B799A4206D1062201F00E
:1045580027FBB0FA80F0400908BD002008BD10B55F
:1045680014220446002101F050FB204610BD000033
:1045780010B500230370044B04461868FFF76CFE5F
:1045880001232370204610BDE8E3032010B503780B
:1045980004461BB1024B1868FFF766FE204610BDA3
:1045A800E8E303202DE9F04188460746FFF7D7FFE7
:1045B800B8F1000F02D0002610250FE01022414666
:1045C800384601F022FB4AE018F80630A3F1300221
:1045D800D1B2092908D8531C14D10136404601F03C
:1045E80045FB8642F0D333E0A3F16102052A02D8E5
:1045F800A3F15702EFE7A3F14102052AEDD8A3F191
:104608003702E8E71201013DD4B27C55404601F07B
:104618002DFB01368642E0D218F80620A2F13003BD
:10462800D9B209290ED9A2F16103052B02D8A2F14A
:10463800570307E0A2F14103052B94BFA2F137030A
:104648004FF0FF335AB201331CBF14437C55C4E703
:104658007B190022BB4202D003F8012DFAE701239F
:104668003B743846BDE8F081002101621F2201F049
:10467800CCBAF7B50D460446FFF7F6FF2B7D206A46
:1046880013F0FD0F3ED02318022201212254597045
:10469800062199701A21D9700530FF2120621971FD
:1046A80002AB4C2123F8021D1B882352206A2118D3
:1046B800031D8A7023621523CB70C31C05F11402F5
:1046C80023442E1D12F8017D03F8017FB242F9D16F
:1046D80000F1150222622B881B0A0B7500F11601E6
:1046E80021622B88A35400F1170222626B881B0AEF
:1046F800635400F1180323626988A15419302062B9
:104708002A7EE25403B0F0BDF0B58BB10024E51C5D
:104718008D420FD8661C055D875D974205D12E44F2
:10472800B14207D31C60681CF0BD01352C44EEE78C
:104738001846F0BD0020F0BD2DE9F74304460E46AB
:104748001D461746002A3AD00A4601AB016AFFF710
:10475800DBFF9DF82830226A03BBF8B1961C2E4473
:10476800361A1F2E2BD8DDF8048008F10209C8EB91
:104778000202121A00EB080105EB090092B221446B
:10478800204401F027FA6B1C04F808302A46394601
:1047980004EB090001F013FA266210E0901C2B18B4
:1047A8001F2B0CD86B1CA354224420623946567028
:1047B80020442A4601F003FA226A2A442262206A27
:1047C80003B0BDE8F0831FB50446034600F11F029D
:1047D800002003F8010B93424FF00001F9D104AA1D
:1047E800062302F8013D0123216200912046194663
:1047F800FFF7A2FF204604B010BD38B504460D46A9
:10480800FFF7E1FF29462046FFF733FF204638BD72
:104818002DE9F84390E850000D461746984604EBFA
:10482800C606A64233D023689A69D96902EBC1014A
:1048380091421BD013689BB1B3F84200A84211D033
:10484800B3F84400A8420DD0B3F84600A84209D0F6
:10485800B3F84800A84205D0B3F84A00A84201D0EE
:104868000832E5E717B1B8F1000F01D10834D8E7ED
:10487800D3F84C90B9F1000FF8D0B3F84420AA420D
:10488800F4D11B6D089A41463846C847EEE7BDE8A3
:10489800F88308B500680968C28ACB8A9A4204D1AD
:1048A80001310130FFF74DFE08BD002008BD13B5EA
:1048B8000C4601A8FFF75CFE00212046FFF77CFCB0
:1048C800044601A8FFF762FE204602B010BD30B5CD
:1048D80085B0002468460D46FFF74AFE0C232146A2
:1048E80001A8019402940394ADF80630FFF774FC14
:1048F800002805DB214601A88DF80C50FFF764FC61
:1049080004466846FFF742FE204605B030BD08461B
:104918000021FFF759BC13B501A8FFF729FE0020B5
:10492800FFF76AFC044601A8FFF730FE204602B0F4
:1049380010BD000073B5064601A80C46FFF718FE27
:104948001249242000F0C6FF054698B12146FFF71A
:1049580054FF0022296A2846FFF746FC00280BDB93
:1049680005213046FFF7B3FF002805DB3046FFF787
:10497800D2FF01E0064C00E004462846FFF7BAFDE6
:1049880001A8FFF703FE204602B070BD0C5F0D00C2
:10499800FCFEFFFF7FB5684615460E461C46FFF72E
:1049A800E7FD00210C23019101A8ADF80630BDF800
:1049B8002030ADF80C40ADF80E30ADF80860ADF819
:1049C8000A50FFF7F1FB04466846FFF7DFFD204673
:1049D80004B070BD30B5836993E8140002EBC404D9
:1049E800A242134607D01D68ED8A8D4202F10802E3
:1049F800F6D1184630BDC2691368526803EBC2028B
:104A08009A42184606D00468E48A8C4203F10803E7
:104A1800F6D130BD002030BD10B50446006828B17D
:104A28004368013B43600BB9FFF77BFD204610BD8F
:104A38000B68036013B15A6801325A60704710B5A9
:104A480051F8043B044640F8043BFFF7F1FF2046C9
:104A580010BD70B504684368054604EBC306A6425A
:104A680004D0201DFFF7D8FF0834F8E72868FFF7BF
:104A780041FD284670BD38B5044610200D78FFF773
:104A880006FB20B100230360436083600573206048
:104A9800204638BD38B50468054634B12046FFF7CE
:104AA800D8FF1021204600F00AFF284638BD10B56F
:104AB800046904F11C00FFF7EDFF2046BDE8104033
:104AC800FFF7E7BA70B504684368054604EBC30608
:104AD800A64204D0201DFFF79FFF0834F8E7002303
:104AE8006B6070BD8842F8B506460C46154614D969
:104AF800904213D2A2F108056C1AA1F108070444E8
:104B0800AF4218D01CB129462046FFF798FF281D50
:104B1800FFF782FF083D083CF2E70CD0AC420AD010
:104B28001EB121463046FFF78AFF201DFFF774FFAC
:104B380008340836F2E7F8BDF8B50B68DA690E46AE
:104B480013685168054603EBC101002499420DD052
:104B580018688269C06902EBC000904204D052F81C
:104B6800087B87F85C40F8E70833EFE733684FF6CF
:104B7800FF710022D9827F211A701976C3F80A20A2
:104B8800C3F80E20C3F812202C686B6804EBC30727
:104B9800BC4216D031462046FFF77BFE08B90834E0
:104BA800F6E774B1201DFFF737FF2B686A6804F138
:104BB800080103EBC2022046FFF794FF6B68013B34
:104BC8006B60F8BDF7B5044646686846FFF737FFDF
:104BD8006768A3689F4214DB0137002F0BDDF800DC
:104BE800FFF780FC054600B394E8060001EBC2021B
:104BF800FFF778FF00E000252068FFF77BFC2560C1
:104C0800A7602368626803EBC60503EBC202294666
:104C180005F10800FFF766FF1DB169462846FFF752
:104C28000EFF636801336360012501A8FFF7F4FEF6
:104C3800284603B0F0BD70B504684368054604EB28
:104C4800C306A64204D0201DFFF7E6FE0834F8E7A5
:104C58002868FFF74FFC284670BD10B5044638B1E8
:104C6800FFF7E9FF20460C21BDE8104000F027BE01
:104C780010BD10B5044638B1FFF7DDFF20460C2102
:104C8800BDE8104000F01BBE10BD000037B5002580
:104C98000446056045608560C560056145618561BC
:104CA800C5612846FFF770FA20B1254A29460A202F
:104CB800FFF78AFB01230DF1030101A88DF80330EA
:104CC800FFF7D9FE2569019B23610022019235B1C6
:104CD8002846FFF7BEFE1021284600F0F0FD01A887
:104CE800FFF7D8FE0120FFF7D2F9636960611BB1B5
:104CF8000121184600F0E3FD0C20FFF7C8F9034630
:104D080018B10022026042608260A069A36108B104
:104D1800FFF7A3FF0C20FFF7BAF9034618B10022EA
:104D2800026042608260E069E36108B1FFF7A1FFB9
:104D3800002221460348FFF72FFA204603B030BD72
:104D480091420D00414E0D0010B50A4C2368DB0757
:104D58000ED42046FFF7A1F950B10748FFF796FF98
:104D68002046FFF79FF9054A0549034800F0A2FDD0
:104D7800014810BDE4E30320C4E30320B4E30320A7
:104D88008D4D0D0010B50446C06908B1FFF771FFDD
:104D9800A06908B1FFF761FF606910B1012100F057
:104DA8008EFD04F11000FFF775FE204610BD0000CF
:104DB80073B500250560456006462020FFF767F9B2
:104DC8000446B0B1034601A903F8015BC0F80150DD
:104DD8005D604FF6FF73C3827F23C0F80A50C0F8A6
:104DE8000E50C0F8125003761C308DF80450FFF7AF
:104DF80042FE002314200193FFF749F928B101234B
:104E080043608360064B03600461736834607060BC
:104E180001A80193FFF700FE304602B070BD00BF45
:104E2800C85C0D0013B54FF0000101AA0446FFF756
:104E3800BFFF204602B010BDF0B504468BB00D464A
:104E4800002900F0A58003A8FFF792FB6368033BE5
:104E5800072B00F29A80DFE803F0044498989898AA
:104E6800808B06A8FFF7DEFF069BA2899A826289DB
:104E78005A8222891A822289DA81228BDA82224690
:104E8800A17D52F8100F04909288ADF81420049870
:104E9800BDF81420D971C3F80100A3F805202B68C8
:104EA80013B1A96806A89847A37B012B069B0BBFE3
:104EB800022201221A701A700CBFAC69EC6963688F
:104EC800002B0ADC06A908A8FFF7B9FD08A92046A7
:104ED800FFF778FE09A8FFF79FFD07A8FFF79CFDDD
:104EE80053E0A1892846FFF775FD044600284CD0F9
:104EF8006B680BB1E968984723681A78012A04D1CE
:104F08002146E869FFF718FE3FE0DA69A8691368E7
:104F18005168002603EBC10199420DD01D68AA69AA
:104F2800ED6902EBC505954204D052F8087B87F875
:104F38005C60F8E70833EFE723684FF6FF7100225B
:104F4800D9827F211A701976C3F80A20C3F80E2077
:104F5800C3F81220FFF7B6FD17E0A18A2846FFF72D
:104F680039FD90B1E18A0090E368226928690AE076
:104F7800A18A2846FFF72EFD38B10568E18A00901E
:104F8800E3682269E869FFF743FC03A8FFF7FEFA24
:104F98000BB0F0BD024800230360FFF755B900BF0E
:104FA800E8E3032010B58368044613B103220146E1
:104FB8009847204610BD002211464068FFF77ABA8C
:104FC800002211464068FFF785BA00224068FFF7C3
:104FD80079BA002281F001014068FFF763BA002323
:104FE8001A4619464068FFF755BA00231A4619466B
:104FF8004068FFF747BA002211464068FFF73ABAFF
:10500800002211464068FFF725BA002202214068B5
:10501800FFF728BA00231A464068FFF713BA0000C2
:10502800024B03225A60024A1A607047ECE30320DD
:10503800E45C0D00704710B51821044600F03FFCF1
:10504800204610BDF0B5037D062B8DB00E4600F14D
:1050580004074FF0000402D000F1080518E00CAD79
:10506800394605F8304D2F232A460A20FFF724F940
:10507800284600F0FBFD33680246DB6829463046C7
:1050880098470FE024B12E21304600F0C7F90444B8
:1050980015F8011D0A22304600F0F0F9BD4204441B
:1050A800F0D120460DB0F0BD10B5054B04461122D5
:1050B80040F8043B002100F0A8FD204610BD00BFC9
:1050C800185D0D000346074A10B543F8042B01F19B
:1050D800100251F8044B43F8044B9142F9D10A7875
:1050E8001A7010BD185D0D0010B59DF8084044EA0F
:1050F800032343EA024242EA016104234160037543
:1051080010BD37B50D788B784A78C9780091294653
:10511800FFF7EAFF03B030BD014B024A1A6070473F
:10512800F4E30320DC5D0D00002211464068FFF720
:10513800C1B9002211464068FFF7CCB90022406887
:10514800FFF7C0B9002281F001014068FFF7AAB952
:1051580000231A4619464068FFF79CB900231A46EF
:1051680019464068FFF78EB9002211464068FFF7DC
:1051780081B9002211464068FFF76CB9002202216C
:105188004068FFF76FB900231A464068FFF75AB91D
:1051980038B5054688B104684CB1A3681BB1032231
:1051A8002146204698471021204600F088FB2846D3
:1051B8001421BDE8384000F082BB38BD10B1036847
:1051C8005B681847704710B503680446BBB1586858
:1051D800FFF71AF878B923685A7C12B95868FFF7AC
:1051E8001BF823685868FFF71FF82068002323601E
:1051F80028B1FFF7CDFF206808B1FFF7C9FF2046A7
:1052080010BD000038B50C4B03600446D0F8CC0143
:1052180008B1FEF740FFD4F8C45135B12846FFF76E
:10522800D2FF0421284600F04AFBA06808B1FFF726
:10523800C5FF204638BD00BF105E0D0038B50D4CC7
:105248000D4B23600025022304F5E4706360A5601C
:10525800C4F8C451C4F8C851FEF7F6FF074BC4F8A8
:10526800CC5123602046064A0649BDE8384000F084
:1052780021BB00BFF8E30320445E0D00105E0D0063
:10528800B4E303200D520D0000231A464068FFF7CF
:10529800D9B8002202214068FFF7E4B8002211467D
:1052A8004068FFF7D7B8002211464068FFF7E2B818
:1052B80000231A4619464068FFF7E4B800231A4647
:1052C80019464068FFF7E6B8002281F001014068FE
:1052D800FFF7E8B800224068FFF7F4B8002211464B
:1052E8004068FFF7F7B8002211464068FFF7E2B8B8
:1052F8002DE9F043002495B016460D460746FFF702
:10530800D3FE214620220CA8009400F07EFC402306
:105318000C9321466B460CAA3046FEF7DDFF044687
:10532800002844D1024601216868FFF7A3F802214A
:10533800804622466868FFF79DF8009E8146214610
:10534800002E34D0002932D17368022B02D00A2BE8
:1053580009D02AE0B8F1000F27D071693846043126
:10536800FFF7CFFE20E0B9F1000F1ED074691122BB
:1053780001A800F04AFC06238DF8143001AD04F1B1
:1053880008031834186859682A4603C20833A34228
:105398001546F7D101A906A807ADFFF793FE0FCD73
:1053A8003C1D0FC42B6823700121F669C8E70098DB
:1053B800FEF78AFF384615B0BDE8F083024B034A72
:1053C8001A6000225A607047C8E50320445E0D0049
:1053D800F8B506460D468F180024BD420CD0336838
:1053E80015F8011B9B6830469847002801DB0444E8
:1053F800F3E7002C08BF04462046F8BD70B5054603
:105408000C46084649B100F031FC2B68024621469B
:105418002846DB68BDE87040184770BD03689B6884
:10542800184730B58BB00B4600218DF82410012A9F
:1054380098BF0A220DF12304B3FBF2F505FB1233E2
:1054480003F0FF03092B94BF30333733DBB2214617
:1054580004F801392B46002DEED1FFF7CFFF0BB032
:1054680030BD10B42AB903685DF8044B9B68C9B213
:105478001847D2B25DF8044BFFF7D3BFFFF7F1BF6F
:1054880010B50446FFF78EFD204610BD0348044AB8
:1054980004490023836000F00DBA00BFD0E5032063
:1054A800B4E3032089540D00704710B51021044659
:1054B80000F005FA204610BD70B5084B036004469D
:1054C80000250E4640F80C5FFEF7B6FE3046267102
:1054D800FEF70AFFA560204670BD00BF785E0D008C
:1054E80010B500240470448000294FF6FF748480AE
:1054F80007DD0139994209D232F81130838001233E
:1055080001E002D10223037010BD418010BD0000EC
:1055180070B586B016461A46002302930C9B019379
:105528000D460B9B009304460A9B31462846FEF71E
:1055380077FF33462A46014604A8FFF7D1FF064BFA
:105548000498BDF8142018609A801A689B88226015
:105558002046A38006B070BDE0E50320044B002080
:105568004FF6FF72187058809A80FEF735BF00BF5B
:10557800E0E50320024B1A68024B1A60704700BF2F
:105588004CE30320E8E5032070474174704708B5F1
:10559800007CFEF7E1FE20EAE07008BD08B5007C5B
:1055A800FEF7BAFE20EAE07008BD08B5007CFEF7F9
:1055B800C3FE30EA200028BF4FF0FF3008BD08B511
:1055C800007CFEF7B1FE30EA200028BF4FF0FF3024
:1055D80008BD007CFEF7B8BE10B51421044600F0E3
:1055E8006EF9204610BD70B5457C04460E4625B9B7
:1055F800007CFEF7B1FE002805DD3146207CBDE8C1
:105608007040FEF781BE284670BD000010B5044604
:1056180008461146002262604FF47A72A260054A79
:1056280022600122207462741A46FEF765FE204645
:1056380010BD00BFB45E0D0038B50C4D296811F0DF
:10564800010411D12846FEF728FD68B1084A094B24
:1056580009482146FFF7DAFF2846FEF723FD074AE7
:105668000749054800F026F9034838BD84E60320B9
:1056780088E6032000E60320ECE50320B4E30320DA
:1056880091550D0041747047704708B50021007CA2
:10569800FEF782FE30EA200028BF4FF0FF3008BD39
:1056A80008B50121007CFEF777FE30EA200028BF0C
:1056B8004FF0FF3008BD08B5007CFEF765FE20EA14
:1056C800E07008BD08B5007CFEF756FE20EAE070E1
:1056D80008BD007CFEF770BE10B51421044600F02A
:1056E800EEF8204610BD38B50446007C0D46FEF79E
:1056F8004BFE002801DC607C28B12946207CFEF79F
:1057080053FE20EAE07038BD10B5044600236360FC
:105718004FF47A73A360054B236001230846217474
:1057280063741146FEF720FE204610BDE45E0D00AE
:1057380010B514220446002100F067FA204610BD77
:1057480030B50E4D87B001A8FFF7F2FF296811F0B8
:10575800010410D12846FEF7A0FC60B101AA214639
:105768000748FFF7D1FF2846FEF79CFC054A064983
:10577800034800F09FF8024807B030BD0CE703204B
:1057880010E70320B4E3032091560D0008B50F4B32
:1057980033B1FFF7D5FF03681B69984700280DDC74
:1057A8000B4B33B1FFF748FF03681B699847002884
:1057B80007DC084B43B1AFF3008008BDAFF30080AE
:1057C800EEE7AFF30080F4E708BD00BF000000007B
:1057D800000000000000000008B5FFF7D7FFFEF743
:1057E8005BFD014B186008BD28E7032007B50023BF
:1057F80000931A466FF07701FEF708FE03B05DF8D4
:1058080004FB000007B543880A2B08D0502B09D1A8
:10581800094B1B683BB103B05DF804EB1847FFF771
:10582800E5FF06E0002300931A466FF07701FEF7C4
:10583800EDFD03B05DF804FB24E7032010B5FEF787
:105848001BFD044600F0EAF9074B13B12046AFF3FD
:10585800008000210448FEF7EDFD00210348BDE863
:105868001040FEF7C9BD00BF000000000D580D0034
:1058780070B50C4C0C4E0D4D00212046FFF71CFE58
:1058880020460B4C3246294600F014F801212046E8
:10589800FFF712FE324629462046BDE8704000F068
:1058A80009B800BF2CE70320B4E30320B1540D006E
:1058B8003CE703200B460146184600F063B9FEF7A3
:1058C800E8BB0000024B1868BFF35F8F704700BF4A
:1058D8004CE7032010B5002814BF044601242046D5
:1058E800FEF700FE20B9FFF7EDFF08B18047F6E7A5
:1058F80010BD0000244B1A68D0075CBF01221A6053
:10590800224B1A68D1075CBF01221A60204B1A6823
:10591800D2075CBF01221A601E4B1A68D0075CBF11
:1059280001221A601C4B1A68D1075CBF01221A6059
:105938001A4B1A68D2075CBF01221A60184B1A6802
:10594800D0075CBF01221A60164B1A68D1075CBFEA
:1059580001221A60144B1A68D2075CBF01221A6030
:10596800124B1A68D0075CBF01221A60104B1A68E4
:10597800D1075CBF01221A600E4B1A68D2075CBFC0
:1059880001221A60704700BF7CE7032078E70320F4
:1059980074E7032070E703206CE7032068E703201F
:1059A80064E7032060E703205CE7032058E703204F
:1059B80054E7032050E70320184B1A68D1075CBF4F
:1059C80001221A60164B1A68D2075CBF01221A60BE
:1059D800144B1A68D0075CBF01221A60124B1A6870
:1059E800D1075CBF01221A60104B1A68D2075CBF4E
:1059F80001221A600E4B1A68D0075CBF01221A6098
:105A08000C4B1A68D1075CBF01221A600A4B1A684E
:105A1800D2075CBF01221A60704700BF9CE70320D1
:105A280098E7032094E7032090E703208CE70320FE
:105A380088E7032084E7032080E70320184B1A68CF
:105A4800D1075CBF01221A60164B1A68D2075CBFE7
:105A580001221A60144B1A68D0075CBF01221A6031
:105A6800124B1A68D1075CBF01221A60104B1A68E2
:105A7800D2075CBF01221A600E4B1A68D0075CBFC0
:105A880001221A600C4B1A68D1075CBF01221A6008
:105A98000A4B1A68D2075CBF01221A60704700BF20
:105AA800BCE70320B8E70320B4E70320B0E70320EE
:105AB800ACE70320A8E70320A4E70320A0E703201E
:105AC800244B1A68D0075CBF01221A60224B1A685F
:105AD800D1075CBF01221A60204B1A68D2075CBF4D
:105AE80001221A601E4B1A68D0075CBF01221A6097
:105AF8001C4B1A68D1075CBF01221A601A4B1A683E
:105B0800D2075CBF01221A60184B1A68D0075CBF25
:105B180001221A60164B1A68D1075CBF01221A606D
:105B2800144B1A68D2075CBF01221A60124B1A681C
:105B3800D0075CBF01221A60104B1A68D1075CBFFE
:105B480001221A600E4B1A68D2075CBF01221A6044
:105B5800704700BFECE70320E8E70320E4E70320F1
:105B6800E0E70320DCE70320D8E70320D4E703209D
:105B7800D0E70320CCE70320C8E70320C4E70320CD
:105B8800C0E7032010B5054C13462CB10A46014660
:105B98000220AFF3008010BD204610BD00000000B9
:105BA80010B501390244904207D010F8013B11F8B2
:105BB800014FA342F7D0181B10BD002010BD10B52F
:105BC800431E0A44914204D011F8014B03F8014FD7
:105BD800F8E710BD884210B501EB020301D8421E58
:105BE8000BE09842FBD28118D21AD34204D013F8A2
:105BF800014D01F8014DF8E710BD994204D011F8A4
:105C0800014B02F8014FF8E710BD024403469342E6
:105C180002D003F8011BFAE77047000038B5124BB1
:105C28001C68A36B0546D3B91820FEF75BFC43F24A
:105C38000E33A06303804AF6CD33438041F2342308
:105C480083804EF26D63C3804DF6EC6303810523B8
:105C580043810B23838101220023C0E90423A36B22
:105C680000221D615A6138BDB0E30320034613F8D2
:105C7800012B002AFBD1181A013870471D400D006E
:105C880059400D0085400D0089400D0000000000BE
:105C980039633162386264632D353534382D3465A3
:105CA80033322D386137382D623966353234313325
:105CB8003132303600000000000000000000000013
:105CC80013450D0019450D00B74A0D0027450D0075
:105CD80015450D0000000000000000001D500D00DB
:105CE80013500D0009500D00FF4F0D00F34F0D002C
:105CF800E74F0D00DB4F0D00D34F0D00C94F0D00CE
:105D0800BF4F0D00F9520D00000000000000000018
:105D18004D500D003D500D003F500D0066006C6E5B
:105D280000666E00636F64650064657461696C0089
:105D38000D0A00253031307520005D2000256400F3
:105D48002C200028293A2000205B00636F6465201E
:105D58003D200025690064657461696C73203D20ED
:105D680000626175640053657269616C0053657205
:105D780069616C31007479706500706172616D00E1
:105D8800636D6400696400686E64007374726D000A
:105D980066696C74006C766C0061646448616E645A
:105DA8006C65720072656D6F766548616E646C65CE
:105DB8007200656E756D48616E646C657273004A39
:105DC800534F4E53747265616D4C6F6748616E64D2
:105DD8006C657200617070006E6F6E650074726140
:105DE800636500696E666F007761726E0065727236
:105DF8006F720070616E696300616C6C0000000076
:105E080000000000000000008F510D0085510D00BA
:105E18007B510D0071510D0065510D0059510D0058
:105E28004D510D0045510D003B510D0031510D00F4
:105E3800F9520D00000000000000000091520D0012
:105E48009B520D00A5520D00AF520D00B9520D0026
:105E5800C5520D00D1520D00DD520D00E5520D0066
:105E6800EF520D00F9520D00000000000000000084
:105E7800B1540D00B3540D005A00252B3033643A49
:105E8800253032750025592D256D2D25645425485A
:105E98003A254D3A2553257A0061736374696D6517
:105EA80000000000000000000000000091550D00F7
:105EB800E1550D00EF550D00D9530D00A5550D0006
:105EC800C7550D00B3550D00DB550D0093550D005A
:105ED80097550D00000000000000000091560D00CD
:105EE800E1560D00EF560D00D9530D00CD560D00AB
:105EF80093560D00A9560D00DB560D00BF560D0038
:105F08008D560D0000000000000000000000000099
:105F18000000000000000000000000000000000079
:105F28000000000000000000000000000000000069
:105F38000000000000000000000000000000000059
:105F48000000000000000000000000000000000049
:105F58000000000000000000000000000000000039
:105F680000000000000000004300000065410D0033
:105F78009D4F0D0029500D0021510D0045520D0077
:105F8800C5530D0095540D0065550D007D550D0048
:105F980079580D00FD580D00C1590D00455A0D00E6
:085FA800C95A0D0000000000C1
:105FB000A15E0D0000000000105F0D00305F0D00BD
:105FC000505F0D0000000000000000000000000015
:105FD00000000000705F0D000000000000000000E5
:105FE00000000000000000000000000000000000B1
:105FF00000000000000000000000000000000000A1
:106000000000000000000000000000000000000090
:086010000000000050E3032032
:10601800FFFFFFFF00000102030405060708090A45
:106028000B0C0D0E0F101112131415161718191A40
:086038001B1C1D1E1F20280087
:046040007856341248
:04000003D0004018D1
:00000001FF
