:02000002D0002C
:1040000000400D00CC870D00000006000D000501EA
:0840100004017A050000000024
:044018002C810D00EA
:10401C0009480A49884208B505D0094A824202D0AB
:10402C00121A03F014FF0748074A0021121A03F072
:10403C0034FF014808BD00BFD0E2032030870D00DB
:10404C0044E3032044E30320F0E7032070B503F0BE
:10405C0039FD074C074BE41AA40800251E46A5425F
:10406C0004D056F8253098470135F8E770BD00BFED
:10407C0030870D00F4860D0000F0AEB808B500F0E6
:10408C00F5F8BDE8084003F0EBBC00F0CDBC00F047
:10409C00CBBC00F0D1BC00F0CFBC000008B5034A8B
:1040AC0000210C2000F0E2FBFEE700BFF9450D00FB
:1040BC000078B0FA80F04009704701230370704714
:1040CC007047006A0368DB68184710B5036804463C
:1040DC009B689847A368013BA3602BB923682046D3
:1040EC00DB68BDE81040184710BD00000A4B10B546
:1040FC000446036001F00AFC214601F0F7FD03F0D1
:10410C006BFC03F05BFC2046044B40F8043B01F0D5
:10411C00F3FC204610BD00BF60810D0048810D00EE
:10412C0010B50446FFF7E2FF2046242103F00BFDF7
:10413C00204610BD0EB400B58CB00DAA202352F849
:10414C00041B03928DE8060004930168002304AA63
:10415C000120059300F09AFB0CB05DF804EB03B062
:10416C007047000070B51948C6B00C461849FFF7E7
:10417C00E1FF4FF48C720021684603F08EFE6D4611
:10418C00234604F11806186859682A4603C20833F6
:10419C00B3421546F7D121460C48FFF7CBFF20461A
:1041AC0003F0F1FE2146FE288CBF0246FF220DF1E2
:1041BC00190003F04CFE074800234FF0FF3269460C
:1041CC00006800F0EBF946B070BD00BFF0E30320CF
:1041DC0070810D0048E3032010B500230A224FF430
:1041EC008C711A4800F0D2F903F0F6FB03F0E9FBEE
:1041FC0040B303F0F1FB03F0E4FB154C15491648F2
:10420C00FFF798FF00231A461946606800F0DCFBA4
:10421C0000231A461946606800F0B6FB0F480023CD
:10422C001A461946406800F0AFFB00F08DFB0C4AB3
:10423C000C4904F1080002F021FD00F0DFF90A4BF3
:10424C00186010BD00F078FBCEE700BF48E30320F8
:10425C00F4E303207E810D00F0E3032084E30320CC
:10426C0071410D0091810D0050E3032030B5D1B0A8
:10427C004FF48C7200210AA803F00FFE2D4D286814
:10428C0000231A460AA900F091F90446002831D1FE
:10429C000AAA29492948FFF74DFF294906A802F027
:1042AC00FAFE0AA902A802F0F6FE02A906A802F07C
:1042BC0036FF22460168234802F068FC02A802F08F
:1042CC00A3FE06A802F0A0FE1F4B20491B788DF818
:1042DC00003006A83C230DF1410200F0CFFD0798F9
:1042EC000028CCD04368013B4360002BC7D1FFF7BB
:1042FC00ECFEC4E700F082F9154B1A68801A154AD7
:10430C0090421C4614D9104B13491B788DF8003081
:10431C0006A83C23002200F0B1FD079828B14368A1
:10432C00013B43600BB9FFF7D0FE00F067F920604A
:10433C0051B030BD48E303209A810D00F0E3032017
:10434C00B6810D00FCE303204CE30320C0810D007B
:10435C0050E30320BF270900CA810D0070B5046823
:10436C0043681426054606FB0346A64204D02046A5
:10437C0002F04AFE1434F8E7286800F05DFB28468A
:10438C0070BD8842F8B506460C46154616D99042C3
:10439C0015D2A2F114056C1AA1F114070444AF4212
:1043AC001CD02CB12946204602F01EFE2B7C237417
:1043BC00284602F029FE143D143CF0E70ED0AC4226
:1043CC000CD02EB12146304602F00EFE237C337405
:1043DC00204602F019FE14341436F0E7F8BD2DE92E
:1043EC00F04100230360436083604E689E420446A4
:1043FC000F4624DD4FF0140808FB06F000F014FB08
:10440C000546E0B194E8060008FB0212FFF7B9FF7D
:10441C00206800F011FB2560A6603E687B6808FBF5
:10442C000368464509D02DB13146284602F055FEA9
:10443C00337C2B7414361435F3E77B6863602046A9
:10444C00BDE8F081F0B5294B294D8DB000241C70CE
:10445C0000F0DCF800940194029403F0BDFA694674
:10446C00074603A8FFF7BBFF2E4603A906A8FFF7D4
:10447C00B6FF204B46F8043B06A909A8FFF7AFFF8F
:10448C0009AA0121304601F094FD09A8FFF766FF47
:10449C0006A8FFF763FF184B2B6003A82F62FFF7EA
:1044AC005DFF164B2B6003F097FA4FF4165103F097
:1044BC0081FA01F02BFA294601F00EFD6846FFF750
:1044CC004DFF0F490F4A284603F038FB0E4B4FF6B1
:1044DC00FF721C705C809A80022000F0EFF921467C
:1044EC00012000F0F3F90DB0F0BD00BF4CE3032048
:1044FC0054E3032048810D00C0830D0060810D0042
:10450C00F9400D0044E3032078E3032008B5024B87
:10451C001B685B68019308BD4802030008B5024B99
:10452C001B689B68019308BD4802030008B5024B49
:10453C001B681B69019308BD4802030008B5024BB8
:10454C001B685B69019308BD4802030008B5024B68
:10455C001B681B6B019308BD4802030008B5024B96
:10456C001B685B6C019308BD4802030008B5024B45
:10457C001B68DB6C019308BD4802030008B5024BB5
:10458C001B685B6D019308BD4802030008B5024B24
:10459C001B68DB6D019308BD4802030008B5024B94
:1045AC001B685B6E019308BD4802030008B5024B03
:1045BC001B689B6E019308BD4802030008B5024BB3
:1045CC001B68DB6E019308BD4802030008B5024B63
:1045DC001B685B68019308BD1802030008B5024B09
:1045EC001B689B68019308BD1802030008B5024BB9
:1045FC001B68DB68019308BD1802030008B5024B69
:10460C001B685B69019308BD1802030008B5024BD7
:10461C001B681B68019308BD2C02030008B5024BF4
:10462C001B681B69019308BD6C02030008B5024BA3
:10463C001B685B69019308BD6C02030008B5024B53
:10464C001B689B69019308BD6C02030008B5024B03
:10465C001B685B6D019308BD6C02030008B5024B2F
:10466C001B689B6D019308BD6C02030008B5024BDF
:10467C001B685B69019308BD6402030008B5024B1B
:10468C001B689B69019308BD6402030008B5024BCB
:10469C001B681B6A019308BD6402030008B5024B3A
:1046AC001B685B6A019308BD6402030008B5024BEA
:1046BC001B689B6A019308BD6402030008B5024B9A
:1046CC001B689B68019308BD6802030008B5024B88
:1046DC001B68DB68019308BD6802030008B5024B38
:1046EC001B685B68019308BD3802030008B5024BD8
:1046FC001B689B69019308BD3802030008B5024B87
:10470C001B68DB69019308BD3802030008B5024B36
:10471C001B68DB6A019308BD3802030008B5024B25
:10472C001B685B6B019308BD3802030008B5024B94
:10473C001B689B6B019308BD3802030008B5024B44
:10474C001B68DB69019308BD3002030008B5024BFE
:10475C001B681B68019308BD3C02030008B5024BA3
:10476C001B689B68019308BD3C02030008B5024B13
:10477C001B68DB68019308BD3C02030008B5024BC3
:10478C001B681B69019308BD3C02030008B5024B72
:10479C001B685B69019308BD3C02030008B5024B22
:1047AC001B689B69019308BD3C02030008B5024BD2
:1047BC001B68DB69019308BD3C02030008B5024B82
:1047CC001B689B6A019308BD3C02030008B5024BB1
:1047DC001B68DB6A019308BD3C02030008B5024B61
:1047EC001B681B68019308BD4C02030008B5024B03
:1047FC001B685B68019308BD4C02030008B5024BB3
:10480C001B689B68019308BD4C02030008B5024B62
:10481C001B681B69019308BD4C02030008B5024BD1
:10482C001B685B69019308BD4C02030008B5024B81
:10483C001B689B69019308BD4C02030008B5024B31
:10484C001B68DB69019308BD4C02030008B5024BE1
:10485C001B681B6A019308BD4C02030008B5024B90
:10486C001B689B6A019308BD4C02030008B5024B00
:10487C001B685B6B019308BD6002030008B5024B1B
:10488C001B681B6D019308BD6002030008B5024B49
:10489C001B685B6D019308BD6002030008B5024BF9
:1048AC001B68DB6E019308BD6002030008B5024B68
:1048BC001B681B6F019308BD6002030008B5024B17
:1048CC001B685B68019308BD2002030008B5024B0E
:1048DC001B68DB6A019308BD2002030008B5024B7C
:1048EC001B68DB6C019308BD2002030008B5024B6A
:1048FC001B685B6D019308BD2002030008B5034BD8
:10490C001B68D3F88830019308BD00002002030017
:10491C0008B5034B1B68D3F89430019308BD000015
:10492C002002030008B5034B1B68D3F8A430019395
:10493C0008BD00002002030008B5024B1B689B68F1
:10494C00019308BD4402030008B5024B1B68DB68E9
:10495C00019308BD4402030008B5024B1B685B6958
:10496C00019308BD4402030008B5024B1B681B6A87
:10497C00019308BD4402030008B5024B1B68DB6BB6
:10498C00019308BD4402030008B5024B1B685B6829
:10499C00019308BD4002030008B5024B1B689B68DD
:1049AC00019308BD4002030008B5024B1B68DB688D
:1049BC00019308BD4002030008B5024B1B681B693C
:1049CC00019308BD4002030008B5024B1B685B69EC
:1049DC00019308BD4002030008B5024B1B689B699C
:1049EC00019308BD4002030008B5024B1B68DB694C
:1049FC00019308BD4002030008B5024B1B681B6AFB
:104A0C00019308BD4002030008B5024B1B681B6BE9
:104A1C00019308BD4002030008B5024B1B685B6B99
:104A2C00019308BD4002030008B5024B1B681B68CC
:104A3C00019308BD1C02030008B5024B1B685B68A0
:104A4C00019308BD1C02030008B5024B1B689B6850
:104A5C00019308BD1C02030008B5024B1B685B6A7E
:104A6C00019308BD1C02030008B5024B1B68DB6AEE
:104A7C00019308BD1C02030008B5024B1B681B6B9D
:104A8C00019308BD1C02030010B5836804460BB9E2
:104A9C0003F075F8C3689847A3681BB1032221463D
:104AAC002046984720461021BDE8104003F04BB833
:104ABC0010B5036804469B689847A368013BA36044
:104ACC002BB923682046DB68BDE81040184710BDA1
:104ADC000B68036013B15A6801325A60704710B505
:104AEC000446006828B14368013B43600BB9FFF7EB
:104AFC00DFFF204610BD38B50C6803689C420546A4
:104B0C000CD014B1636801336360286828B1436822
:104B1C00013B43600BB9FFF7CBFF2C60284638BD37
:104B2C00024800230360FFF719BD00BF80E3032098
:104B3C00002211464068FFF73FBF00221146406833
:104B4C00FFF75ABF002211464068FFF765BF0022ED
:104B5C004068FFF759BF002281F001014068FFF760
:104B6C0043BF00231A4619464068FFF735BF0023A0
:104B7C001A4619464068FFF727BF002211464068C5
:104B8C00FFF70ABF002202214068FFF70DBF002388
:104B9C001A464068FFF7F8BE38B5084C28252A4657
:104BAC000021204603F079F94FF0FF336360044B8A
:104BBC00258004225A60034A1A6038BD8CE3032016
:104BCC0084E30320E0810D0070470020704710B58E
:104BDC001021044602F0B7FF204610BD08B508B1FD
:104BEC00FFF7F5FF08BD10B58368044613B1032227
:104BFC0001469847204610BD0022026010B54FF6C2
:104C0C009C728280B1F9044084808A8002680C68AE
:104C1C0004600A6010BD10B504460068FFF70CFF75
:104C2C00204610BD38B5C468F4B12378022B03D1EB
:104C3C0004F10C00FFF7EFFF656835B12846FFF76C
:104C4C00D2FF1021284602F07EFFA56835B1284618
:104C5C00FFF7C9FF1021284602F075FF20461421EA
:104C6C00BDE8384002F06FBF38BD13B5044691E87B
:104C7C00050000234B600B602060626001A801936B
:104C8C000093FFF72CFF204602B010BDF7B50C4681
:104C9C0002AD54F8043B45F8083D06460F4601A802
:104CAC002146FFF715FF29463046FFF7DEFF01A826
:104CBC00FFF715FF2046FFF712FF3846082102F0D8
:104CCC0042FF304603B0F0BD13B50B46044603C893
:104CDC008DE8030093E8030084E803009DE80300DB
:104CEC0083E8030002B010BD38B50023044603600E
:104CFC0010200D46FFF7C9F928B1012343608360EA
:104D0C00024B0360C5602060204638BD14820D0044
:104D1C00826810B50AB902F032FFC368BDE81040D2
:104D2C00184708B5006800F11001FFF7F1FF08BD46
:104D3C00826810B50AB902F022FFC368BDE81040C2
:104D4C00184708B5006800F11001FFF7F1FF08BD26
:104D5C0038B5002383608B6804460D462BB10222C4
:104D6C009847EB68E360AB68A360204638BD000051
:104D7C00F0B589B004686846FFF73EFF00238DF854
:104D8C0008304FF00202D4E84F3F002B03D1C4E8A7
:104D9C00412F0029F7D102D08DF8083063E014F1CF
:104DAC000C0503D069462846FFF726FFBFF35F8F3B
:104DBC0001236370002004F10803BFF35F8F53E8F5
:104DCC00006F43E80002002AF9D1BFF35F8F002E79
:104DDC0049D0FFF783FD20B129463046FFF798FFF5
:104DEC003AE0314602A8FFF7B3FFE068B4F910507F
:104DFC0008B103F0ADF806901020ADF81C50FFF789
:104E0C0044F90546E8B1002787601820FFF73DF903
:104E1C00044688B10146876002A8FFF755FF049B42
:104E2C00A268A360059B049206A9E268E36004F102
:104E3C0010000592FFF7E0FE0D4BEB600D4B2C6064
:104E4C00AB6006A8FFF7E7FE02A8FFF7CCFE002236
:104E5C0029460948FFF74AFD3046FFF7C4FE1021EA
:104E6C00304602F070FE6846FFF7D5FE09B0F0BD83
:104E7C002F4D0D00A54F0D00954A0D002DE9F04F5B
:104E8C008BB006460F46904699469DF850A0FFF70A
:104E9C0063FD07AD834630BB4FF62E73059005A915
:104EAC002846ADF81830FFF7A7FE1420FFF7EDF8F1
:104EBC00044658B10223037001234370C0F804B0B8
:104ECC00C0F808B029460C30FFF796FE3046214654
:104EDC0040F8044BFFF708FF2846FFF79CFE05A897
:104EEC00FFF799FE52E000240C2314206C60AC6098
:104EFC000793FFF7CAF8014618B104704470446078
:104F0C00846004A80391FFF7EFFE224B089308205E
:104F1C00FFF7BBF8044628B1039B40F8043B04A9F7
:104F2C00FFF7D6FD00955FFA8AF34A4641463846AC
:104F3C000994FFF719FD20B9039B5B7803F0FF027E
:104F4C0083B1039B059304A906A8FFF7C1FD05A92E
:104F5C003046FFF78AFE06A8FFF7C1FD04A8FFF74D
:104F6C00BEFD13E04FF69C7305A903A80592ADF89E
:104F7C001830FFF7FDFE05A8FFF74DFE05A80999AF
:104F8C00FFF784FE06A8FFF7AAFDDAE730460BB060
:104F9C00BDE8F08F15510D00022AF8B5044606D075
:104FAC00032A17D0012A22D10B6803601FE01820B6
:104FBC000E68FFF76AF8054650B13146FFF7C8FE98
:104FCC003069B6F9147008B102F0C2FF2861AF82E3
:104FDC0025600CE0046854B104F11000FFF71BFECF
:104FEC002046FFF700FE1821204602F0ACFD002001
:104FFC00F8BD38B5002383608B6804460D462BB191
:10500C0002229847EB68E360AB68A360204638BD8A
:10501C00022A70B5044606D0032A11D0012A18D1F1
:10502C000B68036015E014200E68FFF72EF8054698
:10503C0020B13146FFF7DDFF337C2B74256008E08F
:10504C00046834B12046FFF7CEFD1421204602F04F
:10505C007AFD002070BD0000F0B5002387B00C462F
:10506C00BFF35F8F50E8006F40E80032002AF9D19F
:10507C00BFF35F8F002E3FD01846FFF72FFC07467B
:10508C0020B121463046FFF753FE2EE0314601A8F1
:10509C00FFF7AFFF23788DF814301020FEF7F5FFE3
:1050AC000546D0B187601420FEF7EFFF044678B1B7
:1050BC008760014601A8FFF707FE039BA268A36067
:1050CC00049B0392E268E3609DF81430049223740D
:1050DC000A4BEB600A4B2C60AB6001A8FFF783FD19
:1050EC00002229460748FFF701FC3046FFF77BFDFD
:1050FC001021304602F027FD07B0F0BD4F4D0D00DA
:10510C001D500D00954A0D0030B585B004460D4676
:10511C0068461146FFF7BAFD7CB124B228460DB1A2
:10512C0002F016FF029002A96846ADF80C40FFF79A
:10513C001FFE02A8FFF76FFD1DE000988DF80840D8
:10514C004FF00102D0E84F3FA34203D1C0E8412FFA
:10515C000029F7D102D08DF808300CE010F10C01C9
:10516C004FF0010318BF0373BFF35F8F043000F8D7
:10517C00033CFFF771FF01A8FFF7B1FC05B030BD90
:10518C00002211464068FFF737BC002211464068E8
:10519C00FFF742BC00224068FFF736BC002281F0CA
:1051AC0001014068FFF720BC00231A4619464068ED
:1051BC00FFF712BC00231A4619464068FFF704BCDF
:1051CC00002211464068FFF7F7BB002211464068E9
:1051DC00FFF7E2BB002202214068FFF7E5BB00238A
:1051EC001A464068FFF7D0BB024B03225A60024AB2
:1051FC001A607047B4E3032030820D00704710B57D
:10520C001821044602F09FFC204610BDF0B5037D2A
:10521C00062B8DB00E4600F104074FF0000402D0AF
:10522C0000F1080518E00CAD394605F8304D2F2378
:10523C002A460A20FFF71AFA284602F0A4FE336821
:10524C000246DB682946304698470FE024B12E21F0
:10525C00304601F021FE044415F8011D0A223046A7
:10526C0001F056FEBD420444F0D120460DB0F0BD15
:10527C0010B5054B0446112240F8043B002102F006
:10528C000CFE204610BD00BF64820D000346074A89
:10529C0010B543F8042B01F1100251F8044B43F8FC
:1052AC00044B9142F9D10A781A7010BD64820D003A
:1052BC00037D042B01D1406808E0062B0AD143681A
:1052CC0053B9836843B9C36833B90069003018BF58
:1052DC0001207047002070470120704710B59DF8E1
:1052EC00084044EA032343EA024242EA01610423F0
:1052FC004160037510BD37B50D788B784A78C97845
:10530C0000912946FFF7EAFF03B030BD00F110020F
:10531C00012312F8101C0129104604D152F8041C68
:10532C0003EB410304E0022904BF52F8041C5B1890
:10533C00013B02F11002ECD170470EB42DE9F041A3
:10534C0087B000AF07F13404054654F8046B7C6059
:10535C0023463246102107F10800FFF77DFB0F288A
:10536C0016D900F1080323F00703E846ADEB030D53
:10537C003246411C234668467C60FFF76DFB021EDB
:10538C0004DD2B6869469B6828469847C54607E0AC
:10539C0030B12B6802469B6807F1080128469847F4
:1053AC001C37BD46BDE8F04103B0704713B502ABE6
:1053BC00026803F8011D946819460122A04702B047
:1053CC0010BD8368FBB11A78032A1AD8DFE802F003
:1053DC000417021D0520704702685B685268D05C98
:1053EC002D2814D0A0F13003092B10D9742810D01B
:1053FC0066280ED0A0F16E03584258417047062023
:10540C0070470020704718467047042070470320EF
:10541C0070470220704710B50446FFF7D2FF0228F0
:10542C000DD016D3042814D82268A36850685B6882
:10543C000A2200211844BDE8104002F067BE226821
:10544C00A36852685B68D05CA0F174035842584161
:10545C0010BD002010BD10B5436904465BB18068D7
:10546C00E060013B1030A060206163612BB1FFF75D
:10547C004DFFA06001E0184610BD012010BD10B515
:10548C007D210446FFF792FF01232371204610BDB6
:10549C0008B50379012B02D0022B02D008BD2C21B8
:1054AC0000E03A21FFF782FF08BD10B50446FFF774
:1054BC00EFFF20467B21FFF779FF00232371204665
:1054CC0010BD000038B504460D46FFF7E1FF236818
:1054DC000449DB6820462A4698470123237120465D
:1054EC0038BD00BF3D840D0038B504460D46FFF7AE
:1054FC00CFFF23680449DB6820462A4698470123DE
:10550C002371204638BD00BF7F820D00F8B50D46D3
:10551C001746222104462F44FFF748FF2A46294606
:10552C00BA4238D0164616F8015B222D03D05C2DFA
:10553C0001D01F2D2DD82368521A9B6820469847FE
:10554C005C212046FFF732FF0C2D19D007D8092D0E
:10555C000FD00A2D12D0082D14D162210AE0222D71
:10556C0005D05C2D03D00D2D0CD1722102E0294603
:10557C0000E074212046FFF719FF09E06E21F9E7DE
:10558C006621F7E723680A49DB682A4620469847D4
:10559C0031463246C4E7914204D02368521A9D68C2
:1055AC002046A84722212046FFF700FFF8BD00BF88
:1055BC008A820D0070B504460D461646FFF768FF4B
:1055CC00204632462946FFF7A1FF022323712046CD
:1055DC0070BD70B504460D461646FFF759FF2046C0
:1055EC0032462946FFF792FF01232371204670BDF6
:1055FC0010B500230446036043601048A060E360CC
:10560C00D1B10B78032B06D0B3B9136858684B682B
:10561C00C35C6E2B08D0136858684B680344A360B6
:10562C008B6849685B1AE3601146204651F8043BCD
:10563C0040F8043BFFF75FFA204610BD7C830D0059
:10564C00002310B50446036043608360C3600361AC
:10565C00436171B10B78012B0BD101F11003836005
:10566C00CB684361114651F8043B40F8043BFFF70B
:10567C0042FA204610BD002310B504460360436077
:10568C00816031B1114651F8043B40F8043BFFF7FF
:10569C0032FA204610BD80680368DB6818477047F3
:1056AC0019B10B6808465B681847704719B10B684D
:1056BC0008465B681847704770477047704738B5A5
:1056CC0004460D4600682E2102F026FC2368C31AFE
:1056DC002B6023B1037803B1013023682060184696
:1056EC0038BD10B50C21044602F02DFA204610BD31
:1056FC0010B50421044602F026FA204610BD10B560
:10570C000421044602F01FFA204610BD38B50C46A1
:10571C00054602F061F984420DD002F0CFF88442C4
:10572C0005D102F0CBF8BDE8384002F0C4B82146F0
:10573C002846FFF7BBFF38BD08B502F0F7FBB0FAFF
:10574C0080F0400908BD38B5054608460C4602F005
:10575C001AFC214602462846BDE83840FFF739BFFF
:10576C000068FEF703BF70B5044608460D4602F00C
:10577C000AFC2368024629462046DB68BDE87040D7
:10578C00184713B502AB026803F8011DD46819461B
:10579C000122A04702B010BD2DE9F04F4568076803
:1057AC0085B09146142255430193AB10194D0292CA
:1057BC005D438B463C460123002D039323DD029B66
:1057CC006E1003FB06F004EB00084A46B8F804A080
:1057DC002058D14528BF5246594602F0DCFB039BAA
:1057EC0048B9D14503D1019A13703546E4E78CBF13
:1057FC000120002000E0C00F0028F6D0AE1B08F1FD
:10580C001404013EF1E7E41B0248A410604305B008
:10581C00BDE8F08FCDCCCCCCF0B585B0036901914F
:10582C00067E13B309B304AF002347F8043D00F11F
:10583C000C041D46394601A8FFF741FF0146A0B1F3
:10584C0004AB039A03F8055D2046FFF7A5FF9DF80E
:10585C000B3053B12368142404FB0034083434F99E
:10586C00023C002BA8BFDEB2E4E7304605B0F0BD29
:10587C0010B5094C2368DB070BD42046FEF718FC47
:10588C0038B12046FEF719FC044A0549054802F0D8
:10589C0055F9044810BD00BFBCE3032044E30320CA
:1058AC00C7560D00D4E2032010B5094C2368DB0762
:1058BC000BD42046FEF7FCFB38B12046FEF7FDFB6F
:1058CC00044A0549054802F039F9044810BD00BFE7
:1058DC00ECE3032044E30320C5560D00D0E2032083
:1058EC0038B5002504460560456085600561456155
:1058FC00856140F8245FFEF731FEFFF7B9FFE061E8
:10590C00FFF7D2FF25732062204638BD10B50A4C34
:10591C002368DB070ED42046FEF7CAFB50B10748BC
:10592C00FFF7DEFF2046FEF7C8FB054A0549034892
:10593C0002F004F9014810BDC0E30320C4E30320C6
:10594C0044E30320835D0D000023024A024903480F
:10595C00FEF7ACBF655C0D00F55B0D007D5B0D00CB
:10596C0000231A4619461846FEF7A0BF73B502ACC1
:10597C000E6951F8043B44F8083D054601A8FFF7B1
:10598C00A7F8224631462846FFF775FE01A8FFF717
:10599C00A6F8284602B070BD73B502AC8E6851F8FB
:1059AC00043B44F8083D054601A8FFF791F8224650
:1059BC0031462846FFF744FE01A8FFF790F8284629
:1059CC0002B070BD73B502ACCE6851F8043B44F81C
:1059DC00083D054601A8FFF77BF8224631462846CC
:1059EC00FFF706FE01A8FFF77AF8284602B070BD53
:1059FC0030B58BB00D46014604A8FFF7CDFF04A8C7
:105A0C00FFF729FDE8B104A96846FFF7DBFF0F4952
:105A1C000298FFF791FE044610B12C1C18BF01240C
:105A2C0001A8FFF75CF8002CE9D004A96846FFF741
:105A3C009DFF6846FFF7EFFC286001A8FFF74FF8C1
:105A4C00DDE705A8FFF74BF80BB030BDD8820D0091
:105A5C0037B50C4620461349154602F067FA40B993
:105A6C0001F0BAFF4FF4165101F0A4FF01F0B4FF9E
:105A7C0015E00D49204602F059FA78B902A94FF405
:105A8C00165341F8043D2846FFF7B2FF01F016FF0C
:105A9C00019901F00DFF01F011FF00E0002003B0AF
:105AAC0030BD00BFDD820D00E4820D0070B50468CE
:105ABC0043681426054606FB0346A64205D004F1AE
:105ACC000800FFF7F3FF1434F7E72868FEF7B4FF7C
:105ADC00284670BD70B504684368054604EB031690
:105AEC00A64204D0204601F08FFA1034F8E728685B
:105AFC00FEF7A2FF284670BD10B504460C30FFF728
:105B0C00D5FF2046FFF7E6FF204610BD10B5044B2D
:105B1C00044640F8043BFFF7EFFF204610BD00BFE2
:105B2C0048810D0010B50446FFF7F0FF20462421F4
:105B3C0002F009F8204610BD10B5034B0360044673
:105B4C00FFF7E4FF204610BDB0820D0010B50446EF
:105B5C00FFF7F2FF2046242101F0F5FF204610BD8F
:105B6C0010B5036804461868FEF708FD204610BD02
:105B7C002DE9F04F9B461B4B5B68C3F3080385B0C4
:105B8C0082460E46904653BBFFF7C0FE04462430B7
:105B9C000390FFF7E5FD237BF3B9012323732568FD
:105BAC006368F6B205EB83094D4513D055F8047BB9
:105BBC004146381DFFF730FE8642F5D33B68CDF8E1
:105BCC0000B09B689E46384643463246514677465F
:105BDC00B847E9E70023237303A8FFF7C1FF05B01B
:105BEC00BDE8F08F00ED00E02DE9F74F9946194B19
:105BFC005B68C3F3080307468846164633BBFFF7BA
:105C0C0085FE044624300190FFF7AAFD237BD3B90F
:105C1C0001232373256863685FFA86FB05EB830A0F
:105C2C0055450ED055F8046B4946301DFFF7F4FD71
:105C3C008345F5D333684246DB683946304698478E
:105C4C00EEE70023237301A8FFF78AFF03B0BDE83A
:105C5C00F08F00BF00ED00E02DE9F341154B5B68C0
:105C6C00C3F3080304468846FBB9FFF74FFE06460C
:105C7C0024300190FFF774FD96E8A000462605EB52
:105C8C008707AF4207D101A8FFF76AFFB442B4BF40
:105C9C00002001200AE055F8040B41460430FFF7C0
:105CAC00BBFD8642A8BF0646EBE7002002B0BDE86C
:105CBC00F08100BF00ED00E070B503684268044657
:105CCC0003EB82029A4218460ED006680D68AE426B
:105CDC0003F10403F6D1011D521A02F0C3F86368F4
:105CEC00013B6360012070BD002070BD1FB50446F0
:105CFC00243001910390FFF733FD01A92046FFF7F3
:105D0C00DBFF20B903A8FFF72BFF04B010BD6368BD
:105D1C00002BF7D1FFF724FEF4E770B50569436952
:105D2C001826044606FB0356AE4215D005F11001A9
:105D3C002046FFF7C1FF63680BB9FFF711FEE0695E
:105D4C0029690368DB689847696919B1206A036897
:105D5C00DB6898471835E7E725696369182606FB61
:105D6C000356B54204D0284601F04EF91835F8E731
:105D7C000023636170BD73B5044602ADFFF7F0FDFF
:105D8C0004F1240045F8040DFFF7EAFC2046FFF768
:105D9C00C4FF2846FFF7E4FE25696369182606FB55
:105DAC000356B54204D0284601F02EF91835F8E711
:105DBC002069FEF741FE2068FEF73EFE204602B049
:105DCC0070BD03680A6802600B6043684A684260F1
:105DDC004B6083688A6882608B60704710B50023C3
:105DEC000446036043608360FFF7EBFF204610BD61
:105DFC008842F8B50446164625D9904224D2551A45
:105E0C00143D2C44A1F11407A2F10C050026A5F1B8
:105E1C0008039F4237D084B155F8083C236035F80D
:105E2C00043CA38035F9023CE380A660E660266161
:105E3C00294604F10800FFF7C4FF2846FFF736FE99
:105E4C00143C143DE3E71ED001F108050027A5F131
:105E5C0008039E4217D084B155F8083C236035F8EE
:105E6C00043CA38035F9023CE380A760E76027611E
:105E7C00294604F10800FFF7A4FF2846FFF716FE99
:105E8C0014341435E3E7F8BDF8B5456883689D42D2
:105E9C0004460E4617460EDB0135002D05DDA90024
:105EAC000068FEF7D1FD20B9F8BD0068FEF7C4FD0F
:105EBC0000202060A5602568626805EB860105EB73
:105ECC008202521A081D01F0CDFF45F82670636856
:105EDC00013363600120F8BD37B5044624300D460C
:105EEC000190FFF73DFC2368616803EB810083425E
:105EFC001A4609D01268AA4203F10403F7D101A88B
:105F0C00FFF72EFE00250EE02A462046FFF7BCFFC9
:105F1C0005460028F3D06368012B01D1FFF714FD6F
:105F2C0001A8FFF71DFE284603B030BD8842F8B526
:105F3C0006460C46154614D9904213D2A2F1100510
:105F4C006C1AA1F110070444AF4218D01CB12946B9
:105F5C00204601F049F8284601F056F8103D103C57
:105F6C00F2E70CD0AC420AD01EB12146304601F00B
:105F7C003BF8204601F048F810341036F2E7F8BD33
:105F8C0070B50E1E05460BDD3001FEF74DFD0446C7
:105F9C0070B195E8060001EB0212FFF7C7FF00E0B5
:105FAC0000242868FEF748FD2C60AE60012070BD0F
:105FBC0070BD2DE9F04F002395B092464622036048
:105FCC0043608360C3600361436102760291DAF837
:105FDC00041008939942054609930A9340F39D8057
:105FEC0008A8FFF7CDFF002840F097808EE02146EF
:105FFC000BA800F0F9FF0BA90FA8099E00F0F4FF05
:10600C0009990A9B9942C0F2CE80013108A8FFF78A
:10601C00B7FF002840F0C7800FA800F0F5FF0BA8D1
:10602C0000F0F2FF1434A742E1D100260B960C9637
:10603C000D96B146099B9E4280F2A8803301089AC6
:10604C00D3580693002B00F09F8014237343CDF894
:10605C001C9001930BAC07A906A8FFF730FB074671
:10606C00002800F0918014AB014603F8399D079A83
:10607C002046FFF791FB9DF817800090B8F1000FB8
:10608C0053D1BDF81C30ADF840304FF6FF730F976D
:10609C00ADF84230CDF84480CDF84880CDF84C8036
:1060AC006768A3689F424FDA009BD4F800B0616820
:1060BC00142253430BEB030702FB01B207F114004C
:1060CC0039460393FFF794FEA7B1039B0F9A4BF845
:1060DC000320BDF84030BB80BDF94230FB80C7F8CF
:1060EC000890C7F80C90C7F8109011A907F1080098
:1060FC00FFF767FE63680133636011A8FFF7D6FCF6
:10610C00B8F1000F11D00BA8FFF7D0FC08A8FFF7CF
:10611C00E1FC284615B0BDE8F08FDAF80040DAF85B
:10612C000430142707FB03477DE72368009A1424E7
:10613C0004FB0234069B1B7823BBDAF80030019A6F
:10614C0013441B7CE3801DE00137002F0FDD14236B
:10615C0003FB07F00393FEF767FC834678B194E8E2
:10616C000600039B03FB0212FFF742FE00E0C3464E
:10617C002068FEF761FCC4F800B0A76094E74FF00C
:10618C000108BAE7083466E7013653E708A9284640
:10619C00FFF717FE0BA905F10C00FFF712FE9DF897
:1061AC0008302B76AFE7089B099A03EB061603EB36
:1061BC000212314606F11000FFF7B8FE1EB10FA90E
:1061CC00304600F011FF099B0133099324E70000CE
:1061DC007FB50446094B44F8043B05460E4601A81E
:1061EC001146FEF7FCF801AA31462046FFF7E1FE06
:1061FC0001A8FEF7B3F8284604B070BD48810D0025
:10620C00F0B50F468BB02B49109C384616461D46F0
:10621C0001F08CFE28BB002C49D0294601A8FFF7C1
:10622C00DDFD2549242001F099FC0546B8B101A9F2
:10623C0004A8FFF7D3FD04A907A8FEF7D0F807AA16
:10624C0031462846FFF7C4FF07A8FEF787F81B4B1B
:10625C002B602C6204A8FEF781F8194B2B6001A867
:10626C001FE01849384601F061FEF0B9FCB129462F
:10627C0004A8FFF7B3FD1049242001F06FFC05467C
:10628C0070B104A907A8FEF7AAF807AA3146284658
:10629C00FFF79EFF07A8FEF761F8084B2B602C62F6
:1062AC0004A8FEF75BF8284602E0002000E0204638
:1062BC000BB0F0BD36830D008C850D00C0830D0036
:1062CC00B0820D003A830D00014B024A1A607047F0
:1062DC00F0E303204B830D002DE9F047089DD0F827
:1062EC00209004460E461746984601F075FB8145F2
:1062FC0005D15A4800F035FD002840F0AC802B79D0
:10630C001B0705D56B69564A206A002100F002FE76
:10631C00B8F1000F0DD05B212046FFF732FA414651
:10632C002046FFF720FA23684E49DB6802222046FC
:10633C0098472B79D90725D5D5F808802F214046C9
:10634C0001F04AFE08B100F1010841462046FFF772
:10635C000AFA2B799A0709D53A212046FFF711FA48
:10636C00EB68414A206A002100F0D4FD2B7913F030
:10637C00040F236818BF3D49DB6808BF3C49022263
:10638C00204698472B795B0718D529690A4613468E
:10639C0013F8010B38B1202801D1194601E0282847
:1063AC0001D01A46F3E72368521ADB682046984757
:1063BC0023683049DB680422204698470021384680
:1063CC00FEF76CFA01462046FFF7CDF92368284901
:1063DC00DB680222204698471EB131462046FFF763
:1063EC00C2F92B7913F0300F2DD023682249DB68CA
:1063FC002046022298472B79D8060BD523681F49D3
:10640C00DB68072220469847AB691D4A206A0021A9
:10641C0000F080FD2B79990611D5DA0605D5236895
:10642C001249DB6802222046984723681549DB682D
:10643C0020460A229847E9692046FFF794F95D2126
:10644C002046FFF79EF923680F49DB68204602229D
:10645C00BDE8F0471847BDE8F08700BFC8E503204A
:10646C004F830D0056830D003D840D0059830D00A4
:10647C005E830D005C830D0061830D0064830D0051
:10648C006C830D006F830D007A830D002DE9F043B2
:10649C0085B0D0F820800C9C06460F4691461D46D0
:1064AC0001F09AFA804505D14A4800F05AFC0028C0
:1064BC0040F08C80336A484A01924FF0000801A8E2
:1064CC0003938DF80880FEF7F0FF41464846FEF72F
:1064DC00E5F942498046012201A8FFF76BF84146D5
:1064EC00FFF731F93FB13E49012201A8FFF762F8ED
:1064FC003946FFF728F93DB13A49012201A8FFF7C7
:10650C0059F82946FFF71FF92379DF070ED5A5683F
:10651C002F21284601F060FD00B1451C32490122B3
:10652C0001A8FFF747F82946FFF70DF923799D07D6
:10653C0007D52E49022201A8FFF73CF8E168FEF7C7
:10654C00C1FF2379580716D525692F463B4613F80A
:10655C00012B3AB1202A01D11D4601E0282A01D095
:10656C001F46F3E70222224901A8FFF723F87A1B02
:10657C002946FFF72EF82379190707D51D49012263
:10658C0001A8FFF717F86169FEF7AEFF2379DA0669
:10659C0008D5042218490DEB0200FFF70BF8A1698E
:1065AC00FEF790FF23799B0607D51449062201A814
:1065BC00FFF700F8E169FFF7C6F801A8FEF75FFFE7
:1065CC00306A0F4903680222DB68984705B0BDE8C2
:1065DC00F08300BFC8E5032098820D00E2820D0015
:1065EC00F5820D00B0830D007D830D007F830D00BF
:1065FC0082830D000A830D0085830D008A830D00B4
:10660C007A830D0010B501230374836804460BB123
:10661C00C06806E0006828B183680BB901F0AFFAD6
:10662C00C3689847012363740020BDE81040FDF750
:10663C00C5BF002211464068FEF7DEB900221146A4
:10664C004068FEF7E9B900224068FEF7DDB9002288
:10665C0081F001014068FEF7C7B900231A460121F9
:10666C004068FEF7B9B900231A4619464068FEF790
:10667C00ABB9002211464068FEF79EB900221146C4
:10668C004068FEF789B9002202214068FEF78CB9F8
:10669C0000231A464068FEF777B938B5054688B12D
:1066AC0004684CB1A3681BB10322214620469847CD
:1066BC001021204601F047FA28461421BDE8384045
:1066CC0001F041BA38BD10B103685B6818477047D8
:1066DC0010B503680446BBB15868FDF71FFF78B9C5
:1066EC0023685A7C12B95868FDF720FF2368586854
:1066FC00FDF724FF20680023236028B1FFF7CDFFAE
:10670C00206808B1FFF7C9FF204610BD38B50C4B07
:10671C0003600446D0F8CC0108B1FDF7BCFCD4F8FA
:10672C00C45135B12846FFF7D3FF0421284601F0A8
:10673C000AFAA06808B1FFF7C6FF204638BD00BFB3
:10674C00F0830D002DE9F84F0B9F9DF828B00646FD
:10675C00884691469A4604460025236C4B4529D120
:10676C00636C534526D194F848305B4522D14021C7
:10677C00404601F025FC41460246204601F00BFC48
:10678C00C0B96FB10C21384601F01AFC024638B181
:10679C00582303FB05603946493001F0FCFB04E04B
:1067AC00582000FB056595F84900B0FA80F04009C7
:1067BC00BDE8F88F0135052D04F15804CDD100202A
:1067CC00BDE8F88F2DE9F04F85B007469DF838A04D
:1067DC000F9E0196CDF800A0894602920393FFF715
:1067EC00B1FF00283CD10446582303FB0475D5F8AF
:1067FC004080B8F1000F2ED14021484601F0E0FB5B
:10680C00494683460246284601F021FBCBF1400263
:10681C00414605EB0B0001F040FB029B2B64039BF4
:10682C006B6485F849802EB10C21304601F0C8FB11
:10683C00054600E035465820444338193C442A4666
:10684C0031464930254401F002FB002085F849000F
:10685C0084F848A005E00134052CC6D1024800E0BC
:10686C00002005B0BDE8F08FFCFEFFFF07B500234C
:10687C0001930093FFF7A6FF03B05DF804FB2DE92D
:10688C00F341044608460D46904601F07CFB04F5A6
:10689C00DC760746236CABB14021204601F090FB1F
:1068AC00874202460BD32946204601F0C1FA30B983
:1068BC00009043462A4621465820FEF733F85834B8
:1068CC00B442E7D102B0BDE8F081000030B58DB024
:1068DC0004461122002101A801F0DFFA062301AAC7
:1068EC0009498DF814300A20FDF7C8FE07AD01A93F
:1068FC0006A8FEF7CBFC0FCD04340FC42B68237015
:10690C0000200DB030BD00BF1C840D002DE9F041FE
:10691C00054600F5E0768AB03046FEF721FF2C687C
:10692C00D5F8C001FDF72AFE002C63D0D5F8C43190
:10693C0063B12368D5F8C4111F6B20464FF47A73EA
:10694C004FF49A62B847041E13DC56E02D494FF4FD
:10695C009A6001F012F9D5F8C431C5F8C40113B12D
:10696C001846FDF798FBD5F8C431002BE1D1264829
:10697C0044E02023254A029300920023019402AAAA
:10698C00234903930120FDF779FFD5F8C4315F1C2F
:10699C001B786BBB013C2146384601F011FB38B328
:1069AC00241A002C07EB000822DD3B5C03BB013CE6
:1069BC000ED008F101082146404601F001FB241AD3
:1069CC00002C15DD18F8003093B9012C02D00FE023
:1069DC00DFF844803046FEF7C3FE42463946281D98
:1069EC00FFF74DFFD5F8C001FDF7C8FD002005E00D
:1069FC00084803E06420FDF7F1FD20460AB0BDE82D
:106A0C00F08100BF8C850D00FCFEFFFF30840D0073
:106A1C0029840D00E8FEFFFF7C830D0010B50446B1
:106A2C00BFF35F8F94F8C831BFF35F8F1BB920465B
:106A3C00FFF76CFFF4E710BD10B50468016044B1BA
:106A4C002046FFF745FE20460421BDE8104001F02A
:106A5C007AB810BD2DE9F04105468AB000F5E0701A
:106A6C00FEF77EFE2C68002C7BD14C20FDF70DFB35
:106A7C000646002873D000F017FE22464FF49A61A8
:106A8C00304600F041FE0AA93A4801F8194DFDF7CD
:106A9C00C5FD33689DF80F201B6A49F26901304629
:106AAC00984704A8FEF7E4FB04A8FFF70FFF0028A3
:106ABC004ADB04A9304600F093FE002844DBBFF308
:106ACC005F8F85F8C841BFF35F8F2B49042001F01D
:106ADC0045F805F5DE78074648B32749142001F040
:106AEC003DF828B10474046044608460C46044744C
:106AFC003860B0B1214B83603B682149DD60386858
:106B0C004FF440638DE8090003221E4B0430FDF75F
:106B1C00FDFC30B93B681B7C4BB90120FDF75EFDD9
:106B2C00F8E7386800233B6008B1FFF7B6FD39463B
:106B3C004046FFF781FFD5F8BC313BB128682E6089
:106B4C0030B1FFF7C0FD0CE0044603E00E4C01E051
:106B5C00044607E036B13046FFF7B5FD02E00A4CBB
:106B6C0000E00024D5F8C001FDF708FD20460AB06E
:106B7C00BDE8F08140840D008C850D00296A0D0064
:106B8C0044840D0011660D00FCFEFFFF2DE9F0475B
:106B9C0005468CB016460F4609B10B780BB9354C2F
:106BAC0064E0084601F0EFF98046002E5CD03046D8
:106BBC0001F0E9F9441C08F102032344B3F59A6F80
:106BCC004FD805F5E070FEF7CBFD2846FFF742FFE6
:106BDC00002840DB6846FEF74BFB6846FFF776FE65
:106BEC00002838DBD5F800A0DAF800300DF1040CE1
:106BFC00D3F83890204B0693BCE80F000DF11C0E17
:106C0C00AEE80F00DCF800308EF8003049F2690273
:106C1C0006A95046C84700281DDB002328688DF8BC
:106C2C00183003680122DB6806A9984728680368B6
:106C3C0008F10102DB68394698472CB128680368D3
:106C4C002246DB6831469847286803681B6C9847D6
:106C5C0000EAE07400E00446D5F8C001FDF78EFCB4
:106C6C0004E06FF0BD0401E03446A4E720460CB00C
:106C7C00BDE8F087F2FEFFFF64820D00F8B5054613
:106C8C0000F5E0700E461746FEF76AFD2846FFF742
:106C9C00E1FE002807DB3A463146281DFFF7E6FDEA
:106CAC0000EAE07400E00446D5F8C001FDF766FC8C
:106CBC002046F8BD38B50E4C0E4B23600025022340
:106CCC0004F5E4706360A560C4F8C451C4F8C851FD
:106CDC00FDF744FC084BC4F8CC5184F8D051236028
:106CEC002046064A0649BDE8384000F027BF00BFE1
:106CFC00F4E3032054840D00F0830D0044E30320DF
:106D0C0019670D0000231A464068FDF73DBE0022AE
:106D1C0002214068FDF748BE002211464068FDF78D
:106D2C003BBE002211464068FDF746BE00231A46C2
:106D3C0019464068FDF748BE00231A4619464068BC
:106D4C00FDF74ABE002281F001014068FDF74CBE00
:106D5C0000224068FDF758BE002211464068FDF73E
:106D6C005BBE002211464068FDF746BE2DE9F0439C
:106D7C00002495B016460D460746FEF779FA2146D3
:106D8C0020220CA8009401F088F840230C93214693
:106D9C006B460CAA3046FDF799FC0446002844D1FA
:106DAC00024601216868FDF707FE02218046224653
:106DBC006868FDF701FE009E81462146002E34D006
:106DCC00002932D17368022B02D00A2B09D02AE099
:106DDC00B8F1000F27D0716938460431FEF78BFAF1
:106DEC0020E0B9F1000F1ED07469112201A801F046
:106DFC0054F806238DF8143001AD04F1080318344F
:106E0C00186859682A4603C20833A3421546F7D1BD
:106E1C0001A906A807ADFEF739FA0FCD3C1D0FC42A
:106E2C002B6823700121F669C8E70098FDF746FC32
:106E3C00384615B0BDE8F083024B034A1A600022B5
:106E4C005A607047C8E5032054840D00F8B5064617
:106E5C000D468F180024BD420CD0336815F8011B69
:106E6C009B6830469847002801DB0444F3E7002C6C
:106E7C0008BF04462046F8BD70B505460C460846CA
:106E8C0049B101F080F82B68024621462846DB68A0
:106E9C00BDE87040184770BD03689B68184738B54B
:106EAC000D210546FFF7F8FF0A2104462846FFF797
:106EBC00F3FF204438BD30B58BB00B4600218DF864
:106ECC002410012A98BF0A220DF12304B3FBF2F51A
:106EDC0005FB123303F0FF03092B94BF3033373318
:106EEC00DBB2214604F801392B46002DEED1FFF719
:106EFC00C3FF0BB030BD10B42AB903685DF8044B66
:106F0C009B68C9B21847D2B25DF8044BFFF7D3BFE8
:106F1C00FFF7F1BF0CB42DE9F04387B000AF07F1D8
:106F2C003804054654F8049B3C600E4623464A46FA
:106F3C001421381DFDF790FD132805D8391D28465E
:106F4C00FFF79AFF044613E000F1080323F0070350
:106F5C00E846ADEB030D411C23464A4668463C60AF
:106F6C00FDF77AFD69462846FFF786FF0446C546BD
:106F7C001EB12846FFF793FF044420461C37BD463C
:106F8C00BDE8F04302B0704710B50446FDF72BFE88
:106F9C00204610BD0348044A04490023836000F0D6
:106FAC00CDBD00BFD0E5032044E30320956F0D0059
:106FBC00704710B51021044600F0C5FD204610BDE9
:106FCC0070B5084B0360044600250E4640F80C5F74
:106FDC00FDF7BCFA30462671FDF7B0FBA5602046E4
:106FEC0070BD00BF88840D00002303604360836084
:106FFC00037310B50C6804604C6844608C68846042
:10700C000B604B608B6010BD10B504460068FDF73B
:10701C0013FD204610BD10B50446006808B1FDF7FD
:10702C000BFD00232360A360636010BD38B50446DC
:10703C000D4600680131FDF707FD10B184E8210011
:10704C00012038BD10B50368044613B143688B4268
:10705C0007D22046FFF7EAFF20B1A3680BB92268DC
:10706C001370012010BD70B50E461146044615462E
:10707C00FFF7E8FF18B92046FFF7CDFF09E02A46D5
:10708C003146A560206800F0E2FE2268A36800216A
:10709C00D154204670BD38B50023044603604360CC
:1070AC00836003730D4639B1084600F06CFF294626
:1070BC0002462046FFF7D7FF204638BD884210B560
:1070CC000B46044607D0096819B19A68FFF7CBFF45
:1070DC0001E0FFF7A0FF204610BD10B500230446C9
:1070EC000360436083600373FFF7E8FF204610BD25
:1070FC0070B504460E4609B9002070BD6AB18368AC
:10710C00D5182946FFF79EFF0028F5D02068A36804
:10711C003146184400F014FFA560012070BD10B575
:10712C008A6809680446FFF7E3FF10B92046FFF7A9
:10713C0072FF204610BD0000044B00204FF6FF727A
:10714C00187058809A80FDF7B9BB00BFE0E50320AA
:10715C00024B1A68024B1A60704700BFD8E203203A
:10716C00E8E5032010B40468246BA4465DF8044BD6
:10717C00604703689B6C1847808E7047028FC08EE7
:10718C00101A704713B502AB026803F8011DD468DE
:10719C0019460122A04702B010BD10B503681B6947
:1071AC000446984728B1E38EE26B591CE186D05C0B
:1071BC0010BD4FF0FF3010BD10B503681B690446BD
:1071CC00984718B1E38EE26BD05C10BD4FF0FF30E6
:1071DC0010BD704710B403460846DC6BD98E1A8F6D
:1071EC000368521ADB6821445DF8044B1847A0F180
:1071FC001000FFF7EFBFF0B503688DB01C265B6A7B
:10720C0004460F461546984701233246002105A82F
:10721C00029300F042FE8DF8146038460A268DF871
:10722C001560FDF743FA1122ADF816000221304625
:10723C00FDF77CFA0028606124DB0422009202AB8B
:10724C0040F6FF71FDF752FAE0B995B10390ADF835
:10725C00100003A9E8B2FDF7E9F998B906230093E9
:10726C0041F20B0203AB40F6FF716069FDF73EFA89
:10727C0040B91C2205A96069FDF730FA10B96564A4
:10728C00012004E0236820465B6A984700200DB07B
:10729C00F0BD10B504464069002801DBFDF72EFA5D
:1072AC004FF0FF3363610023E386238710BD38B5AD
:1072BC00C36B0546C08E13B12C6C241A00E01C461F
:1072CC00944228BF14462246184400F0C0FDEB8EB1
:1072DC002344EB86204638BD70B503681B69044611
:1072EC000E461546984788B1236820461B69984777
:1072FC00E38EE16B8542A8BF054619442A46304609
:10730C0000F0A5FDE38E2B44E38601E04FF0FF3542
:10731C00284670BD70B50446054B44F8043B01F19A
:10732C00200506460FCD0FC42B682370304670BD68
:10733C0064820D00F0B59446026889B0976A0A4AD7
:10734C0002921D1D8E4606460FCD03AC0FC42B6852
:10735C002370BDF838300093624602AB714630465C
:10736C00B84709B0F0BD00BF64820D00F0B50368EA
:10737C00B0F836E09F6A0D4B89B000F12006044648
:10738C0002930FCE03AD0FC533682B70A38E009301
:10739C00724602ABE16B2046B84723680546DB69B1
:1073AC0020469847284609B0F0BD00BF64820D0006
:1073BC00F0B54378022B8DB005460C46174601D12B
:1073CC00011D33E00A2B35D11122002101A800F058
:1073DC0064FDAB6843B9EB6833B94FF6FF702E69A7
:1073EC00FDF754F986421FD005F1080301AE05F1F3
:1073FC00180E18685968324603C20833734516468E
:10740C00F7D1062301A906A807AE8DF81430FDF7B5
:10741C003DFF0FCE04340FC43368237057B1688816
:10742C00FDF73CF9388005E005F114012046FDF725
:10743C0062FFF3E70DB0F0BD2DE9F0418EB00EAB5D
:10744C00002506461746084643F8345D2A46294669
:10745C00FDF73CF900281FDB019BFBB15B69EBB12D
:10746C0002A8FDF705FF019B2A46586902A9FFF700
:10747C009FFF02A8FDF71CFF80B1336803ADD3F862
:10748C0038800B4B08930FCD09AC0FC42B682370BD
:10749C003A4608A93046C047044601E04FF0FF3495
:1074AC000198FDF70BF920460EB0BDE8F08100BF46
:1074BC0064820D002DE9F047D0F81480B8F1000F6C
:1074CC008CB005460C461746994600DB11B94FF0B7
:1074DC00FF3035E04FF01C0A05AE52460021304615
:1074EC0000F0DBFCCDF808A0B9F1000F14D04FF47C
:1074FC007A72B9FBF2F1039102FB11914A43082312
:10750C000492009341F2060203AB40F6FF71404631
:10751C00FDF7ECF808B113E0082002AB019321460B
:10752C00034600963A466869FDF7F0F8041E06DB40
:10753C0005F1340205F11C013046FFF739FF2046F6
:10754C000CB0BDE8F08738B5054614462B7D062BEC
:10755C00084611D11C2313700A235370FDF7A6F8AB
:10756C00083424F8060C2B1D143553F8042B44F85E
:10757C00042BAB42F9D138BD042B0AD11023137064
:10758C0002235370FDF792F860806868FDF77EF86F
:10759C00606038BD2DE9F0438BB003AC1C259946D7
:1075AC0006460F46904600212A46204600F075FC00
:1075BC002246BDF848104846FFF7C5FF9DF80D3030
:1075CC0043B18DE830000023424639467069FDF71F
:1075DC00A5F801E04FF0FF300BB0BDE8F083F0B53B
:1075EC0091B00C4606460021154609A81C221F46E0
:1075FC0000F053FC09AA00212046FFF7A4FF9DF8D8
:10760C002530022B2ED1002305930A9B0493DDB168
:10761C0002A92846FDF712F8B0B910A941F8340DAB
:10762C000298FDF713F860B9039B53B1DA6812683E
:10763C005178022903D152680AB1059201E01B6806
:10764C00F3E70398FDF70AF8002F4FF008030093B7
:10765C0018BF032204AB08BF042200213046FDF7FB
:10766C0045F81EE00A2B1AD104AC14220021204646
:10767C0000F013FC0BAB0FCB002F84E80F004FF086
:10768C001403009318BF0C22234608BF0D22292196
:10769C0030460895FDF72AF800EAE07001E04FF05B
:1076AC00FF3011B0F0BD000038B54FF47A73836031
:1076BC000B4B03F108026C33002503614FF0FF33D1
:1076CC0004464560026043611C30FDF7D1FD4FF468
:1076DC000073E5862587E56323646564204638BD21
:1076EC00BC840D0010B590F84830044623B1C06B33
:1076FC0010B1012100F027FA0023E36384F848302D
:10770C002364E386238710BD70B5044616460D46E8
:10771C00FFF7E8FF0023E66323643EB935B1284642
:10772C00FCF7B5FC0123E06384F84830E36B03B14C
:10773C002564206C003018BF012070BDF8B51746C9
:10774C00C26B05460C461AB9016C09B1FFF7DCFF98
:10775C0004340FCC05F120060FC6236833700023C8
:10776C00AF86EB862B87286CF8BD70B5C26B0446D0
:10777C000E461AB9016C09B1FFF7C6FFE16B002286
:10778C00E286228749B1226C3AB1236820461D6BF0
:10779C003346A8470028C8BF2087236820461B69AA
:1077AC00BDE870401847000010B5074B03F1080204
:1077BC006C33044602600361FFF76BFD2046FFF754
:1077CC0091FF204610BD00BFBC840D0010B50446CF
:1077DC00FFF7EAFF20464C2100F0B5F9204610BD1A
:1077EC0002464069002804DB012392F84420FFF78D
:1077FC00F6BE4FF0FF30704770474174704708B5C4
:10780C00007CFCF7DBFF20EAE07008BD08B5007CCB
:10781C00FCF7B4FF20EAE07008BD08B5007CFCF76B
:10782C00BDFF30EA200028BF4FF0FF3008BD08B57F
:10783C00007CFCF7ABFF30EA200028BF4FF0FF3094
:10784C0008BD007CFCF7B2BF10B51421044600F053
:10785C007AF9204610BD70B5457C04460E4625B914
:10786C00007CFCF7ABFF002805DD3146207CBDE831
:10787C007040FCF77BBF284670BD000010B5044675
:10788C0008461146002262604FF47A72A260054AE3
:10789C0022600122207462741A46FCF757FF2046BE
:1078AC0010BD00BF34850D000023007CFCF78EBF9B
:1078BC000022FFF7F9BF007CFCF750BF38B50C4D28
:1078CC00296811F0010411D12846FCF7F1FB68B1CD
:1078DC00084A094B09482146FFF7D0FF2846FCF718
:1078EC00ECFB074A0749054800F028F9034838BD66
:1078FC0084E6032088E6032000E60320ECE5032061
:10790C0044E3032005780D0041747047704708B5B7
:10791C000021007CFCF78AFF30EA200028BF4FF0E2
:10792C00FF3008BD08B50121007CFCF77FFF30EA71
:10793C00200028BF4FF0FF3008BD08B5007CFCF7D5
:10794C006DFF20EAE07008BD08B5007CFCF75EFF17
:10795C0020EAE07008BD007CFCF778BF10B514215C
:10796C00044600F0F0F8204610BD38B50446007C03
:10797C000D46FCF753FF002801DC607C28B129463A
:10798C00207CFCF75BFF20EAE07038BD10B50446A4
:10799C00002363604FF47A73A360054B23600123CB
:1079AC000846217463741146FCF718FF204610BD7D
:1079BC0064850D000022007CFCF718BF007CFCF7EE
:1079CC001DBF007CFCF74ABF10B5142204460021F1
:1079DC0000F063FA204610BD30B50E4D87B001A8FB
:1079EC00FFF7F2FF296811F0010410D12846FCF7CB
:1079FC005FFB60B101AA21460748FFF7C7FF284685
:107A0C00FCF75BFB054A0649034800F097F802486F
:107A1C0007B030BD0CE7032010E7032044E303203C
:107A2C0019790D0008B50C4B33B1FFF7D5FF03687E
:107A3C001B699847002809DC084B63B1FFF73EFF30
:107A4C0003681B699847002803DC08BDAFF300806E
:107A5C00F2E7AFF3008008BD00000000000000005A
:107A6C0008B5FFF7DFFFFCF7C9FD014B186008BD37
:107A7C0028E7032007B5002300931A466FF077011F
:107A8C00FCF746FF03B05DF804FB000007B5438824
:107A9C000A2B08D0502B09D1094B1B683BB103B002
:107AAC005DF804EB1847FFF7E5FF06E000230093B1
:107ABC001A466FF07701FCF72BFF03B05DF804FB5F
:107ACC0024E7032010B5FCF781FD044600F0EEF925
:107ADC00074B13B12046AFF3008000210448FCF79C
:107AEC004BFF00210348BDE81040FCF707BF00BF67
:107AFC0000000000997A0D0070B50C4C0C4E0D4D29
:107B0C0000212046FFF75CFA20460B4C32462946F2
:107B1C0000F014F801212046FFF752FA32462946AC
:107B2C002046BDE8704000F009B800BF2CE70320E8
:107B3C0044E30320BD6F0D003CE703200B460146D8
:107B4C00184600F067B9FCF7A4BA0000024B18689D
:107B5C00BFF35F8F704700BF4CE7032010B50028C0
:107B6C0014BF044601242046FCF75EFF20B9FFF742
:107B7C00EDFF08B18047F6E710BDFFF7EFBF08B582
:107B8C00FCF772FF244B1A68D0075CBF01221A6005
:107B9C00224B1A68D1075CBF01221A60204B1A686D
:107BAC00D2075CBF01221A601E4B1A68D0075CBF5B
:107BBC0001221A601C4B1A68D1075CBF01221A60A3
:107BCC001A4B1A68D2075CBF01221A60184B1A684C
:107BDC00D0075CBF01221A60164B1A68D1075CBF34
:107BEC0001221A60144B1A68D2075CBF01221A607A
:107BFC00124B1A68D0075CBF01221A60104B1A682E
:107C0C00D1075CBF01221A600E4B1A68D2075CBF09
:107C1C0001221A60704700BF7CE7032078E703203D
:107C2C0074E7032070E703206CE7032068E7032068
:107C3C0064E7032060E703205CE7032058E7032098
:107C4C0054E7032050E70320184B1A68D1075CBF98
:107C5C0001221A60164B1A68D2075CBF01221A6007
:107C6C00144B1A68D0075CBF01221A60124B1A68B9
:107C7C00D1075CBF01221A60104B1A68D2075CBF97
:107C8C0001221A600E4B1A68D0075CBF01221A60E1
:107C9C000C4B1A68D1075CBF01221A600A4B1A6898
:107CAC00D2075CBF01221A60704700BF9CE703201B
:107CBC0098E7032094E7032090E703208CE7032048
:107CCC0088E7032084E7032080E70320184B1A6819
:107CDC00D1075CBF01221A60164B1A68D2075CBF31
:107CEC0001221A60144B1A68D0075CBF01221A607B
:107CFC00124B1A68D1075CBF01221A60104B1A682C
:107D0C00D2075CBF01221A600E4B1A68D0075CBF09
:107D1C0001221A600C4B1A68D1075CBF01221A6051
:107D2C000A4B1A68D2075CBF01221A60704700BF69
:107D3C00BCE70320B8E70320B4E70320B0E7032037
:107D4C00ACE70320A8E70320A4E70320A0E7032067
:107D5C00244B1A68D0075CBF01221A60224B1A68A8
:107D6C00D1075CBF01221A60204B1A68D2075CBF96
:107D7C0001221A601E4B1A68D0075CBF01221A60E0
:107D8C001C4B1A68D1075CBF01221A601A4B1A6887
:107D9C00D2075CBF01221A60184B1A68D0075CBF6F
:107DAC0001221A60164B1A68D1075CBF01221A60B7
:107DBC00144B1A68D2075CBF01221A60124B1A6866
:107DCC00D0075CBF01221A60104B1A68D1075CBF48
:107DDC0001221A600E4B1A68D2075CBF01221A608E
:107DEC00704700BFECE70320E8E70320E4E703203B
:107DFC00E0E70320DCE70320D8E70320D4E70320E7
:107E0C00D0E70320CCE70320C8E70320C4E7032016
:107E1C00C0E7032010B5054C13462CB10A460146A9
:107E2C000220AFF3008010BD204610BD0000000002
:107E3C0010B501390244904207D010F8013B11F8FB
:107E4C00014FA342F7D0181B10BD002010BD10B578
:107E5C00431E0A44914204D011F8014B03F8014F20
:107E6C00F8E710BD884210B501EB020301D8421EA1
:107E7C000BE09842FBD28118D21AD34204D013F8EB
:107E8C00014D01F8014DF8E710BD994204D011F8ED
:107E9C00014B02F8014FF8E710BD02440346934230
:107EAC0002D003F8011BFAE77047000038B5124BFB
:107EBC001C68A36B0546D3B91820FCF7B5FD43F23B
:107ECC000E33A06303804AF6CD33438041F2342352
:107EDC0083804EF26D63C3804DF6EC630381052302
:107EEC0043810B23838101220023C0E90423A36B6C
:107EFC0000221D615A6138BD40E30320C9B203461C
:107F0C0010F8012B1AB19142F9D11846704700298B
:107F1C000CBF18460020704710B50446FFF7EEFF63
:107F2C0018B9204600F02FF8204410BD10F8012B92
:107F3C0011F8013B012A28BF9A42F7D0D01A70479A
:107F4C00034611F8012B03F8012B002AF9D17047D5
:107F5C00024B0146186800F003B800BF40E3032051
:107F6C0070B5064608460C4600F00DF8451C29462F
:107F7C003046FCF781FD064618B12A462146FFF72C
:107F8C0066FF304670BD034613F8012B002AFBD167
:107F9C00181A0138704730B582B1451E013915F8F1
:107FAC00013F11F8014FA34206D1EC431444E042C7
:107FBC0001D0002BF3D11C46181B30BD104630BD30
:107FCC0010B5034601448B4204D01A785C1C0AB1EC
:107FDC002346F8E7181A10BD38B503460D4641B1D3
:107FEC00002429461846FFF789FF30B1431C04468C
:107FFC00F7E7BDE83840FFF781BF204638BD0000E9
:10800C002DE9F04780464048D0F800900F463D4699
:10801C0015F8014B09EB0400407800F0080000F063
:10802C00FF0608B12F46F2E72D2C03D1BD1C7C783E
:10803C00012603E02B2C04BF7C78BD1C13B1102B44
:10804C000AD15BE0302C57D1287800F0DF0058289B
:10805C004DD16C7810230235002E14BF4FF0004C1C
:10806C006FF0004C0027BCFBF3FA384603FB1ACC2C
:10807C0009EB040E9EF801E01EF0040F01D0303C19
:10808C000BE01EF0030E1BD0BEF1010F0CBF4FF026
:10809C00370E4FF0570ECEEB0404A34210DDB7F1B0
:1080AC00FF3F0AD0504506D801D1644503DC03FBE1
:1080BC000040012701E04FF0FF3715F8014BD7E7DF
:1080CC007B1C0CD1002E4FF0220314BF4FF000404C
:1080DC006FF00040C8F800302AB9BDE8F08706B14F
:1080EC00404272B107B1691E1160BDE8F0873024BF
:1080FC00002BB1D10823AFE70A23ADE7302CA3D076
:10810C00AAE7BDE8F08700BFDCE2032013460A466D
:10811C00014602480068FFF773BF00BF40E303202D
:10812C001D400D0059400D0085400D0089400D008B
:10813C000000000000000000000000000000000033
:10814C0000000000A9400D00CD400D000000000013
:10815C0000000000F9400D002D410D00E5620D00FE
:10816C00CF400D0070696E67207265636569766536
:10817C006400436F6E6E656374696E6720746F2064
:10818C006D65736800626F725F70696E670053652E
:10819C006E64696E6720726573706F6E73652070A4
:1081AC006F6E6720746F20257300626F725F706F43
:1081BC006E673A0078656E6F6E2D70756200626F37
:1081CC00725F6F6E6C696E6500000000000000004D
:1081DC00000000009B4B0D00914B0D00874B0D00D8
:1081EC003D4B0D007B4B0D006F4B0D00634B0D0099
:1081FC005B4B0D00514B0D00474B0D00796D0D0085
:10820C000000000000000000D54B0D00DB4B0D0002
:10821C00314C0D00E94B0D00D74B0D000000000058
:10822C0000000000EB510D00E1510D00D7510D0085
:10823C00CD510D00C1510D00B5510D00A9510D00CE
:10824C00A1510D0097510D008D510D00796D0D0050
:10825C00000000000000000019520D0009520D0032
:10826C000B520D00302E300066616C736500747219
:10827C007565002575002567006E756C6C0075259D
:10828C00303478000000000000000000C9560D00DA
:10829C00EF560D00A3560D0047530D0000000000D3
:1082AC0000000000455B0D00595B0D0099640D004A
:1082BC00AB560D000000000000000000C5560D007C
:1082CC000B570D005D5A0D0019570D006261756456
:1082DC000053657269616C0053657269616C3100A1
:1082EC007479706500706172616D00636D64006912
:1082FC006400686E64007374726D0066696C74005F
:10830C006C766C0061646448616E646C65720072BA
:10831C00656D6F766548616E646C657200656E752F
:10832C006D48616E646C657273004A534F4E5374A2
:10833C007265616D4C6F6748616E646C657200614B
:10834C00707000253031307520005D20002C20002D
:10835C0028293A2000205B00636F6465203D2000D3
:10836C0025690064657461696C73203D20000D0AF9
:10837C000066006C6E00666E00636F646500646579
:10838C007461696C006E6F6E650074726163650078
:10839C00696E666F007761726E006572726F720043
:1083AC0070616E696300616C6C000000000000007D
:1083BC0000000000195B0D00315B0D00E5620D0043
:1083CC00CF400D000000000000000000C7560D005B
:1083DC00FD560D000D620D00AD560D0000000000A5
:1083EC00000000009D660D0093660D0089660D006F
:1083FC007F660D0073660D0067660D005B660D00F1
:10840C0053660D0049660D003F660D00796D0D0039
:10841C00666630333A3A313A31303031007769722E
:10842C00696E67007061727365207061636B65744F
:10843C0020256400746831006D6573687075620086
:10844C000000000000000000116D0D001B6D0D0000
:10845C00256D0D002F6D0D00396D0D00456D0D0056
:10846C00516D0D005D6D0D00656D0D006F6D0D0096
:10847C00796D0D000000000000000000BD6F0D00C4
:10848C00BF6F0D005A00252B3033643A25303275FE
:10849C000025592D256D2D25645425483A254D3A36
:1084AC002553257A0061736374696D6500000000C3
:1084BC000000000000000000B5770D00D9770D001A
:1084CC0091710D00BB720D0089710D00A7710D002B
:1084DC00C5710D00DF710D0003720D009F720D0050
:1084EC00A1750D0041730D00C1740D0071710D006B
:1084FC0049770D0045740D0079730D0077770D00E9
:10850C00E5720D007F710D0021730D0085710D005A
:10851C00E1710D00F0FFFFFF00000000FB710D008A
:10852C00000000000000000005780D0055780D00DB
:10853C0063780D00596E0D0019780D003B780D0015
:10854C0027780D004F780D0007780D000B780D0083
:10855C00000000000000000019790D0069790D0081
:10856C0077790D00596E0D0055790D001B790D00B2
:10857C0031790D0063790D0047790D0015790D00E7
:10858C0000002020202020202020202828282828F7
:10859C0020202020202020202020202020202020CF
:1085AC002020881010101010101010101010101027
:1085BC001010040404040404040404041010101027
:1085CC0010101041414141414101010101010101E2
:1085DC000101010101010101010101010110101052
:1085EC0010101042424242424202020202020202B5
:1085FC000202020202020202020202020210101025
:10860C00102000000000000000000000000000002E
:10861C00000000000000000000000000000000004E
:10862C00000000000000000000000000000000003E
:10863C00000000000000000000000000000000002E
:10864C00000000000000000000000000000000001E
:10865C00000000000000000000000000000000000E
:10866C0000000000000000000000000000000000FE
:10867C0000000000000000000000000000000000EE
:10868C0000000000000000000000000000000000DE
:10869C0000000000000000000000000000000000CE
:1086AC0000000000000000000000000000000000BE
:1086BC0000000000000000000000000000000000AE
:1086CC00000000000000000000000000000000009E
:1086DC00000000000000000000000000000000008E
:1086EC00000000004300000051440D002D4B0D0014
:1086FC00A54B0D00F5510D00D5620D00C16C0D00A0
:10870C00456E0D00A16F0D0045710D005D710D00E2
:10871C00057B0D00917B0D00557C0D00D97C0D0067
:04872C005D7D0D0062
:10873000C8820D00D8830D00B1840D008D850D0019
:108740000000000090860D00B0860D00D0860D0060
:108750000000000000000000000000000000000019
:10876000F0860D0000000000000000000000000086
:1087700000000000000000000000000000000000F9
:1087800000000000000000000000000000000000E9
:1087900000000000000000000000000000000000D9
:0487A000E0E20320F0
:1087A400FFFFFFFF00000102030405060708090A92
:1087B4000B0C0D0E0F101112131415161718191A8D
:0887C4001B1C1D1E1F202800D4
:0487CC007856341295
:04000003D000401CCD
:00000001FF
