:02000002D0002C
:1040000000400D00505B0D00000006000D00050192
:08401000040115050000000089
:104018005C570D0009480A49884208B505D0094A85
:10402800824202D0121A01F035FB0748074A0021E4
:10403800121A01F03AFB014808BD00BF10E3032043
:10404800C05A0D0078E3032078E30320F0E703204B
:1040580070B501F083F9074C074BE41AA408002552
:104068001E46A54204D056F8253098470135F8E792
:1040780070BD00BFC05A0D00845A0D0000F015B87D
:1040880008B500F013F8BDE8084001F035B900F0B4
:10409800AFB900F0B5B900F0B3B90078B0FA80F064
:1040A8004009704701230370704770471FB542F2FB
:1040B800107000F0C5F90F4B0F491A680F4B1B78A9
:1040C8008DF8003002A83C2300F08CFB039C7CB1E7
:1040D8006368013B63605BB9236820469B68984727
:1040E800A368013BA3601BB923682046DB68984797
:1040F80004B010BD7CE3032070570D008CE303204F
:1041080010B5084B084C00221A7000F04DF807490A
:10411800204600F0A8FF2046054A0649BDE81040A1
:1041280001F058B98CE303207CE3032076570D0097
:1041380078E30320E14F0D0008B5024B1B689B682C
:10414800019308BD4802030008B5024B1B681B69B0
:10415800019308BD4802030008B5024B1B685B6960
:10416800019308BD4802030008B5024B1B681B6B8E
:10417800019308BD4802030008B5024B1B685B6C3D
:10418800019308BD4802030008B5024B1B685B6831
:10419800019308BD1802030008B5024B1B685B6950
:1041A800019308BD1802030008B5024B1B681B6881
:1041B800019308BD2C02030008B5024B1B685B691C
:1041C800019308BD6402030008B5024B1B689B6895
:1041D800019308BD6802030008B5024B1B68DB6841
:1041E800019308BD6802030008B5024B1B68DB6930
:1041F800019308BD3002030008B5024B1B681B6819
:10420800019308BD3C02030008B5024B1B68DB683C
:10421800019308BD3C02030008B5024B1B681B69EB
:10422800019308BD3C02030008B5024B1B685B699B
:10423800019308BD3C02030008B5024B1B689B694B
:10424800019308BD3C02030008B5024B1B68DB69FB
:10425800019308BD3C02030008B5024B1B689B6A2A
:10426800019308BD3C02030008B5024B1B681B689C
:10427800019308BD4C02030008B5024B1B681B697B
:10428800019308BD4C02030008B5024B1B685B692B
:10429800019308BD4C02030008B5024B1B689B69DB
:1042A800019308BD4C02030008B5024B1B68DB698B
:1042B800019308BD4C02030008B5024B1B681B6A3A
:1042C800019308BD4C02030008B5024B1B685B68EC
:1042D800019308BD2002030008B5024B1B685B6907
:1042E800019308BD2002030008B5024B1B68DB6C74
:1042F800019308BD2002030008B5024B1B685B6DE3
:10430800019308BD2002030008B5034B1B68D3F8CE
:104318008830019308BD00002002030008B5034B54
:104328001B68D3F89430019308BD000020020300F5
:1043380008B5024B1B681B6A019308BD44020300C1
:1043480008B5024B1B68DB6B019308BD44020300F0
:1043580008B5024B1B685B68019308BD4002030067
:1043680008B5024B1B689B68019308BD4002030017
:1043780008B5024B1B68DB68019308BD40020300C7
:1043880008B5024B1B681B69019308BD4002030076
:1043980008B5024B1B685B69019308BD4002030026
:1043A80008B5024B1B689B69019308BD40020300D6
:1043B80008B5024B1B68DB69019308BD4002030086
:1043C80008B5024B1B681B6A019308BD4002030035
:1043D80008B5024B1B681B6B019308BD4002030024
:1043E80008B5024B1B685B6B019308BD40020300D4
:1043F80008B5024B1B681B68019308BD1C0203002B
:1044080008B5024B1B685B68019308BD1C020300DA
:1044180008B5024B1B689B68019308BD1C0203008A
:1044280008B5024B1B68DB6A019308BD1C02030038
:1044380008B5024B1B681B6B019308BD1C020300E7
:104448000021FFF749BF10B5836804460BB900F097
:10445800C8FFC3689847A3681BB1032221462046BA
:10446800984720461021BDE8104000F0B8BF10B5AD
:10447800036804469B689847A368013BA3602BB96F
:1044880023682046DB68BDE81040184710BD10B50A
:104498000446006828B14368013B43600BB9FFF745
:1044A800E6FF204610BD0B68036013B15A6801325D
:1044B8005A607047024800230360FFF75DBE00BFE3
:1044C80090E30320002211464068FFF759BF0022FD
:1044D80011464068FFF774BF002211464068FFF795
:1044E8007FBF00224068FFF773BF002281F00101FF
:1044F8004068FFF75DBF00231A4619464068FFF77A
:104508004FBF00231A4619464068FFF741BF0022F3
:1045180011464068FFF724BF002202214068FFF7D8
:1045280027BF00231A464068FFF712BF38B50C4C66
:1045380028252A460021204601F0B7F84FF0FF331E
:1045480063602580074C0423204663602C25064BB6
:1045580040F8083B2A46002101F0A7F8258138BD1C
:10456800C8E3032094E30320A8570D0070470020F8
:10457800704710B51021044600F031FF204610BDE9
:1045880008B508B1FFF7F5FF08BD10B58368044604
:1045980013B1032201469847204610BD38B5C468B8
:1045A800ECB12378022B02D1E068FFF729FF656898
:1045B80035B12846FFF7E9FF1021284600F00FFF24
:1045C800A56835B12846FFF7E0FF1021284600F01E
:1045D80006FF20461421BDE8384000F000BF38BD72
:1045E80013B5044691E8050000234B600B6020607A
:1045F800626001A801930093FFF749FF204602B0CB
:1046080010BDF7B50C4602AD54F8043B45F8083D1B
:1046180006460F4601A82146FFF745FF29463046C2
:10462800FFF7DEFF01A8FFF732FF2046FFF72FFF55
:104638003846082100F0D3FE304603B0F0BD13B56C
:104648000B46044603C88DE8030093E8030084E89A
:1046580003009DE8030083E8030002B010BD8268F0
:1046680010B50AB900F0BDFEC368BDE81040184790
:1046780008B5006800F11001FFF7F1FF08BD826876
:1046880010B50AB900F0ADFEC368BDE81040184780
:1046980008B5006800F11001FFF7F1FF08BD38B553
:1046A800002383608B6804460D462BB1022298478D
:1046B800EB68E360AB68A360204638BD2DE9F041A4
:1046C8004FF69C7386B00468B1F904208B800023F0
:1046D8000F688DF800300B604FF00200D4E84F1FD0
:1046E800994203D1C4E8450F002DF7D102D08DF8C7
:1046F80000106BE014F10C051EBFE76022821F4614
:104708000123BFF35F8F0020637004F10803BFF338
:104718005F8F53E8006F43E80002002AF9D1BFF326
:104728005F8F002E52D0FFF7DFFD20B129463046BB
:10473800FFF795FF43E031466846FFF7B0FFE068B2
:10474800B4F9105008B100F0E1FF04901020ADF862
:104758001450FFF79CFC054630B34FF00008C0F832
:1047680008801820FFF793FC0446C0B1C0F8088001
:1047780001466846FFF763FF029BA268A360039B9C
:104788000292E268E360BDF81430A3824FF69C738E
:10479800ADF81430049B03922361CDF810800E4BC2
:1047A800EB600E4B2C60AB600498FFF729FE68465F
:1047B800FFF7EBFE002229460948FFF79DFD30462A
:1047C800FFF7E3FE1021304600F009FE3846FFF7F8
:1047D80017FE06B0BDE8F08179460D00D5480D00FA
:1047E8004F440D002DE9F04F8BB007AD4FF0000B93
:1047F8000646994614200C230F4690469DF850A073
:10480800C5F804B0C5F808B00793FFF740FC0446A4
:1048180038B180F800B080F801B0C0F804B0C0F832
:1048280008B00023102003940493FFF730FC28B14C
:10483800012343608360234B0360C4600490224BD0
:1048480008930820FFF723FC044628B1039B40F88F
:10485800043B04A9FFF727FE00955FFA8AF34A464E
:10486800414638460994FFF763FDB8B9039B5B7866
:1048780003F0FF0293B94FF69C7305A903A80592AC
:10488800ADF81830FFF71AFF0598FFF7B9FD05A82E
:104898000999FFF7B6FE06A8FFF7F9FD039B0593F4
:1048A80004A906A8FFF7FFFD05A93046FFF798FE03
:1048B80006A8FFF7ECFD04A8FFF7E9FD30460BB0AA
:1048C800BDE8F08FDC570D00414A0D00022AF8B50B
:1048D800044606D0032A17D0012A21D10B680360A9
:1048E8001EE018200E68FFF7D2FB054650B131468E
:1048F800FFF7D5FE3069B6F9147008B100F006FF6D
:104908002861AF8225600BE004684CB12069FFF78D
:1049180077FD2046FFF739FE1821204600F05FFD9D
:104928000020F8BD38B5002383608B6804460D4627
:104938002BB102229847EB68E360AB68A36020467E
:1049480038BD022A70B5044606D0032A11D0012AC0
:1049580018D10B68036015E014200E68FFF797FB69
:10496800054620B13146FFF7DDFF337C2B74256007
:1049780008E0046834B12046FFF707FE14212046FA
:1049880000F02DFD002070BDF0B5002387B00C4667
:10499800BFF35F8F50E8006F40E80032002AF9D17A
:1049A800BFF35F8F002E3FD01846FFF79DFC0746E8
:1049B80020B121463046FFF762FE2EE0314601A8BD
:1049C800FFF7B0FF23788DF814301020FFF75FFB56
:1049D8000546D0B187601420FFF759FB044678B12B
:1049E8008760014601A8FFF72AFE039BA268A3601F
:1049F800049B0392E268E3609DF8143004922374E8
:104A08000A4BEB600A4B2C60AB6001A8FFF7BDFDB9
:104A1800002229460748FFF76FFC3046FFF7B5FD2F
:104A28001021304600F0DBFC07B0F0BD99460D00C0
:104A38004B490D004F440D0030B585B004460D4676
:104A480068461146FFF7DDFD7CB124B228460DB15A
:104A580000F05CFE029002A96846ADF80C40FFF732
:104A68002DFE0298FFF7CCFC1DE000988DF8084059
:104A78004FF00102D0E84F3FA34203D1C0E8412FD5
:104A88000029F7D102D08DF808300CE010F10C01A4
:104A98004FF0010318BF0373BFF35F8F043000F8B2
:104AA800033CFFF771FF01A8FFF7F1FC05B030BD2B
:104AB800002211464068FFF783BC00221146406877
:104AC800FFF78EBC00224068FFF782BC002281F00D
:104AD80001014068FFF76CBC00231A46194640687C
:104AE800FFF75EBC00231A4619464068FFF750BC22
:104AF800002211464068FFF743BC00221146406877
:104B0800FFF72EBC002202214068FFF731BC0023CA
:104B18001A464068FFF71CBC024B03225A60024A3F
:104B28001A607047F0E30320F8570D00704710B57E
:104B38001821044600F053FC204610BDF0B5037D53
:104B4800062B8DB00E4600F104074FF0000402D08A
:104B580000F1080518E00CAD394605F8304D2F2353
:104B68002A460A20FFF728FB284600F0EAFD3368AA
:104B78000246DB682946304698470FE024B12E21CB
:104B8800304600F0C7F9044415F8011D0A223046E2
:104B980000F0F0F9BD420444F0D120460DB0F0BD5C
:104BA80010B5054B0446112240F8043B002100F0E3
:104BB8007CFD204610BD00BF2C580D000346074A57
:104BC80010B543F8042B01F1100251F8044B43F8D7
:104BD800044B9142F9D10A781A7010BD2C580D0077
:104BE80010B59DF8084044EA032343EA024242EA2A
:104BF800016104234160037510BD37B50D788B78CA
:104C08004A78C97800912946FFF7EAFF03B030BD1A
:104C1800014B024A1A607047F8E30320F0580D0070
:104C2800002211464068FFF7CBBB002211464068BE
:104C3800FFF7D6BB00224068FFF7CABB002281F00D
:104C480001014068FFF7B4BB00231A4619464068C3
:104C5800FFF7A6BB00231A4619464068FFF798BB22
:104C6800002211464068FFF78BBB002211464068BE
:104C7800FFF776BB002202214068FFF779BB0023CB
:104C88001A464068FFF764BB38B5054688B1046822
:104C98004CB1A3681BB10322214620469847102136
:104CA800204600F09CFB28461421BDE8384000F05F
:104CB80096BB38BD10B103685B681847704710B5DC
:104CC80003680446BBB15868FFF736FA78B9236819
:104CD8005A7C12B95868FFF737FA23685868FFF703
:104CE8003BFA20680023236028B1FFF7CDFF206836
:104CF80008B1FFF7C9FF204610BD000038B50C4BBE
:104D080003600446D0F8CC0108B1FFF7C4F9D4F821
:104D1800C45135B12846FFF7D2FF0421284600F0D8
:104D28005EFBA06808B1FFF7C5FF204638BD00BF8D
:104D380024590D0038B50D4C0D4B23600025022376
:104D480004F5E4706360A560C4F8C451C4F8C851A0
:104D5800FFF712FA074BC4F8CC5123602046064AE5
:104D68000649BDE8384000F035BB00BFFCE303202E
:104D780058590D0024590D0078E30320054D0D0006
:104D880000231A464068FFF7E3BA00220221406870
:104D9800FFF7EEBA002211464068FFF7E1BA002299
:104DA80011464068FFF7ECBA00231A4619464068D6
:104DB800FFF7EEBA00231A4619464068FFF7F0BA23
:104DC800002281F001014068FFF7F2BA0022406832
:104DD800FFF7FEBA002211464068FFF701BB002228
:104DE80011464068FFF7ECBA2DE9F043002495B06E
:104DF80016460D460746FFF7D3FE214620220CA88B
:104E0800009400F052FC40230C9321466B460CAAF8
:104E18003046FFF7E1F90446002844D10246012153
:104E28006868FFF7ADFA0221804622466868FFF7F6
:104E3800A7FA009E81462146002E34D0002932D19F
:104E48007368022B02D00A2B09D02AE0B8F1000FB0
:104E580027D0716938460431FFF7CFFE20E0B9F159
:104E6800000F1ED07469112201A800F01EFC062351
:104E78008DF8143001AD04F1080318341868596826
:104E88002A4603C20833A3421546F7D101A906A84A
:104E980007ADFFF793FE0FCD3C1D0FC42B682370A1
:104EA8000121F669C8E70098FFF78EF9384615B072
:104EB800BDE8F083024B034A1A6000225A6070472B
:104EC800CCE5032058590D00F8B506460D468F1855
:104ED8000024BD420CD0336815F8011B9B6830468E
:104EE8009847002801DB0444F3E7002C08BF044678
:104EF8002046F8BD70B505460C46084649B100F095
:104F080020FC2B68024621462846DB68BDE8704035
:104F1800184770BD03689B68184730B58BB00B46BF
:104F280000218DF82410012A98BF0A220DF12304CC
:104F3800B3FBF2F505FB123303F0FF03092B94BF13
:104F480030333733DBB2214604F801392B46002DC4
:104F5800EED1FFF7CFFF0BB030BD10B42AB903680C
:104F68005DF8044B9B68C9B21847D2B25DF8044B90
:104F7800FFF7D3BFFFF7F1BF10B50446FFF705FBF6
:104F8800204610BD0348044A04490023836000F00A
:104F980021BA00BFD4E5032078E30320814F0D0038
:104FA800704710B51021044600F019FA204610BDCC
:104FB80070B5084B0360044600250E4640F80C5FA8
:104FC800FFF7D2F830462671FFF70EF9A5602046A4
:104FD80070BD00BF8C590D0010B504460068FFF77E
:104FE8000FFA204610BD10B50446006808B1FFF757
:104FF80007FA00232360A360636010BD38B5044638
:105008000D4600680131FFF703FA10B184E821006A
:10501800012038BD10B50368044613B143688B42BC
:1050280007D22046FFF7EAFF20B1A3680BB9226830
:105038001370012010BD70B50E4611460446154682
:10504800FFF7E8FF18B92046FFF7CDFF09E02A4629
:105058003146A560206800F01DFB2268A368002186
:10506800D154204670BD38B5002304460360436020
:10507800836003730D4639B1084600F062FB294688
:1050880002462046FFF7D7FF204638BD044B0020D4
:105098004FF6FF72187058809A80FFF715B900BF55
:1050A800E4E50320024B1A68024B1A60704700BF00
:1050B80010E30320ECE5032070474174704708B5FE
:1050C800007CFFF7C9F820EAE07008BD08B5007C4D
:1050D800FFF7A2F820EAE07008BD08B5007CFFF7EA
:1050E800ABF830EA200028BF4FF0FF3008BD08B504
:1050F800007CFFF799F830EA200028BF4FF0FF3016
:1051080008BD007CFFF7A0B810B51421044600F0D4
:1051180066F9204610BD70B5457C04460E4625B993
:10512800007CFFF799F8002805DD3146207CBDE8B2
:105138007040FFF769B8284670BD000010B50446F6
:1051480008461146002262604FF47A72A260054A4E
:1051580022600122207462741A46FFF74DF8204637
:1051680010BD00BFC8590D0038B50C4D296811F0A5
:10517800010411D12846FEF790FF68B1084A094B8F
:1051880009482146FFF7DAFF2846FEF78BFF074A52
:105198000749054800F01EF9034838BD88E6032092
:1051A8008CE6032004E60320F0E5032078E30320DF
:1051B800C1500D0041747047704708B50021007C4C
:1051C800FFF76AF830EA200028BF4FF0FF3008BD2B
:1051D80008B50121007CFFF75FF830EA200028BFFE
:1051E8004FF0FF3008BD08B5007CFFF74DF820EA06
:1051F800E07008BD08B5007CFFF73EF820EAE070D3
:1052080008BD007CFFF758B810B51421044600F01B
:10521800E6F8204610BD38B50446007C0D46FFF779
:1052280033F8002801DC607C28B12946207CFFF790
:105238003BF820EAE07038BD10B5044600236360EF
:105248004FF47A73A360054B236001230846217449
:1052580063741146FFF708F8204610BDF8590D0091
:1052680010B514220446002100F01FFA204610BD94
:1052780030B50E4D87B001A8FFF7F2FF296811F08D
:10528800010410D12846FEF708FF60B101AA2146A3
:105298000748FFF7D1FF2846FEF704FF054A0649ED
:1052A800034800F097F8024807B030BD10E7032024
:1052B80014E7032078E30320C1510D0008B50C4B17
:1052C80033B1FFF7D5FF03681B699847002809DC4D
:1052D800084B63B1FFF748FF03681B69984700282C
:1052E80003DC08BDAFF30080F2E7AFF3008008BD30
:1052F800000000000000000008B5FFF7DFFFFEF720
:105308004BFF014B186008BD2CE7032007B50023AD
:1053180000931A466FF07701FFF700F803B05DF8C5
:1053280004FB000007B543880A2B08D0502B09D18D
:10533800094B1B683BB103B05DF804EB1847FFF756
:10534800E5FF06E0002300931A466FF07701FEF7A9
:10535800E5FF03B05DF804FB28E7032010B5FEF76E
:1053680013FF044600F0AAF9074B13B12046AFF328
:10537800008000210448FEF7E3FF00210348BDE850
:105388001040FEF7C1BF00BF000000002D530D0004
:1053980070B50C4C0C4E0D4D00212046FFF708FE51
:1053A80020460B4C3246294600F014F801212046CD
:1053B800FFF7FEFD324629462046BDE8704000F062
:1053C80009B800BF30E7032078E30320A94F0D0098
:1053D80040E703200B460146184600F04DB9FEF79A
:1053E80058BE08B5FFF71CF8244B1A68D0075CBFF5
:1053F80001221A60224B1A68D1075CBF01221A6089
:10540800204B1A68D2075CBF01221A601E4B1A682B
:10541800D0075CBF01221A601C4B1A68D1075CBF19
:1054280001221A601A4B1A68D2075CBF01221A605F
:10543800184B1A68D0075CBF01221A60164B1A680D
:10544800D1075CBF01221A60144B1A68D2075CBFEF
:1054580001221A60124B1A68D0075CBF01221A6039
:10546800104B1A68D1075CBF01221A600E4B1A68EC
:10547800D2075CBF01221A60704700BF7CE7032097
:1054880078E7032074E7032070E703206CE7032024
:1054980068E7032064E7032060E703205CE7032054
:1054A80058E7032054E7032050E70320184B1A68F5
:1054B800D1075CBF01221A60164B1A68D2075CBF7D
:1054C80001221A60144B1A68D0075CBF01221A60C7
:1054D800124B1A68D1075CBF01221A60104B1A6878
:1054E800D2075CBF01221A600E4B1A68D0075CBF56
:1054F80001221A600C4B1A68D1075CBF01221A609E
:105508000A4B1A68D2075CBF01221A60704700BFB5
:105518009CE7032098E7032094E7032090E7032003
:105528008CE7032088E7032084E7032080E7032033
:10553800184B1A68D1075CBF01221A60164B1A680B
:10554800D2075CBF01221A60144B1A68D0075CBFEF
:1055580001221A60124B1A68D1075CBF01221A6037
:10556800104B1A68D2075CBF01221A600E4B1A68EA
:10557800D0075CBF01221A600C4B1A68D1075CBFC8
:1055880001221A600A4B1A68D2075CBF01221A600E
:10559800704700BFBCE70320B8E70320B4E7032047
:1055A800B0E70320ACE70320A8E70320A4E7032023
:1055B800A0E70320244B1A68D0075CBF01221A60B9
:1055C800224B1A68D1075CBF01221A60204B1A6867
:1055D800D2075CBF01221A601E4B1A68D0075CBF55
:1055E80001221A601C4B1A68D1075CBF01221A609D
:1055F8001A4B1A68D2075CBF01221A60184B1A6846
:10560800D0075CBF01221A60164B1A68D1075CBF2D
:1056180001221A60144B1A68D2075CBF01221A6073
:10562800124B1A68D0075CBF01221A60104B1A6827
:10563800D1075CBF01221A600E4B1A68D2075CBF03
:1056480001221A60704700BFECE70320E8E7032057
:10565800E4E70320E0E70320DCE70320D8E70320A2
:10566800D4E70320D0E70320CCE70320C8E70320D2
:10567800C4E70320C0E7032010B5054C13462CB13E
:105688000A4601460220AFF3008010BD204610BD37
:105698000000000010B5431E0A44914204D011F8DE
:1056A800014B03F8014FF8E710BD0244034693424B
:1056B80002D003F8011BFAE77047000038B5124B17
:1056C8001C68A36B0546D3B91820FEF791FE43F278
:1056D8000E33A06303804AF6CD33438041F234236E
:1056E80083804EF26D63C3804DF6EC63038105231E
:1056F80043810B23838101220023C0E90423A36B88
:1057080000221D615A6138BD74E30320024B014633
:10571800186800F003B800BF74E3032070B50646AC
:1057280008460C4600F00DF8451C29463046FEF7A1
:105738007FFE064618B12A462146FFF7ABFF3046E2
:1057480070BD034613F8012B002AFBD1181A013843
:10575800704700001D400D0059400D0085400D00A8
:1057680089400D0000000000616C657274007B22A6
:10577800736571223A31322C2274696D65223A318F
:105788003536333339393235332C226572726F72BC
:10579800223A327D000000000000000000000000F6
:1057A8002B450D0021450D0017450D00CD440D007A
:1057B8000B450D00FF440D00F3440D00EB440D00B4
:1057C800E1440D00D7440D00F14D0D00000000002C
:1057D8000000000075450D007B450D00A5450D0036
:1057E80089450D0077450D0000000000000000000D
:1057F800174B0D000D4B0D00034B0D00F94A0D0022
:10580800ED4A0D00E14A0D00D54A0D00CD4A0D00C4
:10581800C34A0D00B94A0D00F14D0D00000000000B
:1058280000000000454B0D00354B0D00374B0D00B7
:1058380066006C6E00666E00636F64650064657474
:1058480061696C000D0A00253031307520005D203B
:10585800002564002C200028293A2000205B0063E2
:105868006F6465203D200025690064657461696C7A
:1058780073203D2000626175640053657269616C34
:105888000053657269616C310074797065007061EC
:1058980072616D00636D6400696400686E64007312
:1058A80074726D0066696C74006C766C0061646477
:1058B80048616E646C65720072656D6F76654861EB
:1058C8006E646C657200656E756D48616E646C65BA
:1058D8007273004A534F4E53747265616D4C6F6713
:1058E80048616E646C657200617070006E6F6E6501
:1058F80000747261636500696E666F007761726E2D
:10590800006572726F720070616E696300616C6C21
:10591800000000000000000000000000874C0D009F
:105928007D4C0D00734C0D00694C0D005D4C0D0055
:10593800514C0D00454C0D003D4C0D00334C0D00F5
:10594800294C0D00F14D0D00000000000000000082
:10595800894D0D00934D0D009D4D0D00A74D0D0077
:10596800B14D0D00BD4D0D00C94D0D00D54D0D00BB
:10597800DD4D0D00E74D0D00F14D0D00000000005C
:1059880000000000A94F0D00AB4F0D005A00252B59
:105998003033643A253032750025592D256D2D2573
:1059A800645425483A254D3A2553257A0061736396
:1059B80074696D6500000000000000000000000030
:1059C800C1500D0011510D001F510D00D14E0D0099
:1059D800D5500D00F7500D00E3500D000B510D0090
:1059E800C3500D00C7500D0000000000000000006B
:1059F800C1510D0011520D001F520D00D14E0D0066
:105A0800FD510D00C3510D00D9510D000B520D0071
:105A1800EF510D00BD510D00000000000000000016
:105A2800000000000000000000000000000000006E
:105A3800000000000000000000000000000000005E
:105A4800000000000000000000000000000000004E
:105A5800000000000000000000000000000000003E
:105A6800000000000000000000000000000000002E
:105A780000000000000000004300000009410D0084
:105A8800BD440D0035450D00214B0D00194C0D008E
:105A98003D4D0D00BD4E0D008D4F0D0095500D0074
:105AA800AD500D0099530D00F1530D00B5540D0084
:085AB80039550D00BD550D002C
:105AC000B5590D0000000000205A0D00405A0D008D
:105AD000605A0D00000000000000000000000000FF
:105AE00000000000805A0D000000000000000000CF
:105AF00000000000000000000000000000000000A6
:105B00000000000000000000000000000000000095
:105B10000000000000000000000000000000000085
:085B20000000000014E3032063
:105B2800FFFFFFFF00000102030405060708090A3A
:105B38000B0C0D0E0F101112131415161718191A35
:085B48001B1C1D1E1F2028007C
:045B5000785634123D
:04000003D0004018D1
:00000001FF
