:02000002D0002C
:1040000000400D00F4720D00000005000C000501D9
:0840100004014401000000005E
:10401800746E0D0009480A49884208B505D0094A56
:10402800824202D0121A02F0F3FE0748074A002122
:10403800121A02F0F8FE014808BD00BF80E3032011
:1040480098720D00B4E30320B8E30320F8E70320D7
:1040580070B501F081FE074C074BE41AA40800254F
:104068001E46A54204D056F8253098470135F8E792
:1040780070BD00BF84720D004C720D0000F03CB89A
:1040880008B500F08DF8BDE8084001F033BE00F037
:10409800C1BB00F0BFBB00F0C5BB00F0C3BB0078DC
:1040A800B0FA80F0400970470123037070470000A0
:1040B80038B50E49054601F0CEF8044630B10C4B30
:1040C8000121188801F08DFE012038BD09492846D4
:1040D80001F0C1F830B1064B2146188801F081FE85
:1040E800204638BD4FF0FF3038BD00BF886E0D0048
:1040F800A8E303208B6E0D0010B51B4B1B4C1888D2
:10410800012101F05DFE1A4B0121188801F058FECB
:10411800184B0021188801F053FE2088012101F076
:104128004FFE154B0121188801F04AFE2088012115
:1041380001F057FE002309221049114800F002FB44
:10414800002309220F49104800F0FCFA09220F4900
:104158000F48002300F0F6FA0E4A0F490F48BDE851
:10416800104000F091BB00BFACE3032084E30320C0
:10417800A8E3032098E3032080E30320D0E303208F
:10418800986E0D00C0E30320A46E0D00C8E3032061
:10419800AF6E0D00B86E0D00B9400D0065480D00FA
:1041A8002DE9F04F604B614F1888614E87B001F0E0
:1041B80031FE02F04FF9C7E90001052000F042FB8B
:1041C8005C4BD7E90045D3E90089204642464B4677
:1041D800294602F035FC08B3574B2046D3E90023A3
:1041E800294602F00FFCC8B142464B4620462946F4
:1041F80001F0E2FF44A3D3E9002302F0BBFA44A391
:10420800D3E9002302F08CF902460B4640A1D1E91C
:10421800000101F0D1FFC6E900010EE042464B461D
:104228002046294602F0F8FB18B13BA3D3E9002346
:1042380001E000220023C6E90023DFF81481DFF83B
:104248001491B8F80000012101F0BAFD96ED007B49
:10425800D9E9004553EC172B204629468DED007B04
:1042680002F0D0FBC246CB46A8B10022334B204611
:10427800294602F0C7FB70B1314B2046D3E9002331
:10428800294601F09BFFC9E9000102F0E3FB014662
:10429800B8F800001CE0DDE900232046294602F0BA
:1042A800CFFBB8B11EA3D3E900232046294602F06C
:1042B800C7FB78B1224B2046D3E90023294601F0F9
:1042C8007BFFCBE9000102F0C5FB0146BAF800000C
:1042D80001F0B7FD00221B4BD7E9000102F092FB69
:1042E80068B1062196ED000B02A800F06EFF029A55
:1042F8001549164800F0D0FC02A800F0E1FE07B00E
:10430800BDE8F08FAFF300800000000000C07240ED
:104318000000000000E06F400000000000C06F4097
:10432800CDCCCCCCCCCCF43F98E30320D0E3032015
:10433800C8E3032090E30320A0E3032000806F403C
:1043480088E3032000004940BC6E0D00ECE3032025
:1043580080E30320C0E3032000F040B808B5024B17
:104368001B689B68019308BD4802030008B5024B0F
:104378001B681B69019308BD4802030008B5024B7E
:104388001B685B69019308BD4802030008B5024B2E
:104398001B681B6B019308BD4802030008B5024B5C
:1043A8001B685B6C019308BD4802030008B5024B0B
:1043B8001B68DB6C019308BD4802030008B5024B7B
:1043C8001B685B6D019308BD4802030008B5024BEA
:1043D8001B685B69019308BD1802030008B5024B0E
:1043E8001B681B68019308BD2C02030008B5024B2B
:1043F8001B685B68019308BD2C02030008B5024BDB
:104408001B689B68019308BD2C02030008B5024B8A
:104418001B68DB68019308BD2C02030008B5024B3A
:104428001B681B69019308BD2C02030008B5024BE9
:104438001B689B6A019308BD2C02030008B5024B58
:104448001B681B6B019308BD2C02030008B5024BC7
:104458001B689B6F019308BD2C02030008B5024B33
:104468001B681B6A019308BD2802030008B5024BAC
:104478001B685B6A019308BD2802030008B5024B5C
:104488001B689B6A019308BD2802030008B5024B0C
:104498001B68DB6A019308BD2802030008B5024BBC
:1044A8001B681B6B019308BD2802030008B5024B6B
:1044B8001B685B6B019308BD2802030008B5024B1B
:1044C8001B681B6C019308BD2802030008B5024B4A
:1044D8001B681B69019308BD6C02030008B5024BF9
:1044E8001B685B69019308BD6C02030008B5024BA9
:1044F8001B689B69019308BD6C02030008B5024B59
:104508001B685B6D019308BD6C02030008B5024B84
:104518001B689B6D019308BD6C02030008B5024B34
:104528001B685B69019308BD6402030008B5024B70
:104538001B689B69019308BD6402030008B5024B20
:104548001B681B6A019308BD6402030008B5024B8F
:104558001B685B6A019308BD6402030008B5024B3F
:104568001B689B6A019308BD6402030008B5024BEF
:104578001B689B68019308BD6802030008B5024BDD
:104588001B68DB68019308BD6802030008B5024B8D
:104598001B685B68019308BD3802030008B5024B2D
:1045A8001B689B69019308BD3802030008B5024BDC
:1045B8001B68DB69019308BD3802030008B5024B8C
:1045C8001B68DB6A019308BD3802030008B5024B7B
:1045D8001B685B6B019308BD3802030008B5024BEA
:1045E8001B689B6B019308BD3802030008B5024B9A
:1045F8001B68DB69019308BD3002030008B5024B54
:104608001B681B6A019308BD3002030008B5024B02
:104618001B681B68019308BD3C02030008B5024BE8
:104628001B68DB68019308BD3C02030008B5024B18
:104638001B681B69019308BD3C02030008B5024BC7
:104648001B685B69019308BD3C02030008B5024B77
:104658001B689B69019308BD3C02030008B5024B27
:104668001B68DB69019308BD3C02030008B5024BD7
:104678001B681B6A019308BD3C02030008B5024B86
:104688001B689B6A019308BD3C02030008B5024BF6
:104698001B681B68019308BD4C02030008B5024B58
:1046A8001B681B69019308BD4C02030008B5024B47
:1046B8001B685B69019308BD4C02030008B5024BF7
:1046C8001B689B69019308BD4C02030008B5024BA7
:1046D8001B68DB69019308BD4C02030008B5024B57
:1046E8001B681B6A019308BD4C02030008B5024B06
:1046F8001B681B6D019308BD6002030008B5024BDF
:104708001B685B68019308BD2002030008B5024BD3
:104718001B685B69019308BD2002030008B5034BC1
:104728001B68D3F88830019308BD000020020300FD
:1047380008B5034B1B68D3F89430019308BD0000FB
:104748002002030008B5024B1B681B68019308BDD3
:104758004402030008B5024B1B685B68019308BD5F
:104768004402030008B5024B1B68DB6B019308BDCC
:104778004402030008B5024B1B685B68019308BD3F
:104788004002030008B5024B1B689B68019308BDF3
:104798004002030008B5024B1B68DB68019308BDA3
:1047A8004002030008B5024B1B681B69019308BD52
:1047B8004002030008B5024B1B685B69019308BD02
:1047C8004002030008B5024B1B689B69019308BDB2
:1047D8004002030008B5024B1B68DB69019308BD62
:1047E8004002030008B5024B1B681B6A019308BD11
:1047F8004002030008B5024B1B681B6B019308BD00
:104808004002030008B5024B1B685B6B019308BDAF
:104818004002030008B5024B1B681B68019308BDE2
:104828001C02030008B5024B1B685B68019308BDB6
:104838001C02030008B5024B1B689B68019308BD66
:104848001C0203000021FFF761BF10B5836804460E
:1048580013B1032201469847204610BD10B588B011
:104868000446684600F073FC694604A800F091FC11
:1048780004A8A047044604A800F022FC684600F0FB
:104888001FFC204608B010BDF0B5102485B00746BF
:104898000E46154600212246684602F0C4FA002258
:1048A80069461046ADF80040029703960195FFF758
:1048B80051FF05B0F0BD002211464068FFF792BFD6
:1048C800002211464068FFF79DBF00224068FFF7AD
:1048D80091BF002281F001014068FFF77BBF0023F0
:1048E8001A4619464068FFF76DBF00231A46194655
:1048F8004068FFF75FBF002211464068FFF752BFCC
:10490800002211464068FFF73DBF0022022140689F
:10491800FFF740BF00231A464068FFF72BBF00008F
:10492800024B03225A60024A1A607047D8E30320F8
:10493800D06E0D007047F8B5064615460C468F1820
:10494800BC4206D0336814F8011B9B683046984770
:10495800F6E72846F8BD0022007CFFF77FBD00215E
:10496800007CFFF783BD0021007CFFF787BD002195
:10497800007CFFF78BBD0021007CFFF78FBD10B5D1
:104988000446FFF788FB204610BD000010B504461A
:104998004FF47A730846A3600021044B20746160C9
:1049A8002360FFF78BFD204610BD00BF046F0D008C
:1049B8000021007CFFF77ABD704710B50446FFF769
:1049C8006AFB204610BDF0B5037D062B8DB00E4660
:1049D80000F104074FF0000402D000F1080518E0C8
:1049E8000CAD394605F8304D2F232A460A20FFF72B
:1049F80095FD284602F031FA33680246DB682946FD
:104A0800304698470FE024B12E21304600F088FA4E
:104A1800044415F8011D0A22304600F0B1FABD42DF
:104A28000444F0D120460DB0F0BD000010B5054B90
:104A38000446112240F8043B002102F0F4F9204614
:104A480010BD00BF2C6F0D000346074A10B543F890
:104A5800042B01F1100251F8044B43F8044B914226
:104A6800F9D10A781A7010BD2C6F0D00037D042B44
:104A780001D1406808E0062B0AD1436853B1836826
:104A880043B1C36833B10069003018BF01207047D3
:104A9800002070471846704710B59DF8084044EA52
:104AA800032343EA024242EA016104234160037599
:104AB80010BD37B50D788B784A78C97800912946AA
:104AC800FFF7EAFF03B030BD014B024A1A60704796
:104AD800E0E30320EB6F0D00002211464068FFF76A
:104AE80081BE002211464068FFF78CBE0022406854
:104AF800FFF780BE002281F001014068FFF76ABE1F
:104B080000231A4619464068FFF75CBE00231A4680
:104B180019464068FFF74EBE002211464068FFF76D
:104B280041BE002211464068FFF72CBE0022022138
:104B38004068FFF72FBE00231A464068FFF71ABEE9
:104B480010B103685B681847704738B504460068B9
:104B5800D0B1FFF703FCB8B9237C1BB9206808B1B2
:104B6800FFF704FC656855B1AB681BB10322294601
:104B7800284698472846FFF78EFA00236360206886
:104B8800FFF7FCFB0023236038BD000038B50B4B52
:104B980003600446D0F8CC0108B1FFF77EFAD4F8D8
:104BA800C4512DB12846FFF7D0FF2846FFF773FA06
:104BB800A06808B1FFF7C4FF204638BD1C700D007F
:104BC8000068FFF7F3BB000030B58DB00446112232
:104BD800002101A802F027F9062301AA09498DF846
:104BE80014300A20FFF7A2FC07AD01A906A8FFF7B9
:104BF8002BFF0FCD04340FC42B68237000200DB099
:104C080030BD00BF48700D0030B5044689B000F5CE
:104C1800E070FFF7D5FF236883BB4C20FFF737FA16
:104C2800054608B100F038FE2068256008B1FFF796
:104C380087FF206820B300224FF49A6100F05BFEE2
:104C480008A9002501F8195D1148FFF73FFC206805
:104C58009DF80720036849F269011B6A984702A872
:104C6800FFF7E4FE02A8FFF7AFFF002804DB02A964
:104C7800206800F0C6FE04E0054602E0002500E0DA
:104C8800044DD4F8C001FFF799FB284609B030BDA0
:104C980055700D00FCFEFFFF2DE9F04705468CB06E
:104CA80016460F4609B10B780BB9354C64E0084637
:104CB80002F0D3F88046002E5CD0304602F0CDF8E2
:104CC800441C08F102032344B3F59A6F4FD805F545
:104CD800E070FFF775FF2846FFF796FF002840DBD6
:104CE8006846FFF7A3FE6846FFF76EFF002838DB2B
:104CF800D5F800A0DAF800300DF1040CD3F838909C
:104D0800204B0693BCE80F000DF11C0EAEE80F0017
:104D1800DCF800308EF8003049F2690206A95046E6
:104D2800C84700281DDB002328688DF81830036861
:104D38000122DB6806A998472868036808F1010280
:104D4800DB68394698472CB1286803682246DB6837
:104D580031469847286803681B6C984700EAE07456
:104D680000E00446D5F8C001FFF728FB04E06FF027
:104D7800BD0401E03446A4E720460CB0BDE8F08746
:104D8800F2FEFFFF2C6F0D0038B50D4C0D4B236064
:104D98000025022304F5E4706360A560C4F8C451DB
:104DA800C4F8C851FFF7FAFA074BC4F8CC5123608E
:104DB8002046064A0649BDE8384001F0ABB800BFB6
:104DC800E4E3032080700D001C700D00B8E303209D
:104DD800954B0D0000231A464068FFF7CBBC002214
:104DE80002214068FFF7D6BC002211464068FFF751
:104DF800C9BC002211464068FFF7D4BC00231A46FC
:104E080019464068FFF7D6BC00231A461946406881
:104E1800FFF7D8BC002281F001014068FFF7DABC37
:104E280000224068FFF7E6BC002211464068FFF701
:104E3800E9BC002211464068FFF7D4BC70B58CB0BD
:104E480014460646FFF7F2FD0CAB0022114643F864
:104E5800302D2046FFF792FB014658BB009B4BB311
:104E68005A68022A0ED00A2A24D15C69112201A8A4
:104E780001F0D9FF06238DF8143001AD04F10803C1
:104E8800183405E0596930460431FFF712FE11E085
:104E9800186859682A4603C20833A3421546F7D151
:104EA80001A906A807ADFFF7CFFD0FCD341D0FC42C
:104EB8002B6823700098FFF759FB30460CB070BD83
:104EC800024B034A1A6000225A607047B4E5032077
:104ED80080700D00F8B506460D468F180024BD42B7
:104EE8000CD0336815F8011B9B683046984700289A
:104EF80001DB0444F3E7002C08BF04462046F8BD54
:104F080070B505460C46084649B101F0A6FF2B6866
:104F1800024621462846DB68BDE87040184770BD48
:104F280003689B68184730B58BB00B4600218DF895
:104F38002410012A98BF0A220DF12304B3FBF2F5CD
:104F480005FB123303F0FF03092B94BF30333733CB
:104F5800DBB2214604F801392B46002DEED1FFF7CC
:104F6800CFFF0BB030BD10B42AB903685DF8044B0D
:104F78009B68C9B21847D2B25DF8044BFFF7D3BF9C
:104F8800FFF7F1BF10B50446FFF75FFC204610BDE0
:104F98000348044A04490023836000F0BBBF00BFF4
:104FA800BCE50320B8E303208D4F0D00704710B512
:104FB8000446FFF770F8204610BD000070B5084B96
:104FC8000360044600250E4640F80C5FFFF7DEF943
:104FD80030462671FFF70AFBA560204670BD00BF6A
:104FE800B4700D000079FFF709BB704710B504468F
:104FF800FFF751F8204610BD2DE9F14F59EC108B01
:1050080007460E460022002310EE100A494601F01A
:10501800F9FC28B109F1004399462D233370013674
:10502800002301240A22D9B28F4202D95443013302
:10503800F9E7204601F00EFA42464B4601F070FAB5
:1050480082468B4601F03EFD8046894601F032FAE1
:1050580002460B465046594601F0AEF80022174B5F
:1050680001F0E4FC18B118F1010849F10009E5174D
:1050780022462B464046494601F00CFD01230A22F0
:10508800314600F0F0FDAFB1304601F0E6FE2E23C8
:1050980033540130064422462B464046494601F027
:1050A800F9FC3B46104631460A2201B0BDE8F04FF4
:1050B80000F0D9BD01B0BDE8F08F00BF0000E03FAF
:1050C80010B504460068FFF7ADFB204610BD10B5CB
:1050D8000446006808B1FFF7A5FB00232360A3601E
:1050E800636010BD38B504460D4600680131FFF70E
:1050F800A1FB10B184E82100012038BD10B5036878
:10510800044613B143688B4207D22046FFF7EAFFF3
:1051180020B1A3680BB922681370012010BD70B5C7
:105128000E46114604461546FFF7E8FF18B9204613
:10513800FFF7CDFF09E02A463146A560206801F057
:1051480067FE2268A3680021D154204670BD38B597
:105158000023044603604360836003730D4639B13E
:10516800084601F07AFE294602462046FFF7D7FF97
:10517800204638BD884210B50B46044607D009685A
:1051880019B19A68FFF7CBFF01E0FFF7A0FF2046AF
:1051980010BD10B5002304460360436083600373A9
:1051A800FFF7E8FF204610BD38B505460C4641B16B
:1051B800084601F052FE214602462846FFF7AFFF97
:1051C80001E0FFF784FF284638BD10B500238AB0F8
:1051D80004460360436083600373C8B201A9FFF704
:1051E8000BFF01A92046FFF7DFFF20460AB010BDDC
:1051F80070B504460E4609B9002070BD6AB18368CF
:10520800D5182946FFF77AFF0028F5D02068A3684B
:105218003146184401F019FEA560012070BD38B56B
:10522800044680688568FFF7E3FFA3689868401B19
:1052380038BD07B500238DF80410012201A98DF8A7
:105248000530FFF7D5FF03B05DF804FB08B58068AB
:10525800FFF7EFFF08BD08B582680B4612B919B908
:10526800012008BD11B90368187802E0006801F050
:10527800E2FDB0FA80F0400908BD000030B585B005
:1052880000230D4602930360436083600373142177
:10529800064B019304460390FFF730FF2B6801A9E2
:1052A8001B6828469847204605B030BDC4700D00DD
:1052B800054B4FF69C7200205A804FF6FF7218700B
:1052C8009A80FFF71BBA00BFCCE50320024B1A688F
:1052D800024B1A60704700BFB0E30320D4E50320F7
:1052E80010B40468246BA4465DF8044B6047036857
:1052F8009B6C1847808E7047028FC08E101A7047BB
:1053080013B502AB026803F8011DD46819460122DF
:10531800A04702B010BD10B503681B690446984742
:1053280028B1E38EE26B591CE186D05C10BD4FF0CA
:10533800FF3010BD10B503681B690446984718B1C3
:10534800E38EE26BD05C10BD4FF0FF3010BD7047AC
:1053580010B403460846DC6BD98E1A8F0368521ABC
:10536800DB6821445DF8044B1847A0F11000FFF7F3
:10537800EFBFF0B503688DB01C265B6A04460F4684
:105388001546984701233246002105A8029301F0EB
:105398004AFD8DF8146038460A268DF81560FFF727
:1053A800DDF81122ADF8160002213046FFF716F994
:1053B8000028606124DB0422009202AB40F6FF71F2
:1053C800FFF7ECF8E0B995B10390ADF8100003A928
:1053D800E8B2FFF783F898B90623009341F20B026D
:1053E80003AB40F6FF716069FFF7D8F840B91C229B
:1053F80005A96069FFF7CAF810B96564012004E0DF
:10540800236820465B6A984700200DB0F0BD10B5B0
:1054180004464069002801DBFFF7C8F84FF0FF3366
:1054280063610023E386238710BD38B5C36B054647
:10543800C08E13B12C6C241A00E01C46944228BF7D
:1054480014462246184401F0E3FCEB8E2344EB8615
:10545800204638BD70B503681B6904460E461546DC
:10546800984788B1236820461B699847E38EE16B0B
:105478008542A8BF054619442A46304601F0C8FCB3
:10548800E38E2B44E38601E04FF0FF35284670BDDC
:1054980070B50446054B44F8043B01F12005064667
:1054A8000FCD0FC42B682370304670BD2C6F0D00D4
:1054B800F0B59446026889B0976A0A4A02921D1D9F
:1054C8008E4606460FCD03AC0FC42B682370BDF87B
:1054D80038300093624602AB71463046B84709B08F
:1054E800F0BD00BF2C6F0D00F0B50368B0F836E0D2
:1054F8009F6A0D4B89B000F12006044602930FCE37
:1055080003AD0FC533682B70A38E0093724602ABB0
:10551800E16B2046B84723680546DB692046984773
:10552800284609B0F0BD00BF2C6F0D00F0B54378D8
:10553800022B8DB005460C46174601D1011D33E0FC
:105548000A2B35D11122002101A801F06CFCAB68AF
:1055580043B9EB6833B94FF6FF702E69FEF7EEFFDB
:1055680086421FD005F1080301AE05F1180E186830
:105578005968324603C2083373451646F7D10623E5
:1055880001A906A807AE8DF81430FFF75DFA0FCE13
:1055980004340FC43368237057B16888FEF7D6FF08
:1055A800388005E005F114012046FFF782FAF3E799
:1055B8000DB0F0BD2DE9F0418EB00EAB00250646CA
:1055C8001746084643F8345D2A462946FEF7D6FFB3
:1055D80000281FDB019BFBB15B69EBB102A8FFF759
:1055E80025FA019B2A46586902A9FFF79FFF02A8DE
:1055F800FFF73CFA80B1336803ADD3F838800B4B22
:1056080008930FCD09AC0FC42B6823703A4608A93C
:105618003046C047044601E04FF0FF340198FEF7DA
:10562800A5FF20460EB0BDE8F08100BF2C6F0D002D
:105638002DE9F047D0F81480B8F1000F98B005466E
:105648000C461746994600DB11B94FF0FF304EE083
:105658004FF01C0A09AE52460021304601F0E3FB28
:10566800CDF810A0B9F1000F14D04FF47A72B9FB3D
:10567800F2F1109102FB11914A4308231192009311
:1056880041F2060210AB40F6FF714046FEF786FF76
:1056980008B12CE0082004AB01932146034600968C
:1056A8003A466869FEF78AFF041E1FDB05F11C07EE
:1056B80005F1340230463946FFF738FF002620232B
:1056C800394605A810931196FFF7D8FDAB8E0393C2
:1056D800059B0293074B009301200194334610AABF
:1056E8000549FFF703F805A8FFF7EAFC204618B0BC
:1056F800BDE8F087FD700D0061700D0038B50546F6
:1057080014462B7D062B084611D11C2313700A233F
:105718005370FEF723FF083424F8060C2B1D1435AC
:1057280053F8042B44F8042BAB42F9D138BD042BB1
:1057380008D11023137002235370FEF70FFF608007
:105748006B68636038BD00002DE9F04F984691B052
:105758002023002482468B4604A841461646BDF8FD
:10576800689008930994FFF789FD049B029308AD9C
:10577800154B164900932A4623460120CDF80C9074
:105788000196FEF7B3FF1C2704A8FFF799FC3A46D9
:105798002146284601F047FB2A4649464046FFF77E
:1057A800ADFF9DF821304BB18DE8A000234632466D
:1057B8005946DAF81400FEF709FF01E04FF0FF3010
:1057C80011B0BDE8F08F00BF1A710D0061700D00B7
:1057D800F0B591B00C4606460021154609A81C22D2
:1057E8001F4601F020FB09AA00212046FFF786FF8B
:1057F8009DF82530022B2ED1002305930A9B049394
:10580800DDB102A92846FEF771FEB0B910A941F82A
:10581800340D0298FEF772FE60B9039B53B1DA6843
:1058280012685178022903D152680AB1059201E041
:105838001B68F3E70398FEF769FE002F4FF0080393
:10584800009318BF032204AB08BF0422002130468E
:10585800FEF7A4FE1EE00A2B1AD104AC1422002184
:10586800204601F0E0FA0BAB0FCB002F84E80F00C5
:105878004FF01403009318BF0C22234608BF0D22D3
:10588800292130460895FEF789FE00EAE07001E01C
:105898004FF0FF3011B0F0BD38B54FF47A73836024
:1058A8000B4B03F108026C33002503614FF0FF3303
:1058B80004464560026043611C30FFF7B7F84FF4B7
:1058C8000073E5862587E56323646564204638BD53
:1058D80048710D0010B590F8483004461BB1C06BF4
:1058E80008B1FEF7D8FB0023E36384F8483023644B
:1058F800E386238710BD70B5044616460D46FFF7AC
:10590800E9FF0023E66323643EB935B12846FEF774
:10591800C0FB0123E06384F84830E36B03B12564DE
:10592800206C003018BF012070BD70B5C26B0446F2
:105938001AB9016C09B1FFF7DEFFE16B0023E386BA
:10594800238741B1226C32B12068056B2046A847F5
:105958000028C8BF2087236820461B69BDE870401F
:1059680018470000F0B591B020230546002604A88A
:1059780017460C4608930996FFF780FC049B019391
:10598800104B009308AA33460F4902970120FEF7EF
:10599800ADFE04A8FFF794FBEA6B22B9296C11B19C
:1059A8002846FFF7A8FF04340FCC05F120060FC6E0
:1059B80023683370286CAF860023EB862B8711B0E1
:1059C800F0BD00BF34710D0061700D0010B5074BBC
:1059D80003F108026C33044602600361FFF717FD08
:1059E8002046FFF777FF204610BD00BF48710D0025
:1059F80010B50446FFF7EAFF2046FEF74CFB2046A9
:105A080010BD02464069002804DB012392F84420B7
:105A1800FFF7DEBE4FF0FF307047704741747047A4
:105A2800007CFEF72BBE007CFEF700BE007CFEF774
:105A38000DBE007CFEF702BE007CFEF70FBE10B55F
:105A48000446FEF728FB204610BD70B5457C044689
:105A58000E4625B9007CFEF711FE002805DD31460B
:105A6800207CBDE87040FEF7D9BD284670BD000017
:105A780010B5044608461146002262604FF47A7257
:105A8800A260054A22600122207462741A46FEF759
:105A9800BDFD204610BD00BFC0710D00007CFEF7A3
:105AA800E5BD000038B50C4D296811F0010411D18D
:105AB8002846FEF7F4FA68B1084A094B0948214616
:105AC800FFF7D6FF2846FEF7EFFA074A07490548C9
:105AD80000F020FA034838BD70E6032074E603207E
:105AE800ECE50320D8E50320B8E30320235A0D0092
:105AF8004174704770470021007CFEF7DFBD01212B
:105B0800007CFEF7DBBD007CFEF7D0BD007CFEF715
:105B1800C5BD38B50446007C0D46FEF7C7FD002814
:105B280001DC607C20B12946207CFEF7CFFD0120F6
:105B380038BD007CFEF7D2BD10B50446FEF7ABFABF
:105B4800204610BD10B50446002363604FF47A73F5
:105B5800A360054B23600123084621746374114632
:105B6800FEF794FD204610BDF0710D0010B514220B
:105B78000446002101F057F9204610BD30B50E4DFE
:105B880087B001A8FFF7F2FF296811F0010410D1CE
:105B98002846FEF784FA60B101AA21460748FFF7B4
:105BA800D1FF2846FEF780FA054A0649034800F067
:105BB800B1F9024807B030BDF8E60320FCE603203F
:105BC800B8E30320FD5A0D00002211464068FEF795
:105BD800E9BD002211464068FEF704BE00221146C6
:105BE8004068FEF70FBE00224068FEF703BE0022A1
:105BF80081F001014068FEF7EDBD00231A46194601
:105C08004068FEF7DFBD00231A4619464068FEF7D4
:105C1800D1BD002211464068FEF7B4BD0022022122
:105C28004068FEF7B7BD00231A464068FEF7A2BDDC
:105C3800024B04225A60024A1A60704710E7032098
:105C480020720D0010B5044601F007F90138231839
:105C58002046984206D20278197800F8011B03F80A
:105C68000129F6E710BD70B50C46911E222920D8EF
:105C78002546294610B9234430220EE0B0FBF2F63F
:105C880002FB1600C1B205F8011B092894BF303188
:105C9800573105F8011C3046EBE7994202D201F86A
:105CA800012BFAE7002320460B70FFF7CBFF2046B5
:105CB80070BD002070BD000008B50C4B33B1FFF774
:105CC8005DFF03681B699847002809DC084B63B12E
:105CD800FFF7E8FE03681B699847002803DC08BD46
:105CE800AFF30080F2E7AFF3008008BD00000000CA
:105CF8000000000008B5FFF7DFFFFEF767FB014B68
:105D0800186008BD1CE7032007B5002300931A4656
:105D18006FF07701FEF70CFD03B05DF804FB00009F
:105D280007B543880A2B08D0502B09D1094B1B68AB
:105D38003BB103B05DF804EB1847FFF7E5FF06E059
:105D4800002300931A466FF07701FEF7F1FC03B0C9
:105D58005DF804FB18E7032008B500210448FEF7A6
:105D680001FD00210348BDE80840FEF7D7BC00BF8D
:105D780000000000295D0D0010B504460F48FFF72C
:105D880031F928B1A4F10B03022B01D8002010BD72
:105D980000F07EF8FEF70CFE08B1012CF6D9FFF7EB
:105DA80081FEFFF77BFE18B1A4F10903012BEDD9A1
:105DB800232C8CBF0020012010BD00BF38E7032032
:105DC800232838B504460D460AD8FF2908D0FFF71E
:105DD800D3FF28B129462046BDE83840FEF70EBB60
:105DE80038BD38B504460D46FEF710FBFF2810D025
:105DF800062804D84D2323FA00F0C30709D4204607
:105E0800FFF7BAFF28B129462046BDE83840FEF71B
:105E180005BB38BD0D2810B504469CBF0E34A4B28E
:105E28002046FFF7A9FF50B103212046FEF7DEFA0E
:105E3800032804D12046BDE81040FEF7FFBA002031
:105E480010BD38B504460D46FFF796FFF0B10421A2
:105E58002046FEF7CBFA042805D1A9B22046BDE8B2
:105E68003840FEF7E3BA02212046FEF7BFFA0228BF
:105E78000CD12046FEF7CAFA012801D0042805D122
:105E880029462046BDE83840FEF7E0BA38BD000094
:105E980038B50B4D296811F001040FD12846FEF7DB
:105EA800FEF858B121460748FEF770FD2846FEF770
:105EB800FBF8054A0549034800F02CF8014838BDAD
:105EC80020E7032024E70320B8E303203D490D0021
:105ED80070B50C4C0C4E0D4D00212046FFF76EF8A6
:105EE80020460B4C3246294600F014F80121204682
:105EF800FFF764F8324629462046BDE8704000F0B6
:105F080009B800BF38E70320B8E30320B54F0D00F8
:105F180048E703200B460146184600F06BBF000017
:105F2800244B1A68D0075CBF01221A60224B1A68FA
:105F3800D1075CBF01221A60204B1A68D2075CBFE8
:105F480001221A601E4B1A68D0075CBF01221A6032
:105F58001C4B1A68D1075CBF01221A601A4B1A68D9
:105F6800D2075CBF01221A60184B1A68D0075CBFC1
:105F780001221A60164B1A68D1075CBF01221A6009
:105F8800144B1A68D2075CBF01221A60124B1A68B8
:105F9800D0075CBF01221A60104B1A68D1075CBF9A
:105FA80001221A600E4B1A68D2075CBF01221A60E0
:105FB800704700BF84E7032080E703207CE70320C5
:105FC80078E7032074E7032070E703206CE70320D9
:105FD80068E7032064E7032060E703205CE7032009
:105FE80058E70320184B1A68D1075CBF01221A60D2
:105FF800164B1A68D2075CBF01221A60144B1A6844
:10600800D0075CBF01221A60124B1A68D1075CBF27
:1060180001221A60104B1A68D2075CBF01221A606D
:106028000E4B1A68D0075CBF01221A600C4B1A6825
:10603800D1075CBF01221A600A4B1A68D2075CBFFD
:1060480001221A60704700BFA4E70320A0E70320DD
:106058009CE7032098E7032094E7032090E70320B8
:106068008CE7032088E70320184B1A68D1075CBF28
:1060780001221A60164B1A68D2075CBF01221A6007
:10608800144B1A68D0075CBF01221A60124B1A68B9
:10609800D1075CBF01221A60104B1A68D2075CBF97
:1060A80001221A600E4B1A68D0075CBF01221A60E1
:1060B8000C4B1A68D1075CBF01221A600A4B1A6898
:1060C800D2075CBF01221A60704700BFC4E70320F3
:1060D800C0E70320BCE70320B8E70320B4E70320A8
:1060E800B0E70320ACE70320A8E70320244B1A6895
:1060F800D0075CBF01221A60224B1A68D1075CBF27
:1061080001221A60204B1A68D2075CBF01221A606C
:106118001E4B1A68D0075CBF01221A601C4B1A6814
:10612800D1075CBF01221A601A4B1A68D2075CBFFC
:1061380001221A60184B1A68D0075CBF01221A6046
:10614800164B1A68D1075CBF01221A60144B1A68F3
:10615800D2075CBF01221A60124B1A68D0075CBFD5
:1061680001221A60104B1A68D1075CBF01221A601D
:106178000E4B1A68D2075CBF01221A60704700BF35
:10618800F4E70320F0E70320ECE70320E8E7032027
:10619800E4E70320E0E70320DCE70320D8E7032057
:1061A800D4E70320D0E70320CCE70320C8E7032087
:1061B80081F0004102E000BF83F0004330B54FEAB0
:1061C80041044FEA430594EA050F08BF90EA020F1D
:1061D8001FBF54EA000C55EA020C7FEA645C7FEAB0
:1061E800655C00F0E2804FEA5454D4EB5555B8BFD3
:1061F8006D420CDD2C4480EA020281EA030382EA44
:10620800000083EA010180EA020281EA0303362DD5
:1062180088BF30BD11F0004F4FEA01314FF4801CA8
:106228004CEA113102D0404261EB410113F0004FBA
:106238004FEA03334CEA133302D0524263EB430371
:1062480094EA050F00F0A780A4F10104D5F1200E0F
:106258000DDB02FA0EFC22FA05F2801841F100016A
:1062680003FA0EF2801843FA05F359410EE0A5F13E
:1062780020050EF1200E012A03FA0EFC28BF4CF06F
:10628800020C43FA05F3C01851EBE37101F0004525
:1062980007D54FF0000EDCF1000C7EEB00006EEB32
:1062A8000101B1F5801F1BD3B1F5001F0CD34908BC
:1062B8005FEA30004FEA3C0C04F101044FEA445213
:1062C80012F5800F80F09A80BCF1004F08BF5FEA9A
:1062D800500C50F1000041EB045141EA050130BD7A
:1062E8005FEA4C0C404141EB010111F4801FA4F11D
:1062F8000104E9D191F0000F04BF01460020B1FA72
:1063080081F308BF2033A3F10B03B3F120020CDAA9
:106318000C3208DD02F1140CC2F10C0201FA0CF087
:1063280021FA02F10CE002F11402D8BFC2F1200CEC
:1063380001FA02F120FA0CFCDCBF41EA0C019040A2
:10634800E41AA2BF01EB0451294330BD6FEA0404EB
:106358001F3C1CDA0C340EDC04F11404C4F12002D6
:1063680020FA04F001FA02F340EA030021FA04F3E8
:1063780045EA030130BDC4F10C04C4F1200220FA3F
:1063880002F001FA04F340EA0300294630BD21FA7D
:1063980004F0294630BD94F0000F83F4801306BF43
:1063A80081F480110134013D4EE77FEA645C18BF37
:1063B8007FEA655C29D094EA050F08BF90EA020FCE
:1063C80005D054EA000C04BF1946104630BD91EAC6
:1063D800030F1EBF0021002030BD5FEA545C05D1C9
:1063E8004000494128BF41F0004130BD14F5800408
:1063F8003CBF01F5801130BD01F0004545F0FE417C
:1064080041F470014FF0000030BD7FEA645C1ABFB0
:10641800194610467FEA655C1CBF0B46024650EAE7
:10642800013406BF52EA033591EA030F41F4002113
:1064380030BD00BF90F0000F04BF0021704730B599
:106448004FF4806404F132044FF000054FF000016E
:1064580050E700BF90F0000F04BF0021704730B52F
:106468004FF4806404F1320410F0004548BF404204
:106478004FF000013EE700BF42004FEAE2014FEA59
:1064880031014FEA02701FBF12F07F4393F07F4F34
:1064980081F06051704792F0000F14BF93F07F4F66
:1064A800704730B54FF4607401F0004521F00041A9
:1064B80020E700BF50EA010208BF704730B54FF02F
:1064C80000050AE050EA010208BF704730B511F034
:1064D800004502D5404261EB41014FF4806404F16C
:1064E80032045FEA915C3FF4DCAE4FF003025FEAEE
:1064F800DC0C18BF03325FEADC0C18BF033202EB76
:10650800DC02C2F1200300FA03FC20FA02F001FACF
:1065180003FE40EA0E0021FA02F11444C1E600BF6E
:1065280070B54FF0FF0C4CF4E06C1CEA11541DBF21
:106538001CEA135594EA0C0F95EA0C0F00F0DEF8EC
:106548002C4481EA030621EA4C5123EA4C5350EAD1
:10655800013518BF52EA033541F4801143F4801322
:1065680038D0A0FB02CE4FF00005E1FB02E506F0B3
:106578000042E0FB03E54FF00006E1FB03569CF008
:10658800000F18BF4EF0010EA4F1FF04B6F5007F0E
:1065980064F5407404D25FEA4E0E6D4146EB060680
:1065A80042EAC62141EA55514FEAC52040EA5E5009
:1065B8004FEACE2EB4F1FD0C88BFBCF5E06F1ED8B3
:1065C800BEF1004F08BF5FEA500E50F1000041EBEA
:1065D800045170BD06F0004646EA010140EA020097
:1065E80081EA0301B4EB5C04C2BFD4EB0C0541EAB9
:1065F800045170BD41F480114FF0000E013C00F3CE
:10660800AB8014F1360FDEBF002001F0004170BDF1
:10661800C4F10004203C35DA0C341BDC04F114040A
:10662800C4F1200500FA05F320FA04F001FA05F296
:1066380040EA020001F0004221F0004110EBD37063
:1066480021FA04F642EB06015EEA430E08BF20EA8F
:10665800D37070BDC4F10C04C4F1200500FA04F332
:1066680020FA05F001FA04F240EA020001F00041C4
:1066780010EBD37041F100015EEA430E08BF20EA37
:10668800D37070BDC4F1200500FA05F24EEA020E7F
:1066980020FA04F301FA05F243EA020321FA04F0AE
:1066A80001F0004121FA04F220EA020000EBD37065
:1066B8005EEA430E08BF20EAD37070BD94F0000F65
:1066C8000FD101F00046400041EB010111F4801F99
:1066D80008BF013CF7D041EA060195F0000F18BF4A
:1066E800704703F00046520043EB030313F4801F86
:1066F80008BF013DF7D043EA0603704794EA0C0F40
:106708000CEA135518BF95EA0C0F0CD050EA410655
:1067180018BF52EA4306D1D181EA030101F00041D2
:106728004FF0000070BD50EA410606BF10461946FA
:1067380052EA430619D094EA0C0F02D150EA013606
:1067480013D195EA0C0F05D152EA03361CBF104647
:1067580019460AD181EA030101F0004141F0FE41E6
:1067680041F470014FF0000070BD41F0FE4141F46A
:10677800780170BD70B54FF0FF0C4CF4E06C1CEA6A
:1067880011541DBF1CEA135594EA0C0F95EA0C0F1F
:1067980000F0A7F8A4EB050481EA030E52EA0335DA
:1067A8004FEA013100F088804FEA03334FF08055FB
:1067B80045EA131343EA12634FEA022245EA111528
:1067C80045EA10654FEA00260EF000419D4208BFD9
:1067D800964244F1FD0404F5407402D25B084FEA86
:1067E8003202B61A65EB03055B084FEA32024FF432
:1067F80080104FF4002CB6EB020E75EB030E22BF8F
:10680800B61A754640EA0C005B084FEA3202B6EB4E
:10681800020E75EB030E22BFB61A754640EA5C00FD
:106828005B084FEA3202B6EB020E75EB030E22BF8D
:10683800B61A754640EA9C005B084FEA3202B6EB8E
:10684800020E75EB030E22BFB61A754640EADC004D
:1068580055EA060E18D04FEA051545EA16754FEAAF
:1068680006164FEAC30343EA52734FEAC2025FEACD
:106878001C1CC0D111F4801F0BD141EA00014FF05C
:1068880000004FF0004CB6E711F4801F04BF01432D
:106898000020B4F1FD0C88BFBCF5E06F3FF6AFAE49
:1068A800B5EB030C04BFB6EB020C5FEA500C50F1D9
:1068B800000041EB045170BD0EF0004E4EEA11315C
:1068C80014EB5C04C2BFD4EB0C0541EA045170BD63
:1068D80041F480114FF0000E013C90E645EA060EA7
:1068E8008DE60CEA135594EA0C0F08BF95EA0C0FD5
:1068F8003FF43BAF94EA0C0F0AD150EA01347FF41D
:1069080034AF95EA0C0F7FF425AF104619462CE7F3
:1069180095EA0C0F06D152EA03353FF4FDAE104656
:10692800194622E750EA410618BF52EA43067FF4A7
:10693800C5AE50EA41047FF40DAF52EA43057FF437
:10694800EBAE12E74FF0FF3C06E000BF4FF0010C42
:1069580002E000BF4FF0010C4DF804CD4FEA410CA6
:106968007FEA6C5C4FEA430C18BF7FEA6C5C1BD073
:1069780001B050EA410C0CBF52EA430C91EA030FF4
:1069880002BF90EA020F0020704710F1000F91EA51
:10699800030F58BF994208BF90422CBFD8176FEA1F
:1069A800E37040F0010070474FEA410C7FEA6C5CED
:1069B80002D150EA013C07D14FEA430C7FEA6C5CF4
:1069C800D6D152EA033CD3D05DF8040B704700BF20
:1069D8008446104662468C461946634600E000BF6E
:1069E80001B5FFF7B7FF002848BF10F1000F01BD40
:1069F8004DF808EDFFF7F4FF0CBF012000205DF80B
:106A080008FB00BF4DF808EDFFF7EAFF34BF01208F
:106A180000205DF808FB00BF4DF808EDFFF7E0FF28
:106A280094BF012000205DF808FB00BF4DF808ED79
:106A3800FFF7CEFF94BF012000205DF808FB00BFE0
:106A48004DF808EDFFF7C4FF34BF012000205DF8C2
:106A580008FB00BF4A0011D212F5001211D20DD561
:106A68006FF47873B3EB62520ED44FEAC12343F04C
:106A7800004343EA505323FA02F070474FF00000F6
:106A8800704750EA013002D14FF0FF3070474FF0A5
:106A98000000704753B94AB9002908BF00281CBF35
:106AA8004FF0FF314FF0FF3000F0A2B9ADF1080C04
:106AB8006DE904CE00F02AF8DDF804E0DDE90223F0
:106AC80004B07047D0B500220E4B06460F46FFF7BC
:106AD80027FDFFF7BFFF0446FFF7ACFC00220A4B77
:106AE800FFF71EFD02460B4630463946FFF764FBAA
:106AF800FFF7B0FF2346002242EA0002104619467B
:106B0800D0BD00BF0000F03D0000F0412DE9F04786
:106B18008C460E460446089D002B50D18A421746E3
:106B28006CD9B2FA82FEBEF1000F0BD0CEF1200470
:106B380020FA04F401FA0EF644EA060C02FA0EF7FB
:106B480000FA0EF44FEA1749220CBCFBF9F01FFAC1
:106B580087F809FB10C642EA064600FB08F3B34271
:106B680009D9F61900F1FF3280F02281B34240F2D0
:106B78001F8102383E44F61AA2B2B6FBF9F309FBAC
:106B8800136642EA064403FB08F8A04509D9E4194C
:106B980003F1FF3280F00A81A04540F20781023BF1
:106BA8003C44C8EB040443EA00400021002D62D0B5
:106BB80024FA0EF400232C606B60BDE8F0878B424A
:106BC80007D9002D55D0002185E841000846BDE8C9
:106BD800F087B3FA83F1002940F09080B34202D3E2
:106BE800824200F2F880841A66EB03060120B4465C
:106BF800002D40D085E81010BDE8F08712B90127B4
:106C0800B7FBF2F7B7FA87FEBEF1000F35D1F31BD9
:106C18004FEA17481FFA87FC0121B3FBF8F0220C52
:106C280008FB103642EA06460CFB00F3B34207D9CC
:106C3800F61900F1FF3202D2B34200F2CE801046BC
:106C4800F61AA2B2B6FBF8F308FB136642EA06444A
:106C58000CFB03FCA44507D9E41903F1FF3202D267
:106C6800A44500F2B5801346CCEB040443EA004087
:106C78009CE729462846BDE8F087CEF1200106FAB0
:106C88000EF307FA0EF720FA01F94FEA1748CE403B
:106C980049EA0309B6FBF8FA4FEA194408FB1A66F1
:106CA8001FFA87FC44EA06430AFB0CF29A4200FAF0
:106CB8000EF40AD9DB190AF1FF3180F087809A4275
:106CC80040F28480AAF1020A3B449B1A1FFA89F910
:106CD800B3FBF8F108FB113349EA034301FB0CF657
:106CE8009E4207D9DB1901F1FF326BD29E4269D966
:106CF80002393B449B1B41EA0A418EE7C1F1200E51
:106D080022FA0EF48B40234320FA0EF706FA01F418
:106D18004FEA134C26FA0EF63C43B6FBFCF9270C57
:106D28000CFB19661FFA83F847EA064609FB08F7C1
:106D3800B74202FA01F200FA01FA08D9F61809F185
:106D4800FF3041D2B7423FD9A9F102091E44F61BD0
:106D5800A0B2B6FBFCF40CFB146640EA064704FB41
:106D680008F8B84507D9FF1804F1FF3028D2B8450C
:106D780026D9023C1F4444EA0940C8EB0707A0FB98
:106D880002894F4544464E4614D329D065B3BAEB21
:106D9800040367EB060707FA0EFECB40CF404EEA26
:106DA800030385E888000021BDE8F0871346F8E66C
:106DB8001046E0E6B8EB020469EB03060138E5E7A4
:106DC8000446D8E7114695E78146C0E78A467CE73E
:106DD800023B3C4448E708460AE702383E442FE7AE
:106DE800C245E7D33E46D1E72946BDE8F08700BF54
:106DF800704700BF10B5054C13462CB10A46014632
:106E08000220AFF3008010BD204610BD0000000036
:106E180010B5431E0A44914204D011F8014B03F8FF
:106E2800014FF8E710BD02440346934202D003F82D
:106E3800011BFAE7704710F8012B11F8013B012AF2
:106E480028BF9A42F7D0D01A7047034611F8012B91
:106E580003F8012B002AF9D17047034613F8012BD8
:106E6800002AFBD1181A0138704700001D400D0098
:106E780059400D0085400D0089400D0000000000BC
:106E88006F6E006F6666002C20646174613A2000A2
:106E9800616E616C6F6776616C75650062726967B7
:106EA80068746E65737300736574706F696E7400CF
:106EB8006C6564006C6F775F6C69676874000000CC
:106EC80000000000000000001D490D0013490D00DE
:106ED80009490D00FF480D00F3480D00E7480D0073
:106EE800DB480D00D3480D00C9480D00BF480D0010
:106EF800454E0D0000000000000000003D490D0057
:106F080087490D005F490D003F490D0067490D0095
:106F18006F490D0077490D007F490D000000000002
:106F280000000000CF490D00C1490D00C3490D0004
:106F38006C6E00666E00636F6465006465746169F9
:106F48006C000D0A00253031307520005D20002CC2
:106F5800200028293A2000205B00636F6465203DEB
:106F6800200025690064657461696C73203D200008
:106F7800626175640053657269616C00536572697A
:106F8800616C31007479706500706172616D0063C5
:106F98006D6400696400686E64007374726D0066E5
:106FA800696C74006C766C0061646448616E646C32
:106FB80065720072656D6F766548616E646C6572A6
:106FC80000656E756D48616E646C657273004A5336
:106FD8004F4E53747265616D4C6F6748616E646C97
:106FE800657200617070006E6F6E65007472616327
:106FF8006500696E666F007761726E006572726F08
:10700800720070616E696300616C6C0000000000C2
:10701800000000003F4B0D00354B0D002B4B0D00C1
:10702800214B0D00154B0D00094B0D00FD4A0D00BD
:10703800F54A0D00EB4A0D00E14A0D00454E0D00E2
:10704800666630333A3A313A31303031007468315B
:10705800006D65736870756200776972696E6700A4
:107068007061727365207061636B657420256400BC
:107078000000000000000000DD4D0D00E74D0D0090
:10708800F14D0D00FB4D0D00054E0D00114E0D008C
:107098001D4E0D00294E0D00314E0D003B4E0D00CA
:1070A800454E0D000000000000000000B54F0D0027
:1070B800B74F0D000000000000000000F34F0D0066
:1070C800F54F0D0055520D0027520D005A00252B83
:1070D8003033643A253032750025592D256D2D251C
:1070E800645425483A254D3A2553257A006173633F
:1070F80074696D65007265636569766564202564E9
:107108002062797465732066726F6D20257323255C
:10711800640073656E645061636B65742073697A8B
:10712800652025642C202573232564006265676922
:107138006E207061636B65742025732325640000DD
:107148000000000000000000D5590D00F9590D009D
:1071580009530D0033540D0001530D001F530D004A
:107168003D530D0057530D007B530D0017540D0070
:1071780051570D00B9540D0039560D00E9520D0054
:107188006D590D00BD550D00F1540D0033590D001A
:107198005D540D00F7520D0099540D00FD520D007D
:1071A80059530D00F0FFFFFF0000000073530D005E
:1071B8000000000000000000235A0D00475A0D008F
:1071C800535A0D00DD4E0D002F5A0D003B5A0D008D
:1071D800355A0D00415A0D00255A0D00295A0D0047
:1071E8000000000000000000FD5A0D00415B0D008A
:1071F8001B5B0D00DD4E0D00155B0D00FF5A0D00E9
:10720800075B0D003B5B0D000F5B0D00F95A0D008D
:1072180000000000000000002F5C0D00255C0D0040
:107228001B5C0D00D15B0D000F5C0D00035C0D00B5
:10723800F75B0D00EF5B0D00E55B0D00DB5B0D0000
:10724800454E0D0061430D0029490D00D14A0D003E
:10725800914D0D00C94E0D00994F0D00B9520D000A
:10726800D5520D00395C0D00D95E0D00295F0D0067
:10727800ED5F0D0071600D00F5600D00000000006D
:087288000000000000000000FE
:0872900084F8FF7F01000000FB
:107298000F0000000E000000000000000000F03F9A
:1072A800000000000000444013000000000000003F
:1072B8000000000000C07240070000000600000047
:0472C800F5700D0050
:1072CC00FFFFFFFF00000102030405060708090A7F
:1072DC000B0C0D0E0F101112131415161718191A7A
:0872EC001B1C1D1E1F202800C1
:0472F4007856341282
:04000003D0004018D1
:00000001FF
