:02000002D0002C
:1040000000400D0074610D00000005000D00050169
:0840100004014401000000005E
:10401800E45C0D0009480A49884208B505D0094AF8
:10402800824202D0121A01F00FFE0748074A002107
:10403800121A01F014FE014808BD00BFCCE20320AB
:10404800D0600D0048E3032048E30320F0E7032095
:1040580070B501F0FBFB074C074BE41AA4080025D8
:104068001E46A54204D056F8253098470135F8E792
:1040780070BD00BFC8600D0090600D0000F03CB836
:1040880008B500F09DF8BDE8084001F0ADBB00F0B0
:10409800BFBA00F0C5BA00F0C3BA0078B0FA80F031
:1040A800400970470123037070471068704700008B
:1040B80038B50E49054601F051FA044630B10C4BAB
:1040C8000121188801F007FC012038BD094928465C
:1040D80001F044FA30B1064B2146188801F0FBFB89
:1040E800204638BD4FF0FF3038BD00BFF85C0D00EA
:1040F800D8E20320FB5C0D0013B5204B204C188838
:10410800012101F0D7FB1F4B0121188801F0D2FBD8
:104118001D4B0021188801F0CDFB2088012101F0FA
:10412800C9FB1A4B0121188801F0C4FB2088012122
:1041380001F0D1FB002309221549164800F0F8F9CF
:10414800002309221449154800F0F2F90023092236
:104158001349144800F0ECF90823ADF80030124B6D
:10416800019304226B461149114800F0E1F9114A04
:104178001149124800F0FCFB02B010BDDCE203203C
:10418800D0E20320D8E20320D4E20320CCE20320CB
:1041980068E30320085D0D0050E30320145D0D0063
:1041A80058E303201F5D0D00B3400D0070E30320AA
:1041B800285D0D002F5D0D00B9400D004D490D0023
:1041C80010B54FF4FA6090B000F052FA174C184945
:1041D80006A800F097FA099B089A164902A801F068
:1041E800CFF902A9204601F0B1F902A801F01DF9A2
:1041F800114B22681B788DF8003010493C2302A827
:1042080000F0ECFC039C7CB16368013B63605BB924
:10421800236820469B689847A368013BA3601BB9A5
:1042280023682046DB68984710B010BD70E3032070
:1042380080E30320335D0D0060E30320425D0D0041
:1042480010B5084B084C02221A7000F04DF80749C7
:10425800204601F031F92046054A0649BDE81040DC
:1042680001F094BB60E3032070E30320475D0D0079
:1042780048E3032033540D0008B5024B1B685B6C00
:10428800019308BD7402030008B5024B1B689B68C4
:10429800019308BD4802030008B5024B1B681B695F
:1042A800019308BD4802030008B5024B1B685B690F
:1042B800019308BD4802030008B5024B1B681B6B3D
:1042C800019308BD4802030008B5024B1B685B6CEC
:1042D800019308BD4802030008B5024B1B685B69DF
:1042E800019308BD1802030008B5024B1B681B6840
:1042F800019308BD2C02030008B5024B1B689B689C
:10430800019308BD2C02030008B5024B1B68DB684B
:10431800019308BD2C02030008B5024B1B681B69FA
:10432800019308BD2C02030008B5024B1B681B6AE9
:10433800019308BD2802030008B5024B1B685B6A9D
:10434800019308BD2802030008B5024B1B689B6A4D
:10435800019308BD2802030008B5024B1B68DB6AFD
:10436800019308BD2802030008B5024B1B681B6BAC
:10437800019308BD2802030008B5024B1B685B6B5C
:10438800019308BD2802030008B5024B1B681B6C8B
:10439800019308BD2802030008B5024B1B685B693E
:1043A800019308BD6402030008B5024B1B689B68B3
:1043B800019308BD6802030008B5024B1B68DB685F
:1043C800019308BD6802030008B5024B1B68DB694E
:1043D800019308BD3002030008B5024B1B681B6A35
:1043E800019308BD3002030008B5024B1B681B6827
:1043F800019308BD3C02030008B5024B1B68DB684B
:10440800019308BD3C02030008B5024B1B681B69F9
:10441800019308BD3C02030008B5024B1B685B69A9
:10442800019308BD3C02030008B5024B1B689B6959
:10443800019308BD3C02030008B5024B1B68DB6909
:10444800019308BD3C02030008B5024B1B681B6AB8
:10445800019308BD3C02030008B5024B1B689B6A28
:10446800019308BD3C02030008B5024B1B681B689A
:10447800019308BD4C02030008B5024B1B681B6979
:10448800019308BD4C02030008B5024B1B685B6929
:10449800019308BD4C02030008B5024B1B689B69D9
:1044A800019308BD4C02030008B5024B1B68DB6989
:1044B800019308BD4C02030008B5024B1B681B6A38
:1044C800019308BD4C02030008B5024B1B685B68EA
:1044D800019308BD2002030008B5024B1B685B6905
:1044E800019308BD2002030008B5024B1B68DB6C72
:1044F800019308BD2002030008B5024B1B685B6DE1
:10450800019308BD2002030008B5034B1B68D3F8CC
:104518008830019308BD00002002030008B5034B52
:104528001B68D3F89430019308BD000020020300F3
:1045380008B5024B1B681B68019308BD44020300C1
:1045480008B5024B1B685B68019308BD4402030071
:1045580008B5024B1B681B6A019308BD440203009F
:1045680008B5024B1B68DB6B019308BD44020300CE
:1045780008B5024B1B685B68019308BD4002030045
:1045880008B5024B1B689B68019308BD40020300F5
:1045980008B5024B1B68DB68019308BD40020300A5
:1045A80008B5024B1B681B69019308BD4002030054
:1045B80008B5024B1B685B69019308BD4002030004
:1045C80008B5024B1B689B69019308BD40020300B4
:1045D80008B5024B1B68DB69019308BD4002030064
:1045E80008B5024B1B681B6A019308BD4002030013
:1045F80008B5024B1B681B6B019308BD4002030002
:1046080008B5024B1B685B6B019308BD40020300B1
:1046180008B5024B1B681B68019308BD1C02030008
:1046280008B5024B1B685B68019308BD1C020300B8
:1046380008B5024B1B689B68019308BD1C02030068
:1046480008B5024B1B685B6A019308BD1C02030096
:1046580008B5024B1B68DB6A019308BD1C02030006
:1046680008B5024B1B681B6B019308BD1C020300B5
:104678000021FFF731BF10B5836804460BB901F07C
:104688008AF9C3689847A3681BB1032221462046CC
:1046980098472046BDE81040FFF7FBBC00221146B2
:1046A8004068FFF77DBF002211464068FFF798BFBA
:1046B800002211464068FFF7A3BF00224068FFF7B9
:1046C80097BF002281F001014068FFF781BF0023F6
:1046D8001A4619464068FFF773BF00231A46194661
:1046E8004068FFF765BF002211464068FFF748BFE2
:1046F800002202214068FFF74BBF00231A4640689A
:10470800FFF736BFF0B51B4B036000250F46283373
:10471800182689B043608560C5603246294604463C
:10472800103001F09CFA2A4629467868FFF738FFCE
:1047380008B9A0601BE02946324602A800950195F9
:1047480001F08DFA02A96846ADF80860FFF794FDFC
:1047580010B10123A3600AE0009B019AA360E26004
:104768000BB90223A36002A9204600F0A9F820464D
:1047780009B0F0BD945D0D0038B50C4D28242246D3
:104788000021284601F06BFA4FF0FF336B602C8054
:10479800074D042328466B60064B40F8083B224629
:1047A800002101F05CFA2C8138BD00BFB0E3032082
:1047B80080E30320605D0D007047007D70470000B6
:1047C800037D1BB18369B3F1004F02D19FED050A48
:1047D800704707EE903A9FED047AF8EEE77A87EE95
:1047E800870A7047000000000000C842037D1BB123
:1047F800036AB3F1004F02D19FED050A704707EE37
:10480800903A9FED047AF8EEE77A87EE870A7047C8
:10481800000000000000C84270B50D4606460A2296
:104828008168284600F0CCFD2C210446284600F07B
:1048380073FD0A220444F168284600F0C1FD2044B3
:1048480070BDA0F10400FFF7E7BF10B50446FFF7FD
:1048580020FC204610BD0000037D7BB1436A002B7D
:104868000CDB07EE903ADFED076A9FED070AB8EE1A
:10487800E77AC7EE267A27EE800A7047BFEE000A6D
:10488800704700BF00FF7F470000C842037D7BB12F
:10489800C369002B0CDB07EE903ADFED076A9FED4A
:1048A800070AB8EEE77AC7EE267A27EE800A70473D
:1048B800BFEE000A704700BF00FF7F470000C842F4
:1048C80030B50D4600F110040FCD0FC495E8030074
:1048D80084E80300012030BD70470020704710B500
:1048E8000446FFF7D6FB204610BD08B508B1FFF710
:1048F800F6FF08BD10B58368044613B103220146CC
:104908009847204610BD38B5C468D4B12378022B27
:1049180002D1E068FFF784FE65682DB12846FFF7ED
:10492800E9FF2846FFF7B5FBA5682DB12846FFF734
:10493800E1FF2846FFF7ADFB2046BDE83840FFF70A
:10494800A8BB38BD10B588B00446684600F0B4FD71
:10495800694604A800F0EFFD04A8A047044604A88F
:1049680000F063FD684600F060FD204608B010BD09
:10497800F0B5102485B007460E461546002122469C
:10498800684601F06CF9002269461046ADF800400F
:10499800029703960195FFF7D3FD05B0F0BD38B532
:1049A800046805467CB16368013B63605BB92368B2
:1049B80020469B689847A368013BA3601BB92368FE
:1049C8002046DB689847284638BD13B5044691E869
:1049D800050000234B600B602060626001A8019312
:1049E8000093FFF7DCFF204602B010BD0B680360A0
:1049F80013B15A6801325A607047F7B50C4602ADD8
:104A080054F8043B45F8083D06460F4601A82146E0
:104A1800FFF7ECFF29463046FFF7D7FF01A8FFF75D
:104A2800BEFF2046FFF7BBFF3846FFF732FB304694
:104A380003B0F0BD13B50B46044603C88DE8030068
:104A480093E8030084E803009DE8030083E803007B
:104A580002B010BD826810B50AB900F09CFFC368A7
:104A6800BDE81040184708B5006800F11001FFF7CD
:104A7800F1FF08BD826810B50AB900F08CFFC36861
:104A8800BDE81040184708B5006800F11001FFF7AD
:104A9800F1FF08BD38B5002383608B6804460D46D6
:104AA8002BB102229847EB68E360AB68A36020460D
:104AB80038BD00002DE9F0414FF69C7386B00468BC
:104AC800B1F904208B8000230F688DF800300B604B
:104AD8004FF00200D4E84F1F994203D1C4E8450FB4
:104AE800002DF7D102D08DF800106AE014F10C0502
:104AF8001EBFE76022821F460123BFF35F8F00209D
:104B0800637004F10803BFF35F8F53E8006F43E855
:104B18000002002AF9D1BFF35F8F002E51D0FFF7B2
:104B2800E3FC20B129463046FFF794FF43E03146C5
:104B38006846FFF7AFFFE068B4F9105008B101F01C
:104B4800A9F804901020ADF81450FFF7A0FA054614
:104B580030B34FF00008C0F808801820FFF797FA24
:104B68000446C0B1C0F8088001466846FFF762FFF6
:104B7800029BA268A360039B0292E268E360BDF80F
:104B88001430A3824FF69C73ADF81430049B039243
:104B98002361CDF810800E4BEB600E4B2C60AB60A0
:104BA8000498FFF73DFD6846FFF7A4FE002229465A
:104BB8000948FFF7A1FC3046FFF79CFE3046FFF797
:104BC80068FA3846FFF72CFD06B0BDE8F08100BF53
:104BD8006F4A0D00CD4C0D007F460D002DE9F04FBA
:104BE8008BB007AD4FF0000B0646994614200C23F6
:104BF8000F4690469DF850A0C5F804B0C5F808B017
:104C08000793FFF744FA044638B180F800B080F8FB
:104C180001B0C0F804B0C0F808B000231020039415
:104C28000493FFF734FA28B1012343608360234BD0
:104C38000360C4600490224B08930820FFF727FA0A
:104C4800044628B1039B40F8043B04A9FFF7CEFEB5
:104C580000955FFA8AF34A46414638460994FFF7B9
:104C680077FCB8B9039B5B7803F0FF0293B94FF662
:104C78009C7305A903A80592ADF81830FFF71AFF31
:104C88000598FFF7CDFC05A80999FFF7B6FE06A819
:104C9800FFF785FE039B059304A906A8FFF7A6FE68
:104CA80005A93046FFF791FE06A8FFF778FE04A88D
:104CB800FFF775FE30460BB0BDE8F08FC85D0D00FC
:104CC800354E0D00022AF8B5044606D0032A17D03F
:104CD800012A20D10B6803601DE018200E68FFF739
:104CE800D6F9054650B13146FFF7D4FE3069B6F91A
:104CF800147008B100F0CEFF2861AF8225600AE089
:104D0800046844B12069FFF78BFC2046FFF7F2FDE9
:104D18002046FFF7BEF90020F8BD38B500238360B0
:104D28008B6804460D462BB102229847EB68E36076
:104D3800AB68A360204638BD022A70B5044606D089
:104D4800032A11D0012A17D10B68036014E014203C
:104D58000E68FFF79CF9054620B13146FFF7DDFFE5
:104D6800337C2B74256007E004682CB12046FFF7DC
:104D7800C1FD2046FFF78DF9002070BDF0B5002376
:104D880087B00C46BFF35F8F50E8006F40E80032F1
:104D9800002AF9D1BFF35F8F002E3ED01846FFF7E7
:104DA800A3FB074620B121463046FFF763FE2EE0FD
:104DB800314601A8FFF7B1FF23788DF81430102091
:104DC800FFF765F90546D0B187601420FFF75FF952
:104DD800044678B18760014601A8FFF72BFE039BC4
:104DE800A268A360049B0392E268E3609DF8143014
:104DF800049223740A4BEB600A4B2C60AB6001A849
:104E0800FFF778FD002229460748FFF775FB304673
:104E1800FFF770FD3046FFF73CF907B0F0BD00BF63
:104E28008F4A0D00414D0D007F460D0030B585B00D
:104E380004460D4668461146FFF7DFFD7CB124B2F3
:104E480028460DB100F026FF029002A96846ADF889
:104E58000C40FFF72FFE0298FFF7E2FB1DE00098D9
:104E68008DF808404FF00102D0E84F3FA34203D12C
:104E7800C0E8412F0029F7D102D08DF808300CE0A6
:104E880010F10C014FF0010318BF0373BFF35F8FDC
:104E9800043000F8033CFFF771FF01A8FFF77FFD1E
:104EA80005B030BD002211464068FFF799BB0022CB
:104EB80011464068FFF7A4BB00224068FFF798BB83
:104EC800002281F001014068FFF782BB00231A46E7
:104ED80019464068FFF774BB00231A461946406814
:104EE800FFF766BB002211464068FFF759BB002256
:104EF80011464068FFF744BB002202214068FFF7D3
:104F080047BB00231A464068FFF732BB024B032217
:104F18005A60024A1A607047D8E30320E45D0D0026
:104F28007047F8B5064615460C468F18BC4206D0A1
:104F3800336814F8011B9B6830469847F6E7284603
:104F4800F8BD0022007CFFF7EFB90021007CFFF7D5
:104F5800F3B90021007CFFF7F7B90021007CFFF7C7
:104F6800FBB90021007CFFF7FFB910B50446FFF735
:104F780090F8204610BD000010B504464FF47A732F
:104F88000846A3600021044B207461602360FFF78A
:104F9800FBF9204610BD00BF185E0D000021007C03
:104FA800FFF7EAB9704710B50446FFF772F82046D4
:104FB80010BDF0B5037D062B8DB00E4600F1040739
:104FC8004FF0000402D000F1080518E00CAD394696
:104FD80005F8304D2F232A460A20FFF7DDF9284629
:104FE80000F073FE33680246DB682946304698476E
:104FF8000FE024B12E21304600F08EF9044415F854
:10500800011D0A22304600F0B7F9BD420444F0D130
:1050180020460DB0F0BD000010B5054B0446112226
:1050280040F8043B002100F01AFE204610BD00BFE6
:10503800405E0D000346074A10B543F8042B01F102
:10504800100251F8044B43F8044B9142F9D10A7805
:105058001A7010BD405E0D0010B59DF8084044EA76
:10506800032343EA024242EA0161042341600375D3
:1050780010BD37B50D788B784A78C97800912946E4
:10508800FFF7EAFF03B030BD014B024A1A607047D0
:10509800E0E30320FF5E0D00002211464068FFF7A1
:1050A8009FBA002211464068FFF7AABA002240685A
:1050B800FFF79EBA002281F001014068FFF788BA25
:1050C80000231A4619464068FFF77ABA00231A46A1
:1050D80019464068FFF76CBA002211464068FFF78E
:1050E8005FBA002211464068FFF74ABA002202213F
:1050F8004068FFF74DBA00231A464068FFF738BAF0
:1051080010B103685B681847704738B504460068F3
:10511800D0B1FFF7B9F8B8B9237C1BB9206808B13A
:10512800FFF7BAF8656855B1AB681BB10322294689
:10513800284698472846FEF7ACFF0023636020689E
:10514800FFF7B2F80023236038BD000038B50B4BD9
:1051580003600446D0F8CC0108B1FEF79CFFD4F8F0
:10516800C4512DB12846FFF7D0FF2846FEF791FF1E
:10517800A06808B1FFF7C4FF204638BD305F0D00B6
:1051880038B50D4C0D4B23600025022304F5E4705F
:105198006360A560C4F8C451C4F8C851FFF794F817
:1051A800074BC4F8CC5123602046064A0649BDE89F
:1051B800384000F0EBBB00BFE4E30320645F0D0060
:1051C800305F0D0048E3032055510D0000231A46B7
:1051D8004068FFF7CDB9002202214068FFF7D8B92F
:1051E800002211464068FFF7CBB9002211464068FB
:1051F800FFF7D6B900231A4619464068FFF7D8B911
:1052080000231A4619464068FFF7DAB9002281F0F0
:1052180001014068FFF7DCB900224068FFF7E8B9F0
:10522800002211464068FFF7EBB90022114640689A
:10523800FFF7D6B970B58CB014460646FFF7ECFEFA
:105248000CAB0022114643F8302D2046FFF7B4F886
:10525800014658BB009B4BB35A68022A0ED00A2A53
:1052680024D15C69112201A800F0F9FC06238DF80D
:10527800143001AD04F10803183405E059693046CB
:105288000431FFF7F6FE11E0186859682A4603C290
:105298000833A3421546F7D101A906A807ADFFF7C1
:1052A800C9FE0FCD341D0FC42B6823700098FFF77B
:1052B8007BF830460CB070BD024B034A1A600022DE
:1052C8005A607047B4E50320645F0D00F8B50646E0
:1052D8000D468F180024BD420CD0336815F8011B09
:1052E8009B6830469847002801DB0444F3E7002C0C
:1052F80008BF04462046F8BD70B505460C4608466A
:1053080049B100F0E2FC2B68024621462846DB68DA
:10531800BDE87040184770BD03689B68184730B5F2
:105328008BB00B4600218DF82410012A98BF0A2261
:105338000DF12304B3FBF2F505FB123303F0FF0371
:10534800092B94BF30333733DBB2214604F80139D7
:105358002B46002DEED1FFF7CFFF0BB030BD10B4B8
:105368002AB903685DF8044B9B68C9B21847D2B2E2
:105378005DF8044BFFF7D3BFFFF7F1BF2DE9F0410C
:1053880007460E4615462AB90368C9B29B68BDE8A8
:10539800F04118470A2A02D1002901DA04E0D2B202
:1053A800BDE8F041FFF7BBBF2D21FFF7B5FF2A4647
:1053B800044671423846FFF7B2FF2044BDE8F08149
:1053C800FFF7DCBF10B50446FFF794FA204610BD7E
:1053D8000348044A04490023836000F0D7BA00BF99
:1053E800BCE5032048E30320CD530D00704710B5FA
:1053F8000446FEF74EFE204610BD000070B5084B6F
:105408000360044600250E4640F80C5FFEF754FF83
:1054180030462671FEF7D8FFA560204670BD00BF54
:10542800985F0D000079FEF7D7BF10B504460068F5
:10543800FFF7F6F8204610BD10B50446006808B11D
:10544800FFF7EEF800232360A360636010BD38B552
:1054580004460D4600680131FFF7EAF810B184E808
:105468002100012038BD10B50368044613B1436814
:105478008B4207D22046FFF7EAFF20B1A3680BB999
:1054880022681370012010BD70B50E4611460446FF
:105498001546FFF7E8FF18B92046FFF7CDFF09E0EA
:1054A8002A463146A560206800F0CEFB2268A36832
:1054B8000021D154204670BD38B50023044603604E
:1054C8004360836003730D4639B1084600F0FDFB65
:1054D800294602462046FFF7D7FF204638BD38B593
:1054E800054600680C4660B16A688B689A4206D324
:1054F800096800F0C6FBA368AB6000230AE0FFF769
:105508008FF823682B6063686B60A368AB60002327
:1055180023606360A36038BD884210B50B4604461B
:1055280007D0096819B19A68FFF7AEFF01E0FFF7E5
:1055380083FF204610BD10B5002304460360436076
:1055480083600373FFF7E8FF204610BD884210B55B
:10555800044601D0FFF7C3FF204610BD08B5826896
:105568000B4612B919B9012008BD11B9036818789A
:1055780002E0006800F07BFBB0FA80F0400908BD4B
:105588000EB4FFB509AC054654F8047B01942346D4
:105598003A46052102A8FFF753F80C490646284663
:1055A800FFF78AFF31462846FFF75DFF286830B1CC
:1055B80023463A46711C0194FFF742F8A860284632
:1055C80004B0BDE8F04003B0704700BF605E0D0056
:1055D800054B4FF69C7200205A804FF6FF721870E8
:1055E8009A80FEF771BF00BFCCE50320024B1A6812
:1055F800024B1A60704700BFE0E20320D4E50320A5
:10560800704741747047007CFEF726BF007CFEF7A8
:10561800FBBE007CFEF708BF007CFEF7FDBE007CE9
:10562800FEF70ABF10B50446FEF733FD204610BD4D
:1056380070B5457C04460E4625B9007CFEF70CFF84
:10564800002805DD3146207CBDE87040FEF7D4BE59
:10565800284670BD10B5044608461146002262600F
:105668004FF47A72A260054A2260012220746274A3
:105678001A46FEF7B9FE204610BD00BFD45F0D00E4
:10568800007CFEF7E1BE000038B50C4D296811F02A
:10569800010411D12846FEF700FD68B1084A094BFC
:1056A80009482146FFF7D6FF2846FEF7FBFC074AC4
:1056B8000749054800F06AF9034838BD70E6032039
:1056C80074E60320ECE50320D8E5032048E3032033
:1056D80009560D004174704770470021007CFEF7A1
:1056E800DBBE0121007CFEF7D7BE007CFEF7CCBEF6
:1056F800007CFEF7C1BE38B50446007C0D46FEF7B7
:10570800C3FE002801DC607C20B12946207CFEF71E
:10571800CBFE012038BD007CFEF7CEBE10B5044696
:10572800FEF7B7FC204610BD10B5044600236360A1
:105738004FF47A73A360054B236001230846217454
:1057480063741146FEF790FE204610BD04600D00FC
:1057580010B514220446002100F081FA204610BD3D
:1057680030B50E4D87B001A8FFF7F2FF296811F098
:10577800010410D12846FEF790FC60B101AA214629
:105788000748FFF7D1FF2846FEF78CFC054A064973
:10579800034800F0FBF8024807B030BDF8E60320E4
:1057A800FCE6032048E30320E1560D0008B50C4B46
:1057B80033B1FFF7D5FF03681B699847002809DC58
:1057C800084B63B1FFF760FF03681B69984700281F
:1057D80003DC08BDAFF30080F2E7AFF3008008BD3B
:1057E800000000000000000008B5FFF7DFFFFEF72B
:1057F80073FD014B186008BD14E7032007B50023AB
:1058080000931A466FF07701FEF788FE03B05DF843
:1058180004FB000007B543880A2B08D0502B09D198
:10582800094B1B683BB103B05DF804EB1847FFF761
:10583800E5FF06E0002300931A466FF07701FEF7B4
:105848006DFE03B05DF804FB10E7032008B50021E6
:105858000448FEF785FE00210348BDE80840FEF72E
:1058680053BE00BF000000001D580D0010B50446CF
:105878000F48FFF7D7FD28B1A4F10B03022B01D87D
:10588800002010BD00F040F8FFF788FB08B1012C9C
:10589800F6D9FFF7F9FEFFF7F3FE18B1A4F10903F3
:1058A800012BEDD9232C8CBF0020012010BD00BF97
:1058B80030E70320232838B504460D460AD8FF29C7
:1058C80008D0FFF7D3FF28B129462046BDE8384065
:1058D800FEF712BD38BD38B504460D46FEF714FD77
:1058E800FF2810D0062804D84D2323FA00F0C30758
:1058F80009D42046FFF7BAFF28B129462046BDE85B
:105908003840FEF709BD38BD38B50B4D296811F090
:1059180001040FD12846FEF7C0FB58B121460748BD
:10592800FFF72AFB2846FEF7BDFB054A0549034851
:1059380000F02CF8014838BD18E703201CE70320C5
:1059480048E30320294F0D0070B50C4C0C4E0D4D4B
:1059580000212046FFF752FD20460B4C32462946CF
:1059680000F014F801212046FFF748FD3246294689
:105978002046BDE8704000F009B800BF30E70320BA
:1059880048E30320F5530D0040E703200B4601468A
:10599800184600F04BB908B5FEF75AFE244B1A68B2
:1059A800D0075CBF01221A60224B1A68D1075CBF7E
:1059B80001221A60204B1A68D2075CBF01221A60C4
:1059C8001E4B1A68D0075CBF01221A601C4B1A686C
:1059D800D1075CBF01221A601A4B1A68D2075CBF54
:1059E80001221A60184B1A68D0075CBF01221A609E
:1059F800164B1A68D1075CBF01221A60144B1A684B
:105A0800D2075CBF01221A60124B1A68D0075CBF2C
:105A180001221A60104B1A68D1075CBF01221A6074
:105A28000E4B1A68D2075CBF01221A60704700BF8C
:105A38007CE7032078E7032074E7032070E703205E
:105A48006CE7032068E7032064E7032060E703208E
:105A58005CE7032058E7032054E7032050E70320BE
:105A6800184B1A68D1075CBF01221A60164B1A68D6
:105A7800D2075CBF01221A60144B1A68D0075CBFBA
:105A880001221A60124B1A68D1075CBF01221A6002
:105A9800104B1A68D2075CBF01221A600E4B1A68B5
:105AA800D0075CBF01221A600C4B1A68D1075CBF93
:105AB80001221A600A4B1A68D2075CBF01221A60D9
:105AC800704700BF9CE7032098E7032094E7032072
:105AD80090E703208CE7032088E7032084E703206E
:105AE80080E70320184B1A68D1075CBF01221A60AF
:105AF800164B1A68D2075CBF01221A60144B1A6849
:105B0800D0075CBF01221A60124B1A68D1075CBF2C
:105B180001221A60104B1A68D2075CBF01221A6072
:105B28000E4B1A68D0075CBF01221A600C4B1A682A
:105B3800D1075CBF01221A600A4B1A68D2075CBF02
:105B480001221A60704700BFBCE70320B8E70320B2
:105B5800B4E70320B0E70320ACE70320A8E703205D
:105B6800A4E70320A0E70320244B1A68D0075CBFF2
:105B780001221A60224B1A68D1075CBF01221A6001
:105B8800204B1A68D2075CBF01221A601E4B1A68A4
:105B9800D0075CBF01221A601C4B1A68D1075CBF92
:105BA80001221A601A4B1A68D2075CBF01221A60D8
:105BB800184B1A68D0075CBF01221A60164B1A6886
:105BC800D1075CBF01221A60144B1A68D2075CBF68
:105BD80001221A60124B1A68D0075CBF01221A60B2
:105BE800104B1A68D1075CBF01221A600E4B1A6865
:105BF800D2075CBF01221A60704700BFECE70320A0
:105C0800E8E70320E4E70320E0E70320DCE70320DC
:105C1800D8E70320D4E70320D0E70320CCE703200C
:105C2800C8E70320C4E70320C0E7032010B5054CEC
:105C380013462CB10A4601460220AFF3008010BD7E
:105C4800204610BD0000000010B5431E0A449142D2
:105C580004D011F8014B03F8014FF8E710BD0244D6
:105C68000346934202D003F8011BFAE7704710F885
:105C7800012B11F8013B012A28BF9A42F7D0D01A0C
:105C88007047034611F8012B03F8012B002AF9D1BC
:105C980070470000024B0146186800F003B800BFC7
:105CA80044E3032070B5064608460C4600F00DF89C
:105CB800451C29463046FEF7D3FC064618B12A464D
:105CC8002146FFF7C1FF304670BD034613F8012B8C
:105CD800002AFBD1181A0138704700001D400D003A
:105CE80059400D0085400D0089400D00000000005E
:105CF8006F6E006F6666002C20646174613A200044
:105D0800616E616C6F6776616C7565006272696758
:105D180068746E65737300736574706F696E740070
:105D2800736967737472006C6564005349473D2555
:105D3800692C5155414C3D25690052535349005334
:105D480049473D4E412C5155414C3D4E41000000C4
:105D5800000000000000000003470D00F9460D0098
:105D6800EF460D00A5460D00E3460D00D7460D0091
:105D7800CB460D00C3460D00B9460D00AF460D00D9
:105D88003D520D000000000000000000C1470D005A
:105D980053480D00C3470D0095480D00C9470D0035
:105DA80061480D00F5470D0021480D00FCFFFFFF7D
:105DB800000000004B480D0000000000000000003B
:105DC800E1480D00E7480D000F490D00F3480D00AC
:105DD800E3480D0000000000000000000B4F0D001C
:105DE800014F0D00F74E0D00ED4E0D00E14E0D0078
:105DF800D54E0D00C94E0D00C14E0D00B74E0D0019
:105E0800AD4E0D003D520D000000000000000000E6
:105E1800294F0D00734F0D004B4F0D002B4F0D00F8
:105E2800534F0D005B4F0D00634F0D006B4F0D007E
:105E38000000000000000000BB4F0D00AD4F0D003A
:105E4800AF4F0D006C6E00666E00636F6465006492
:105E5800657461696C000D0A0025303130752000C9
:105E68005D20002564002C200028293A2000205BB2
:105E780000636F6465203D200064657461696C731C
:105E8800203D2000626175640053657269616C0091
:105E980053657269616C3100747970650070617264
:105EA800616D00636D6400696400686E64007374FA
:105EB800726D0066696C74006C766C00616464488D
:105EC800616E646C65720072656D6F766548616EAF
:105ED800646C657200656E756D48616E646C6572A0
:105EE80073004A534F4E53747265616D4C6F674827
:105EF800616E646C657200617070006E6F6E650033
:105F0800747261636500696E666F007761726E0016
:105F18006572726F720070616E696300616C6C000B
:105F28000000000000000000FF500D00F5500D00BB
:105F3800EB500D00E1500D00D5500D00C9500D007B
:105F4800BD500D00B5500D00AB500D00A1500D0017
:105F58003D520D000000000000000000D5510D006A
:105F6800DF510D00E9510D00F3510D00FD510D00F9
:105F780009520D0015520D0021520D0029520D0035
:105F880033520D003D520D000000000000000000DB
:105F9800F5530D00F7530D005A00252B3033643AA2
:105FA800253032750025592D256D2D256454254839
:105FB8003A254D3A2553257A0061736374696D65F6
:105FC80000000000000000000000000009560D005D
:105FD8002D560D0039560D00D5520D0015560D00E1
:105FE80021560D001B560D0027560D000B560D00AF
:105FF8000F560D000000000000000000E1560D00E3
:1060080025570D00FF560D00D5520D00F9560D000D
:10601800E3560D00EB560D001F570D00F3560D000B
:10602800DD560D0000000000000000000000000028
:106038000000000000000000000000000000000058
:106048000000000000000000000000000000000048
:106058000000000000000000000000000000000038
:106068000000000000000000000000000000000028
:106078000000000000000000000000000000000018
:10608800000000004300000049420D0081470D0058
:10609800154F0D0091500D0089510D00C1520D0092
:1060A800D9530D00D9550D00F5550D0051590D0066
:1060B800A5590D00695A0D00ED5A0D00715B0D00D0
:0860C8000000000000000000D0
:1060D0000F0000000E000000130000000700000089
:1060E00006000000C15F0D00000000002C600D00E4
:1060F0004C600D006C600D0000000000000000000E
:1061000000000000000000008C600D000000000096
:10611000000000000000000000000000000000007F
:10612000000000000000000000000000000000006F
:10613000000000000000000000000000000000005F
:0C6140000000000000000000E4E203206A
:10614C00FFFFFFFF00000102030405060708090A10
:10615C000B0C0D0E0F101112131415161718191A0B
:08616C001B1C1D1E1F20280052
:046174007856341213
:04000003D0004018D1
:00000001FF
