:02000004080AE8
:1000000000000A0870120A08000005000600050139
:080010000402CF000000000013
:1000180008100A0809480A4908B5884205D0094A5B
:10002800824202D0121A00F0C5FF0748074A002191
:10003800121A00F0CAFF064808BD00BF00030020DE
:1000480034120A081403002014030020900800202A
:100058009008002070B500F06DFD074B074C1E4658
:10006800E41AA4080025A54204D056F8253098477C
:100078000135F8E770BD00BFFC110A082C120A0808
:1000880000F042B808B500F077F8BDE8084000F085
:100098000FBD00F0BDB90078B0FA80F04009704794
:1000A800012303707047000038B51349054600F076
:1000B80078FB90B940F6C313104C22689A420CDDC5
:1000C8000F49284600F06DFB70B940F6C41322684A
:1000D8009A4209DC4FF0FF3038BD0A4B01211888DD
:1000E80000F081FD012038BD064B0021188800F082
:1000F8007AFD002038BD00BF1C100A081803002034
:100108001F100A080C03002010B5124B0121188893
:1001180000F058FD104B114C1888002100F052FDDA
:100128002088012100F04EFD0D4B0121188800F0B8
:1001380049FD2088012100F056FD022209490023CB
:10014800094800F04DF9BDE81040084A0849094837
:1001580000F090B90C0300200803002004030020DD
:10016800000300201803002023100A082F100A0893
:10017800B1000A0851040A0808B5054B188800F0B0
:100188004BFD044B1860BDE80840032000F050B94F
:10019800080300201803002000F018B808B5024B27
:1001A8001B681B6B019308BDD001060808B5024BFC
:1001B8001B685B68019308BD9C01060808B5024BE3
:1001C8001B685B69019308BD9C01060808B5024BD2
:1001D8001B681B68019308BDB001060808B5024BEF
:1001E8001B685B68019308BDB001060808B5024B9F
:1001F8001B689B68019308BDB001060808B5024B4F
:100208001B68DB68019308BDB001060808B5024BFE
:100218001B681B69019308BDB001060808B5024BAD
:100228001B681B6B019308BDB001060808B5024B9B
:100238001B681B6E019308BDAC01060808B5024B8C
:100248001B685B6E019308BDAC01060808B5024B3C
:100258001B689B6E019308BDAC01060808B5024BEC
:100268001B68DB6E019308BDAC01060808B5024B9C
:100278001B681B6F019308BDAC01060808B5024B4B
:100288001B685B6F019308BDAC01060808B5034BFA
:100298001B68D3F88030019308BD0000AC01060844
:1002A80008B5024B1B68DB69019308BDB401060859
:1002B80008B5024B1B681B6A019308BDB401060808
:1002C80008B5024B1B689B69019308BDC401060869
:1002D80008B5024B1B685B6A019308BDC401060898
:1002E80008B5024B1B689B6A019308BDC401060848
:1002F80008B5024B1B68DB6A019308BDC4010608F8
:1003080008B5024B1B681B6B019308BDC4010608A6
:1003180008B5024B1B685B6B019308BDC401060856
:1003280008B5024B1B689B6B019308BDC401060806
:1003380008B5024B1B681B6C019308BDC401060875
:1003480008B5024B1B681B68019308BDD801060855
:1003580008B5024B1B681B69019308BDD801060844
:1003680008B5024B1B685B69019308BDD8010608F4
:1003780008B5024B1B689B69019308BDD8010608A4
:1003880008B5024B1B68DB69019308BDD801060854
:1003980008B5024B1B681B6A019308BDD801060803
:1003A80008B5024B1B685B68019308BDA4010608E9
:1003B80008B5024B1B685B69019308BDA4010608D8
:1003C80008B5024B1B685B6E019308BDA4010608C3
:1003D80008B5024B1B689B6E019308BDA401060873
:1003E80008B5024B1B681B68019308BDCC010608C1
:1003F80008B5024B1B685B68019308BDCC01060871
:1004080008B5024B1B681B69019308BDC8010608A3
:1004180008B5024B1B685B68019308BDA00106087C
:1004280008B5024B1B689B68019308BDA00106082C
:100438000021FFF7BDBF10B58368044613B103223E
:1004480001469847204610BD10B588B00446684656
:1004580000F07AF9694604A800F098F904A8A047C2
:10046800044604A800F029F9684600F026F9204659
:1004780008B010BDF0B507460E46154685B01024E5
:1004880022460021684600F0A0FD00226946104679
:10049800ADF80040029703960195FFF7A9FF05B054
:1004A800F0BD7047F8B5064615460C468F18BC4295
:1004B80006D0336814F8011B9B6830469847F6E766
:1004C8002846F8BD0022007CFFF7B0BE0021007C62
:1004D800FFF7B4BE0021007CFFF7B8BE0021007C06
:1004E800FFF7BCBE0021007CFFF7C0BE10B5044674
:1004F800FFF7CFFD204610BD10B5044608464FF45F
:100508007A73A360044B0021207461602360FFF7B5
:10051800BDFE204610BD00BF3C100A080021007C2B
:10052800FFF7ACBE704710B50446FFF7B2FD204692
:1005380010BDF8B50F4600F10806051D002416F891
:10054800011D0A22384600F082F8AE42044407D062
:10055800002CF4D02E21384600F04CF80444EEE785
:100568002046F8BD10B59DF8084044EA032343EA45
:10057800024242EA016104234160037510BD000094
:1005880037B5044D05609DF818500095FFF7EAFF50
:1005980003B030BD64100A08014A024B1A60704764
:1005A80029110A081C030020F8B506460D468F18C5
:1005B8000024BD420CD0336815F8011B9B683046F7
:1005C8009847002801DB0444F3E7002C08BF0446E1
:1005D8002046F8BD70B505460C46084649B100F0FE
:1005E80006FD2B68024621462846BDE87040DB68B8
:1005F800184770BD03689B681847012A98BF0A22EC
:1006080030B50B468BB000218DF824100DF1230472
:10061800B3FBF2F505FB1233DBB2092B94BF303381
:100628003733DBB2214604F801392B46002DEFD1D0
:10063800FFF7D0FF0BB030BD10B422B90368C9B2C0
:100648009B6810BC1847D2B210BCFFF7D6BFFFF7A3
:10065800F3BF10B50446FFF7EEFE204610BD0000BC
:10066800034800238360034A034900F047BB00BFE7
:1006780020030020140300205B060A08704710B509
:100688000446FFF706FD204610BD000070B504467D
:100698000E46074B0025036040F80C5FFFF77EFD10
:1006A80030462671FFF7FCFDA560204670BD00BFEF
:1006B8005C110A080079FFF7FBBD10B50446006815
:1006C800FFF7A6FE204610BD10B50446006808B125
:1006D800FFF79EFE00232360A360636010BD38B55A
:1006E80004460D4600680131FFF79AFE10B184E810
:1006F8002100012038BD10B50368044613B14368D2
:100708008B4207D22046FFF7EAFF20B1A3680BB956
:1007180022681370012010BD70B50E4611460446BC
:100728001546FFF7E8FF18B92046FFF7CDFF09E0A7
:100738002A463146A560206800F03CFC2268A36880
:100748000021D154204670BD38B50023044603600B
:100758004360836003730D4639B1084600F047FCD7
:10076800294602462046FFF7D7FF204638BD884273
:1007780010B50B46044607D0096819B19A68FFF707
:10078800CBFF01E0FFF7A0FF204610BD10B50446DF
:1007980000230360436083600373FFF7E8FF20468C
:1007A80010BD08B582680B4612B919B9012008BDF9
:1007B80011B90368187802E0006800F00EFCB0FA7E
:1007C80080F0400908BD0020FFF7EABD024B1A6817
:1007D800024B1A60704700BF10030020300300204E
:1007E800704741747047007CFFF7A2BD007CFFF79B
:1007F80077BD007CFFF784BD007CFFF779BD007CE6
:10080800FFF786BD10B50446FFF743FC204610BD30
:1008180070B5457C04460E4625B9007CFFF788FD77
:10082800002805DD3146207CBDE87040FFF750BD4B
:10083800284670BD10B5044608461146002262607D
:100848004FF47A72A260054A207422600122627411
:100858001A46FFF735FD204610BD00BF98110A085B
:10086800007CFFF75DBD000038B50C4D296811F01C
:10087800010411D12846FFF70EFC68B1084A214649
:10088800084B0948FFF7D6FF2846FFF709FC074A37
:100898000749054800F032FA034838BDCC03002068
:1008A800D003002048030020340300201403002054
:1008B800E9070A084174704770470021007CFFF778
:1008C80057BD0121007CFFF753BD007CFFF748BDF1
:1008D800007CFFF73DBD38B50446007C0D46FFF7A8
:1008E8003FFD002801DC607C20B12946207CFFF711
:1008F80047FD012038BD007CFFF74ABD10B504460E
:10090800FFF7C7FB204610BD10B5044600236360FF
:100918004FF47A73A360054B0846236001232174C2
:1009280063741146FFF70CFD204610BDC8110A0874
:1009380010B504461422002100F047FB054B204661
:100948006360054BE36040F2011323818123238216
:1009580010BD00BFD90400205804002030B50E4D4A
:1009680087B001A8FFF7E4FF296811F0010410D14E
:100978002846FFF790FB60B101AA21460748FFF718
:10098800C3FF2846FFF78CFB054A0649034800F0D9
:10099800B5F9024807B030BD54040020DC0500203A
:1009A80014030020C1080A0810B5044614220021C7
:1009B80000F00BFB054B20466360054BE36040F2FB
:1009C800011323818123238210BD00BF8C060020E0
:1009D800F405002010B50E4C86B001A8FFF7E4FF1F
:1009E8002368DB0710D42046FFF755FB60B101AA46
:1009F80001210848FFF788FF2046FFF751FB064A08
:100A08000649044800F07AF9024806B010BD00BF54
:100A1800F00500207806002014030020C1080A0809
:100A28007047002211461046FFF7EABC0348044B02
:100A3800044A0549036000F061B900BF900700202F
:100A4800F8110A0814030020290A0A0808B5144BEB
:100A580033B1FFF783FF03681B699847002816DC4A
:100A6800104B33B1FFF700FF03681B699847002854
:100A780010DC0D4B0BB1AFF300800C4B7BB1FFF7D3
:100A8800A9FF03681B699847002806DC08BDAFF377
:100A98000080E5E7AFF30080EBE7AFF3008008BD27
:100AA800000000000000000000000000000000003E
:100AB80008B5FFF7CBFFFFF781FB014B186008BDB6
:100AC8009C0700200248034A0349121A00F072BA30
:100AD800004002400440024030120A0800207047DB
:100AE80037B5436804460A2B0ED0502B1CD1104B47
:100AF8001D68CDB1037D4FF400710093C26800F109
:100B080010038068A84707E000F11003C2684FF49B
:100B180000718068FFF7E2FF30B1002220461146DD
:100B2800FFF756FC012000E0002003B030BD00BFF5
:100B38009407002038B50C4C0C4D2368AB420C4B85
:100B48000CBF012200221A7002D0FFF7BBFF2560FC
:100B5800084B1BB1FFF72AFBAFF30080BDE8384014
:100B680000210548FFF72CBC004002401E1C279AB4
:100B78009807002000000000E90A0A0810B504469A
:100B88000F48FFF797FD28B1A4F10D03022B01D8F8
:100B9800002010BD00F058F8FFF7C0FC08B1012C88
:100BA800F6D9FFF761FEFFF75BFE18B1A4F1120357
:100BB800012BEDD9172C8CBF0020012010BD00BFE0
:100BC800D0070020172838B504460D460AD8FF2953
:100BD80008D0FFF7D3FF28B129462046BDE83840A2
:100BE800FFF704BB38BD38B504460D46FFF706FBD2
:100BF800FF2810D0062804D84D2323FA00F0C30795
:100C080009D42046FFF7BAFF28B129462046BDE897
:100C18003840FFF7FBBA38BD10B5044609289CBF19
:100C28000A34A4B22046FFF7A9FF50B10321204699
:100C3800FFF7D4FA032804D12046BDE81040FFF797
:100C4800EDBA002010BD000038B50B4D296811F031
:100C580001040FD12846FFF71EFA58B1214607486C
:100C6800FFF74AFC2846FFF71BFA054A05490348DF
:100C780000F044F8014838BDA0070020A407002070
:100C880014030020AB040A0813B5084C00231A46C5
:100C9800194600932046FFF773FC2046044A05498D
:100CA80002B0BDE8104000F029B800BFB807002026
:100CB800140300202D050A0870B50C4C0C4E0D4D80
:100CC80000212046FFF7E2FC20460B4C324629461D
:100CD80000F014F801212046FFF7D8FC32462946D7
:100CE8002046BDE8704000F009B800BFD0070020DA
:100CF8001403002085060A08E00700200B46014679
:100D0800184600F049B90000244B1A68D0075CBFA8
:100D180001221A60224B1A68D1075CBF01221A60AF
:100D2800204B1A68D2075CBF01221A601E4B1A6852
:100D3800D0075CBF01221A601C4B1A68D1075CBF40
:100D480001221A601A4B1A68D2075CBF01221A6086
:100D5800184B1A68D0075CBF01221A60164B1A6834
:100D6800D1075CBF01221A60144B1A68D2075CBF16
:100D780001221A60124B1A68D0075CBF01221A6060
:100D8800104B1A68D1075CBF01221A600E4B1A6813
:100D9800D2075CBF01221A60704700BF1C08002000
:100DA8001808002014080020100800200C08002053
:100DB800080800200408002000080020FC07002084
:100DC800F8070020F4070020F0070020184B1A68E5
:100DD800D1075CBF01221A60164B1A68D2075CBFA4
:100DE80001221A60144B1A68D0075CBF01221A60EE
:100DF800124B1A68D1075CBF01221A60104B1A689F
:100E0800D2075CBF01221A600E4B1A68D0075CBF7C
:100E180001221A600C4B1A68D1075CBF01221A60C4
:100E28000A4B1A68D2075CBF01221A60704700BFDC
:100E38003C08002038080020340800203008002032
:100E48002C08002028080020240800202008002062
:100E5800184B1A68D1075CBF01221A60164B1A6832
:100E6800D2075CBF01221A60144B1A68D0075CBF16
:100E780001221A60124B1A68D1075CBF01221A605E
:100E8800104B1A68D2075CBF01221A600E4B1A6811
:100E9800D0075CBF01221A600C4B1A68D1075CBFEF
:100EA80001221A600A4B1A68D2075CBF01221A6035
:100EB800704700BF5C080020580800205408002034
:100EC800500800204C080020480800204408002052
:100ED80040080020244B1A68D0075CBF01221A6022
:100EE800224B1A68D1075CBF01221A60204B1A688E
:100EF800D2075CBF01221A601E4B1A68D0075CBF7C
:100F080001221A601C4B1A68D1075CBF01221A60C3
:100F18001A4B1A68D2075CBF01221A60184B1A686C
:100F2800D0075CBF01221A60164B1A68D1075CBF54
:100F380001221A60144B1A68D2075CBF01221A609A
:100F4800124B1A68D0075CBF01221A60104B1A684E
:100F5800D1075CBF01221A600E4B1A68D2075CBF2A
:100F680001221A60704700BF8C0800208808002002
:100F780084080020800800207C08002078080020D1
:100F880074080020700800206C0800206808002001
:100F9800640800206008002010B5054C13462CB1E9
:100FA8000A4601460220AFF3008010BD204610BD5E
:100FB8000000000010B5431E0A44914204D011F805
:100FC800014B03F8014FF8E710BD03460244934272
:100FD80002D003F8011BFAE7704710F8012B11F84B
:100FE800013B012A28BF9A42F7D0D01A704703461E
:100FF80013F8012B002AFBD1181A0138704700009A
:101008001D000A085D000A0889000A088D000A0800
:10101800000000006F6E006F666600616E616C6FA5
:101028006776616C7565006C6564000000000000FF
:1010380000000000AB040A08F5040A08CD040A08F9
:10104800AD040A08D5040A08DD040A08E5040A08FC
:10105800ED040A0800000000000000003B050A0833
:101068002D050A082F050A086C6E00666E00636F6E
:1010780064650064657461696C000D0A002530318F
:10108800307520005D20002564002C200028293AB6
:101098002000205B00636F6465203D200025690007
:1010A80064657461696C73203D2000626175640039
:1010B80053657269616C0055534253657269616C7E
:1010C80031007479706500706172616D00636D64E0
:1010D80000696400686E64007374726D0066696C00
:1010E80074006C766C0061646448616E646C65724F
:1010F8000072656D6F766548616E646C6572006537
:101108006E756D48616E646C657273004A534F4E1C
:1011180053747265616D4C6F6748616E646C65727B
:1011280000617070006E6F6E6500747261636500B7
:10113800696E666F007761726E006572726F720019
:1011480070616E696300616C6C0000000000000053
:101158000000000085060A0887060A085A00252BA1
:101168003033643A253032750025592D256D2D25EB
:10117800645425483A254D3A2553257A006173630E
:1011880074696D65000000000000000000000000A8
:10119800E9070A080D080A0819080A08B1050A0823
:1011A800F5070A0801080A08FB070A0807080A08D9
:1011B800EB070A08EF070A0800000000000000001B
:1011C800C1080A0805090A08DF080A08B1050A085B
:1011D800D9080A08C3080A08CB080A08FF080A0839
:1011E800D3080A08BD080A08000000000000000033
:1011F8002B0A0A08A1010A08A1050A0869060A08B3
:10120800CF070A08D5070A08350A0A08910C0A0800
:10121800C10C0A08110D0A08D50D0A08590E0A084A
:08122800DD0E0A0800000000C1
:0412300000000000BA
:101234000E0000000F0000000A000000060000007D
:0412440085110A08FE
:10124800FFFFFFFF00000102030405060708090A63
:101258000B0C0D0E0F101112131415161718191A5E
:081268001B1C1D1E1F202800A5
:041270007856341266
:04000005080A0018CD
:00000001FF
