:02000002D0002C
:1040000000400D0020750D00000005000E000501A8
:0840100004014401000000005E
:104018000C6F0D0009480A49884208B505D0094ABD
:10402800824202D0121A02F074FE0748074A0021A1
:10403800121A02F079FE014808BD00BF28E30320E8
:1040480070740D00B0E30320B0E30320F0E7032011
:1040580070B502F0ADF9074C074BE41AA408002527
:104068001E46A54204D056F8253098470135F8E792
:1040780070BD00BF64740D0030740D0000F07AB894
:1040880008B500F0D5F8BDE8084002F05FB900F0C7
:10409800BBBB00F0B9BB00F0BFBB00F0BDBB0078F4
:1040A800B0FA80F0400970470123037070470000A0
:1040B80038B50E49054601F06EFC044630B10C4B8C
:1040C8000121188802F0B9F9012038BD09492846AC
:1040D80001F061FC30B1064B2146188802F0ADF9B9
:1040E800204638BD4FF0FF3038BD00BF206F0D00AF
:1040F8003CE30320236F0D0010B588B004A801F03D
:10410800EAFB04A801F059FC044602F0D3FC154B65
:10411800C3E9000102F0D6F821460A2201F058FB53
:10412800114B124A1B788DF8003011493C2302A824
:1041380000F02AFD039C7CB16368013B63605BB9B6
:10414800236820469B689847A368013BA3601BB976
:1041580023682046DB68984704A801F075FB08B07F
:1041680010BD00BFB8E30320D0E30320276F0D0084
:104178002F6F0D0010B51D4B1D4C1888012102F042
:104188004BF91C4B0121188802F046F91A4B002103
:10419800188802F041F92088012102F03DF9174BF7
:1041A8000121188802F038F92088012102F045F928
:1041B800002309221249134800F0B6FA0023092205
:1041C8001149124800F0B0FA002309221049114899
:1041D80000F0AAFA104A1149114800F09FFB114A51
:1041E80011491248BDE8104001F0FAB840E3032035
:1041F8002CE303203CE3032038E3032028E30320D7
:10420800C8E30320416F0D00B8E30320366F0D00AB
:10421800C0E303204D6F0D00566F0D00B9400D002F
:10422800F9480D0001410D002F6F0D00E8E3032050
:104238002DE9F843052000F00FFB234E234BD6E968
:104248000045D3E90089204642464B46294602F0FC
:10425800F7FC374680B100221D4B2046294602F064
:10426800EFFC48B11B4B2046D3E90023294602F056
:10427800D5FAC6E9000117E042464B4620462946D2
:1042880002F0FCFCC8B10EA3D3E90023204629465E
:1042980002F0F4FC88B10F4B2046D3E900232946ED
:1042A80002F0BAFAC7E9000102F0F2FC0A4B014633
:1042B8001888BDE8F84302F0D9B8BDE8F88300BF14
:1042C800CDCCCCCCCCCCF43FB8E30320C0E3032066
:1042D80000806F4030E3032028E30320024B0022D4
:1042E8001A7000F05BB800BFD0E3032008B5024B9A
:1042F8001B685B68019308BD4802030008B5024BC0
:104308001B689B68019308BD4802030008B5024B6F
:104318001B681B69019308BD4802030008B5024BDE
:104328001B685B69019308BD4802030008B5024B8E
:104338001B681B6B019308BD4802030008B5024BBC
:104348001B685B6C019308BD4802030008B5024B6B
:104358001B68DB6C019308BD4802030008B5024BDB
:104368001B685B6D019308BD4802030008B5024B4A
:104378001B68DB6E019308BD4802030008B5024BB9
:104388001B689B68019308BD1802030008B5024B1F
:104398001B685B69019308BD1802030008B5024B4E
:1043A8001B681B68019308BD2C02030008B5024B6B
:1043B8001B685B68019308BD2C02030008B5024B1B
:1043C8001B689B68019308BD2C02030008B5024BCB
:1043D8001B68DB68019308BD2C02030008B5024B7B
:1043E8001B681B69019308BD2C02030008B5024B2A
:1043F8001B689B6A019308BD2C02030008B5024B99
:104408001B689B6F019308BD2C02030008B5024B83
:104418001B681B6A019308BD2802030008B5024BFC
:104428001B685B6A019308BD2802030008B5024BAC
:104438001B689B6A019308BD2802030008B5024B5C
:104448001B68DB6A019308BD2802030008B5024B0C
:104458001B681B6B019308BD2802030008B5024BBB
:104468001B685B6B019308BD2802030008B5024B6B
:104478001B681B6C019308BD2802030008B5024B9A
:104488001B681B69019308BD6C02030008B5024B49
:104498001B685B69019308BD6C02030008B5024BF9
:1044A8001B689B69019308BD6C02030008B5024BA9
:1044B8001B685B6D019308BD6C02030008B5024BD5
:1044C8001B689B6D019308BD6C02030008B5024B85
:1044D8001B685B69019308BD6402030008B5024BC1
:1044E8001B689B69019308BD6402030008B5024B71
:1044F8001B681B6A019308BD6402030008B5024BE0
:104508001B685B6A019308BD6402030008B5024B8F
:104518001B689B6A019308BD6402030008B5024B3F
:104528001B689B68019308BD6802030008B5024B2D
:104538001B68DB68019308BD6802030008B5024BDD
:104548001B685B68019308BD3802030008B5024B7D
:104558001B689B69019308BD3802030008B5024B2C
:104568001B68DB69019308BD3802030008B5024BDC
:104578001B68DB6A019308BD3802030008B5024BCB
:104588001B685B6B019308BD3802030008B5024B3A
:104598001B689B6B019308BD3802030008B5024BEA
:1045A8001B68DB69019308BD3002030008B5024BA4
:1045B8001B681B6A019308BD3002030008B5024B53
:1045C8001B681B68019308BD3C02030008B5024B39
:1045D8001B68DB68019308BD3C02030008B5024B69
:1045E8001B681B69019308BD3C02030008B5024B18
:1045F8001B685B69019308BD3C02030008B5024BC8
:104608001B689B69019308BD3C02030008B5024B77
:104618001B68DB69019308BD3C02030008B5024B27
:104628001B681B6A019308BD3C02030008B5024BD6
:104638001B689B6A019308BD3C02030008B5024B46
:104648001B681B68019308BD4C02030008B5024BA8
:104658001B681B69019308BD4C02030008B5024B97
:104668001B685B69019308BD4C02030008B5024B47
:104678001B689B69019308BD4C02030008B5024BF7
:104688001B68DB69019308BD4C02030008B5024BA7
:104698001B681B6A019308BD4C02030008B5024B56
:1046A8001B681B6D019308BD6002030008B5024B2F
:1046B8001B685B68019308BD2002030008B5024B24
:1046C8001B685B69019308BD2002030008B5024B13
:1046D8001B68DB6C019308BD2002030008B5024B80
:1046E8001B685B6D019308BD2002030008B5034BEE
:1046F8001B68D3F88830019308BD0000200203002E
:1047080008B5034B1B68D3F89430019308BD00002B
:104718002002030008B5034B1B68D3F8A4300193AB
:1047280008BD00002002030008B5024B1B681B6887
:10473800019308BD4402030008B5024B1B685B687F
:10474800019308BD4402030008B5024B1B681B6AAD
:10475800019308BD4402030008B5024B1B68DB6BDC
:10476800019308BD4402030008B5024B1B685B684F
:10477800019308BD4002030008B5024B1B689B6803
:10478800019308BD4002030008B5024B1B68DB68B3
:10479800019308BD4002030008B5024B1B681B6962
:1047A800019308BD4002030008B5024B1B685B6912
:1047B800019308BD4002030008B5024B1B689B69C2
:1047C800019308BD4002030008B5024B1B68DB6972
:1047D800019308BD4002030008B5024B1B681B6A21
:1047E800019308BD4002030008B5024B1B681B6B10
:1047F800019308BD4002030008B5024B1B685B6BC0
:10480800019308BD4002030008B5024B1B681B68F2
:10481800019308BD1C02030008B5024B1B685B68C6
:10482800019308BD1C02030008B5024B1B689B6876
:10483800019308BD1C02030008B5024B1B68DB6A24
:10484800019308BD1C02030008B5024B1B681B6BD3
:10485800019308BD1C0203000021FFF72FBF10B50C
:10486800836804460BB901F088FEC3689847A368BB
:104878001BB103222146204698472046BDE8104038
:10488800FFF709BC70470020704710B50446FFF7D2
:1048980002FC204610BD08B508B1FFF7F6FF08BDB9
:1048A80010B58368044613B1032201469847204691
:1048B80010BD38B5C468D4B12378022B02D1E068A2
:1048C800FFF7AAFF65682DB12846FFF7E9FF2846DC
:1048D800FFF7E1FBA5682DB12846FFF7E1FF284661
:1048E800FFF7D9FB2046BDE83840FFF7D4BB38BDF9
:1048F80010B588B00446684600F0EDFF694604A884
:1049080001F00BF804A8A047044604A800F09CFF97
:10491800684600F099FF204608B010BDF0B5102495
:1049280085B007460E46154600212246684602F025
:10493800FBF9002269461046ADF80040029703963D
:104948000195FFF7F9FE05B0F0BD38B504680546D6
:104958007CB16368013B63605BB9236820469B6850
:104968009847A368013BA3601BB923682046DB680E
:104978009847284638BD13B5044691E8050000233A
:104988004B600B602060626001A801930093FFF701
:10499800DCFF204602B010BD0B68036013B15A68F3
:1049A80001325A607047F7B50C4602AD54F8043B23
:1049B80045F8083D06460F4601A82146FFF7ECFFDB
:1049C80029463046FFF7D7FF01A8FFF7BEFF20466C
:1049D800FFF7BBFF3846FFF75EFB304603B0F0BD7C
:1049E80013B50B46044603C88DE8030093E803009B
:1049F80084E803009DE8030083E8030002B010BDCB
:104A0800826810B50AB901F0B8FDC368BDE8104066
:104A1800184708B5006800F11001FFF7F1FF08BD5D
:104A2800826810B50AB901F0A8FDC368BDE8104056
:104A3800184708B5006800F11001FFF7F1FF08BD3D
:104A480038B5002383608B6804460D462BB10222DB
:104A58009847EB68E360AB68A360204638BD000068
:104A68002DE9F0414FF69C7386B00468B1F9042033
:104A78008B8000230F688DF800300B604FF0020028
:104A8800D4E84F1F994203D1C4E8450F002DF7D150
:104A980002D08DF800106AE014F10C051EBFE76023
:104AA80022821F460123BFF35F8F0020637004F149
:104AB8000803BFF35F8F53E8006F43E80002002A42
:104AC800F9D1BFF35F8F002E51D0FFF7FFFD20B162
:104AD80029463046FFF794FF43E031466846FFF722
:104AE800AFFFE068B4F9105008B102F037F904904C
:104AF8001020ADF81450FFF7CAFA054630B34FF04E
:104B08000008C0F808801820FFF7C1FA0446C0B1B1
:104B1800C0F8088001466846FFF762FF029BA2685A
:104B2800A360039B0292E268E360BDF81430A3829D
:104B38004FF69C73ADF81430049B03922361CDF8B3
:104B480010800E4BEB600E4B2C60AB600498FFF7A7
:104B580063FE6846FFF7A4FE002229460948FFF7CE
:104B6800BDFD3046FFF79CFE3046FFF794FA384605
:104B7800FFF752FE06B0BDE8F08100BF1B4A0D00EA
:104B8800794C0D0067480D002DE9F04F8BB007AD4B
:104B98004FF0000B0646994614200C230F4690460A
:104BA8009DF850A0C5F804B0C5F808B00793FFF702
:104BB8006EFA044638B180F800B080F801B0C0F849
:104BC80004B0C0F808B00023102003940493FFF742
:104BD8005EFA28B1012343608360234B0360C460FD
:104BE8000490224B08930820FFF751FA044628B195
:104BF800039B40F8043B04A9FFF7CEFE00955FFA3B
:104C08008AF34A46414638460994FFF79DFDB8B9EC
:104C1800039B5B7803F0FF0293B94FF69C7305A9D9
:104C280003A80592ADF81830FFF71AFF0598FFF7AB
:104C3800F3FD05A80999FFF7B6FE06A8FFF785FE5C
:104C4800039B059304A906A8FFF7A6FE05A930460D
:104C5800FFF791FE06A8FFF778FE04A8FFF775FE98
:104C680030460BB0BDE8F08F646F0D00E14D0D00CC
:104C7800022AF8B5044606D0032A17D0012A20D103
:104C88000B6803601DE018200E68FFF700FA054660
:104C980050B13146FFF7D4FE3069B6F9147008B147
:104CA80002F05CF82861AF8225600AE0046844B12C
:104CB8002069FFF7B1FD2046FFF7F2FD2046FFF718
:104CC800EAF90020F8BD38B5002383608B680446F4
:104CD8000D462BB102229847EB68E360AB68A360EE
:104CE800204638BD022A70B5044606D0032A11D0E2
:104CF800012A17D10B68036014E014200E68FFF72F
:104D0800C6F9054620B13146FFF7DDFF337C2B7429
:104D1800256007E004682CB12046FFF7C1FD204656
:104D2800FFF7B9F9002070BDF0B5002387B00C4635
:104D3800BFF35F8F50E8006F40E80032002AF9D1D6
:104D4800BFF35F8F002E3ED01846FFF7BFFC074623
:104D580020B121463046FFF763FE2EE0314601A818
:104D6800FFF7B1FF23788DF814301020FFF78FF983
:104D78000546D0B187601420FFF789F9044678B159
:104D88008760014601A8FFF72BFE039BA268A3607A
:104D9800049B0392E268E3609DF814300492237444
:104DA8000A4BEB600A4B2C60AB6001A8FFF778FD5B
:104DB800002229460748FFF791FC3046FFF770FDAF
:104DC8003046FFF768F907B0F0BD00BF3B4A0D0059
:104DD800ED4C0D0067480D0030B585B004460D4612
:104DE80068461146FFF7DFFD7CB124B228460DB1B5
:104DF80001F0B4FF029002A96846ADF80C40FFF735
:104E08002FFE0298FFF708FD1DE000988DF8084076
:104E18004FF00102D0E84F3FA34203D1C0E8412F31
:104E28000029F7D102D08DF808300CE010F10C0100
:104E38004FF0010318BF0373BFF35F8F043000F80E
:104E4800033CFFF771FF01A8FFF77FFD05B030BDF8
:104E5800002211464068FFF7BFBC00221146406897
:104E6800FFF7CABC00224068FFF7BEBC002281F0F1
:104E780001014068FFF7A8BC00231A46194640689C
:104E8800FFF79ABC00231A4619464068FFF78CBC06
:104E9800002211464068FFF77FBC00221146406897
:104EA800FFF76ABC002202214068FFF76DBC0023AF
:104EB8001A464068FFF758BC024B03225A60024A60
:104EC8001A607047D4E30320806F0D007047F8B56F
:104ED800064615460C468F18BC4206D0336814F8AF
:104EE800011B9B6830469847F6E72846F8BD002224
:104EF800007CFFF78BBA0021007CFFF78FBA0021F6
:104F0800007CFFF793BA0021007CFFF797BA0021D5
:104F1800007CFFF79BBA10B50446FFF7BCF82046A3
:104F280010BD000010B504464FF47A730846A3601C
:104F38000021044B207461602360FFF797FA204634
:104F480010BD00BFB46F0D000021007CFFF786BACA
:104F5800704710B50446FFF79EF8204610BDF0B51F
:104F6800037D062B8DB00E4600F104074FF00004B8
:104F780002D000F1080518E00CAD394605F8304DAF
:104F88002F232A460A20FFF7A1FA284601F001FF3D
:104F980033680246DB682946304698470FE024B15B
:104FA8002E21304600F0C0FB044415F8011D0A22EA
:104FB800304600F0E9FBBD420444F0D120460DB074
:104FC800F0BD000010B5054B0446112240F8043B23
:104FD800002101F0A9FE204610BD00BFDC6F0D00C6
:104FE8000346074A10B543F8042B01F1100251F8A3
:104FF800044B43F8044B9142F9D10A781A7010BD5A
:10500800DC6F0D00037D042B01D1406808E0062BFE
:105018000AD1436853B1836843B1C36833B10069A7
:10502800003018BF012070470020704718467047AD
:1050380010B59DF8084044EA032343EA024242EAD5
:10504800016104234160037510BD37B50D788B7875
:105058004A78C97800912946FFF7EAFF03B030BDC6
:10506800014B024A1A607047DCE303209B700D0075
:1050780010B5836804460BB1C06806E0406828B1E3
:1050880083680BB901F079FAC36898470123237440
:105098000020BDE81040FFF769B9002211464068BA
:1050A800FFF79ABB002211464068FFF7A5BB002214
:1050B8004068FFF799BB002281F001014068FFF7C3
:1050C80083BB00231A4619464068FFF775BB0023C7
:1050D8001A4619464068FFF767BB00221146406828
:1050E800FFF75ABB002211464068FFF745BB002274
:1050F80002214068FFF748BB00231A464068FFF7C3
:1051080033BB10B103685B681847704738B504466D
:105118000068D0B1FFF7F2F8B8B9237C1BB9206852
:1051280008B1FFF7F3F8656855B1AB681BB1032206
:105138002946284698472846FEF7ADFF00236360B6
:105148002068FFF7EBF80023236038BD38B50B4B18
:1051580003600446D0F8CC0108B1FEF79EFFD4F8EE
:10516800C4512DB12846FFF7D1FF2846FEF793FF1B
:10517800A06808B1FFF7C5FF204638BDCC700D0008
:105188000068FFF7E3B82DE9F84F0B9F9DF828B0AA
:105198000646884691469A4604460025236C4B45A8
:1051A80029D1636C534526D194F848305B4522D108
:1051B8004021404601F00AFE41460246204601F0E1
:1051C800F0FDC0B96FB10C21384601F0FFFD024671
:1051D80038B1582303FB05603946493001F0E1FD39
:1051E80004E0582000FB056595F84900B0FA80F006
:1051F8004009BDE8F88F0135052D04F15804CDD1DB
:105208000020BDE8F88F00002DE9F04F85B0074673
:105218009DF838A00F9E0196CDF800A0894602920D
:105228000393FFF7B0FF00283CD10446582303FB43
:105238000475D5F84080B8F1000F2ED140214846BA
:1052480001F0C4FD494683460246284601F061FD47
:10525800CBF14002414605EB0B0001F065FD029BD6
:105268002B64039B6B6485F849802EB10C21304672
:1052780001F0ACFD054600E0354658204443381996
:105288003C442A4631464930254401F042FD00207D
:1052980085F8490084F848A005E00134052CC6D1FA
:1052A800024800E0002005B0BDE8F08FFCFEFFFFDB
:1052B80007B5002301930093FFF7A6FF03B05DF83D
:1052C80004FB2DE9F341044608460D46904601F0DB
:1052D80060FD04F5DC760746236CABB1402120461F
:1052E80001F074FD874202460BD32946204601F09F
:1052F80001FD30B9009043462A4621465820FFF761
:1053080009FA5834B442E7D102B0BDE8F081000090
:1053180030B58DB004461122002101A801F004FD2A
:10532800062301AA09498DF814300A20FFF7D6F898
:1053380007AD01A906A8FFF753FE0FCD04340FC42B
:105348002B68237000200DB030BD00BFF8700D0031
:1053580030B5044689B000F5E070FFF711FF236807
:1053680083BB4C20FEF793FE054608B100F038FEDB
:105378002068256008B1FFF7C4FE206820B300222A
:105388004FF49A6100F05BFE08A9002501F8195D49
:105398001148FFF773F820689DF80720036849F261
:1053A80069011B6A984702A8FFF70CFE02A8FFF7DD
:1053B800AFFF002804DB02A9206800F0C6FE04E065
:1053C800054602E0002500E0044DD4F8C001FEF7D0
:1053D800C5FF284609B030BD05710D00FCFEFFFF72
:1053E8002DE9F341044600F5E0700F469046FFF7BB
:1053F800C7FED4F8BC61FEB91A49142001F0ACF814
:10540800054670B1184B83604FF4406306604660F0
:10541800C4600674032201930090144B1449FEF7EC
:1054280065FFD4F8BC61C4F8BC512EB13046FFF713
:105438006DFE3046FEF72FFE2046FFF789FF002855
:1054480007DB42463946201DFFF732FF00EAE075C8
:1054580000E00546D4F8C001FEF780FF284602B0F8
:10546800BDE8F081C8720D008D550D0079500D0012
:1054780009710D002DE9F041054600F5E0768AB086
:105488003046FFF77DFE2C68D5F8C001FEF766FFB1
:10549800002C63D0D5F8C43163B12368D5F8C411A2
:1054A8001F6B20464FF47A734FF49A62B847041E74
:1054B80013DC56E02D494FF49A6001F05CF8D5F8FA
:1054C800C431C5F8C40113B11846FEF7E6FDD5F896
:1054D800C431002BE1D1264844E02023254A029319
:1054E80000920023019402AA234903930120FFF7A5
:1054F800D5F8D5F8C4315F1C1B786BBB013C21463D
:10550800384601F063FC38B3241A002C07EB000876
:1055180022DD3B5C03BB013C0ED008F101082146AB
:10552800404601F053FC241A002C15DD18F8003011
:1055380093B9012C02D00FE0DFF844803046FFF722
:105548001FFE42463946281DFFF7BBFED5F8C001AD
:10555800FEF704FF002005E0084803E06420FEF79A
:105568000DFF20460AB0BDE8F08100BFC8720D00EB
:10557800FCFEFFFF18710D0011710D00E8FEFFFF22
:10558800FC6F0D0008B504462046FFF773FFFBE7E4
:1055980038B50D4C0D4B23600025022304F5E4704B
:1055A8006360A560C4F8C451C4F8C851FEF7C6FECC
:1055B800074BC4F8CC5123602046064A0649BDE88B
:1055C800384000F0BBBF00BFE0E3032030710D009E
:1055D800CC700D00B0E3032055510D0000231A468E
:1055E8004068FFF7C1B8002202214068FFF7CCB835
:1055F800002211464068FFF7BFB8002211464068F4
:10560800FFF7CAB800231A4619464068FFF7CCB816
:1056180000231A4619464068FFF7CEB8002281F0E9
:1056280001014068FFF7D0B800224068FFF7DCB8F6
:10563800002211464068FFF7DFB800221146406893
:10564800FFF7CAB870B58CB014460646FFF7BAFC27
:105658000CAB0022114643F8302D2046FEF766FFBA
:10566800014658BB009B4BB35A68022A0ED00A2A3F
:1056780024D15C69112201A801F056FB06238DF89C
:10568800143001AD04F10803183405E059693046B7
:105698000431FFF7DAFC11E0186859682A4603C29A
:1056A8000833A3421546F7D101A906A807ADFFF7AD
:1056B80097FC0FCD341D0FC42B6823700098FEF79C
:1056C8002DFF30460CB070BD024B034A1A60002211
:1056D8005A607047B0E5032030710D00F8B50646F2
:1056E8000D468F180024BD420CD0336815F8011BF5
:1056F8009B6830469847002801DB0444F3E7002CF8
:1057080008BF04462046F8BD70B505460C46084655
:1057180049B101F03EFB2B68024621462846DB686A
:10572800BDE87040184770BD03689B68184730B5DE
:105738008BB00B4600218DF82410012A98BF0A224D
:105748000DF12304B3FBF2F505FB123303F0FF035D
:10575800092B94BF30333733DBB2214604F80139C3
:105768002B46002DEED1FFF7CFFF0BB030BD10B4A4
:105778002AB903685DF8044B9B68C9B21847D2B2CE
:105788005DF8044BFFF7D3BFFFF7F1BF2DE9F041F8
:1057980007460E4615462AB90368C9B29B68BDE894
:1057A800F04118470A2A02D1002901DA04E0D2B2EE
:1057B800BDE8F041FFF7BBBF2D21FFF7B5FF2A4633
:1057C800044671423846FFF7B2FF2044BDE8F08135
:1057D800FFF7DCBF10B50446FFF762F8204610BD9E
:1057E8000348044A04490023836000F0A7BE00BFB1
:1057F800B8E50320B0E30320DD570D00704710B56E
:105808000446FEF748FC204610BD000070B5084B62
:105818000360044600250E4640F80C5FFEF786FD3F
:1058280030462671FEF7BAFEA560204670BD00BF5F
:1058380064710D000079FEF7B9BE704710B50446D3
:10584800FEF729FC204610BD10B504460068FEF797
:10585800E3FF204610BD10B50446006808B1FEF706
:10586800DBFF00232360A360636010BD38B50446E6
:105878000D4600680131FEF7D7FF10B184E821001A
:10588800012038BD10B50368044613B143688B4244
:1058980007D22046FFF7EAFF20B1A3680BB92268B8
:1058A8001370012010BD70B50E461146044615460A
:1058B800FFF7E8FF18B92046FFF7CDFF09E02A46B1
:1058C8003146A560206801F024FA2268A368002107
:1058D800D154204670BD38B50023044603604360A8
:1058E800836003730D4639B1084601F052FA294620
:1058F80002462046FFF7D7FF204638BD884210B53C
:105908000B46044607D0096819B19A68FFF7CBFF20
:1059180001E0FFF7A0FF204610BD10B500230446A4
:105928000360436083600373FFF7E8FF204610BD00
:1059380070B504460E4609B9002070BD6AB1836887
:10594800D5182946FFF79EFF0028F5D02068A368E0
:105958003146184401F0FAF9A560012070BD38B548
:10596800044680688568FFF7E3FFA3689868401BD2
:1059780038BD07B500238DF80410012201A98DF860
:105988000530FFF7D5FF03B05DF804FB08B5806864
:10599800FFF7EFFF08BD08B582680B4612B919B9C1
:1059A800012008BD11B90368187802E0006801F009
:1059B800C3F9B0FA80F0400908BD006808B101F0E9
:1059C80087B9704730B585B000230D460293036050
:1059D8004360836003731421064B019304460390CC
:1059E800FFF750FF2B6801A91B68284698472046F7
:1059F80005B030BD74710D00054B4FF69C72002048
:105A08005A804FF6FF7218709A80FEF74FBE00BF9B
:105A1800C8E50320024B1A68024B1A60704700BFA2
:105A280044E30320D0E5032010B40468246BA446A3
:105A38005DF8044B604703689B6C1847808E70477D
:105A4800028FC08E101A704713B502AB026803F8B4
:105A5800011DD46819460122A04702B010BD10B537
:105A680003681B690446984728B1E38EE26B591C0A
:105A7800E186D05C10BD4FF0FF3010BD10B5036853
:105A88001B690446984718B1E38EE26BD05C10BDE1
:105A98004FF0FF3010BD704710B403460846DC6B6A
:105AA800D98E1A8F0368521ADB6821445DF8044BBB
:105AB8001847A0F11000FFF7EFBFF0B503688DB0ED
:105AC8001C265B6A04460F46154698470123324652
:105AD800002105A8029301F027F98DF814603846D3
:105AE8000A268DF81560FEF711FD1122ADF8160093
:105AF80002213046FEF74AFD0028606124DB0422BB
:105B0800009202AB40F6FF71FEF720FDE0B995B1B7
:105B18000390ADF8100003A9E8B2FEF7B7FC98B9F6
:105B28000623009341F20B0203AB40F6FF71606954
:105B3800FEF70CFD40B91C2205A96069FEF7FEFCC2
:105B480010B96564012004E0236820465B6A984721
:105B580000200DB0F0BD10B504464069002801DBF7
:105B6800FEF7FCFC4FF0FF3363610023E3862387D5
:105B780010BD38B5C36B0546C08E13B12C6C241A02
:105B880000E01C46944228BF14462246184401F0FF
:105B9800C0F8EB8E2344EB86204638BD70B5036809
:105BA8001B6904460E461546984788B12368204667
:105BB8001B699847E38EE16B8542A8BF05461944E7
:105BC8002A46304601F0A5F8E38E2B44E38601E02F
:105BD8004FF0FF35284670BD70B50446054B44F8B4
:105BE800043B01F1200506460FCD0FC42B68237036
:105BF800304670BDDC6F0D00F0B59446026889B080
:105C0800976A0A4A02921D1D8E4606460FCD03ACBE
:105C18000FC42B682370BDF838300093624602AB7E
:105C280071463046B84709B0F0BD00BFDC6F0D00C3
:105C3800F0B50368B0F836E09F6A0D4B89B000F103
:105C48002006044602930FCE03AD0FC533682B70B0
:105C5800A38E0093724602ABE16B2046B8472368D7
:105C68000546DB6920469847284609B0F0BD00BFC5
:105C7800DC6F0D00F0B54378022B8DB005460C465D
:105C8800174601D1011D33E00A2B35D1112200211D
:105C980001A801F049F8AB6843B9EB6833B94FF68E
:105CA800FF702E69FEF722FC86421FD005F108031B
:105CB80001AE05F1180E18685968324603C2083358
:105CC80073451646F7D1062301A906A807AE8DF835
:105CD8001430FFF785F90FCE04340FC433682370EE
:105CE80057B16888FEF70AFC388005E005F1140111
:105CF8002046FFF7AAF9F3E70DB0F0BD2DE9F04112
:105D08008EB00EAB002506461746084643F8345DAC
:105D18002A462946FEF70AFC00281FDB019BFBB137
:105D28005B69EBB102A8FFF74DF9019B2A46586958
:105D380002A9FFF79FFF02A8FFF764F980B1336853
:105D480003ADD3F838800B4B08930FCD09AC0FC4C3
:105D58002B6823703A4608A93046C047044601E03C
:105D68004FF0FF340198FEF7D9FB20460EB0BDE88E
:105D7800F08100BFDC6F0D002DE9F047D0F81480EA
:105D8800B8F1000F98B005460C461746994600DB57
:105D980011B94FF0FF304EE04FF01C0A09AE5246E1
:105DA8000021304600F0C0FFCDF810A0B9F1000F77
:105DB80014D04FF47A72B9FBF2F1109102FB1191F1
:105DC8004A4308231192009341F2060210AB40F6B1
:105DD800FF714046FEF7BAFB08B12CE0082004AB7F
:105DE80001932146034600963A466869FEF7BEFBD2
:105DF800041E1FDB05F11C0705F134023046394645
:105E0800FFF738FF00262023394605A8109311967E
:105E1800FFF7D8FDAB8E0393059B0293074B0093C6
:105E280001200194334610AA0549FEF737FC05A85E
:105E3800FFF70AFD204618B0BDE8F087AD710D00E8
:105E480011710D0038B5054614462B7D062B084602
:105E580011D11C2313700A235370FEF757FB083423
:105E680024F8060C2B1D143553F8042B44F8042B86
:105E7800AB42F9D138BD042B08D11023137002238B
:105E88005370FEF743FB60806B68636038BD0000A9
:105E98002DE9F04F984691B02023002482468B4686
:105EA80004A841461646BDF8689008930994FFF780
:105EB80089FD049B029308AD154B164900932A46A9
:105EC80023460120CDF80C900196FEF7E7FB1C272E
:105ED80004A8FFF7B9FC3A462146284600F024FFFB
:105EE8002A4649464046FFF7ADFF9DF821304BB1A1
:105EF8008DE8A000234632465946DAF81400FEF72A
:105F08003DFB01E04FF0FF3011B0BDE8F08F00BF5E
:105F1800CA710D0011710D00F0B591B00C4606461E
:105F28000021154609A81C221F4600F0FDFE09AAFB
:105F380000212046FFF786FF9DF82530022B2ED141
:105F4800002305930A9B0493DDB102A92846FEF7B6
:105F5800A5FAB0B910A941F8340D0298FEF7A6FACF
:105F680060B9039B53B1DA6812685178022903D1EA
:105F780052680AB1059201E01B68F3E70398FEF73F
:105F88009DFA002F4FF00803009318BF032204ABBB
:105F980008BF042200213046FEF7D8FA1EE00A2B7B
:105FA8001AD104AC14220021204600F0BDFE0BAB30
:105FB8000FCB002F84E80F004FF01403009318BF95
:105FC8000C22234608BF0D22292130460895FEF7EA
:105FD800BDFA00EAE07001E04FF0FF3011B0F0BD0B
:105FE80038B54FF47A7383600B4B03F108026C33B6
:105FF800002503614FF0FF330446456002604361AA
:106008001C30FEF7DFFF4FF40073E5862587E56354
:1060180023646564204638BDF8710D0010B590F80A
:10602800483004461BB1C06B08B1FEF734F80023B2
:10603800E36384F848302364E386238710BD70B592
:10604800044616460D46FFF7E9FF0023E66323647E
:106058003EB935B12846FEF71CF80123E06384F801
:106068004830E36B03B12564206C003018BF012071
:1060780070BD70B5C26B04461AB9016C09B1FFF75F
:10608800DEFFE16B0023E386238741B1226C32B146
:106098002068056B2046A8470028C8BF20872368CA
:1060A80020461B69BDE8704018470000F0B591B064
:1060B80020230546002604A817460C46089309968F
:1060C800FFF780FC049B0193104B009308AA33460A
:1060D8000F4902970120FEF7E1FA04A8FFF7B4FB85
:1060E800EA6B22B9296C11B12846FFF7A8FF0434DE
:1060F8000FCC05F120060FC623683370286CAF86D5
:106108000023EB862B8711B0F0BD00BFE4710D00B2
:1061180011710D0010B5074B03F108026C330446EA
:1061280002600361FFF717FD2046FFF777FF20465F
:1061380010BD00BFF8710D0010B50446FFF7EAFF67
:106148002046FDF7A8FF204610BD024640690028FA
:1061580004DB012392F84420FFF7DEBE4FF0FF3046
:106168007047704741747047007CFEF75FBA007C47
:10617800FEF734BA007CFEF741BA007CFEF736BA67
:10618800007CFEF743BA10B50446FDF784FF2046AD
:1061980010BD70B5457C04460E4625B9007CFEF757
:1061A80045FA002805DD3146207CBDE87040FEF741
:1061B8000DBA284670BD000010B5044608461146C1
:1061C800002262604FF47A72A260054A22600122BE
:1061D800207462741A46FEF7F1F9204610BD00BF1C
:1061E80070720D00007CFEF719BA000038B50C4D2E
:1061F800296811F0010411D12846FDF750FF68B154
:10620800084A094B09482146FFF7D6FF2846FDF7FB
:106218004BFF074A0749054800F090F9034838BD85
:106228006CE6032070E60320E8E50320D4E50320AC
:10623800B0E303206B610D00417470477047002183
:10624800007CFEF713BA0121007CFEF70FBA007C30
:10625800FEF704BA007CFEF7F9B938B50446007CAD
:106268000D46FEF7FBF9002801DC607C20B12946C9
:10627800207CFEF703FA012038BD007CFEF706BA41
:1062880010B50446FDF707FF204610BD10B50446BB
:10629800002363604FF47A73A360054B23600123E6
:1062A8000846217463741146FEF7C8F9204610BDEC
:1062B800A0720D0010B514220446002100F034FD30
:1062C800204610BD30B50E4D87B001A8FFF7F2FF8C
:1062D800296811F0010410D12846FDF7E0FE60B1ED
:1062E80001AA21460748FFF7D1FF2846FDF7DCFE43
:1062F800054A0649034800F021F9024807B030BDB5
:10630800F4E60320F8E60320B0E3032045620D001D
:1063180008B50C4B33B1FFF7D5FF03681B699847E5
:10632800002809DC084B63B1FFF760FF03681B69AD
:106338009847002803DC08BDAFF30080F2E7AFF30D
:10634800008008BD000000000000000008B5FFF74D
:10635800DFFFFEF71BF8014B186008BD10E70320AC
:1063680007B5002300931A466FF07701FEF7C8F9C6
:1063780003B05DF804FB000007B543880A2B08D07A
:10638800502B09D1094B1B683BB103B05DF804EBF6
:106398001847FFF7E5FF06E0002300931A466FF061
:1063A8007701FEF7ADF903B05DF804FB0CE70320B5
:1063B80008B500210448FEF7CFF900210348BDE8DD
:1063C8000840FEF793B900BF0000000081630D008C
:1063D80010B504460F48FFF72DFA28B1A4F10B03B6
:1063E800022B01D8002010BD00F066F8FEF7ACFDC6
:1063F80008B1012CF6D9FFF7F9FEFFF7F3FE18B143
:10640800A4F10903012BEDD91E2C8CBF002001201B
:1064180010BD00BF2CE703201E2838B504460D46E2
:106428000AD8FF2908D0FFF7D3FF28B1294620460C
:10643800BDE83840FDF7C2BF38BD38B504460D4643
:10644800FDF7C4FFFF2810D0062804D84D2323FAEF
:1064580000F0C30709D42046FFF7BAFF28B1294640
:106468002046BDE83840FDF7B9BF38BD38B5044609
:106478000D46FFF7ADFFF0B104212046FDF796FF6A
:10648800042805D1A9B22046BDE83840FDF7AEBFC3
:1064980002212046FDF78AFF02280CD12046FDF78D
:1064A80095FF012801D0042805D129462046BDE8DA
:1064B8003840FDF7A3BF38BD38B50B4D296811F03A
:1064C80001040FD12846FDF7EAFD58B121460748D7
:1064D800FEF728FD2846FDF7E7FD054A054903486C
:1064E80000F02CF8014838BD14E7032018E7032012
:1064F800B0E30320D54E0D0070B50C4C0C4E0D4D7D
:1065080000212046FFF782F920460B4C32462946E7
:1065180000F014F801212046FFF778F932462946A1
:106528002046BDE8704000F009B800BF2CE7032002
:10653800B0E3032005580D003CE703200B46014655
:10654800184600F0C9BB0000024B1868BFF35F8F04
:10655800704700BF4CE7032010B5002814BF04465D
:1065680001242046FEF750F920B9FFF7EDFF08B1E6
:106578008047F6E710BDFFF7EFBF08B5FEF75CF9F7
:10658800244B1A68D0075CBF01221A60224B1A6894
:10659800D1075CBF01221A60204B1A68D2075CBF82
:1065A80001221A601E4B1A68D0075CBF01221A60CC
:1065B8001C4B1A68D1075CBF01221A601A4B1A6873
:1065C800D2075CBF01221A60184B1A68D0075CBF5B
:1065D80001221A60164B1A68D1075CBF01221A60A3
:1065E800144B1A68D2075CBF01221A60124B1A6852
:1065F800D0075CBF01221A60104B1A68D1075CBF34
:1066080001221A600E4B1A68D2075CBF01221A6079
:10661800704700BF7CE7032078E7032074E7032076
:1066280070E703206CE7032068E7032064E7032092
:1066380060E703205CE7032058E7032054E70320C2
:1066480050E70320184B1A68D1075CBF01221A6073
:10665800164B1A68D2075CBF01221A60144B1A68DD
:10666800D0075CBF01221A60124B1A68D1075CBFC1
:1066780001221A60104B1A68D2075CBF01221A6007
:106688000E4B1A68D0075CBF01221A600C4B1A68BF
:10669800D1075CBF01221A600A4B1A68D2075CBF97
:1066A80001221A60704700BF9CE7032098E7032087
:1066B80094E7032090E703208CE7032088E7032072
:1066C80084E7032080E70320184B1A68D1075CBFD2
:1066D80001221A60164B1A68D2075CBF01221A60A1
:1066E800144B1A68D0075CBF01221A60124B1A6853
:1066F800D1075CBF01221A60104B1A68D2075CBF31
:1067080001221A600E4B1A68D0075CBF01221A607A
:106718000C4B1A68D1075CBF01221A600A4B1A6831
:10672800D2075CBF01221A60704700BFBCE7032094
:10673800B8E70320B4E70320B0E70320ACE7032061
:10674800A8E70320A4E70320A0E70320244B1A6846
:10675800D0075CBF01221A60224B1A68D1075CBFC0
:1067680001221A60204B1A68D2075CBF01221A6006
:106778001E4B1A68D0075CBF01221A601C4B1A68AE
:10678800D1075CBF01221A601A4B1A68D2075CBF96
:1067980001221A60184B1A68D0075CBF01221A60E0
:1067A800164B1A68D1075CBF01221A60144B1A688D
:1067B800D2075CBF01221A60124B1A68D0075CBF6F
:1067C80001221A60104B1A68D1075CBF01221A60B7
:1067D8000E4B1A68D2075CBF01221A60704700BFCF
:1067E800ECE70320E8E70320E4E70320E0E70320E1
:1067F800DCE70320D8E70320D4E70320D0E7032011
:10680800CCE70320C8E70320C4E70320C0E7032040
:1068180081F0004102E000BF83F0004330B54FEA49
:1068280041044FEA430594EA050F08BF90EA020FB6
:106838001FBF54EA000C55EA020C7FEA645C7FEA49
:10684800655C00F0E2804FEA5454D4EB5555B8BF6C
:106858006D420CDD2C4480EA020281EA030382EADD
:10686800000083EA010180EA020281EA0303362D6F
:1068780088BF30BD11F0004F4FEA01314FF4801C42
:106888004CEA113102D0404261EB410113F0004F54
:106898004FEA03334CEA133302D0524263EB43030B
:1068A80094EA050F00F0A780A4F10104D5F1200EA9
:1068B8000DDB02FA0EFC22FA05F2801841F1000104
:1068C80003FA0EF2801843FA05F359410EE0A5F1D8
:1068D80020050EF1200E012A03FA0EFC28BF4CF009
:1068E800020C43FA05F3C01851EBE37101F00045BF
:1068F80007D54FF0000EDCF1000C7EEB00006EEBCC
:106908000101B1F5801F1BD3B1F5001F0CD3490855
:106918005FEA30004FEA3C0C04F101044FEA4452AC
:1069280012F5800F80F09A80BCF1004F08BF5FEA33
:10693800500C50F1000041EB045141EA050130BD13
:106948005FEA4C0C404141EB010111F4801FA4F1B6
:106958000104E9D191F0000F04BF01460020B1FA0B
:1069680081F308BF2033A3F10B03B3F120020CDA43
:106978000C3208DD02F1140CC2F10C0201FA0CF021
:1069880021FA02F10CE002F11402D8BFC2F1200C86
:1069980001FA02F120FA0CFCDCBF41EA0C0190403C
:1069A800E41AA2BF01EB0451294330BD6FEA040485
:1069B8001F3C1CDA0C340EDC04F11404C4F1200270
:1069C80020FA04F001FA02F340EA030021FA04F382
:1069D80045EA030130BDC4F10C04C4F1200220FAD9
:1069E80002F001FA04F340EA0300294630BD21FA17
:1069F80004F0294630BD94F0000F83F4801306BFDD
:106A080081F480110134013D4EE77FEA645C18BFD0
:106A18007FEA655C29D094EA050F08BF90EA020F67
:106A280005D054EA000C04BF1946104630BD91EA5F
:106A3800030F1EBF0021002030BD5FEA545C05D162
:106A48004000494128BF41F0004130BD14F58004A1
:106A58003CBF01F5801130BD01F0004545F0FE4115
:106A680041F470014FF0000030BD7FEA645C1ABF4A
:106A7800194610467FEA655C1CBF0B46024650EA81
:106A8800013406BF52EA033591EA030F41F40021AD
:106A980030BD00BF90F0000F04BF0021704730B533
:106AA8004FF4806404F132044FF000054FF0000108
:106AB80050E700BF90F0000F04BF0021704730B5C9
:106AC8004FF4806404F1320410F0004548BF40429E
:106AD8004FF000013EE700BF42004FEAE2014FEAF3
:106AE80031014FEA02701FBF12F07F4393F07F4FCE
:106AF80081F06051704792F0000F14BF93F07F4F00
:106B0800704730B54FF4607401F0004521F0004142
:106B180020E700BF50EA010208BF704730B54FF0C8
:106B280000050AE050EA010208BF704730B511F0CD
:106B3800004502D5404261EB41014FF4806404F105
:106B480032045FEA915C3FF4DCAE4FF003025FEA87
:106B5800DC0C18BF03325FEADC0C18BF033202EB0F
:106B6800DC02C2F1200300FA03FC20FA02F001FA69
:106B780003FE40EA0E0021FA02F11444C1E600BF08
:106B88004FF0FF3C06E000BF4FF0010C02E000BFF1
:106B98004FF0010C4DF804CD4FEA410C7FEA6C5CD4
:106BA8004FEA430C18BF7FEA6C5C1BD001B050EA77
:106BB800410C0CBF52EA430C91EA030F02BF90EA62
:106BC800020F0020704710F1000F91EA030F58BF21
:106BD800994208BF90422CBFD8176FEAE37040F083
:106BE800010070474FEA410C7FEA6C5C02D150EA21
:106BF800013C07D14FEA430C7FEA6C5CD6D152EADC
:106C0800033CD3D05DF8040B704700BF84461046A0
:106C180062468C461946634600E000BF01B5FFF79F
:106C2800B7FF002848BF10F1000F01BD4DF808ED6F
:106C3800FFF7F4FF0CBF012000205DF808FB00BF40
:106C48004DF808EDFFF7EAFF34BF012000205DF89A
:106C580008FB00BF4DF808EDFFF7E0FF94BF0120E7
:106C680000205DF808FB00BF4DF808EDFFF7CEFFE8
:106C780094BF012000205DF808FB00BF4DF808ED27
:106C8800FFF7C4FF34BF012000205DF808FB00BFF8
:106C98004A0011D212F5001211D20DD56FF4787393
:106CA800B3EB62520ED44FEAC12343F0004343EAE8
:106CB800505323FA02F070474FF00000704750EA33
:106CC800013002D14FF0FF3070474FF0000070479D
:106CD8000A22002100F00CB910B5054C13462CB15E
:106CE8000A4601460220AFF3008010BD204610BDC1
:106CF8000000000010B501390244904207D010F896
:106D0800013B11F8014FA342F7D0181B10BD00201A
:106D180010BD10B5431E0A44914204D011F8014B2E
:106D280003F8014FF8E710BD02440346934202D02E
:106D380003F8011BFAE7704710F8012B11F8013B23
:106D4800012A28BF9A42F7D0D01A7047034611F893
:106D5800012B03F8012B002AF9D17047024B014699
:106D6800186800F003B800BFACE3032070B506460E
:106D780008460C4600F00DF8451C29463046FDF73C
:106D880063FD064618B12A462146FFF7C2FF304682
:106D980070BD034613F8012B002AFBD1181A0138DD
:106DA800704730B582B1451E013915F8013F11F819
:106DB800014FA34206D1EC431444E04201D0002B1A
:106DC800F3D11C46181B30BD104630BD10B5034624
:106DD80001448B4204D01A785C1C0AB12346F8E7B8
:106DE800181A10BD2DE9F04780464048D0F80090A9
:106DF8000F463D4615F8014B09EB0400407800F0BA
:106E0800080000F0FF0608B12F46F2E72D2C03D149
:106E1800BD1C7C78012603E02B2C04BF7C78BD1CAC
:106E280013B1102B0AD15BE0302C57D1287800F031
:106E3800DF0058284DD16C7810230235002E14BF7E
:106E48004FF0004C6FF0004C0027BCFBF3FA3846BB
:106E580003FB1ACC09EB040E9EF801E01EF0040FA8
:106E680001D0303C0BE01EF0030E1BD0BEF1010F29
:106E78000CBF4FF0370E4FF0570ECEEB0404A34271
:106E880010DDB7F1FF3F0AD0504506D801D164455F
:106E980003DC03FB0040012701E04FF0FF3715F842
:106EA800014BD7E77B1C0CD1002E4FF0220314BFF7
:106EB8004FF000406FF00040C8F800302AB9BDE834
:106EC800F08706B1404272B107B1691E1160BDE892
:106ED800F0873024002BB1D10823AFE70A23ADE7B0
:106EE800302CA3D0AAE7BDE8F08700BF48E3032011
:106EF80013460A46014602480068FFF773BF00BF01
:106F0800ACE303201D400D0059400D0085400D00E5
:106F180089400D00000000006F6E006F6666007407
:106F2800657374696E67006368616E67655F627236
:106F3800696768746E65737300616E616C6F6776FC
:106F4800616C756500736574706F696E74006C654B
:106F58006400000000000000000000008D480D00E3
:106F680093480D00BB480D009F480D008F480D0049
:106F78000000000000000000B74E0D00AD4E0D00EF
:106F8800A34E0D00994E0D008D4E0D00814E0D0043
:106F9800754E0D006D4E0D00634E0D00594E0D00DF
:106FA8004D560D000000000000000000D54E0D00F9
:106FB8001F4F0D00F74E0D00D74E0D00FF4E0D0070
:106FC800074F0D000F4F0D00174F0D000000000078
:106FD80000000000674F0D00594F0D005B4F0D007A
:106FE8006C6E00666E00636F646500646574616949
:106FF8006C000D0A00253031307520005D20002C12
:10700800200028293A2000205B00636F6465203D3A
:10701800200025690064657461696C73203D200057
:10702800626175640053657269616C0053657269C9
:10703800616C31007479706500706172616D006314
:107048006D6400696400686E64007374726D006634
:10705800696C74006C766C0061646448616E646C81
:1070680065720072656D6F766548616E646C6572F5
:1070780000656E756D48616E646C657273004A5385
:107088004F4E53747265616D4C6F6748616E646CE6
:10709800657200617070006E6F6E65007472616376
:1070A8006500696E666F007761726E006572726F57
:1070B800720070616E696300616C6C000000000012
:1070C8000000000001510D00F7500D00ED500D00BB
:1070D800E3500D00D7500D00CB500D00BF500D00F0
:1070E800B7500D00AD500D00A3500D004D560D00CA
:1070F800666630333A3A313A3130303100746831AB
:10710800006D65736870756200776972696E6700F3
:107118007061727365207061636B6574202564000B
:107128000000000000000000E5550D00EF550D00BF
:10713800F9550D0003560D000D560D0019560D009A
:1071480025560D0031560D0039560D0043560D00D9
:107158004D560D00000000000000000005580D000D
:1071680007580D00000000000000000043580D0003
:1071780045580D0095590D0067590D005A00252BEB
:107188003033643A253032750025592D256D2D256B
:10719800645425483A254D3A2553257A006173638E
:1071A80074696D6500726563656976656420256438
:1071B8002062797465732066726F6D2025732325AC
:1071C800640073656E645061636B65742073697ADB
:1071D800652025642C202573232564006265676972
:1071E8006E207061636B657420257323256400002D
:1071F80000000000000000001D610D0041610D004D
:10720800515A0D007B5B0D00495A0D00675A0D005D
:10721800855A0D009F5A0D00C35A0D005F5B0D0083
:10722800995E0D00015C0D00815D0D00315A0D0065
:10723800B5600D00055D0D00395C0D007B600D002B
:10724800A55B0D003F5A0D00E15B0D00455A0D008E
:10725800A15A0D00F0FFFFFF00000000BB5A0D000F
:1072680000000000000000006B610D008F610D0040
:107278009B610D00E5560D0077610D0083610D00DF
:107288007D610D0089610D006D610D0071610D005A
:10729800000000000000000045620D0089620D003A
:1072A80063620D00E5560D005D620D0047620D003A
:1072B8004F620D0083620D0057620D0041620D00A0
:1072C80000002020202020202020202828282828CE
:1072D80020202020202020202020202020202020A6
:1072E80020208810101010101010101010101010FE
:1072F80010100404040404040404040410101010FE
:1073080010101041414141414101010101010101B8
:107318000101010101010101010101010110101028
:10732800101010424242424242020202020202028B
:1073380002020202020202020202020202101010FB
:107348001020000000000000000000000000000005
:107358000000000000000000000000000000000025
:107368000000000000000000000000000000000015
:107378000000000000000000000000000000000005
:1073880000000000000000000000000000000000F5
:1073980000000000000000000000000000000000E5
:1073A80000000000000000000000000000000000D5
:1073B80000000000000000000000000000000000C5
:1073C80000000000000000000000000000000000B5
:1073D80000000000000000000000000000000000A5
:1073E8000000000000000000000000000000000095
:1073F8000000000000000000000000000000000085
:107408000000000000000000000000000000000074
:107418000000000000000000000000000000000064
:107428000000000043000000E5420D00C14E0D00C1
:1074380069500D0099550D00D1560D00E9570D0002
:10744800015A0D001D5A0D0001650D0089650D00DA
:107458004D660D00D1660D0055670D000000000057
:0874680000000000000000001C
:107470000F0000000E000000000000000000F03FC0
:10748000130000000700000006000000A5710D00B9
:10749000C9720D0000000000CC730D00EC730D00EC
:1074A0000C740D000000000000000000000000004F
:1074B000000000002C740D0000000000000000001F
:1074C00000000000000000000000000000000000BC
:1074D00000000000000000000000000000000000AC
:1074E000000000000000000000000000000000009C
:0874F000000000004CE3032042
:1074F800FFFFFFFF00000102030405060708090A51
:107508000B0C0D0E0F101112131415161718191A4B
:087518001B1C1D1E1F20280092
:047520007856341253
:04000003D0004018D1
:00000001FF
