:020000040808EA
:100000000000080820380808000006000A00050162
:080010000402BD040000000021
:10001800AC32080809480A4908B5884205D0094A97
:10002800824202D0121A02F0E9FF0748074A00216B
:10003800121A03F009F8064808BD00BF00040020A2
:10004800843708087404002074040020C40A0020BF
:10005800C40A002070B502F079FD074B074C1E4614
:10006800E41AA4080025A54204D056F8253098477C
:100078000135F8E770BD00BF44370808783708082D
:1000880000F048B808B500F061F8BDE8084002F093
:100098001FBD00F09DBB00F0A3BB000008B5034ADC
:1000A80000210C2000F0C8FAFEE700BF3104080860
:1000B8000078B0FA80F04009704701230370704758
:1000C8007047006A0368DB681847000010B50446EB
:1000D800094B036001F03AFC214601F036FE02F0BC
:1000E80007FC02F0EBFB2046044B40F8043B01F010
:1000F80033FD204610BD00BFE0320808C8320808AA
:1001080010B50446FFF7E2FF2046242102F003FE63
:10011800204610BD012110B5084602F067FD00F029
:10012800E7FA094C00221146606800F019FB38B163
:10013800BDE81040044B00221146586800F010BB7F
:1001480000F0CEFAEEE700BFB004002030B52B4B2C
:1001580089B0198804A84A1C1A800A2202F09FFA5A
:10016800274B049A1B7827498DF8003002A83C23B6
:1001780000F048FD039C7CB16368013B63605BB998
:10018800236820469B689847A368013BA3601BB976
:1001980023682046DB68984704A802F00EFA4FF45B
:1001A800FA6000F045FB00F0ABFA28BB164C174D7F
:1001B800236813F0010F09D12046FFF779FF28B112
:1001C80000F03AF928602046FFF777FF00F034F98D
:1001D8002B68C01AB0F57A6F0ED300F02DF90B4BCF
:1001E80001211860084602F012FD1E2000F020FBD5
:1001F8000021012002F00BFD09B030BDAE04002043
:100208009C040020F0320808A4040020A004002068
:1002180070B5054604684368142606FB0346A642E3
:1002280004D0204602F0C9F91434F8E7286800F031
:10023800D7FA284670BD8842F8B506460C461546DA
:1002480016D9904215D2A2F114056C1AA1F114071F
:100258000444AF421CD02CB12946204602F09DF937
:100268002B7C2374284602F0A8F9143D143CF0E7CF
:100278000ED0AC420CD02EB12146304602F08DF99A
:10028800237C3374204602F098F914341436F0E7CE
:10029800F8BD2DE9F04100230360436083604E6898
:1002A80004469E420F4624DD4FF0140808FB06F072
:1002B80000F08EFA0546E0B194E8060008FB021249
:1002C800FFF7B9FF206800F08BFA2560A6603E684A
:1002D8007B6808FB0368464509D02DB1314628469E
:1002E80002F0C1F9337C2B7414361435F3E77B68BC
:1002F80063602046BDE8F0812DE9F0412A4B8CB0BF
:10030800002401261E7000F09FF8009401940294C6
:1003180002F0EEFA254D80462F46694603A8FFF7FE
:10032800B8FF03A906A8FFF7B4FF214B06A947F8B1
:10033800043B09A8FFF7ADFF09AA3146384601F08A
:1003480066FE09A8FFF764FF06A8FFF761FF194BCF
:1003580003A82B60C5F82080FFF75AFF164B2B60C7
:1003680002F0C6FA4FF4165102F0A4FA01F0EEFAC0
:10037800294601F0E0FD6846FFF74AFF0F49104A99
:10038800284602F0C3FC4FF6FF720E4B02201C7089
:100398005C809A8000F068F92146304600F074F9D4
:1003A8000CB0BDE8F08100BF9C0400207804002058
:1003B800C8320808E4340808E0320808D5000808FC
:1003C80074040020A804002008B5024B1B68DB6BEE
:1003D800019308BD2000060808B5024B1B681B6B7B
:1003E800019308BDD001040808B5024B1B685B6C7B
:1003F800019308BDD001040808B5024B1B68DB6CEB
:10040800019308BDD001040808B5024B1B685B6D59
:10041800019308BDD001040808B5024B1B685B684E
:10042800019308BD9C01040808B5024B1B68DB68F2
:10043800019308BD9C01040808B5024B1B685B6961
:10044800019308BD9C01040808B5024B1B681B6892
:10045800019308BDB001040808B5024B1B689B68EE
:10046800019308BDB001040808B5024B1B68DB689E
:10047800019308BDB001040808B5024B1B681B694D
:10048800019308BDB001040808B5024B1B681B6A3C
:10049800019308BDAC01040808B5024B1B685B6AF0
:1004A800019308BDAC01040808B5024B1B689B6AA0
:1004B800019308BDAC01040808B5024B1B68DB6A50
:1004C800019308BDAC01040808B5024B1B681B6BFF
:1004D800019308BDAC01040808B5024B1B685B6BAF
:1004E800019308BDAC01040808B5024B1B681B6CDE
:1004F800019308BDAC01040808B5024B1B68DB6911
:10050800019308BDB401040808B5024B1B681B6AB7
:10051800019308BDB401040808B5024B1B689B6928
:10052800019308BDC401040808B5024B1B681B6A87
:10053800019308BDC401040808B5024B1B685B6A37
:10054800019308BDC401040808B5024B1B689B6AE7
:10055800019308BDC401040808B5024B1B68DB6A97
:10056800019308BDC401040808B5024B1B681B6B46
:10057800019308BDC401040808B5024B1B685B6BF6
:10058800019308BDC401040808B5024B1B689B6BA6
:10059800019308BDC401040808B5024B1B681B6C15
:1005A800019308BDC401040808B5024B1B68DB6C45
:1005B800019308BDC401040808B5024B1B681B68F9
:1005C800019308BD1C00060808B5024B1B685B6850
:1005D800019308BD1C00060808B5024B1B689B6800
:1005E800019308BD1C00060808B5024B1B681B696F
:1005F800019308BD1C00060808B5024B1B685B691F
:10060800019308BD1C00060808B5024B1B689B69CE
:10061800019308BD1C00060808B5024B1B68DB697E
:10062800019308BD1C00060808B5024B1B681B6A2D
:10063800019308BD1C00060808B5024B1B685B6BDC
:10064800019308BDA001020808B5024B1B68DB6EC8
:10065800019308BDA001020808B5024B1B681B6F77
:10066800019308BDA001020808B5024B1B685B682E
:10067800019308BDA401040808B5024B1B685B6917
:10068800019308BDA401040808B5024B1B68DB6A86
:10069800019308BDA401040808B5024B1B68DB6C74
:1006A800019308BDA401040808B5024B1B685B6DE3
:1006B800019308BDA401040808B5034B1B68D3F8CF
:1006C8009030019308BD0000A401040808B5034B4D
:1006D8001B68D3F89C30019308BD0000A4010408EE
:1006E80008B5024B1B689B68019308BDCC01040840
:1006F80008B5024B1B68DB68019308BDCC010408F0
:1007080008B5024B1B685B69019308BDCC0104085E
:1007180008B5024B1B681B6A019308BDCC0104088D
:1007280008B5024B1B68DB6B019308BDCC010408BC
:1007380008B5024B1B685B68019308BDC801040833
:1007480008B5024B1B689B68019308BDC8010408E3
:1007580008B5024B1B68DB68019308BDC801040893
:1007680008B5024B1B681B69019308BDC801040842
:1007780008B5024B1B685B69019308BDC8010408F2
:1007880008B5024B1B689B69019308BDC8010408A2
:1007980008B5024B1B68DB69019308BDC801040852
:1007A80008B5024B1B681B6A019308BDC801040801
:1007B80008B5024B1B681B6B019308BDC8010408F0
:1007C80008B5024B1B685B6B019308BDC8010408A0
:1007D80008B5024B1B681B68019308BDA0010408FB
:1007E80008B5024B1B685B68019308BDA0010408AB
:1007F80008B5024B1B689B68019308BDA00104085B
:1008080008B5024B1B685B6A019308BDA001040888
:1008180008B5024B1B68DB6A019308BDA0010408F8
:1008280008B5024B1B681B6B019308BDA0010408A7
:100838000021FFF721BF10B5836804460BB902F009
:1008480084FAC3689847A3681BB10322214620464F
:1008580098472046BDE81040102102F05CBA0022FB
:1008680011464068FFF77CBF2DE9FF41002604AC24
:10087800054610468846174644F8046D02F051FCB8
:10088800009681B2D8F8043022463846FFF79CFD1E
:1008980020B13146284600F08FFB03E02146284668
:1008A80000F082FB284604B0BDE8F0810022114622
:1008B8004068FFF775BF002211464068FFF780BF08
:1008C80000224068FFF774BF002281F001014068F0
:1008D800FFF75EBF00231A4619464068FFF750BF6E
:1008E80000231A4619464068FFF742BF0022114606
:1008F8004068FFF725BF002202214068FFF728BFA4
:1009080000231A464068FFF713BF000038B50C4CA7
:1009180028252A460021204602F096FB4FF0FF3397
:1009280063602580074C042320466360064B2C2512
:1009380040F8083B2A46002102F086FB258138BD95
:10094800E4040020B00400200833080870470020A1
:10095800704710B50446102102F0DDF9204610BD9D
:1009680008B508B1FFF7F5FF08BD10B58368044660
:1009780013B1032201469847204610BD38B5C46814
:10098800ECB12378022B02D1E068FFF729FF6568F4
:1009980035B12846FFF7E9FF1021284602F0BBF9D8
:1009A800A56835B12846FFF7E0FF1021284602F078
:1009B800B2F92046BDE83840142102F0ACB938BD80
:1009C80038B5046805467CB16368013B63605BB970
:1009D800236820469B689847A368013BA3601BB91E
:1009E80023682046DB689847284638BD13B5044677
:1009F80091E8050000234B600B602060626001A84D
:100A080001930093FFF7DCFF204602B010BD0B688E
:100A1800036013B15A6801325A607047F7B50C4643
:100A280006460F4654F8043B02AD45F8083D2146FA
:100A380001A8FFF7ECFF29463046FFF7D7FF01A8CA
:100A4800FFF7BEFF2046FFF7BBFF3846082102F03C
:100A580062F9304603B0F0BD13B50B46044603C82F
:100A68008DE8030093E8030084E803009DE8030091
:100A780083E8030002B010BD826810B50AB902F01D
:100A880064F9C368BDE81040184708B5006800F16C
:100A98001001FFF7F1FF08BD826810B50AB902F02E
:100AA80054F9C368BDE81040184708B5006800F15C
:100AB8001001FFF7F1FF08BD38B5002383608B688C
:100AC80004460D462BB102229847EB68E360AB68F9
:100AD800A360204638BD00002DE9F0414FF69C7315
:100AE80004684FF0020086B0B1F904208B8000231F
:100AF8000F688DF800300B60D4E84F1F994203D17E
:100B0800C4E8450F002DF7D102D08DF800106CE035
:100B180014F10C051CBFE7602282BFF35F8F18BF7A
:100B28001F4601236370BFF35F8F04F108030020A1
:100B380053E8006F43E80002002AF9D1BFF35F8F42
:100B4800002E52D0FFF7A8FD20B129463046FFF706
:100B580093FF43E031466846FFF7AEFFE068B4F91B
:100B6800105008B102F0C2FA04901020ADF81450E9
:100B7800FFF78FFA054630B34FF00008C0F8088039
:100B88001820FFF786FA0446C0B1C0F8088001466D
:100B98006846FFF761FF029BA268A360039B02926D
:100BA800E268E360BDF814300392A3824FF69C73A9
:100BB800ADF81430049BCDF8108023610E4B2C60E7
:100BC800EB600E4BAB600498FFF70AFE6846FFF730
:100BD800CCFE002229460A48FFF766FD3046FFF79B
:100BE800C4FE1021304602F096F83846FFF7F8FDAB
:100BF80006B0BDE8F08100BF930A0808F50C0808A4
:100C08003F0808082DE9F04F8BB007AD4FF0000BF7
:100C18000646994614200C230F4690469DF850A08E
:100C2800C5F804B0C5F808B00793FFF732FA0446D0
:100C380038B180F800B080F801B0C0F804B0C0F84E
:100C480008B00023102003940493FFF722FA28B178
:100C5800012343608360234BC4600360224B0490EC
:100C680008200893FFF715FA044628B1039B04A946
:100C780040F8043BFFF7CBFE00955FFA8AF34A463B
:100C8800414638460994FFF743FDB8B9039B5B78A2
:100C980003F0FF0293B94FF69C7305A903A80592C8
:100CA800ADF81830FFF718FF0598FFF799FD05A86C
:100CB8000999FFF7B3FE06A8FFF782FE039B04A974
:100CC80006A80593FFF7A3FE05A93046FFF78EFE99
:100CD80006A8FFF775FE04A8FFF772FE30460BB0B2
:100CE800BDE8F08F3C330808610E0808022AF8B501
:100CF800044606D0032A17D0012A21D10B680360C5
:100D08001EE018200E68FFF7C4F9054650B13146B9
:100D1800FFF7D2FE3069B6F9147008B102F0E6F9AF
:100D28002861AF8225600BE004684CB12069FFF7A9
:100D380057FD2046FFF719FE1821204601F0EBFF6A
:100D48000020F8BD38B5002383608B6804460D4643
:100D58002BB102229847EB68E360AB68A36020469A
:100D680038BD022A70B5044606D0032A11D0012ADC
:100D780018D10B68036015E014200E68FFF789F995
:100D8800054620B13146FFF7DDFF337C2B74256023
:100D980008E0046834B12046FFF7E7FD1421204637
:100DA80001F0B9FF002070BDF0B50C46BFF35F8FAE
:100DB80087B0002350E8006F40E80032002AF9D1DC
:100DC800BFF35F8F002E3FD01846FFF765FC07463C
:100DD80020B121463046FFF75FFE2EE0314601A8DC
:100DE800FFF7B0FF237810208DF81430FFF751F982
:100DF8000546D0B187601420FFF74BF9044678B157
:100E08008760014601A8FFF727FE039BA268A3603D
:100E1800049B0392E268E3609DF814300492237403
:100E28000A4B2C60EB600A4BAB6001A8FFF79DFDF5
:100E3800002229460748FFF737FC3046FFF795FDA3
:100E48001021304601F067FF07B0F0BDB30A08086B
:100E58006B0D08083F08080830B5044685B00D46F4
:100E680068461146FFF7DAFD7CB124B228460DB179
:100E780002F03CF9029002A96846ADF80C40FFF771
:100E88002BFE0298FFF7ACFC1DE04FF00102009822
:100E98008DF80840D0E84F3FA34203D1C0E8412F66
:100EA8000029F7D102D08DF808300CE010F10C01C0
:100EB8004FF0010318BF0373BFF35F8F043000F8CE
:100EC800033CFFF771FF01A8FFF77AFD05B030BDBD
:100ED8007047F8B5064615460C468F18BC4206D032
:100EE800336814F8011B9B6830469847F6E7284694
:100EF800F8BD0022007CFFF7C7BA0021007CFFF78D
:100F0800CBBA0021007CFFF7CFBA0021007CFFF7A5
:100F1800D3BA0021007CFFF7D7BA10B504461421D4
:100F280001F0F9FE204610BD10B5044608464FF4FE
:100F38007A73A360044B0021207461602360FFF77B
:100F4800D3FA204610BD00BF583308080021007CA2
:100F5800FFF7C2BA704710B50446082101F0DBFE5E
:100F6800204610BDF8B50F4600F10806051D0024FF
:100F780016F8011D0A22384601F09FFAAE420444D1
:100F880007D0002CF4D02E21384601F05DFA044435
:100F9800EEE72046F8BD0000024A026000224260E7
:100FA800704700BF80330808024A02600A6842603E
:100FB800704700BF80330808014A416002607047EB
:100FC8008033080810B59DF8084044EA032343EA33
:100FD800024242EA0161416010BD000037B5044D8C
:100FE80005609DF818500095FFF7ECFF03B030BD81
:100FF8008033080800F11002012312F8101C104673
:10100800012904D152F8041C03EB410304E002292E
:1010180004BF52F8041C5B18013B02F11002ECD12A
:1010280070470EB42DE9F04187B000AF07F13404E2
:1010380054F8046B054623463246102107F1080090
:101048007C60FFF7DDFB0F2816D900F1080323F0B9
:101058000703E846ADEB030D3246411C23466846BC
:101068007C60FFF7CDFB021E04DD2B6869469B6898
:1010780028469847C54607E030B12B6802469B686A
:1010880007F10801284698471C37BD46BDE8F041DE
:1010980003B0704710B5044603689B689847A36877
:1010A800013BA3602BB923682046BDE81040DB68EC
:1010B800184710BD13B5026802AB03F8011D946808
:1010C80019460122A04702B010BD8368FBB11A7807
:1010D800032A1AD8DFE802F00417021D052070471A
:1010E80002685B685268D05C2D2814D0A0F13003E8
:1010F800092B10D9742810D066280ED0A0F16E03E1
:1011080058425841704706207047002070471846DB
:10111800704704207047032070470220704710B5BD
:101128000446FFF7D2FF02280DD016D3042814D89E
:101138002268A36850685B680A2200211844BDE849
:10114800104002F0A5B82268A36852685B68D05CBA
:10115800A0F174035842584110BD002010BD10B5CD
:10116800436904465BB18068013BE0601030A060D1
:10117800206163612BB1FFF73DFFA06001E01846D5
:1011880010BD012010BD10B504467D21FFF792FF68
:1011980001232371204610BD08B50379012B02D025
:1011A800022B02D008BD2C2100E03A21FFF782FF74
:1011B80008BD10B50446FFF7EFFF20467B21FFF777
:1011C80079FF00232371204610BD000038B504467E
:1011D8000D46FFF7E1FF23682046DB682A460349EE
:1011E800984701232371204638BD00BF9B33080868
:1011F80038B504460D46FFF7CFFF23682046DB6865
:101208002A460349984701232371204638BD00BF69
:101218009E330808F8B50D46174622210446FFF705
:1012280049FF2A4629462F44BA4238D0164616F8AE
:10123800015B222D03D05C2D01D01F2D2DD82368F2
:10124800521A9B68204698475C212046FFF732FFD8
:101258000C2D19D007D8092D0FD00A2D12D0082D22
:1012680014D162210AE0222D05D05C2D03D00D2D6A
:101278000CD1722102E0294600E074212046FFF7D4
:1012880019FF09E06E21F9E76621F7E723682A4686
:10129800DB6809492046984731463246C4E79142FF
:1012A80004D02368521A9D682046A8472221204668
:1012B800FFF700FFF8BD00BFA933080870B5044662
:1012C8000D461646FFF768FF204632462946FFF7C7
:1012D800A1FF02232371204670BD70B504460D4658
:1012E8001646FFF759FF204632462946FFF792FF78
:1012F80001232371204670BD38B50C680368054684
:101308009C420CD014B1636801336360286828B12B
:101318004368013B43600BB9FFF7BCFE2C602846CD
:1013280038BD000010B50446002303604360104830
:10133800E360A060D1B10B78032B06D0B3B9136872
:1013480058684B68C35C6E2B08D0136858684B68A4
:101358000344A3608B6849685B1AE3601146204622
:1013680051F8043B40F8043BFFF7C6FF204610BD88
:101378000E340808002310B50446036043608360F8
:10138800C3600361436171B10B78012B0BD101F18B
:1013980010038360CB681146436151F8043B40F861
:1013A800043BFFF7A9FF204610BD002310B50446F3
:1013B80003604360816031B1114651F8043B40F845
:1013C800043BFFF799FF204610BD80680368DB687F
:1013D8001847704719B10B6808465B68184770478B
:1013E80019B10B6808465B68184770477047704723
:1013F800704738B504460D4600682E2101F062FE9C
:101408002368C31A2B6023B1037803B10130236822
:101418002060184638BD10B504460C2101F07BFC4D
:10142800204610BD10B50446042101F074FC204686
:1014380010BD10B50446042101F06DFC204610BD16
:1014480038B50C46054601F053FA844202D101F042
:101458004FFA05E001F088FA844205D101F084FAD8
:10146800BDE8384001F02ABA01F0A8F9844205D154
:1014780001F0A4F9BDE8384001F099B921462846A1
:10148800FFF7AEFF38BD08B501F026FEB0FA80F0D0
:10149800400908BD38B5054608460C4601F041FE2E
:1014A800214602462846BDE83840FFF716BF00002F
:1014B8002DE9F043914685B0494A1D46036A4FF02D
:1014C8000008074601A80E46019203938DF808808C
:1014D8000C9CFFF76EFE41464846FFF7B5F880467C
:1014E8004049012201A8FFF7E9FE4146FFF7D2FF74
:1014F8003EB13D49012201A8FFF7E0FE3146FFF762
:10150800C9FF3DB13949012201A8FFF7D7FE294695
:10151800FFF7C0FF2379DE070ED5A5682F212846DF
:1015280001F01CFE00B1451C3149012201A8FFF75A
:10153800C5FE2946FFF7AEFF23799D0707D52D493C
:10154800022201A8FFF7BAFEE168FFF73FFE237900
:10155800580716D525692E46334613F8012B3AB19C
:10156800202A01D11D4601E0282A01D01E46F3E7B2
:101578000222214901A8FFF7A1FE721B2946FFF7A5
:10158800ACFE2379190707D51C49012201A8FFF7EA
:1015980095FE6169FFF72CFE2379DA0608D5042247
:1015A80017490DEB0200FFF789FEA169FFF70EFE50
:1015B80023799B0607D51349062201A8FFF77EFE6B
:1015C800E169FFF767FF01A8FFF7DDFD386A02222E
:1015D80003680D49DB68984705B0BDE8F08300BF94
:1015E800B8330808443408085A340808D3340808BB
:1015F800F8330808FA330808FD3308086F34080878
:1016080000340808053408080C3408080068FEF798
:10161800F3BE70B5044608460D4601F082FD236806
:10162800024629462046BDE87040DB68184713B5D6
:10163800026802AB03F8011DD46819460122A047CD
:1016480002B010BD2DE9F041069D98462B790E4653
:1016580019070446174605D56B69544A0021006AE4
:1016680000F02DFFB8F1000F0DD05B212046FFF7E9
:10167800DEFF41462046FFF7CCFF23680222DB68E5
:101688004B49204698472B79DA0725D5D5F80880A5
:101698002F21404601F062FD08B100F101084146E2
:1016A8002046FFF7B6FF2B799B0709D53A2120463C
:1016B800FFF7BDFFEB683F4A0021206A00F0FFFEFC
:1016C8002B79022213F0040F236818BF3A49DB680C
:1016D80008BF3A49204698472B79580718D52969F1
:1016E8000A46134613F8010B38B1202801D11946D0
:1016F80001E0282801D01A46F3E72368521ADB686C
:101708002046984723680422DB682D4920469847DD
:1017180000213846FEF798FF01462046FFF779FF7B
:1017280023680222DB682549204698471EB13146C6
:101738002046FFF76EFF2B7913F0300F2DD023686A
:101748002049DB680222204698472B79D9060BD519
:1017580023680722DB681C4920469847AB691B4A67
:101768000021206A00F0ABFE2B799A0611D5DB0622
:1017780005D523680222DB680F492046984723686D
:1017880013492046DB680A229847E9692046FFF793
:1017980040FF5D212046FFF74AFF23682046BDE849
:1017A800F041DB6802220B49184700BF0F340808D4
:1017B800163408089B330808193408081E3408082A
:1017C8001C34080821340808243408082C34080874
:1017D8002F3408080C3408082DE9F04F07688B46A9
:1017E8003C46456891461422554385B00193AB1099
:1017F800184D02925D430123002D039323DD029BC4
:101808006E1003FB06F004EB0008B8F804A04A4683
:10181800D14528BF52465946205801F08AFC039BFF
:1018280048B9D14503D1019A13703546E4E78CBF16
:101838000120002000E0C00F0028F6D0AE1B08F100
:101848001404013EF1E7E41B0248A410604305B00C
:10185800BDE8F08FCDCCCCCCF0B5036985B0019153
:10186800067E13B309B300231D4604AF00F10C0430
:1018780047F8043D394601A8FFF7BBFD0146A0B172
:1018880004AB03F8055D039A2046FFF7A5FF9DF812
:101898000B3053B12368142404FB0034B4F9063028
:1018A8000834002BA8BFDEB2E4E7304605B0F0BD2F
:1018B80010B5094C2368DB070BD42046FEF7F8FB6C
:1018C80038B12046FEF7F9FB044A0549054801F0FE
:1018D8001DFA044810BD00BF0C0500207404002048
:1018E800F71308080004002010B5094C2368DB072B
:1018F8000BD42046FEF7DCFB38B12046FEF7DDFBB3
:10190800044A0549054801F001FA044810BD00BF22
:101918003C05002074040020F51308080404002086
:1019280038B5002504460560456085600561456158
:10193800856140F8245FFEF757FDFFF7B9FFE061C6
:10194800FFF7D2FF25732062204638BD10B50A4C38
:101958002368DB070ED42046FEF7AAFB50B10748E0
:10196800FFF7DEFF2046FEF7A8FB054A05490348B6
:1019780001F0CCF9014810BD100500201405002025
:1019880074040020DD1D08080023024A02490348A8
:10199800FEF762BEC11C0808511C0808D91B0808BC
:1019A80000231A4619461846FEF756BE73B5054673
:1019B800CE6851F8043B02AC44F8083D01A8FFF793
:1019C80026F8224631462846FFF7ACFC01A8FEF768
:1019D800F7FF284602B070BD73B505460E6951F889
:1019E800043B02AC44F8083D01A8FFF710F8224672
:1019F80031462846FFF7D9FC01A8FEF7E1FF284643
:101A080002B070BD73B505468E6851F8043B02AC50
:101A180044F8083D01A8FEF7FAFF22463146284659
:101A2800FFF7A8FC01A8FEF7CBFF284602B070BD5F
:101A380030B58BB00D46014604A8FFF7E3FF04A8B4
:101A4800FFF78DFBE8B104A96846FFF7AFFF0F4920
:101A58000298FFF718FD044610B12C1C18BF01248A
:101A680001A8FEF7ADFF002CE9D004A96846FFF7EE
:101A7800B3FF6846FFF753FB286001A8FEF7A0FFF5
:101A8800DDE705A8FEF79CFF0BB030BD3A34080827
:101A980037B50C461A492046154601F01DFB40B9DA
:101AA80000F026FF4FF4165100F004FF00F020FF6D
:101AB80023E01449204601F00FFB40B900F054FF21
:101AC8004FF4165100F0F6FE00F04EFF15E00E49F7
:101AD800204601F001FB78B902A94FF4165341F8EA
:101AE800043D2846FFF7A4FF00F068FE019900F0C6
:101AF8005BFE00F063FE00E0002003B030BD00BFD5
:101B08003F340808463408084934080870B50546C3
:101B180004684368142606FB0346A64205D004F170
:101B28000800FFF7F3FF1434F7E72868FEF758FEBC
:101B3800284670BD70B505460468436804EB031673
:101B4800A64204D0204600F038FD1034F8E7286893
:101B5800FEF746FE284670BD10B504460C30FFF768
:101B6800D5FF2046FFF7E6FF204610BD10B5044616
:101B7800034B40F8043BFFF7EFFF204610BD00BFC2
:101B8800C832080810B50446FFF7F0FF20462421A4
:101B980001F0C1F8204610BD10B50446024B0360A1
:101BA800FFF7E4FF204610BDD033080810B50446FF
:101BB800FFF7F2FF2046242101F0ADF8204610BDC2
:101BC80010B5044603681868FEF71EFC204610BDD1
:101BD8002DE9F04F9B461B4B85B05B688246C3F3EB
:101BE80008030E46904653BBFFF7B0FE0446243068
:101BF8000390FFF70BFD237BF3B9012323732568BB
:101C08006368F6B205EB83094D4513D055F8047B9C
:101C18004146381DFFF720FE8642F5D33B68CDF8D4
:101C280000B09B6838469E46324643465146774642
:101C3800B847E9E70023237303A8FFF7C1FF05B0FE
:101C4800BDE8F08F00ED00E02DE9F74F9946194BFC
:101C580007465B688846C3F30803164633BBFFF79D
:101C680075FE044624300190FFF7D0FC237BD3B9DE
:101C780001232373256863685FFA86FB05EB830AF3
:101C880055450ED055F8046B4946301DFFF7E4FD65
:101C98008345F5D333684246DB6839463046984772
:101CA800EEE70023237301A8FFF78AFF03B0BDE81E
:101CB800F08F00BF00ED00E02DE9F341154B04461D
:101CC8005B688846C3F30803FBB9FFF73FFE064687
:101CD80024300190FFF79AFC96E8A000462605EB11
:101CE8008707AF4207D101A8FFF76AFFB442B4BF24
:101CF800002001200AE055F8040B41460430FFF7A4
:101D0800ABFD8642A8BF0646EBE7002002B0BDE85F
:101D1800F08100BF00ED00E070B50446036842683A
:101D280003EB82029A4218460DD006680D68043308
:101D3800AE42F7D1011D521A01F06BF96368012018
:101D4800013B636070BD002070BD1FB504462430A0
:101D580001910390FFF75AFC01A92046FFF7DCFF29
:101D680020B903A8FFF72CFF04B010BD6368002B4F
:101D7800F7D1FFF715FEF4E770B504460569436926
:101D8800182606FB0356AE4215D005F11001204671
:101D9800FFF7C2FF63680BB9FFF702FEE069296924
:101DA8000368DB689847696919B1206A0368DB68CA
:101DB80098471835E7E725696369182606FB03562F
:101DC800B54204D0284600F0F8FB1835F8E70023A0
:101DD800636170BD73B5044602ADFFF7E1FD04F120
:101DE800240045F8040DFFF711FC2046FFF7C4FF57
:101DF8002846FFF7E5FE25696369182606FB0356A2
:101E0800B54204D0284600F0D8FB1835F8E7206919
:101E1800FEF7E6FC2068FEF7E3FC204602B070BD42
:101E280003680A6802600B6043684A6842604B6056
:101E380083688A6882608B60704710B50446002307
:101E4800036043608360FFF7EBFF204610BD8842C4
:101E5800F8B50446164625D9904224D2551A143DA1
:101E68002C44A1F11407A2F10C050026A5F10803E2
:101E78009F4237D084B155F8083C2946236035F88D
:101E8800043C04F10800A38035F9023CA660E38015
:101E9800E6602661FFF7C4FF2846FFF737FE143CCB
:101EA800143DE3E71ED001F108050027A5F108035A
:101EB8009E4217D084B155F8083C2946236035F86E
:101EC800043C04F10800A38035F9023CA760E380D4
:101ED800E7602761FFF7A4FF2846FFF717FE1434D1
:101EE8001435E3E7F8BDF8B54568836804469D42B4
:101EF8000E4617460EDB0135002D05DDA9000068EA
:101F0800FEF776FC20B9F8BD0068FEF769FC0020F2
:101F18002060A5602568626805EB860105EB8202F2
:101F2800521A081D01F075F845F8267063680120FB
:101F380001336360F8BD37B5044624300D4601907F
:101F4800FFF764FB2368616803EB810083421A464C
:101F580008D012680433AA42F8D101A8FFF730FE6E
:101F680000250EE02A462046FFF7BDFF054600285B
:101F7800F3D06368012B01D1FFF706FD01A8FFF735
:101F88001FFE284603B030BD8842F8B506460C4609
:101F9800154614D9904213D2A2F110056C1AA1F17A
:101FA80010070444AF4218D01CB12946204600F05F
:101FB800F4FA284600F001FB103D103CF2E70CD083
:101FC800AC420AD01EB12146304600F0E6FA20465F
:101FD80000F0F3FA10341036F2E7F8BD70B50E1EB3
:101FE80005460BDD3001FEF7F3FB044670B195E8BA
:101FF800060001EB0212FFF7C7FF00E00024286883
:10200800FEF7EEFB2C60AE60012070BD70BD2DE9BF
:10201800F04F92460023462295B0036043608360E8
:10202800C3600361436102760291DAF80410054641
:102038009942089309930A9340F39D8008A8FFF7F3
:10204800CDFF002840F097808EE021460BA800F0D5
:10205800A4FA0BA90FA8099E00F09FFA09990A9BF8
:102068009942C0F2CE80013108A8FFF7B7FF0028D7
:1020780040F0C7800FA800F0A0FA0BA800F09DFA66
:102088001434A742E1D10026B1460B960C960D9662
:10209800099B9E4280F2A880089A3301D358069380
:1020A800002B00F09F8014237343CDF81C900193FC
:1020B8000BAC07A906A8FFF79CF90746002800F013
:1020C800918014AB014603F8399D079A2046FFF723
:1020D80083FB9DF817800090B8F1000F53D1BDF82D
:1020E8001C300F97ADF840304FF6FF73CDF84480A1
:1020F800ADF84230CDF84880CDF84C806768A368C9
:102108009F424FDA009B14225343D4F800B0616811
:102118000BEB030702FB01B207F1140039460393E6
:10212800FFF795FEA7B10F9A039B11A94BF803205F
:10213800BDF8403007F10800BB80BDF94230C7F850
:102148000890FB80C7F80C90C7F81090FFF768FE5E
:1021580063680133636011A8FFF7D8FCB8F1000F7A
:1021680011D00BA8FFF7D2FC08A8FFF7E3FC28461C
:1021780015B0BDE8F08FDAF80040DAF8043014271B
:1021880007FB03477DE72368009A142404FB023405
:10219800069B1B7823BBDAF80030019A13441B7C9A
:1021A800E3801DE00137002F0FDD142303FB07F048
:1021B8000393FEF70DFB834678B194E80600039B72
:1021C80003FB0212FFF743FE00E0C3462068FEF758
:1021D80007FBC4F800B0A76094E74FF00108BAE71E
:1021E800083466E7013653E708A92846FFF718FEC2
:1021F8000BA905F10C00FFF713FE9DF808302B76AC
:10220800AFE7089B099A03EB061603EB0212314667
:1022180006F11000FFF7B8FE1EB10FA9304600F016
:10222800BCF9099B0133099324E700007FB50446F4
:102238000E460546084B114644F8043B01A8FEF734
:1022480028F801AA31462046FFF7E1FE01A8FDF76C
:10225800DFFF284604B070BDC8320808F0B50F4645
:102268008BB02B49384616461D46109C00F034FFAB
:1022780028BB002C49D0294601A8FFF7DEFD2549D7
:10228800242000F053FD0546B8B101A904A8FFF7C2
:10229800D4FD04A907A8FDF7FCFF07AA3146284684
:1022A800FFF7C4FF07A8FDF7B3FF1B4B2C622B6099
:1022B80004A8FDF7ADFF194B2B6001A81FE01849D2
:1022C800384600F009FFF0B9FCB1294604A8FFF729
:1022D800B4FD1049242000F029FD054670B104A979
:1022E80007A8FDF7D6FF07AA31462846FFF79EFF45
:1022F80007A8FDF78DFF084B2C622B6004A8FDF79B
:1023080087FF284602E0002000E020460BB0F0BD21
:102318009B340808DC350808E4340808D03308087A
:102328009F340808014A024B1A607047B034080805
:102338004005002000231A464068FEF7F9B900223C
:1023480002214068FEF704BA002211464068FEF7F1
:10235800F7B9002211464068FEF702BA00231A4670
:1023680019464068FEF704BA00231A461946406821
:10237800FEF706BA002281F001014068FEF708BAAC
:1023880000224068FEF714BA002211464068FEF7A2
:1023980017BA002211464068FEF702BAF0B5174690
:1023A80087B0054604A8FEF7F7FD002606AC3846B8
:1023B80044F80C6D00F0B5FE0A4B009681B25B68DC
:1023C80022463846FEF700F820B131462846FEF787
:1023D800F3FD03E021462846FEF7E6FD284607B050
:1023E800F0BD00BFB0040020024B034A1A6000226F
:1023F8005A6070474405002014350808F8B50646A9
:102408000D468F180024BD420CD0336815F8011B07
:102418009B6830469847002801DB0444F3E7002C0A
:1024280008BF04462046F8BD70B505460C46084668
:1024380049B100F076FE2B68024621462846BDE8E1
:102448007040DB68184770BD03689B68184738B54B
:102458000D210546FFF7F8FF0A2104462846FFF735
:10246800F3FF204438BD012A98BF0A2230B50B4635
:102478008BB000218DF824100DF12304B3FBF2F585
:1024880005FB1233DBB2092B94BF30333733DBB291
:10249800214604F801392B46002DEFD1FFF7C4FF80
:1024A8000BB030BD10B422B90368C9B29B6810BC28
:1024B8001847D2B210BCFFF7D6BFFFF7F3BF0CB472
:1024C8002DE9F04387B000AF07F1380454F8049BB6
:1024D80005460E4623464A461421381D3C60FEF741
:1024E8008FF9132805D8391D2846FFF79DFF0446A4
:1024F80013E000F1080323F00703E846ADEB030DF2
:10250800411C23464A4668463C60FEF779F969460D
:102518002846FFF789FF0446C5461EB12846FFF73F
:1025280096FF044420461C37BD46BDE8F04302B080
:10253800704710B50446FEF718FA204610BD000093
:10254800034800238360034A034900F0DFBB00BF50
:102558004C050020740400203B250808704710B57E
:102568000446102100F0D7FB204610BD70B5044684
:102578000E46074B0025036040F80C5FFDF72CFF63
:1025880030462671FDF7B8FFA560204670BD00BF34
:10259800483508080079FDF7B7BF0023036043609A
:1025A8008360037310B50C6804604C6844608C68E1
:1025B80084600B604B608B6010BD10B504460068EA
:1025C800FEF70EF9204610BD10B50446006808B1A4
:1025D800FEF706F900232360A360636010BD38B5D9
:1025E80004460D4600680131FEF702F910B184E88F
:1025F8002100012038BD10B50368044613B14368B3
:102608008B4207D22046FFF7EAFF20B1A3680BB937
:1026180022681370012010BD70B50E46114604469D
:102628001546FFF7E8FF18B92046FFF7CDFF09E088
:102638002A463146A560206800F0E0FC2268A368BD
:102648000021D154204670BD884210B50B4604467F
:1026580007D0096819B19A68FFF7DEFF01E0FFF7B4
:10266800B3FF204610BD10B5044600230360436045
:1026780083600373FFF7E8FF204610BD38B50546B1
:102688000C4641B1084600F04CFD2146024628465A
:10269800FFF7C2FF01E0FFF797FF284638BD10B5E6
:1026A800044600238AB023606360A360237308464E
:1026B80001A900F0B8F901A92046FFF7DFFF20467D
:1026C8000AB010BD4FF6FF72034B002018705880F7
:1026D8009A80FDF7C9BF00BF5C050020024B1A684D
:1026E800024B1A60704700BF0804002064050020F0
:1026F80070474174704708B5007CFDF74DFF20EA2C
:10270800E07008BD08B5007CFDF71EFF20EAE07008
:1027180008BD08B5007CFDF727FF30EA200028BF78
:102728004FF0FF3008BD08B5007CFDF715FF30EA13
:10273800200028BF4FF0FF3008BD007CFDF71CBF0C
:1027480010B50446142100F0E6FA204610BD70B515
:10275800457C04460E4625B9007CFDF71DFF002880
:1027680005DD3146207CBDE87040FDF7E5BE284612
:1027780070BD000010B5044608461146002262608C
:102788004FF47A72A260054A2074226001226274B2
:102798001A46FDF7C1FE204610BD00BF8435080863
:1027A8000023007CFDF700BF0022FFF7F9BF007C83
:1027B800FDF7BABE007CFDF7E7BE000038B50C4D4A
:1027C800296811F0010411D12846FDF771FC68B1A0
:1027D800084A2146084B0948FFF7CCFF2846FDF771
:1027E8006CFC074A0749054800F090FA034838BDD1
:1027F80000060020040600207C0500206805002053
:1028080074040020F926080841747047704708B519
:102818000021007CFDF7F8FE30EA200028BF4FF0C9
:10282800FF3008BD08B50121007CFDF7EDFE30EA58
:10283800200028BF4FF0FF3008BD08B5007CFDF729
:10284800DBFE20EAE07008BD08B5007CFDF7CCFE91
:1028580020EAE07008BD007CFDF7E6BE10B504462E
:10286800142100F058FA204610BD38B50446007C03
:102878000D46FDF7C1FE002801DC607C28B1294621
:10288800207CFDF7C9FE20EAE07038BD10B504468B
:10289800002363604FF47A73A360054B08462360F6
:1028A8000123217463741146FDF786FE204610BD8E
:1028B800B43508080022007CFDF786BE007CFDF7D1
:1028C8008BBE000010B504461422002100F0BCFBAA
:1028D800054B20466360054BE36040F201132381FA
:1028E8008123238210BD00BF0D0700208C06002025
:1028F80030B50E4D87B001A8FFF7E4FF296811F045
:10290800010410D12846FDF7D3FB60B101AA214686
:102918000748FFF7BBFF2846FDF7CFFB054A0649E6
:10292800034800F0F3F9024807B030BD88060020DC
:1029380010080020740400201528080810B5044663
:102948001422002100F080FB054B20466360054BF4
:10295800E36040F2011323818123238210BD00BF6D
:10296800C00800202808002010B50E4C86B001A829
:10297800FFF7E4FF2368DB0710D42046FDF798FB38
:1029880060B101AA01210848FFF780FF2046FDF742
:1029980094FB064A0649044800F0B8F9024806B014
:1029A80010BD00BF24080020AC08002074040020DB
:1029B8001528080810B5044600F0B3FB01382318A1
:1029C8002046984206D20278197800F8011B03F8CD
:1029D8000129F6E710BD70B50C46911E222920D8B2
:1029E8002546294610B9234430220EE0B0FBF2F602
:1029F80002FB1600C1B2092805F8011B94BF30314B
:102A0800573105F8011C3046EBE7994202D201F82C
:102A1800012BFAE7002320460B70FFF7CBFF204677
:102A280070BD002070BD38B5031E0C4615460BDA84
:102A3800B3F1004F4FF02D0214BF5842184601233E
:102A48000A702A46194400E00123FFF7C4FF204614
:102A580038BD000008B5184B33B1FFF749FF0368CC
:102A68001B69984700281EDC144B33B1FFF7A6FEFC
:102A780003681B699847002818DC114B0BB1AFF3AA
:102A88000080104B0BB1AFF300800F4B0BB1AFF3CD
:102A980000800E4B7BB1FFF767FF03681B699847FF
:102AA800002806DC08BDAFF30080DDE7AFF3008047
:102AB800E3E7AFF3008008BD00000000000000005D
:102AC80000000000000000000000000000000000FE
:102AD80008B5FFF7BFFFFDF7AFFC014B186008BD55
:102AE800CC0900200248034A0349121A00F086BAAA
:102AF80000400240044002408037080807B5002320
:102B080000931A466FF07701FDF7E0FD03B05DF81A
:102B180004FB000007B543880A2B08D0502B09D1C5
:102B2800094B1B683BB103B05DF804EB1847FFF78E
:102B3800E5FF06E0002300931A466FF07701FDF7E2
:102B4800C5FD03B05DF804FBC409002038B5104C7E
:102B5800104D2368AB42104B0CBF012200221A70A3
:102B680002D0FFF7BFFF2560FDF756FC044600F0D2
:102B780073FA0A4B13B12046AFF3008000210748CF
:102B8800FDF7CEFDBDE8384000210548FDF794BDAE
:102B9800004002401E1C279AC809002000000000BF
:102BA8001D2B080810B504460F48FFF7F3FC28B1A1
:102BB800A4F10D03022B01D8002010BD00F040F84D
:102BC800FEF7C4F908B1012CF6D9FFF7F7FDFFF7B6
:102BD800F1FD18B1A4F11203012BEDD92E2C8CBFF5
:102BE8000020012010BD00BFF00900202E2838B5B4
:102BF80004460D460AD8FF2908D0FFF7D3FF28B1AD
:102C080029462046BDE83840FDF726BC38BD38B512
:102C180004460D46FDF728FCFF2810D0062804D8E6
:102C28004D2323FA00F0C30709D42046FFF7BAFF63
:102C380028B129462046BDE83840FDF71DBC38BDFF
:102C480038B50B4D296811F001040FD12846FDF75E
:102C58002FFA58B121460748FEF766F92846FDF7CE
:102C68002CFA054A0549034800F050F8014838BDD8
:102C7800D0090020D409002074040020D90E0808C7
:102C880013B5084C00231A46194600932046FEF750
:102C9800A5F92046044A054902B0BDE8104000F0F5
:102CA80035B800BFE8090020740400205D0F08084B
:102CB80070B5114E114D124C00213046FFF756FCED
:102CC8003046104E2A46214600F020F801213046B1
:102CD800FFF74CFC30460C4E2A46214600F016F809
:102CE80002213046FFF742FC2A4621463046BDE81D
:102CF800704000F00BB800BFF009002074040020F9
:102D080065250808000A0020100A00200B46014625
:102D1800184600F065B9FDF7BEB90000024B186807
:102D2800BFF35F8F704700BF200A002010B500284E
:102D380014BF044601242046FDF74AFD20B9FFF7D9
:102D4800EDFF08B18047F6E710BD08B5FDF760FD57
:102D5800244B1A68D0075CBF01221A60224B1A68FC
:102D6800D1075CBF01221A60204B1A68D2075CBFEA
:102D780001221A601E4B1A68D0075CBF01221A6034
:102D88001C4B1A68D1075CBF01221A601A4B1A68DB
:102D9800D2075CBF01221A60184B1A68D0075CBFC3
:102DA80001221A60164B1A68D1075CBF01221A600B
:102DB800144B1A68D2075CBF01221A60124B1A68BA
:102DC800D0075CBF01221A60104B1A68D1075CBF9C
:102DD80001221A600E4B1A68D2075CBF01221A60E2
:102DE800704700BF500A00204C0A0020480A002003
:102DF800440A0020400A00203C0A0020380A00202B
:102E0800340A0020300A00202C0A0020280A00205A
:102E1800240A0020184B1A68D1075CBF01221A60E7
:102E2800164B1A68D2075CBF01221A60144B1A6845
:102E3800D0075CBF01221A60124B1A68D1075CBF29
:102E480001221A60104B1A68D2075CBF01221A606F
:102E58000E4B1A68D0075CBF01221A600C4B1A6827
:102E6800D1075CBF01221A600A4B1A68D2075CBFFF
:102E780001221A60704700BF700A00206C0A002007
:102E8800680A0020640A0020600A00205C0A00200A
:102E9800580A0020540A0020184B1A68D1075CBF52
:102EA80001221A60164B1A68D2075CBF01221A6009
:102EB800144B1A68D0075CBF01221A60124B1A68BB
:102EC800D1075CBF01221A60104B1A68D2075CBF99
:102ED80001221A600E4B1A68D0075CBF01221A60E3
:102EE8000C4B1A68D1075CBF01221A600A4B1A689A
:102EF800D2075CBF01221A60704700BF900A002009
:102F08008C0A0020880A0020840A0020800A0020F9
:102F18007C0A0020780A0020740A0020244B1A68D2
:102F2800D0075CBF01221A60224B1A68D1075CBF28
:102F380001221A60204B1A68D2075CBF01221A606E
:102F48001E4B1A68D0075CBF01221A601C4B1A6816
:102F5800D1075CBF01221A601A4B1A68D2075CBFFE
:102F680001221A60184B1A68D0075CBF01221A6048
:102F7800164B1A68D1075CBF01221A60144B1A68F5
:102F8800D2075CBF01221A60124B1A68D0075CBFD7
:102F980001221A60104B1A68D1075CBF01221A601F
:102FA8000E4B1A68D2075CBF01221A60704700BF37
:102FB800C00A0020BC0A0020B80A0020B40A002079
:102FC800B00A0020AC0A0020A80A0020A40A0020A9
:102FD800A00A00209C0A0020980A0020940A0020D9
:102FE80010B5054C13462CB10A4601460220AFF332
:102FF800008010BD204610BD0000000010B5431E23
:103008000A44914204D011F8014B03F8014FF8E744
:1030180010BD884210B501EB020301D8421E0BE037
:103028009842FBD28118D21AD34204D013F8014D2A
:1030380001F8014DF8E710BD994204D011F8014B91
:1030480002F8014FF8E710BD03460244934202D04C
:1030580003F8011BFAE7704738B5124B05461C68A0
:10306800A36BD3B91820FDF7B3FB43F20E33A0636B
:1030780003804AF6CD33438041F2342383804EF2F5
:103088006D63C3804DF6EC630381052343810B23F5
:10309800838101220023C0E90423A36B00221D6160
:1030A8005A6138BD70040020C9B2034610F8012BDC
:1030B8001AB19142F9D11846704700290CBF184639
:1030C8000020704710B50446FFF7EEFF18B92046F8
:1030D80000F027F8204410BD10F8012B11F8013B2F
:1030E800012A28BF9A42F7D0D01A7047024B0146EE
:1030F800186800F003B800BF7004002070B50646D9
:1031080008460C4600F00DF8451C29463046FDF7E8
:1031180087FB064618B12A462146FFF76FFF30465F
:1031280070BD034613F8012B002AFBD1181A013889
:10313800704730B582B1451E013915F8013F11F8C5
:10314800014FA34206D1EC431444E04201D0002BC6
:10315800F3D11C46181B30BD104630BD38B50346A8
:103168000D4641B1002429461846FFF79DFF30B1AE
:10317800431C0446F7E7BDE83840FFF795BF2046F3
:1031880038BD00002DE9F0470F4680463F48D0F88B
:1031980000903D4615F8014B09EB0400407800F01B
:1031A800080000F0FF0608B12F46F2E72D2C03D1E6
:1031B800BD1C7C78012603E02B2C04BF7C78BD1C49
:1031C80013B1102B0AD15BE0302C57D1287800F0CE
:1031D800DF0058284DD16C7810230235002E14BF1B
:1031E8004FF0004C6FF0004CBCFBF3FA0027384658
:1031F80003FB1ACC09EB040E9EF801E01EF0040F45
:1032080001D0303C0BE01EF0030E1BD0BEF1010FC5
:103218000CBF4FF0370E4FF0570ECEEB0404A3420D
:1032280010DDB7F1FF3F0AD0504506D801D16445FB
:1032380003DC03FB0040012701E04FF0FF3715F8DE
:10324800014BD7E77B1C0CD1002E4FF0220314BF93
:103258004FF000406FF00040C8F800302AB9BDE8D0
:10326800F08706B1404272B107B1691E1160BDE82E
:10327800F0873024002BB1D10823AFE70A23ADE74C
:10328800302CA3D0AAE7BDE8F08700BF0C040020CB
:1032980013460A46014602480068FFF773BF00BF9D
:1032A800700400201D0008085D000808890008084F
:1032B8008D00080800000000000000000000000069
:1032C8000000000000000000A5000808C900080868
:1032D8000000000000000000D500080809010808E7
:1032E8004D160808CB000808636F6E6E6563746935
:1032F80076697479000000000000000000000000FA
:1033080009090808FF080808F508080867080808F0
:10331800E9080808DD080808D1080808C9080808E5
:10332800BF080808B5080808710808080000000068
:1033380000000000550908085B0908088509080805
:103348006909080857090808000000000000000083
:10335800D90E0808230F0808FB0E0808DB0E08081A
:10336800030F08080B0F0808130F08081B0F08089D
:1033780000000000000000006D0F08085D0F08083D
:103388005F0F0808302E300066616C736500747238
:103398007565002564002575002567006E756C6CE1
:1033A800007525303478000000000000000000009F
:1033B800F91308081F140808D31308082B10080865
:1033C8000000000000000000A11B0808B51B080849
:1033D800B9140808DB13080800000000000000000A
:1033E800F51308083B140808991A0808491408082E
:1033F80066006C6E00666E00636F646500646574D9
:1034080061696C000D0A00253031307520005D209F
:10341800002C200028293A2000205B00636F646597
:10342800203D200025690064657461696C73203D46
:103438002000626175640053657269616C005553C0
:103448004253657269616C3100747970650070610E
:1034580072616D00636D6400696400686E64007376
:1034680074726D0066696C74006C766C00616464DB
:1034780048616E646C65720072656D6F766548614F
:103488006E646C657200656E756D48616E646C651E
:103498007273004A534F4E53747265616D4C6F6777
:1034A80048616E646C657200617070006E6F6E6565
:1034B80000747261636500696E666F007761726E91
:1034C800006572726F720070616E696300616C6C86
:1034D800000000000000000000000000751B080844
:1034E8008D1B08084D160808CB00080800000000CE
:1034F80000000000F71308082D14080865220808C2
:10350800DD13080800000000000000003D23080843
:1035180047230808512308085B230808652308087F
:10352800712308087D2308088923080891230808BF
:103538009B230808A52308080000000000000000DD
:1035480065250808672508085A00252B3033643A92
:10355800253032750025592D256D2D2564542548B3
:103568003A254D3A2553257A0061736374696D6570
:10357800000000000000000000000000F926080814
:103588004927080857270808052408080D270808A8
:103598002F2708081B27080843270808FB260808C0
:1035A800FF26080800000000000000001528080891
:1035B80065280808732808080524080851280808F9
:1035C800172808082D2808085F280808432808082D
:1035D8001128080800002020202020202020202852
:1035E80028282828202020202020202020202020B3
:1035F80020202020202088101010101010101010EB
:10360800101010101010040404040404040404042A
:1036180010101010101010414141414141010101A9
:103628000101010101010101010101010101010182
:10363800011010101010104242424242420202028F
:103648000202020202020202020202020202020252
:103658000210101010200000000000000000000000
:103668000000000000000000000000000000000052
:103678000000000000000000000000000000000042
:103688000000000000000000000000000000000032
:103698000000000000000000000000000000000022
:1036A8000000000000000000000000000000000012
:1036B8000000000000000000000000000000000002
:1036C80000000000000000000000000000000000F2
:1036D80000000000000000000000000000000000E2
:1036E80000000000000000000000000000000000D2
:1036F80000000000000000000000000000000000C2
:1037080000000000000000000000000000000000B1
:1037180000000000000000000000000000000000A1
:103728000000000000000000000000000000000091
:10373800000000000000000043000000010308082A
:10374800150908082D230808F12308084925080841
:10375800CD260808E5260808892C0808B92C080889
:10376800592D08081D2E0808A12E0808252F08081D
:08377800000000000000000049
:043780000000000045
:10378400FC340808E833080871350808DD350808F2
:1037940000000000E0360808003708082037080851
:1037A4000000000000000000000000000000000015
:1037B400403708080000000000000000000000007E
:1037C40000000000000000000000000000000000F5
:1037D40000000000000000000000000000000000E5
:1037E40000000000000000000000000000000000D5
:0437F400100400209D
:1037F800FFFFFFFF00000102030405060708090A8E
:103808000B0C0D0E0F101112131415161718191A88
:083818001B1C1D1E1F202800CF
:043820007856341290
:0400000508080018CF
:00000001FF
